:0E121700D29485801DA2909200A29192012295
:0E122500A2009290A2019291851D80C2942297
:1011C1007580FFC290D291D295AF80C295EF20E792
:0111D100F627
:0111D20022FA
:10115C00AE071212171211C1C290C2918E80D29595
:05116C00C295021225EE
:10117100AE071212171211C1D290C2918E80D29570
:05118100C295021225D9
:05000E007F0102115CFE
:051246007F0F02115CA6
:05124B007F0C02115CA4
:1011D300ED7004AC078004EF2440FCEC4480FF0274
:0211E300115C9D
:100F8D008B398A3A893B1211D3AB39AA3AA93B1254
:100F9D00003E6013053BE53B7002053A14F9120063
:080FAD003EFF12117180E222E7
:080003001211D3AF03021171C9
:101186007F3812115C7F0C12115C7F0612115C7F96
:041196000102115CE5
:1010C900C0F9A4B0999282F880908883C6A1868ECF
:0C10D9007F3F1F0F87C3E1F0F8FCFEFF13
:1009F700021B0000020A0000C106010800010900ED
:101005007580FFC294751B1C751CCC851B0A851C3D
:101015000B75D98875DA49850BEAE50AF5FAD2BF69
:03102500D2DE22F6
:10113000E5089010D993F51AE508C3940B50030500
:051140000822E4F5089F
:011145002287
:10119A00ED9010C993FE74142FF8A606EB6004E6CE
:0411AA00547FF62256
:060016008B368A378938A1
:10001C00E4FFAB360538E538AA377002053714F91A
:0E002C0012003EFE740C2FF8A6060FBF08E46B
:01003A0022A3
:03003B00020D0AA9
:090D0A00C0E0C0D075D000C000AB
:100D1300C2D8E51C250BF50BE51B350AF50A850B37
:100D2300EAE50AF5FA2094217580FFE59054F04531
:100D330009F590740C2509F8E6F580E509C3940ECE
:100D4300500405098003750900300604B296800239
:020D5300D29636
:070D5500D000D0D0D0E03245
:10120700313233263435362537383928301B0D2708
:100A07009010010101010101010101010101010131
:100A17000101900001010101010101010101010131
:100A2700010101010122001023FFFFFFFFFFFFFF6C
:090A3700FFFFFFFFFFFFFFFFFFBF
:10091200E4F533E4F534E53325E025E0241025340D
:10092200F8E2FFE53325E025E024002534F8E2FE75
:100932006F603DEE6020E53325E025E02407F58277
:10094200E43412F583E5822534F582E43583F583B8
:10095200E493FF120E6AE53325E025E024102534E6
:10096200F8E2FFE53325E025E024002534F8EFF234
:100972000534E534C39404409D0533E533C3940440
:020982004091A2
:010984002250
:10043800E52225E025E02423F8E625E0FFA2A4E450
:10044800334FFFE52225E025E02423F8A607E5221F
:1004580025E025E02424F8E625E0FFA2A5E4334FB3
:10046800FFE52225E025E02424F8A607E52225E07B
:1004780025E02425F8E625E0FFA2A6E4334FFFE5B2
:100488002225E025E02425F8A607E52225E025E039
:100498002426F8E625E0FFA2A7E4334FFFE522254E
:1004A800E025E02426F8A607E4FFE52225E025E07C
:1004B80024232FF8E6540FFE700EE52225E025E0F0
:1004C80024102FF8E4F28010BE0F0DE52225E02558
:1004D800E024102FF87401F20FBF04CE0522532236
:1004E80003E52214600F14601114601324037013C1
:1004F800D2A0C2A322D2A3C2A222D2A2C2A122D235
:03050800A1C2A0ED
:01050B0022CD
:08123E0020140101123000032D
:0312500000002279
:10108D007E01EE60165F6004D2B48002C2B4D2B5A8
:0D109D00121250C2B5EE25E0FE80E7D2B47D
:0110AA002223
:1010E500E4FF7E01EE601230B4024207D2B512125F
:0910F50050C2B5EE25E0FE80EBCF
:0110FE0022CF
:1011AE00D297EF25E04480FF12108DAF0512108DFF
:0311BE00C29722B3
:1011E500D297EF25E04481FF12108D1210E5C297CA
:0111F50022D7
:060FB5008B3E8A3F8940DB
:100FBB00D2977FBE12108DE4FDAB3EAA3FA9408DA8
:100FCB0082758300120057FF12108D0DBD08EAC207
:010FDB00977E
:010FDC0022F2
:060FDD008B418A428943AA
:100FE300D2977FBF12108DE4FD1210E5AB41AA42E8
:100FF300A9438D82758300EF1200840DBD08EAC2F8
:011003009755
:0110040022C9
:060CB3008B368A378938F8
:100CB9007B007A007939120FDDE4253FFFE4342007
:100CC900AB36AA37A9388FF0120107AB36AA37A974
:100CD90038900002E53D120084900003E53C1200C3
:100CE90084900004E53B120084900005E53A120067
:100CF90084900006E539120084900007E53E020061
:010D09008465
:100E2900E4F53D1200DCF53C900007120057F53B54
:100E3900900002120057F53A900003120057F53955
:100E4900900004120057F538900005120057F53745
:100E5900900006120057F5367B007A007936020FAA
:010E6900B5D3
:1010AB00C297C2B5E4FF1211E5EF30E710E4FD7F04
:0D10BB00071211AE7BFF7A12793E120E294A
:0110C8002205
:0B1233000000000000000000DFF622B9
:10106C00C2AFC2B27FFA1212337FFA121233D2B26B
:10107C007F3C121233A2B2920530B2FDD2AFA20560
:01108C002241
:020F6400AE07D6
:100F6600C2AF7D01ED601DC2B27F021212335E7008
:100F760004C2B28002D2B27F3C121233D2B2ED2545
:060F8600E0FD80E0D2AFA7
:010F8C002242
:100EDC00C2AF7D01ED6024C2B27F02121233D2B2D6
:100EEC007F0212123320B205F452068003ED420643
:0F0EFC007F3C121233ED25E0FD80D9D2AFAF0657
:010F0B0022C3
:1011460012106C920420040A7FCC120F647F4412A2
:051156000F64A204B3C8
:01115B002271
:100F0C0012106C92042004227FCC120F647FBE124C
:100F1C000F64120EDCAC07120EDCEFFEAD047C008D
:0D0F2C00E42DFFEC3E8FF0120107A204B38C
:010F39002295
:100F3A0045004600471B4400402543270700152863
:100F4A0009261630191B0D0D0C3118325E33083480
:0A0F5A001C355A36423752384A3926
:020A4000C107EC
:100EA500300733C207E4F533E53325E0243AF5820C
:100EB500E4340FF583E493B55913E53325E0243B7A
:100EC500F582E4340FF583E493FF020E6A0533E5FA
:060ED50033C3941540D266
:010EDB0022F4
:1011F600D2B353890F438910C28EC2ABD28AD2AA08
:0112060022C5
:10102800E4F58DF58BD28E30B307E58DC39440403F
:10103800F6C28EAF8DEFFEAD8B7C00E42DFFEC3E4B
:02104800FE2286
:10104A00E4F58DF58BD28E20B307E58DC39440402D
:10105A00F6C28EAF8DEFFEAD8B7C00E42DFFEC3E29
:02106A00FE2264
:030013000205DF04
:1005DF00C0E0C0D075D000C000C001C002C003C0D1
:0705EF0004C005C006C007AF
:1005F60012104AC3EF9499EE941E4009D3EF943338
:10060600EE94224005C28B020692121028C3EF9484
:1006160066EE940E4009D3EF9400EE94124004C2A5
:100626008B8069E4FBE4FA12104AC3EF9439EE9426
:10063600014009D3EF94CEEE94024004C28B804C65
:10064600121028D3EF9439EE9401400EEF94CEEEBB
:1006560094025006E9C313F9801ED3EF9441EE9439
:10066600054011EF94D7EE94065009E9C313F943F8
:1006760001808004C28B80140ABA08AB74572BF829
:0C068600A6010BEB6404709DD207C28B30
:10069200D007D006D005D004D003D002D001D000BC
:0506A200D0D0D0E032D1
:100C0100416C61726D2061742000536574204461F0
:100C110074652054696D650053657420416C61727F
:100C21006D00FF9900000081C3E7EFE7E3E7E7E725
:100C3100E7C3C3819D87C3F9C181C3819DC7C79D97
:100C410081C3CFC7C3C9C981CFCF81C1F9C3879D33
:0A0C510081C3C381F9C3819981C3F7
:0E0A4200C1080145070146300147000144008C
:100B3F007B007A007948120CB3E54CC4540FFDE4E6
:100B4F00FB7F0512119AE54C540FFD7B017F0412B8
:100B5F00119AE54DC4540FFDE4FB7F0312119AE582
:100B6F004D540FFD7B017F0212119AE54EC4540FB5
:100B7F00FDE4FB7F0112119AE54E540FFDE4FBFFDC
:100B8F0012119AE54F75F008A42423F9740C35F06F
:060B9F00FA7BFF020016C4
:10098500E544B54B03EF6069E548C4540F2430785E
:100995002AF2E548540F243008F2E548C4F854F02B
:1009A500C8E549C4540F48540F2430782CF2E54962
:1009B500540F243008F208742DF2E54AC4540F246C
:1009C5003008F2E54A540F243008F208742DF2E598
:1009D5004BC4540F243008F2E54B540F243008F271
:1009E500E408F27BFE7A00792AFDFF120F8D854B14
:0109F50044BD
:0109F60022DE
:100DA1007BFF7A0C79017D01E4FF120F8DE545C4CB
:100DB100540F2430782AF2E545540F243008F20804
:100DC100743AF2E546C4540F243008F2E546540F54
:100DD100243008F2E408F27BFE7A00792A7D017F53
:040DE10009020F8D67
:10111800E54CB5450EE54DB54609200803B2062253
:08112800C20622C208C2062221
:10075D007820E2FC08E2FDECC4F854F0C8EDC45476
:10076D000F48540F2430782AF2ED540F243008F23C
:10077D0008742DF27822E2FFC4540F2430782DF244
:10078D00EF540F243008F208742DF27823E2FFC4E1
:10079D00540F24307830F2EF540F243008F20874DF
:1007AD002DF27827E2540F24307833F2087420F2BA
:1007BD007824E2FFC4540F24307835F2EF540F241F
:1007CD003008F208743AF27825E2FFC4540F243051
:1007DD007838F2EF540F243008F2E408F27BFF7AF8
:1007ED000C790BFDFF120F8D7BFE7A00792A7D01AE
:0507FD00E4FF020F8D76
:100D5C007828E2FFC4540F2430782AF2EF540F2481
:100D6C003008F208743AF27829E2FFC4540F2430A8
:100D7C00782DF2EF540F243008F2E408F27BFF7A5E
:100D8C000C7919FDFF120F8D7BFE7A00792A7D01FB
:050D9C00E4FF020F8DD1
:1010FF00E4F55612124B12000E120B3F7F0112092C
:09110F00857F01120A68020DA19E
:1006A700E55664017079E547B40A00506A9006BBC5
:1006B700F82828730206D90206DB0206DD0206DFE8
:1006C7000206E80206F10206FA02070302070C0215
:1006D7000715805D8064806B7547047D017F068008
:1006E700717547057D017F0780687547067D017F26
:1006F70009805F7547077D017F0B80567547087D29
:10070700017F0C804D7547097D017F0E8044754739
:100717000A7D017F0F803BE4F5477D01FF8033E5CC
:100727005664027030E54714601014601624027096
:100737001B7547017D017F0180187547027D017F89
:1007470003800F7547037D017F048006E4F5477D2D
:0607570001FF1211D32284
:10050C00E556640160030205A8E547B40A00400300
:10051C0002059F900526F828287302054402054E13
:10052C0002055702056002056902057202057B028D
:10053C00058402058D02059675470A7D017F0F0221
:10054C0005DBE4F5477D01FF0205DB7547017D0105
:10055C007F01807B7547027D017F038072754703A5
:10056C007D017F0480697547047D017F068060757D
:10057C0047057D017F0780577547067D017F098000
:10058C004E7547077D017F0B80457547087D017FC0
:10059C000C803C7547097D017F0E8033E556640263
:1005AC007030E5471460101460152402701A7547FA
:1005BC00037D017F048018E4F5477D01FF801075F1
:1005CC0047017D017F0180077547027D017F031282
:0305DC0011D32216
:0202AB008F368C
:1002AD00E53624D0F537D394094003020437E556DB
:1002BD00640160030203D7E547B40A00400302035B
:1002CD00C49002D5F82828730202F3020315020325
:1002DD002F02034502035502036A02037A02038AC1
:1002ED0002039F0203AFE53775F010A4FF7820E2FB
:1002FD00FC08E2540FFDEC45F018F2ED4F08F2AB9F
:10030D00367D01E4FF0203D27820E2FE08E254F0CC
:10031D00FFEE18F2EF453708F2AB367D017F010293
:10032D0003D2E537C454F0FF7822E2540F4FF2ABFD
:10033D00367D017F030203D27822E254F04537F275
:10034D00AB367D017F04807DE537C454F0FF782303
:10035D00E2540F4FF2AB367D017F0680687823E2C1
:10036D0054F04537F2AB367D017F0780587827E290
:10037D0054F04537F2AB367D017F098048E537C42F
:10038D0054F0FF7824E2540F4FF2AB367D017F0B12
:10039D0080337824E254F04537F2AB367D017F0C83
:1003AD008023E537C454F0FF7825E2540F4FF2ABAC
:1003BD00367D017F0E800E7825E254F04537F2AB85
:1003CD00367D017F0F120003805DE5566402705A81
:1003DD00E54714601C1460292402703AE537C454B3
:1003ED00F0FF7828E2540F4FF2AB367D01E4FF8029
:1003FD00337828E254F04537F2AB367D017F01802A
:10040D0023E537C454F0FF7829E2540F4FF2AB3691
:10041D007D017F03800E7829E254F04537F2AB362B
:0A042D007D017F041200031206A7F0
:0104370022A2
:10088E00E55670337556017820E548F208E549F2D1
:10089E0008E54AF208E54BF208E54CF208E54DF2A0
:1008AE0008E54EF208E54FF212000E12075D75478D
:1008BE00FF1206A7021246E556B40125755602E44C
:1008CE007826F27BFE7A007920120E297828E545EB
:1008DE00F208E546F212000E120D5C7547FF020695
:1008EE00A7E4F5567828E2F54508E2F54612124BD4
:1008FE0012000E120B3F7F011209857F01120A684A
:04090E00120DA12203
:100E6A008F35E535C39430400AE535D394395003BC
:100E7A000202ABE535B4250302050CE535B42703B8
:100E8A000206A7E535B40D0302088EE535B41B0A40
:0B0E9A00E5567003D208221210FF2260
:100A5000C103C102015400015500015600025000BB
:070A600000015200015300E8
:100C5B00D2AF7F017E00120AD41210051210AB1214
:100C6B0011F61211861211463003FDC203120B3F0F
:100C7B007F011209857F01120A68120DA112091258
:100C8B00120EA5300213C202121130120B3F1211B9
:100C9B0018E5567004FF1209853003E1C203E556CF
:080CAB0070DBFF120A6880D51E
:020A68008F36C7
:100A6A007B007A007937120F0C121146E538AE373F
:100A7A007804CEA2E713CE13D8F8F5388E37B551DD
:100A8A0009E550B53704E536603FAE37AF387C002C
:100A9A007D0A1200A6EF2430782AF2AE37AF387CEE
:100AAA00007D0A1200A6ED2430782BF2087427F292
:100ABA00087443F2E408F27BFE7A00792AFD7F0C7F
:090ACA00120F8D8537508538515B
:010AD3002200
:100AD400E4FCFDFB7A10790EF8120126E47BE87A37
:100AE40003F9F8120DE58F368E358D348C33C3E45B
:100AF4009536F536E49535F53574019534F534E4D9
:100B04009533F533E5362405F536E43535F535E426
:100B14003534F534E43533F533AF36AE35AD34FC26
:100B240078081201758F548536555389F04389012D
:0A0B340085548C85558AD2A9D28C15
:010B3E002294
:03000B00020BA540
:100BA500C0E0C0F0C083C082C0D075D000C000C016
:0D0BB50001C002C003C004C005C006C00797
:100BC20085548C85558A0553E553C394C8401275E4
:100BD2005300D2020552E552940A4005755200D2E2
:040BE20003120438BE
:100BE600D007D006D005D004D003D002D001D00063
:0B0BF600D0D0D082D083D0F0D0E0320D
:03000000020802F1
:0C08020078FFE4F6D8FD75815A02084921
:10080E00020C5BE493A3F8E493A34003F68001F299
:10081E0008DFF48029E493A3F85407240CC8C333EB
:10082E00C4540F4420C8834004F456800146F6DFBA
:10083E00E4800B01020408102040809009F7E47E4A
:10084E00019360BCA3FF543F30E509541FFEE493AF
:10085E00A360010ECF54C025E060A840B8E493A376
:10086E00FAE493A3F8E493A3C8C582C8CAC583CAA1
:10087E00F0A3C8C582C8CAC583CADFE9DEE780BE59
:010A6700008E
:10003E00BB010689828A83E0225002E722BBFE02C0
:09004E00E32289828A83E49322F3
:10005700BB010CE58229F582E5833AF583E022505E
:1000670006E92582F8E622BBFE06E92582F8E222A8
:0D007700E58229F582E5833AF583E49322C2
:10008400F8BB010DE58229F582E5833AF583E8F0B2
:10009400225006E92582C8F622BBFE05E92582C85E
:0200A400F22246
:1000A600C2D5EC30E709B2D5E4C39DFDE49CFCEE75
:1000B60030E715B2D5E4C39FFFE49EFE120188C364
:1000C600E49DFDE49CFC800312018830D507C3E45F
:0600D6009FFFE49EFE22E4
:1000DC00BB010A89828A83E0F5F0A3E022500687EF
:1000EC00F009E71922BBFE07E3F5F009E3192289B1
:0B00FC00828A83E493F5F074019322E4
:10010700BB010A89828A83F0E5F0A3F0225006F743
:0F01170009A7F01922BBFE06F3E5F009F3192240
:10012600E88FF0A4CC8BF0A42CFCE98EF0A42CFC78
:100136008AF0EDA42CFCEA8EF0A4CDA8F08BF0A4F6
:100146002DCC3825F0FDE98FF0A42CCD35F0FCEB55
:100156008EF0A4FEA9F0EB8FF0A4CFC5F02ECD391A
:0F016600FEE43CFCEAA42DCE35F0FDE43CFC2287
:100DE500C2D5E830E70FB2D5E4C39BFBE49AFAE439
:100DF50099F9E498F8EC30E717B2D5120E1B1202F8
:100E050019E4C39BFBE49AFAE499F9E498F88003A2
:100E150012021930D50DE4C39FFFE49EFEE49DFD4B
:040E2500E49CFC222B
:10017500E8600FECC313FCED13FDEE13FEEF13FF68
:03018500D8F1228C
:10018800BC000BBE0029EF8DF084FFADF022E4CC5B
:10019800F875F008EF2FFFEE33FEEC33FCEE9DEC24
:1001A800984005FCEE9DFE0FD5F0E9E4CEFD22ED6A
:1001B800F8F5F0EE8420D21CFEADF075F008EF2FB4
:1001C800FFED33FD4007985006D5F0F222C398FDA5
:0501D8000FD5F0EA2242
:1001DD0075F008758200EF2FFFEE33FECD33CDCCD9
:1001ED0033CCC58233C5829BED9AEC99E58298405C
:1001FD000CF582EE9BFEED9AFDEC99FC0FD5F0D639
:10020D00E4CEFBE4CDFAE4CCF9A88222B800C1B962
:10021D000059BA002DEC8BF084CFCECDFCE5F0CBA0
:10022D00F97818EF2FFFEE33FEED33FDEC33FCEBD9
:10023D0033FB10D703994004EB99FB0FD8E5E4F994
:10024D00FA227818EF2FFFEE33FEED33FDEC33FC81
:10025D00C933C910D7059BE99A4007EC9BFCE99A75
:10026D00F90FD8E0E4C9FAE4CCFB2275F010EF2FBA
:10027D00FFEE33FEED33FDCC33CCC833C810D707BA
:10028D009BEC9AE899400AED9BFDEC9AFCE899F8F5
:0E029D000FD5F0DAE4CDFBE4CCFAE4C8F92288
:00000001FF
