:030000000201E01A
:0C01E000787FE4F6D8FD7581200202272C
:1004EE0041494E30202041494E31202041494E3362
:0104FE0000FD
:0B052E00C18001180001190001170036
:1002E500D2AF7F0A7E0012026C1204B67BFF7A043D
:1002F50079EEE4FDFF12045B3000FDC200E4FF125D
:1003050003CD1203437B007A0079097D01E4FF12D6
:10031500045B7F011203CD1203437B007A00790948
:100325007D017F0612045B7F031203CD1203437B1D
:0E033500007A0079097D017F0C12045B80BA0A
:0203CD008F138C
:1003CF0012051F7F9012039A400612053A7F0022F2
:1003DF00E5134440FF12039A12051F7F9112039AEF
:0D03EF0012042D1203FD8F1412053AAF14F5
:0103FC0022DE
:0A0343008F087B007A007909AD08ED
:10034D008B138A148915ED75F019A4FFAEF07C009E
:10035D007DFF12005BAD07ED75F00A8424301200AD
:10036D0027AB13AA14A915900001742E120039EDB4
:10037D0075F00A84E5F024309000021200399000E7
:0D038D00037456120039900004E402003998
:10026C0075160075151075140E751300E4FCFDABB6
:10027C0016AA15A914A8131200B0E47BE87A03F9A6
:10028C00F812013B8F168E158D148C13C3E4951642
:10029C00F516E49515F51574019514F514E49513FC
:1002AC00F513E5162402F516E43515F515E43514A9
:1002BC00F514E43513F513AF16AE15AD14FC780830
:1002CC001201CD8F188516195389F04389018518B1
:0802DC008C85198AD2A9D28C8D
:0102E40022F7
:03000B0002048369
:04048300C0E0C0D045
:1004870085188C85198A0517E517C3941E400575CD
:040497001700D20078
:05049B00D0D0D0E032DA
:1004CA007580FFC290D291D295AF80C295EF20E796
:0104DA00F62B
:0104DB0022FE
:1004FF00AE071204CAC290C2918E80D295C29522C5
:10050F00AE071204CAD290C2918E80D295C29522A4
:1004DC00ED7004AC078004EF2440FCEC4480FF0278
:0204EC0004FF0B
:10045B008B138A1489151204DCAB13AA14A9151279
:10046B00000E60130515E5157002051414F9120042
:08047B000EFF12050F80E222C2
:1004B6007F381204FF7F0C1204FF7F061204FF7FB1
:0404C600010204FF2C
:0B04A000C2B67F051204ABD2B77F0587
:0B04AB000000000000000000DFF6224F
:0F051F00D2B61204A7C2B67F051204ABC2B72230
:0C053A00C2B71204A0D2B67F050204ABC9
:02039A00AE07AC
:10039C007D80ED60145E7004C2B68002D2B6120489
:1003AC00A2C2B7EDC313FD80E9D2B67F051204AB30
:1003BC00D2B7A2B692017F051204ABC2B7A201B3A9
:0103CC00220E
:1003FD00D2B67D80ED601F7F051204ABD2B720B65B
:10040D0005F452068003ED42067F051204ABC2B718
:0F041D00EDC313FD80DED2B61204A2C2B7AF0644
:01042C0022AD
:10042D00D2B67D80ED601F7F051204ABD2B720B62A
:10043D0005F452068003ED42067F051204ABC2B7E8
:0D044D00EDC313FD80DE1204A0C2B7AF06A0
:01045A00227F
:1001EC000202E5E493A3F8E493A34003F68001F242
:1001FC0008DFF48029E493A3F85407240CC8C33314
:10020C00C4540F4420C8834004F456800146F6DFE2
:10021C00E4800B010204081020408090052EE47E3F
:10022C00019360BCA3FF543F30E509541FFEE493D7
:10023C00A360010ECF54C025E060A840B8E493A39E
:10024C00FAE493A3F8E493A3C8C582C8CAC583CAC9
:10025C00F0A3C8C582C8CAC583CADFE9DEE780BE81
:0105390000C1
:10000E00BB010689828A83E0225002E722BBFE02F0
:09001E00E32289828A83E4932223
:10002700BB010689828A83F0225002F722BBFE01B8
:02003700F322B2
:10003900F8BB010DE58229F582E5833AF583E8F0FD
:10004900225006E92582C8F622BBFE05E92582C8A9
:02005900F22291
:10005B00BC000BBE0029EF8DF084FFADF022E4CC89
:10006B00F875F008EF2FFFEE33FEEC33FCEE9DEC52
:10007B00984005FCEE9DFE0FD5F0E9E4CEFD22ED98
:10008B00F8F5F0EE8420D21CFEADF075F008EF2FE2
:10009B00FFED33FD4007985006D5F0F222C398FDD3
:0500AB000FD5F0EA2270
:1000B000E88FF0A4CC8BF0A42CFCE98EF0A42CFCEF
:1000C0008AF0EDA42CFCEA8EF0A4CDA8F08BF0A46D
:1000D0002DCC3825F0FDE98FF0A42CCD35F0FCEBCC
:1000E0008EF0A4FEA9F0EB8FF0A4CFC5F02ECD3991
:0F00F000FEE43CFCEAA42DCE35F0FDE43CFC22FE
:1000FF0075F008758200EF2FFFEE33FECD33CDCCB8
:10010F0033CCC58233C5829BED9AEC99E58298403A
:10011F000CF582EE9BFEED9AFDEC99FC0FD5F0D617
:10012F00E4CEFBE4CDFAE4CCF9A88222B800C1B941
:10013F000059BA002DEC8BF084CFCECDFCE5F0CB7F
:10014F00F97818EF2FFFEE33FEED33FDEC33FCEBB8
:10015F0033FB10D703994004EB99FB0FD8E5E4F973
:10016F00FA227818EF2FFFEE33FEED33FDEC33FC60
:10017F00C933C910D7059BE99A4007EC9BFCE99A54
:10018F00F90FD8E0E4C9FAE4CCFB2275F010EF2F99
:10019F00FFEE33FEED33FDCC33CCC833C810D70799
:1001AF009BEC9AE899400AED9BFDEC9AFCE899F8D4
:0E01BF000FD5F0DAE4CDFBE4CCFAE4C8F92267
:1001CD00E8600FECC313FCED13FDEE13FEEF13FF10
:0301DD00D8F12234
:00000001FF
