:020000040800F2
:1000000000500020F90B00089D0B0008A30B00080E
:10001000A90B0008AF0B0008B50B0008000000009A
:10002000000000000000000000000000BB0B000802
:10003000C70B000800000000D30B0008DF0B00080E
:10004000410C0008410C0008410C0008410C00085C
:10005000410C0008410C0008410C0008410C00084C
:10006000410C0008410C0008410C0008410C00083C
:10007000410C0008410C0008410C0008410C00082C
:10008000410C0008410C0008410C0008410C00081C
:10009000410C0008410C0008410C0008410C00080C
:1000A000410C0008410C0008410C0008410C0008FC
:1000B000410C0008410C0008410C0008410C0008EC
:1000C000410C0008410C0008410C0008410C0008DC
:1000D000410C0008410C0008410C0008410C0008CC
:1000E000410C0008410C0008410C00080000000011
:1000F0000000000000000000000000000000000000
:0C01000000000000000000005FF808F1A3
:10010C0010B5054C237833B9044B13B10448AFF345
:10011C0000800123237010BD0C00002000000000A3
:10012C00F02D000808B5034B1BB103490348AFF38E
:10013C00008008BD0000000010000020F02D000819
:10014C0080B500AF00F078FD00F035F800F038FA1B
:10015C0000F044F900F092F800F0CEF800F00AF943
:10016C0000F058F900F08CF900F0B4F900F0DCF96B
:10017C0000F004FA02F06CFD0346002B0AD00120BB
:10018C0002F0B6FD012002F0CDFD02F0FBFC0120D7
:10019C0002F0E2FD02F084FD0346002BEAD00020C1
:1001AC0002F0A6FD002002F0BDFD02F00FFD0020C4
:1001BC0002F0D2FDDEE780B594B000AF07F1280362
:1001CC0028220021184602F005FE07F11403002234
:1001DC001A605A609A60DA601A613B1D00221A603C
:1001EC005A609A60DA600523BB624FF48033FB627D
:1001FC0000233B6301237B630123BB6302237B64EA
:10020C004FF48033BB644FF4E013FB6407F1280315
:10021C00184601F051FC0346002B01D000F070FA97
:10022C000F237B610223BB610023FB614FF48063CE
:10023C003B6200237B6207F114030221184601F094
:10024C00BBFE0346002B01D000F05AFA13237B604F
:10025C004FF48073BB604FF44043FB6000233B6161
:10026C003B1D184602F042F80346002B01D000F06B
:10027C0047FA00BF5037BD4680BD000080B584B042
:10028C0000AF3B1D00221A605A609A60184B194A45
:10029C001A60174B00229A60154B00221A73144BEC
:1002AC0000221A75124B4FF46022DA61104B0022B7
:1002BC005A600F4B01221A610D4800F043FD0346B2
:1002CC00002B01D000F01CFA04237B600123BB60DF
:1002DC000023FB603B1D1946054800F00BFE03464E
:1002EC00002B01D000F00CFA00BF1037BD4680BDCA
:1002FC001C0100200024014080B584B000AF3B1DE0
:10030C0000221A605A609A60184B194A1A60174BEF
:10031C0000229A60154B00221A73144B00221A7596
:10032C00124B4FF46022DA61104B00225A600F4BD3
:10033C0001221A610D4800F005FD0346002B01D087
:10034C0000F0DEF905237B600123BB600023FB601A
:10035C003B1D1946054800F0CDFD0346002B01D08E
:10036C0000F0CEF900BF1037BD4680BDC4000020A0
:10037C000028014080B500AF164B174A1A60154B88
:10038C0010225A60134B00229A60124B0022DA6042
:10039C00104B00221A610F4B00225A610D4B0022A8
:1003AC001A760C4B00225A760A4B00229A76094B8D
:1003BC000022DA76074B00221A77064B00225A7776
:1003CC00044800F0D0FE0346002B01D000F098F951
:1003DC0000BF80BDF40000200064004080B500AF79
:1003EC000A4B0B4A1A60094B4FF0FF325A60074B0D
:1003FC004FF480729A60054802F0F2F80346002B25
:10040C0001D000F07DF900BF80BD00BF900100203D
:10041C000028004080B500AF174B184A1A60164BE5
:10042C004FF482725A60144B00229A60124B0022D5
:10043C00DA60114B00221A610F4B00225A610E4BED
:10044C004FF400729A610C4B0022DA610A4B0022C5
:10045C001A62094B00225A62074B00229A62064B21
:10046C000A22DA62044802F0CEF90346002B01D0CE
:10047C0000F046F900BF80BD280000200038004085
:10048C0080B500AF114B124A1A60104B4FF4E13299
:10049C005A600E4B00229A600C4B0022DA600B4B18
:1004AC0000221A61094B0C225A61084B00229A61F6
:1004BC00064B0022DA61054802F029FA0346002BAC
:1004CC0001D000F01DF900BF80BD00BF4C01002021
:1004DC000038014080B500AF114B124A1A60104B26
:1004EC004FF4E1325A600E4B00229A600C4B002202
:1004FC00DA600B4B00221A61094B0C225A61084B33
:10050C0000229A61064B0022DA61054802F0FFF9DD
:10051C000346002B01D000F0F3F800BF80BD00BFF4
:10052C00A40100200044004080B500AF114B124ADA
:10053C001A60104B4FF4E1325A600E4B00229A6055
:10054C000C4B0022DA600B4B00221A61094B0C2277
:10055C005A61084B00229A61064B0022DA61054869
:10056C0002F0D5F90346002B01D000F0C9F800BF0A
:10057C0080BD00BF800000200048004080B500AF67
:10058C000D4B0E4A1A600C4B08225A600A4B022281
:10059C009A60094B00229A61074B0022DA61064BE4
:1005AC0000221A62044801F070F90346002B01D0B6
:1005BC0000F0A6F800BF80BDE8010020005C004000
:1005CC0080B588B000AF07F1100300221A605A60A2
:1005DC009A60DA60474B9B69464A43F0100393617B
:1005EC00444B9B6903F01003FB60FB68414B9B6918
:1005FC00404A43F0200393613E4B9B6903F0200378
:10060C00BB60BB683B4B9B693A4A43F00403936164
:10061C00384B9B6903F004037B607B68354B9B690B
:10062C00344A43F008039361324B9B6903F008038F
:10063C003B603B68012240212F4801F00EF900225B
:10064C0001212E4801F009F9012241F226012B4823
:10065C0001F003F900224FF48071274801F0FDF8F6
:10066C0003233B6100237B610123BB6107F1100372
:10067C001946214800F056FF40233B6111237B6152
:10068C000023BB610323FB6107F1100319461A48D1
:10069C0000F048FF27233B6101237B610023BB61F2
:1006AC000323FB6107F110031946144800F03AFFCD
:1006BC004FF480533B6101237B610123BB61032316
:1006CC00FB6107F1100319460C4800F02BFF4FF4A7
:1006DC0080733B6101237B610023BB610323FB61BE
:1006EC0007F110031946044800F01CFF00BF203727
:1006FC00BD4680BD0010024000080140000C0140C6
:10070C0080B400AF72B600BFFEE7000080B485B0C5
:10071C0000AF134B9B69124A43F001039361104BDA
:10072C009B6903F00103BB60BB680D4BDB690C4A92
:10073C0043F08053D3610A4BDB6903F080537B6039
:10074C007B68084B5B68FB60FB6823F0E063FB6035
:10075C00044AFB68536000BF1437BD4680BC704729
:10076C00001002400000014080B58AB000AF7860F4
:10077C0007F1180300221A605A609A60DA607B68ED
:10078C001B68284A934222D1274B9B69264A43F483
:10079C0000739361244B9B6903F400737B617B6949
:1007AC00214B9B69204A43F0040393611E4B9B69C8
:1007BC0003F004033B613B691023BB610323FB6122
:1007CC0007F118031946194800F0ACFE26E07B68C7
:1007DC001B68174A934221D1134B9B69124A43F46D
:1007EC0080639361104B9B6903F48063FB60FB682F
:1007FC000D4B9B690C4A43F0040393610A4B9B69B4
:10080C0003F00403BB60BB682023BB610323FB61C3
:10081C0007F118031946054800F084FE00BF28377D
:10082C00BD4680BD0024014000100240000801407C
:10083C000028014080B58AB000AF786007F114033E
:10084C0000221A605A609A60DA607B681B68254A3D
:10085C00934243D1244BDB69234A43F00073D361A9
:10086C00214BDB6903F000733B613B691E4B9B69B9
:10087C001D4A43F0080393611B4B9B6903F008036B
:10088C00FB60FB684FF480737B610023BB6100232A
:10089C00FB6107F114031946144800F043FE4FF4B2
:1008AC0000737B610223BB6103233B6207F11403DA
:1008BC0019460E4800F036FE0D4B5B687B627B6A76
:1008CC0023F4C0437B627B6A43F0E0637B627B6A08
:1008DC0043F480437B62064A7B6A536000BF28372F
:1008EC00BD4680BD0064004000100240000C014079
:1008FC000000014080B584B000AF78607B681B6855
:10090C000B4A934210D101F0CBF80A4BDB69094A30
:10091C0043F00063D361074BDB6903F00063FB60BA
:10092C00FB68054B01221A6000BF1037BD4680BD25
:10093C0000280040001002403C04424280B588B0C0
:10094C0000AF786007F1100300221A605A609A60B9
:10095C00DA607B681B681C4A934231D11B4BDB6904
:10096C001A4A43F48043D361184BDB6903F4804388
:10097C00FB60FB68154B9B69144A43F008039361B9
:10098C00124B9B6903F00803BB60BB684FF4204318
:10099C003B6102237B610323FB6107F110031946C2
:1009AC000B4800F0BFFD4FF480433B6100237B619B
:1009BC000023BB6107F110031946054800F0B2FD96
:1009CC0000BF2037BD4680BD0038004000100240FB
:1009DC00000C014080B58CB000AF786007F12003AB
:1009EC0000221A605A609A60DA607B681B68534A6E
:1009FC00934232D1524B9B69514A43F480439361E9
:100A0C004F4B9B6903F48043FB61FB694C4B9B6927
:100A1C004B4A43F004039361494B9B6903F0040375
:100A2C00BB61BB694FF400733B6202237B620323FF
:100A3C00FB6207F120031946424800F073FD4FF4A6
:100A4C0080633B6200237B620023BB6207F12003BF
:100A5C0019463C4800F066FD6CE07B681B683A4A1E
:100A6C00934230D1364BDB69354A43F40033D361C2
:100A7C00334BDB6903F400337B617B69304B9B693F
:100A8C002F4A43F0040393612D4B9B6903F004033D
:100A9C003B613B6904233B6202237B620323FB62C1
:100AAC0007F120031946274800F03CFD08233B6260
:100ABC0000237B620023BB6207F120031946214807
:100ACC0000F030FD36E07B681B68204A934231D140
:100ADC001B4BDB691A4A43F48023D361184BDB6947
:100AEC0003F48023FB60FB68154B9B69144A43F0AD
:100AFC0008039361124B9B6903F00803BB60BB684E
:100B0C004FF480633B6202237B620323FB6207F199
:100B1C00200319460E4800F005FD4FF400633B62BC
:100B2C0000237B620023BB6207F1200319460848AF
:100B3C0000F0F8FC00BF3037BD4680BD00380140E6
:100B4C0000100240000801400044004000480040F2
:100B5C00000C014080B485B000AF78607B681B68E6
:100B6C00094A93420BD1094BDB69084A43F4000351
:100B7C00D361064BDB6903F40003FB60FB6800BF29
:100B8C001437BD4680BC7047005C0040001002402A
:100B9C0080B400AFFEE780B400AFFEE780B400AFD6
:100BAC00FEE780B400AFFEE780B400AFFEE780B490
:100BBC0000AF00BFBD4680BC704780B400AF00BF23
:100BCC00BD4680BC704780B400AF00BFBD4680BC42
:100BDC00704780B500AF00F075F800BF80BD80B4E1
:100BEC0000AF00BFBD4680BC704700000C480D49EB
:100BFC000D4A002302E0D458C4500433C4188C426C
:100C0C00F9D30A4A0A4C002301E013600432A242D1
:100C1C00FBD3FFF7E4FF02F0B9F8FFF791FA704746
:100C2C00000000200C000020482E00080C000020C2
:100C3C00D8040020FEE7000080B500AF084B1B680D
:100C4C00074A43F010031360032000F037FC0F2019
:100C5C0000F008F8FFF75AFD0023184680BD00BFCE
:100C6C000020024080B582B000AF7860124B1A6849
:100C7C00124B1B7819464FF47A73B3FBF1F3B2FBAA
:100C8C00F3F3184600F041FC0346002B01D001237E
:100C9C000EE07B680F2B0AD8002279684FF0FF30EA
:100CAC0000F017FC064A7B681360002300E0012368
:100CBC0018460837BD4680BD000000200800002003
:100CCC000400002080B400AF054B1B781A46054B7E
:100CDC001B681344034A136000BFBD4680BC7047B9
:100CEC0008000020D404002080B400AF024B1B6825
:100CFC001846BD4680BC7047D404002080B584B033
:100D0C0000AF7860FFF7F0FFB8607B68FB60FB68B2
:100D1C00B3F1FF3F05D00A4B1B781A46FB6813440E
:100D2C00FB6000BFFFF7E0FF0246BB68D31AFA680E
:100D3C009A42F7D800BF00BF1037BD4680BD00BF38
:100D4C000800002080B586B000AF78600023FB75EA
:100D5C0000233B610023BB600023FB607B68002BFE
:100D6C0001D10123BEE07B689B68002B7B689B6AEA
:100D7C00002B09D17B680022DA627B68002283F8A1
:100D8C0024207868FFF7F0FC786800F0ABF9034694
:100D9C00FB757B689B6A03F01003002B40F0998075
:100DAC00FB7D002B40F095807B689B6A23F4885375
:100DBC0023F0020343F002027B689A627B685A6854
:100DCC007B68DB691A437B681B7B5B001343BA6847
:100DDC001343BB607B689B68B3F5807F03D07B6853
:100DEC009B68012B02D14FF4807300E000233A6919
:100DFC0013433B617B681B7D012B19D17B681B7BEB
:100E0C00002B09D17B689B69013B5A033B69134357
:100E1C0043F400633B610BE07B689B6A43F0200268
:100E2C007B689A627B68DB6A43F001027B68DA625A
:100E3C007B681B685B6823F469417B681B683A69B3
:100E4C000A435A607B681B689A68284B13407A687F
:100E5C001268B9680B4393607B689B68B3F5807F1D
:100E6C0003D07B689B68012B04D17B681B69013B19
:100E7C001B05FB607B681B68DB6A23F470017B68D5
:100E8C001B68FA680A43DA627B681B689A68184B1D
:100E9C001340BA689A420BD17B680022DA627B68F5
:100EAC009B6A23F0030343F001027B689A6218E00B
:100EBC007B689B6A23F0120343F010027B689A62F2
:100ECC007B68DB6A43F001027B68DA620123FB7505
:100EDC0007E07B689B6A43F010027B689A620123EF
:100EEC00FB75FB7D18461837BD4680BDFDF7E1FF4D
:100EFC00FE0E1FFF80B485B000AF78603960002310
:100F0C00FB730023BB607B6893F82430012B01D169
:100F1C000223DCE07B68012283F824203B685B68B9
:100F2C00062B1CD87B681B68596B3B685A681346A8
:100F3C009B001344053B1F2202FA03F3DB431940C9
:100F4C003B6818683B685A6813469B001344053B82
:100F5C0000FA03F27B681B680A435A633CE03B6867
:100F6C005B680C2B1CD87B681B68196B3B685A6838
:100F7C0013469B001344233B1F2202FA03F3DB436B
:100F8C0019403B6818683B685A6813469B00134429
:100F9C00233B00FA03F27B681B680A431A631BE0CD
:100FAC007B681B68D96A3B685A6813469B001344DC
:100FBC00413B1F2202FA03F3DB4319403B681868DC
:100FCC003B685A6813469B001344413B00FA03F2FA
:100FDC007B681B680A43DA623B681B68092B1CD9C7
:100FEC007B681B68D9683B681A6813465B0013441E
:100FFC001E3B072202FA03F3DB4319403B68986857
:10100C003B681A6813465B0013441E3B00FA03F25C
:10101C007B681B680A43DA6019E07B681B681969F6
:10102C003B681A6813465B001344072202FA03F369
:10103C00DB4319403B6898683B681A6813465B00B1
:10104C00134400FA03F27B681B680A431A613B687D
:10105C001B68102B03D03B681B68112B32D17B68AB
:10106C001B681D4A934225D17B681B689B6803F45F
:10107C000003002B26D17B681B689A687B681B6871
:10108C0042F400029A603B681B68102B1AD1134B78
:10109C001B68134AA2FB03239A0C13469B001344B0
:1010AC005B00BB6002E0BB68013BBB60BB68002B14
:1010BC00F9D107E07B689B6A43F020027B689A6257
:1010CC000123FB737B68002283F82420FB7B1846EA
:1010DC001437BD4680BC704700240140000000203E
:1010EC0083DE1B4380B584B000AF78600023FB60C7
:1010FC007B681B689B6803F00103012B2ED17B6876
:10110C001B689A687B681B6822F001029A60FFF7E3
:10111C00EBFDF8601BE0FFF7E7FD0246FB68D31A16
:10112C00022B14D97B681B689B6803F00103012B0D
:10113C000DD17B689B6A43F010027B689A627B68D6
:10114C00DB6A43F001027B68DA62012307E07B680B
:10115C001B689B6803F00103012BDCD000231846AD
:10116C001037BD4680BD80B584B000AF78607B6819
:10117C00002B01D10123EDE07B6893F82030DBB22A
:10118C00002B02D17868FFF755FB7B681B681A6847
:10119C007B681B6842F001021A60FFF7A5FDF8603E
:1011AC0012E0FFF7A1FD0246FB68D31A0A2B0BD9FC
:1011BC007B685B6A43F400327B685A627B68052269
:1011CC0083F820200123C5E07B681B685B6803F073
:1011DC000103002BE5D07B681B681A687B681B68D1
:1011EC0022F002021A60FFF77FFDF86012E0FFF7B1
:1011FC007BFD0246FB68D31A0A2B0BD97B685B6A12
:10120C0043F400327B685A627B68052283F8202005
:10121C0001239FE07B681B685B6803F00203002BD3
:10122C00E5D17B681B7E012B08D17B681B681A6893
:10123C007B681B6842F080021A6007E07B681B68C1
:10124C001A687B681B6822F080021A607B685B7EE0
:10125C00012B08D17B681B681A687B681B6842F0FD
:10126C0040021A6007E07B681B681A687B681B6881
:10127C0022F040021A607B689B7E012B08D17B68B0
:10128C001B681A687B681B6842F020021A6007E032
:10129C007B681B681A687B681B6822F020021A6046
:1012AC007B68DB7E012B08D17B681B681A687B6826
:1012BC001B6822F010021A6007E07B681B681A6832
:1012CC007B681B6842F010021A607B681B7F012B45
:1012DC0008D17B681B681A687B681B6842F008029F
:1012EC001A6007E07B681B681A687B681B6822F031
:1012FC0008021A607B685B7F012B08D17B681B6836
:10130C001A687B681B6842F004021A6007E07B686D
:10131C001B681A687B681B6822F004021A607B68E1
:10132C009A687B68DB681A437B681B691A437B6885
:10133C005B6942EA03017B685B685A1E7B681B6829
:10134C000A43DA617B6800225A627B68012283F8C7
:10135C002020002318461037BD4680BD80B485B0D0
:10136C0000AF78607B6803F00703FB600C4BDB6815
:10137C00BB60BA684FF6FF031340BB60FB681A02F0
:10138C00BB68134343F0BF6343F40033BB60044AB0
:10139C00BB68D36000BF1437BD4680BC704700BF2C
:1013AC0000ED00E080B400AF044BDB681B0A03F0D7
:1013BC0007031846BD4680BC704700BF00ED00E037
:1013CC0080B483B000AF03463960FB7197F90730E6
:1013DC00002B0ADB3B68DAB20C4997F90730120193
:1013EC00D2B20B4483F800230AE03B68DAB2084916
:1013FC00FB7903F00F03043B1201D2B20B441A76B3
:10140C0000BF0C37BD4680BC704700BF00E100E058
:10141C0000ED00E080B489B000AFF860B9607A608C
:10142C00FB6803F00703FB61FB69C3F10703042BA3
:10143C0028BF0423BB61FB690433062B02D9FB696B
:10144C00033B00E000237B614FF0FF32BB6902FAE3
:10145C0003F3DA43BB681A407B699A404FF0FF31C3
:10146C007B6901FA03F3D9437B680B40134318469D
:10147C002437BD4680BC704780B582B000AF786021
:10148C007B68013BB3F1807F01D301230FE00A4A53
:10149C007B68013B53600F214FF0FF30FFF790FF4B
:1014AC00054B00229A60044B07221A600023184651
:1014BC000837BD4680BD00BF10E000E080B582B0AB
:1014CC0000AF78607868FFF749FF00BF0837BD466A
:1014DC0080BD80B586B000AF0346B9607A60FB73FF
:1014EC0000237B61FFF75EFF78617A68B9687869E1
:1014FC00FFF790FF024697F90F3011461846FFF799
:10150C005FFF00BF1837BD4680BD80B582B000AF0D
:10151C0078607868FFF7B0FF034618460837BD4679
:10152C0080BD000080B48BB000AF786039600023C0
:10153C007B6200233B6269E101227B6A02FA03F3BE
:10154C00FB613B681B68FA691340BB61BA69FB69B4
:10155C009A4240F058813B685B689A4A93425ED04D
:10156C00984A934275D8984A934258D0964A9342D7
:10157C006FD8964A934252D0944A934269D8944A6F
:10158C0093424CD0924A934263D8924A934246D0AB
:10159C00904A93425DD8122B2AD8122B59D801A20B
:1015AC0052F823F02B160008051600081716000831
:1015BC00591600085F1600085F1600085F16000831
:1015CC005F1600085F1600085F1600085F1600081B
:1015DC005F1600085F1600085F1600085F1600080B
:1015EC005F1600085F1600080D160008211600088B
:1015FC00794A934213D02CE03B68DB683B6229E0CC
:10160C003B68DB6804333B6224E03B68DB680833EF
:10161C003B621FE03B68DB680C333B621AE03B68C3
:10162C009B68002B02D104233B6213E03B689B6850
:10163C00012B05D108233B627B68FA691A6109E02A
:10164C0008233B627B68FA695A6103E000233B6222
:10165C0000E000BFBB69FF2B01D87B6801E07B6811
:10166C0004337B61BB69FF2B02D87B6A9B0002E0D1
:10167C007B6A083B9B003B617B691A680F213B69C5
:10168C0001FA03F3DB431A40396A3B6901FA03F3AD
:10169C001A437B691A603B685B6803F08053002B2C
:1016AC0000F0B1804D4B9B694C4A43F001039361B0
:1016BC004A4B9B6903F00103BB60BB68484A7B6AD9
:1016CC009B08023352F82330FB607B6A03F0030360
:1016DC009B000F2202FA03F3DB43FA681340FB6012
:1016EC007B68404A934213D07B683F4A93420DD0AB
:1016FC007B683E4A934207D07B683D4A934201D1B6
:10170C00032306E0042304E0022302E0012300E0AB
:10171C0000237A6A02F0030292009340FA681343A2
:10172C00FB602F497B6A9B080233FA6841F823203F
:10173C003B685B6803F48033002B06D02D4B1A6892
:10174C002C49BB6913430B6006E02A4B1A68BB6932
:10175C00DB43284913400B603B685B6803F40033A0
:10176C00002B06D0234B5A682249BB6913434B60AC
:10177C0006E0204B5A68BB69DB431E4913404B60A3
:10178C003B685B6803F48013002B06D0194B9A68F6
:10179C001849BB6913438B6006E0164B9A68BB690A
:1017AC00DB43144913408B603B685B6803F4001304
:1017BC00002B21D00F4BDA680E49BB691343CB6069
:1017CC0021E000BF00003210000031100000221098
:1017DC000000211000001210000011100010024037
:1017EC000000014000080140000C014000100140C5
:1017FC0000140140000401400B4BDA68BB69DB4369
:10180C0009491340CB607B6A01337B623B681A68E1
:10181C007B6A22FA03F3002B7FF48EAE00BF00BF6D
:10182C002C37BD4680BC70470004014080B485B0A5
:10183C0000AF78600B467B807B689A687B8813408E
:10184C00002B02D00123FB7301E00023FB73FB7B15
:10185C0018461437BD4680BC704780B483B000AFC7
:10186C0078600B467B8013467B707B78002B03D013
:10187C007A887B681A6103E07B881A047B681A619A
:10188C0000BF0C37BD4680BC7047F0B58BB006AFBF
:10189C0078607B68002B01D10123FDE07B6893F815
:1018AC00A932DBB2002B06D17B68002283F8A82278
:1018BC007868FFF74FF97B68032283F8A9227B68CD
:1018CC001B68184601F00EF97B681B683B607E684C
:1018DC006D4606F110040FCC0FC523682B60331D29
:1018EC000ECB386801F0EEF80346002B05D07B6870
:1018FC00022283F8A9220123CEE07B681B68002119
:10190C00184601F009F90023FB734CE0FB7B796866
:10191C005A1C13469B001344DB000B440133012279
:10192C001A70FB7B79685A1C13469B001344DB002E
:10193C000B44FA7B1A70FA7BFB7B98B279681346DE
:10194C009B001344DB000B44363302461A80FB7BAE
:10195C0079685A1C13469B001344DB000B44033379
:10196C0000221A70FA7B796813469B001344DB0043
:10197C000B44383300221A60FA7B796813469B00BB
:10198C001344DB000B443C3300221A60FA7B796869
:10199C0013469B001344DB000B44403300221A60B7
:1019AC00FB7B0133FB73FA7B7B685B689A42ADD39C
:1019BC000023FB7344E0FA7B796813469B001344C5
:1019CC00DB000B4403F2691300221A70FA7B79686E
:1019DC0013469B001344DB000B4403F5B473FA7BF2
:1019EC001A70FA7B796813469B001344DB000B4496
:1019FC0003F26B1300221A70FA7B796813469B0072
:101A0C001344DB000B4403F5BC7300221A60FA7B11
:101A1C00796813469B001344DB000B4403F5BE733B
:101A2C0000221A60FA7B796813469B001344DB0092
:101A3C000B4403F5C07300221A60FB7B0133FB736C
:101A4C00FA7B7B685B689A42B5D37B681B683B600A
:101A5C007E686D4606F110040FCC0FC523682B6011
:101A6C00331D0ECB386801F063F80346002B05D00C
:101A7C007B68022283F8A92201230DE07B680022F7
:101A8C0083F824207B68012283F8A9227B681B68D9
:101A9C00184601F06DF8002318461437BD46F0BD0A
:101AAC0080B400AF034B01221A6000BFBD4680BC5E
:101ABC00704700BF20000E4280B586B000AF786042
:101ACC007B68002B01D101236CE27B681B6803F05F
:101ADC000103002B00F08780924B5B6803F00C0332
:101AEC00042B0CD08F4B5B6803F00C03082B12D12A
:101AFC008C4B5B6803F48033B3F5803F0BD1894B7F
:101B0C001B6803F40033002B6CD07B685B68002BE4
:101B1C0068D1012346E27B685B68B3F5803F06D150
:101B2C00804B1B687F4A43F4803313602EE07B6844
:101B3C005B68002B0CD17B4B1B687A4A23F48033F7
:101B4C001360784B1B68774A23F4802313601DE0E5
:101B5C007B685B68B3F5A02F0CD1724B1B68714A84
:101B6C0043F4802313606F4B1B686E4A43F480333D
:101B7C0013600BE06B4B1B686A4A23F480331360D1
:101B8C00684B1B68674A23F4802313607B685B688F
:101B9C00002B13D0FFF7A8F8386108E0FFF7A4F882
:101BAC0002463B69D31A642B01D90323FAE15D4B3E
:101BBC001B6803F40033002BF0D014E0FFF794F80B
:101BCC00386108E0FFF790F802463B69D31A642BA2
:101BDC0001D90323E6E1534B1B6803F40033002BBC
:101BEC00F0D100E000BF7B681B6803F00203002B00
:101BFC0063D04C4B5B6803F00C03002B0BD0494BB0
:101C0C005B6803F00C03082B1CD1464B5B6803F498
:101C1C008033002B16D1434B1B6803F00203002BBF
:101C2C0005D07B681B69012B01D00123BAE13D4B28
:101C3C001B6823F0F8027B685B69DB0039491343AE
:101C4C000B603AE07B681B69002B20D0364B0122DD
:101C5C001A60FFF749F8386108E0FFF745F80246CB
:101C6C003B69D31A022B01D903239BE12D4B1B6833
:101C7C0003F00203002BF0D02A4B1B6823F0F80270
:101C8C007B685B69DB00274913430B6015E0264B2F
:101C9C0000221A60FFF728F8386108E0FFF724F8F3
:101CAC0002463B69D31A022B01D903237AE11D4B5F
:101CBC001B6803F00203002BF0D17B681B6803F058
:101CCC000803002B3AD07B689B69002B19D0174B6B
:101CDC0001221A60FFF708F8386108E0FFF704F8F2
:101CEC0002463B69D31A022B01D903235AE10D4B4F
:101CFC005B6A03F00203002BF0D0012000F0D8FA4D
:101D0C001CE00A4B00221A60FEF7EEFF38610FE070
:101D1C00FEF7EAFF02463B69D31A022B08D90323CC
:101D2C0040E100BF001002400000424280044242E9
:101D3C009E4B5B6A03F00203002BE9D17B681B68A6
:101D4C0003F00403002B00F0A6800023FB75974BD7
:101D5C00DB6903F08053002B0DD1944BDB69934A64
:101D6C0043F08053D361914BDB6903F08053BB602C
:101D7C00BB680123FB758E4B1B6803F48073002B2F
:101D8C0018D18B4B1B688A4A43F480731360FEF79F
:101D9C00ABFF386108E0FEF7A7FF02463B69D31A98
:101DAC00642B01D90323FDE0814B1B6803F4807382
:101DBC00002BF0D07B68DB68012B06D17B4B1B6AB8
:101DCC007A4A43F0010313622DE07B68DB68002B39
:101DDC000CD1764B1B6A754A23F001031362734BCB
:101DEC001B6A724A23F0040313621CE07B68DB68F5
:101DFC00052B0CD16D4B1B6A6C4A43F00403136228
:101E0C006A4B1B6A694A43F0010313620BE0674B90
:101E1C001B6A664A23F001031362644B1B6A634A14
:101E2C0023F0040313627B68DB68002B15D0FEF7EC
:101E3C005BFF38610AE0FEF757FF02463B69D31A95
:101E4C0041F28832934201D90323ABE0574B1B6A12
:101E5C0003F00203002BEED014E0FEF745FF3861CF
:101E6C000AE0FEF741FF02463B69D31A41F2883281
:101E7C00934201D9032395E04C4B1B6A03F00203F8
:101E8C00002BEED1FB7D012B05D1484BDB69474A7A
:101E9C0023F08053D3617B68DB69002B00F08180D9
:101EAC00424B5B6803F00C03082B61D07B68DB6949
:101EBC00022B46D13F4B00221A60FEF715FF38610A
:101ECC0008E0FEF711FF02463B69D31A022B01D939
:101EDC00032367E0354B1B6803F00073002BF0D134
:101EEC007B681B6AB3F5803F08D1304B5B6823F4E9
:101EFC0000327B689B682D4913434B602B4B5B680E
:101F0C0023F474127B68196A7B685B6A0B4327495C
:101F1C0013434B60274B01221A60FEF7E5FE386134
:101F2C0008E0FEF7E1FE02463B69D31A022B01D909
:101F3C00032337E01D4B1B6803F00073002BF0D01C
:101F4C002FE01C4B00221A60FEF7CEFE386108E031
:101F5C00FEF7CAFE02463B69D31A022B01D90323B2
:101F6C0020E0124B1B6803F00073002BF0D118E03B
:101F7C007B68DB69012B01D1012313E00B4B5B6800
:101F8C00FB60FB6803F480327B681B6A9A4206D1C3
:101F9C00FB6803F470127B685B6A9A4201D00123E0
:101FAC0000E0002318461837BD4680BD00100240E3
:101FBC00007000406000424280B584B000AF786091
:101FCC0039607B68002B01D10123D0E06A4B1B6880
:101FDC0003F007033A689A4210D9674B1B6823F049
:101FEC00070265493B6813430B60634B1B6803F0A6
:101FFC0007033A689A4201D00123B8E07B681B685A
:10200C0003F00203002B20D07B681B6803F0040351
:10201C00002B05D0594B5B68584A43F4E06353607E
:10202C007B681B6803F00803002B05D0534B5B68DF
:10203C00524A43F460535360504B5B6823F0F002F8
:10204C007B689B684D4913434B607B681B6803F0AE
:10205C000103002B40D07B685B68012B07D1474BF9
:10206C001B6803F40033002B15D101237FE07B6840
:10207C005B68022B07D1414B1B6803F00073002BEC
:10208C0009D1012373E03D4B1B6803F00203002BC5
:10209C0001D101236BE0394B5B6823F003027B68B1
:1020AC005B68364913434B60FEF71EFEF8600AE08E
:1020BC00FEF71AFE0246FB68D31A41F288329342AD
:1020CC0001D9032353E02D4B5B6803F00C027B68B2
:1020DC005B689B009A42EBD1274B1B6803F007030C
:1020EC003A689A4210D2244B1B6823F0070222490B
:1020FC003B6813430B60204B1B6803F007033A68E3
:10210C009A4201D0012332E07B681B6803F0040380
:10211C00002B08D0194B5B6823F4E0627B68DB680A
:10212C00164913434B607B681B6803F00803002BB4
:10213C0009D0124B5B6823F460527B681B69DB008F
:10214C000E4913434B6000F021F802460B4B5B68C1
:10215C001B0903F00F030A49CB5C22FA03F3094A6B
:10216C001360094B1B681846FEF77CFD00231846CC
:10217C001037BD4680BD00BF002002400010024059
:10218C00282E0008000000200400002090B48AB023
:10219C0000AF2A4B3C1D0FCB84E80F0040F201230B
:1021AC003B800023FB610023BB6100237B62002387
:1021BC007B6100233B62224B5B68FB61FB6903F094
:1021CC000C03042B02D0082B03D02DE01D4B3B62DB
:1021DC002DE0FB699B0C03F00F0307F1280213445D
:1021EC0013F8243C7B61FB6903F48033002B13D080
:1021FC00134B5B685B0C03F0010307F128021344DB
:10220C0013F8283CBB617B690E4A02FB03F2BB69E5
:10221C00B2FBF3F37B6204E07B690B4A02FB03F332
:10222C007B627B6A3B6202E0064B3B6200BF3B6A0F
:10223C0018462837BD4690BC704700BF082E0008D2
:10224C000010024000127A0000093D0080B400AF7B
:10225C00024B1B681846BD4680BC7047000000202E
:10226C0080B500AFFFF7F2FF0246054B5B681B0A17
:10227C0003F007030349CB5C22FA03F3184680BD35
:10228C0000100240382E000880B500AFFFF7DEFFCB
:10229C000246054B5B68DB0A03F007030349CB5C82
:1022AC0022FA03F3184680BD00100240382E0008B5
:1022BC0080B485B000AF78600A4B1B680A4AA2FB59
:1022CC0003235B0A7A6802FB03F3FB6000BFFB6825
:1022DC005A1EFA60002BF9D100BF00BF1437BD465F
:1022EC0080BC704700000020D34D621080B586B0D2
:1022FC0000AF786000233B610023FB607B681B68A8
:10230C0003F00103002B7DD00023FB754F4BDB69E1
:10231C0003F08053002B0DD14C4BDB694B4A43F03F
:10232C008053D361494BDB6903F08053BB60BB68BE
:10233C000123FB75464B1B6803F48073002B18D1EB
:10234C00434B1B68424A43F480731360FEF7CCFC8A
:10235C00386108E0FEF7C8FC02463B69D31A642BCF
:10236C0001D903236DE03A4B1B6803F48073002BF7
:10237C00F0D0364B1B6A03F44073FB60FB68002BF8
:10238C002ED07B685B6803F44073FA689A4227D0BE
:10239C002E4B1B6A23F44073FB602E4B01221A60F8
:1023AC002C4B00221A60294AFB681362FB6803F06D
:1023BC000103002B14D0FEF797FC38610AE0FEF7FE
:1023CC0093FC02463B69D31A41F28832934201D9FD
:1023DC00032336E01D4B1B6A03F00203002BEED0E7
:1023EC001A4B1B6A23F440727B685B6817491343D2
:1023FC000B62FB7D012B05D1144BDB69134A23F0D7
:10240C008053D3617B681B6803F00203002B08D058
:10241C000E4B5B6823F440427B689B680B4913436B
:10242C004B607B681B6803F01003002B08D0074B34
:10243C005B6823F480027B68DB68044913434B60C0
:10244C00002318461837BD4680BD00BF001002405F
:10245C00007000404004424290B58DB000AF7860EF
:10246C005A4B07F10C040FCB84E80F0040F2012308
:10247C003B8100237B620023FB6200233B62002331
:10248C00FB610023BB627B68102B0AD07B68102B8E
:10249C0000F291807B68012B4CD07B68022B7CD0A6
:1024AC0089E04B4B5B68FB61494B1B6803F0807305
:1024BC00002B00F08280FB699B0C03F00F0307F1EB
:1024CC003002134413F8243C3B62FB6903F4803361
:1024DC00002B18D03E4B5B685B0C03F0010307F13B
:1024EC003002134413F8283C7B62FB6903F48033FD
:1024FC00002B0DD0374A7B6AB2FBF3F23B6A02FB2E
:10250C0003F3FB6204E03B6A334A02FB03F3FB6216
:10251C002F4B5B6803F48003B3F5800F02D1FB6A89
:10252C00BB624AE0FB6A5B002C4AA2FB03235B08FC
:10253C00BB6242E0264B1B6AFB61FB6903F44073F0
:10254C00B3F5807F08D1FB6903F00203002B03D0A5
:10255C004FF40043BB621FE0FB6903F44073B3F517
:10256C00007F09D11A4B5B6A03F00203002B03D0E6
:10257C0049F64043BB620FE0FB6903F44073B3F5CB
:10258C00407F1CD1124B1B6803F40033002B16D078
:10259C004FF22443BB6212E011E0FFF775FE0246D6
:1025AC000B4B5B689B0B03F0030301335B00B2FB2B
:1025BC00F3F3BB6204E000BF02E000BF00E000BF29
:1025CC00BB6A18463437BD4690BD00BF182E0008B4
:1025DC000010024000127A0000093D00ABAAAAAA22
:1025EC0080B584B000AF78600023FB607B68002B63
:1025FC0001D1012384E07B685B7CDBB2002B05D12D
:10260C007B6800221A747868FEF774F97B680222E2
:10261C005A74786800F07AF80346002B04D07B6873
:10262C0004225A7401236BE0786800F09CF803468E
:10263C00002B04D07B6804225A74012360E07B6871
:10264C001B685A687B681B6822F007025A607B681B
:10265C009B68002B05D02C4B1B6B2B4A23F00103E2
:10266C001363294BDB6A23F460727B689B682649F1
:10267C001343CB627B685B68B3F1FF3F03D07B688D
:10268C005B68FB600EE00120FFF7E6FEF860FB687C
:10269C00002B04D17B6804225A74012330E0FB68C0
:1026AC00013BFB607B681B689B6823F00F01FB6898
:1026BC001A0C7B681B680A439A607B681B68DB6892
:1026CC001B0C1B04FA6891B27A6812680B43D36036
:1026DC00786800F070F80346002B04D07B68042265
:1026EC005A7401230CE07B680022DA737B680122A8
:1026FC005A737B6801229A737B6801225A740023F7
:10270C0018461037BD4680BD006C004080B584B0C3
:10271C0000AF78600023FB607B68002B01D10123A4
:10272C001DE07B681B685A687B681B6822F00802F6
:10273C005A60FEF7D9FAF86009E0FEF7D5FA0246BE
:10274C00FB68D31AB3F57A7F01D9032307E07B68C2
:10275C001B685B6803F00803002BEED000231846BF
:10276C001037BD4680BD80B584B000AF78600023C3
:10277C00FB60FEF7B9FAF86009E0FEF7B5FA02461D
:10278C00FB68D31AB3F57A7F01D903230FE07B687A
:10279C001B685B6803F02003002BEED07B681B6882
:1027AC005A687B681B6842F010025A600023184676
:1027BC001037BD4680BD80B584B000AF7860002373
:1027CC00FB607B681B685A687B681B6822F01002F0
:1027DC005A60FEF789FAF86009E0FEF785FA0246BE
:1027EC00FB68D31AB3F57A7F01D9032307E07B6822
:1027FC001B685B6803F02003002BEED00023184607
:10280C001037BD4680BD80B582B000AF78607B6864
:10281C00002B01D1012376E07B685B6A002B08D189
:10282C007B685B68B3F5827F09D07B680022DA6134
:10283C0005E07B6800221A617B6800225A617B6884
:10284C0000229A627B6893F85130DBB2002B06D1E0
:10285C007B68002283F850207868FEF76FF87B685D
:10286C00022283F851207B681B681A687B681B68FE
:10287C0022F040021A607B685B6803F482727B680A
:10288C009B6803F404431A437B68DB6803F400631E
:10289C001A437B681B6903F002031A437B685B696C
:1028AC0003F001031A437B689B6903F400731A431A
:1028BC007B68DB6903F038031A437B681B6A03F0FF
:1028CC00800342EA03017B689B6A03F400527B6835
:1028DC001B680A431A607B689B691A0C7B681B682F
:1028EC0002F004025A607B681B68DA697B681B681B
:1028FC0022F40062DA617B6800225A657B6801224F
:10290C0083F85120002318460837BD4680BD80B59A
:10291C0082B000AF78607B68002B01D101233FE0CF
:10292C007B6893F83D30DBB2002B06D17B6800222C
:10293C0083F83C207868FEF74DF87B68242283F8F6
:10294C003D207B681B68DA687B681B6822F40052A8
:10295C00DA60786800F028F87B681B681A697B6875
:10296C001B6822F490421A617B681B685A697B6869
:10297C001B6822F02A025A617B681B68DA687B6844
:10298C001B6842F40052DA607B6800221A647B6890
:10299C00202283F83D207B68202283F83E200023F0
:1029AC0018460837BD4680BD80B584B000AF78604E
:1029BC007B681B681B6923F440517B68DA687B6871
:1029CC001B680A431A617B689A687B681B691A4307
:1029DC007B685B691343BB607B681B68DB6823F413
:1029EC00B05323F00C037A681268B9680B43D360B8
:1029FC007B681B685B6923F440717B689A697B6810
:102A0C001B680A435A617B681B682C4A934203D1AA
:102A1C00FFF73AFCF86002E0FFF722FCF860FA6876
:102A2C0013469B0013449A001A447B685B689B0016
:102A3C00B2FBF3F3224AA2FB03235B091901FA68E8
:102A4C0013469B0013449A001A447B685B689B00F6
:102A5C00B2FBF3F21A4BA3FB02035B09642000FBED
:102A6C0003F3D31A1B013233154AA2FB03235B0970
:102A7C0003F0F0031944FA6813469B0013449A00C0
:102A8C001A447B685B689B00B2FBF3F20C4BA3FB14
:102A9C0002035B09642000FB03F3D31A1B013233DE
:102AAC00074AA2FB03235B0903F00F027B681B6838
:102ABC000A449A6000BF1037BD4680BD0038014003
:102ACC001F85EB5184B080B483B000AF786007F100
:102ADC00140080E80E00002318460C37BD4680BC5D
:102AEC0004B0704780B485B000AF78604FF43F43BA
:102AFC00FB607B68B3F840309AB2FB689BB2DB4357
:102B0C009BB213409AB27B68A3F84020002318466E
:102B1C001437BD4680BC704780B483B000AF78607A
:102B2C000B46FB70002318460C37BD4680BC704723
:102B3C0084B080B483B000AF786007F1140080E8F3
:102B4C000E007B680122A3F840207B680022A3F8CA
:102B5C0040207B680022A3F844207B680022A3F865
:102B6C005020002318460C37BD4680BC04B070477B
:102B7C0080B483B000AF7860002318460C37BD4694
:102B8C0080BC704780B582B000AF0023FB8012E0A0
:102B9C00002220210C48FEF760FE0120FEF7AEF863
:102BAC00012220210848FEF758FE0120FEF7A6F866
:102BBC00FB880133FB80FB88312BE9D900BF00BFB8
:102BCC000837BD4680BD00BF000C014080B582B007
:102BDC0000AF0023FB8014E0002220210D48FEF7FB
:102BEC003CFE4FF4FA7000F017F80122202109483E
:102BFC00FEF733FE4FF4FA7000F00EF8FB88013349
:102C0C00FB80FB88C72BE7D900BF00BF0837BD4648
:102C1C0080BD00BF000C014080B584B000AF78606F
:102C2C00FFF714FB0346094AA2FB03235A0D7B68EA
:102C3C0002FB03F3FB6000BFFB685A1EFA60002B1B
:102C4C00FAD100BF00BF1037BD4680BD83DE1B43E9
:102C5C0080B582B000AF0023FB7101210F48FEF755
:102C6C00E5FD0346002B0BD11420FEF747F801219C
:102C7C000A48FEF7DBFD0346002B01D10123FB7153
:102C8C0000BF01210548FEF7D1FD0346002BF8D00B
:102C9C00FB7918460837BD4680BD00BF00080140CF
:102CAC0080B582B000AF0023FB7102210F48FEF704
:102CBC00BDFD0346002B0BD11420FEF71FF802219B
:102CCC000A48FEF7B3FD0346002B01D10123FB712B
:102CDC0000BF02210548FEF7A9FD0346002BF8D0E2
:102CEC00FB7918460837BD4680BD00BF000801407F
:102CFC0080B582B000AF0346FB71FB79002B05D089
:102D0C00012201210648FEF7A8FD04E00022012162
:102D1C000348FEF7A2FD00BF0837BD4680BD00BFCB
:102D2C00000C014080B582B000AF0346FB71FB790B
:102D3C00002B05D0012202210648FEF78EFD04E08F
:102D4C00002202210348FEF788FD00BF0837BD466C
:102D5C0080BD00BF000C014080B582B000AF0346BF
:102D6C00FB71FB79002B05D0002240210648FEF7B1
:102D7C0074FD04E0012240210348FEF76EFD00BF04
:102D8C000837BD4680BD00BF0008014070B5002665
:102D9C000C4D0D4C641BA410A64209D100F022F876
:102DAC0000260A4D0A4C641BA410A64205D170BD26
:102DBC0055F8043B98470136EEE755F8043B984725
:102DCC000136F2E7402E0008402E0008402E000885
:102DDC00442E000803460244934200D1704703F886
:102DEC00011BF9E7F8B500BFF8BC08BC9E4670475C
:0C2DFC00F8B500BFF8BC08BC9E4670474C
:102E080002030405060708090A0B0C0D0E0F101023
:102E180002030405060708090A0B0C0D0E0F101013
:102E28000000000000000000010203040607080972
:082E3800000000000102030488
:042E40003101000854
:042E44000D01000874
:0C2E48000024F400100000000100000055
:0400000508000BF9EB
:00000001FF
