:020000040800F2
:1000000060060020B1010008130300080F03000878
:10001000110300086B020008310400080000000012
:100020000000000000000000000000003103000894
:100030006D0200080000000015030008DD03000841
:10004000CB010008CB010008CB010008CB01000860
:10005000CB010008CB010008CB010008CB01000850
:10006000CB010008CB010008CB010008CB01000840
:10007000CB010008CB010008CB010008CB01000830
:10008000CB010008CB010008CB010008CB01000820
:10009000CB010008CB010008CB010008CB01000810
:1000A000CB010008CB010008CB010008CB01000800
:1000B000CB010008CB010008CB010008CB010008F0
:1000C000CB010008CB010008CB010008CB010008E0
:1000D000CB010008CB010008CB010008CB010008D0
:1000E000CB010008CB010008CB010008CB010008C0
:1000F000CB010008CB010008CB010008CB010008B0
:10010000CB010008CB010008CB010008CB0100089F
:10011000CB010008CB010008CB010008CB0100088F
:10012000CB010008CB010008CB010008CB0100087F
:1001300000F002F800F02CF80AA090E8000C8244CD
:100140008344AAF10107DA4501D100F021F8AFF2AA
:10015000090EBAE80F0013F0010F18BFFB1A43F0A5
:10016000010318473803000048030000002300245F
:1001700000250026103A28BF78C1FBD8520728BFB7
:1001800030C148BF0B6070471FB51FBD10B510BD13
:1001900000F031F81146FFF7F7FF00F065F900F0C5
:1001A0004FF803B4FFF7F2FF03BC00F057F800006C
:1001B0000948804709480047FEE7FEE7FEE7FEE7FB
:1001C000FEE7FEE7FEE7FEE7FEE7FEE70448054937
:1001D000054A064B70470000E103000831010008A2
:1001E0006000002060060020600200206002002005
:1001F000704770477047754600F02CF8AE46050012
:100200006946534620F00700854618B020B5FFF731
:10021000DDFFBDE820404FF000064FF000074FF033
:1002200000084FF0000B21F00701AC46ACE8C00914
:10023000ACE8C009ACE8C009ACE8C0098D4670471D
:1002400010B50446AFF300802046BDE81040FFF72C
:10025000A8BF000000487047000000200149182096
:10026000ABBEFEE7260002007047FEE77047F0B520
:10027000CC78002204F00F03E40601D58C782343E8
:100280000C784FF00F0C14F0FF0F4FF0010E1BD045
:1002900005680E880EFA02F42640A64210D1960098
:1002A0000CFA06F725EA070703FA06F5CE783D4370
:1002B000282E02D0482E02D002E0446100E0046102
:1002C000521C082AE5D305600A88FF2A1CD9446815
:1002D000002202F108060EFA06F50E882E40AE4204
:1002E0000ED196000CFA06F7BC4303FA06F7CE7857
:1002F0003C43282E00D14561CE78482E00D10561BF
:10030000521C082AE5D34460F0BD41617047FEE706
:10031000FEE7704770470000044A0029916901D048
:10032000014300E0814391617047000000100240EA
:10033000704700000CB50022264800920192016827
:1003400041F4803101604FF4A063016801F4003191
:1003500001910099491C0091019911B900999942A4
:10036000F3D10168890333D5012101911A490A6843
:1003700042F010020A600A6822F003020A600A686A
:1003800042F002020A604168416041684160416890
:1003900041F480614160416821F47C114160416811
:1003A00041F4E8114160016841F080710160016829
:1003B0008901FCD5416821F003014160416841F0A9
:1003C000020141604168C1F381010229FAD10CBDEB
:1003D00001920CBD00100240002002407047000056
:1003E0000F4810B5016841F00101016041680D4AF4
:1003F0001140416001680C4A11400160016821F41C
:1004000080210160416821F4FE0141604FF41F0129
:100410008160FFF78FFF05494FF00060086010BD55
:10042000001002400000FFF8FFFFF6FE08ED00E0BC
:10043000FEE7000038B501210820FFF76DFF2020FE
:10044000ADF8000010208DF803000320054C8DF856
:10045000020069462046FFF70AFF20212046FFF7E9
:1004600054FF38BD000C0140FFF7E4FF42F2107466
:1004700000F00CF800210020401C80B26428FBD35F
:10048000491C89B2A142F6D3F2E700000248016894
:1004900081F02001016070470C0C0140AC040008A1
:0C04A00000000020600600006C01000855
:0400000508000131BD
:00000001FF
