:030000000204E017
:0C04E000787FE4F6D8FD7581190205272D
:03000800636D0025
:0400030002160000E1
:10059800D2AF5389F0438901758CFC758A67D2A95B
:1005A800D28C1206211205E9E5196401451870F884
:0905B800F518F51912044480EF56
:10044400120368AB07AA067C007D0A120305ED249B
:1004540030F50D750C2E7C007D0AAF03AE0212033D
:10046400057C007D0A120305ED2430F50B7C007D2C
:1004740064AF03AE021203057C007D0A120305ED8E
:100484002430F50A7C037DE8AF03AE021203057C39
:10049400007D0A120305ED2430F509AE02AF037C9A
:1004A400277D101203057C007D0A120305ED24301C
:1004B400F508E4FF74082FF8E6B4300676200FBF81
:1004C40004F27B007A0079087D01E4FF1205C17B08
:0C04D400FF7A0079087D017F060205C157
:03000B0002056C7F
:04056C00C0E0C0D05B
:10057000758CFC758A670517E51770020516C3941C
:100580004AE5169401400C751600751700751800A1
:03059000751901D9
:05059300D0D0D0E032E1
:1005FD007580FFC290D291D295AF80C295EF20E762
:01060D00F6F6
:01060E0022C9
:10063300AE071205FDC290C2918E80D295C295225B
:10064300AE071205FDD290C2918E80D295C295223B
:10060F00ED7004AC078004EF2440FCEC4480FF0243
:02061F000633A0
:1005C1008B0E8A0F891012060FAB0EAA0FA91012FB
:1005D10002EC60130510E5107002050F14F9120208
:0805E100ECFF12064380E22248
:1005E9007F381206337F0C1206337F061206337FDB
:0405F90001020633C2
:0B0653000000000000000000DFF622A5
:10036800E4F58DF58BD2A77F02120653C2A730B3EE
:10037800FD20B3FD308F10C28F7511007510FF7509
:100388000F7F750E47801AAF8DEFFEAD8B7C00E4B2
:100398002DFDEC3EFCE41202328F118E108D0F8C75
:1003A8000E7F8E7EE37D8A7C3FAB11AA10A90FA831
:1003B8000E12000EE4FBFAF978401201178F118E25
:1003C800108D0F8C0E7B007A2479747849120117EE
:1003D800E4FBFA79AA784312000E8F158E148D1358
:1003E8008C12E4FFFE7D807C40AB15AA14A913A8EB
:1003F800121201B4600F400DE4F515F51475138061
:1004080075124080217F0A7ED77DA37C3CAB15AA5C
:1004180014A913A8121201B4500C75150A7514D733
:100428007513A375123CE4FFFE7D7A7C44AB15AAD4
:0B04380014A913A81212000E12026B90
:010443002296
:1006210053890F438990E4F58DF58BC2ABD28EC20D
:02063100A722FE
:10000E00EC4D6011E8497017ED33EC3304600DE4EC
:10001E00FCFFFEFD22E933E8330470F80202D7122A
:10002E0002A258046009E4CC24815006285009022B
:10003E0002E12840030202DEC0E0EB4A7044B980C0
:10004E0006D0E0FB0202CDEF4E701CBD8008EBFF28
:10005E00EAFEE9FD80EBE98DF0A4FEE5F00200F783
:10006E00E9CDF9EAFEEBFFEF89F0A4FCE5F0CE89CD
:10007E00F0A42EFFE435F0CD89F0A42DFEE435F08A
:10008E008067EF4E7005BD80D780C3EF8BF0A4ACB8
:10009E00F0EE8BF0A42CFCE435F0F8EF8AF0A42CF3
:1000AE00E5F038FCE433CB8DF0A42CFCE5F03BF806
:1000BE00EE8AF0A42CFCE5F038F8E433CF89F0A4F6
:1000CE002CFCE5F038CF3400CE89F0A42FFFE5F0FC
:1000DE003EFEE433C98DF0A42EFEE5F039CD8AF054
:1000EE00A42FFFE5F03EFEE43DFD33D0E0FB5007CC
:1000FE000BBB000F0202E1EC2CFCEF33FFEE33FEE4
:06010E00ED33FD0202B911
:100114000202E1EC5D046005E8590470030202D7B1
:100124001202A2580460F6EC4860F2EC7004FDFE82
:10013400FF22C860DB2481C85009C39860025006BE
:100144000202DE9850CAF582E9294B4A7005AB8257
:100154000202CD75F0007C1A7880C3EF9BEE9AED15
:1001640099400DC3EF9BFFEE9AFEED99FDE842F036
:10017400DC23ACF0D0E0FFD0E0FED0E0FDAB822089
:10018400E7101BEB60BAEC2CFCEF33FFEE33FEED13
:1001940033FD0202B9E803F830E705C0F075F0005A
:1001A400EF2FFFEE33FEED33FD40B830E7C280AAF7
:1001B40074F8CC6480CCC86480C8F58204604FC3F2
:1001C400EB9FF5F0EA9E42F0E99D42F0E89C45F091
:1001D400603C501DE5825FFFE582D313CB5BCBF41B
:1001E4002B5582FB50280ABA002409B90020088044
:1001F4001DE5825BFBE582D313CF5FCFF4C3132FDE
:100204005582FF50090EBE00050DBD00010CC3EB65
:100214009FF5F0EA9E42F0E99D42F0E89C45F060CB
:0902240007CC4820E701B3EC22ED
:10022D0075F020800E75F010800575F0087D007E4C
:10023D00007F003392D530D50312035AEC334010B2
:10024D00EF33FFEE33FEED33FDEC33FCD5F0ED2255
:0E025D00E5F0247EA2D513CC92E7CDCEFF2291
:10026B00EDD2E7CD33EC3392D524814006E4FFFE8B
:10027B00FDFC22FCE4CFCECDCC24E0501174FF80EA
:10028B00EDC3CC13CCCD13CDCE13CECF13CF047087
:07029B00F030D5DE02035A2A
:1002A200E9D2E7C933E833F892D5EDD2E7CD33ECA2
:0702B20033FC5002B2D5221B
:1002B900EC30E7100FBF000C0EBE00080DBD0004A6
:1002C9000BEB6014A2D5EB13FCED92E7FD2274FF52
:1002D900FCFDFEFF22E480F8A2D574FF13FC7D80AB
:0302E900E480EFBF
:1004EC00020598E493A3F8E493A34003F68001F289
:1004FC0008DFF48029E493A3F85407240CC8C33311
:10050C00C4540F4420C8834004F456800146F6DFDF
:10051C00E4800B0102040810204080900003E47E6C
:10052C00019360BCA3FF543F30E509541FFEE493D4
:10053C00A360010ECF54C025E060A840B8E493A39B
:10054C00FAE493A3F8E493A3C8C582C8CAC583CAC6
:10055C00F0A3C8C582C8CAC583CADFE9DEE780BE7E
:0100070000F8
:1002EC00BB010689828A83E0225002E722BBFE0210
:0902FC00E32289828A83E4932243
:10030500BC000BBE0029EF8DF084FFADF022E4CCDC
:10031500F875F008EF2FFFEE33FEEC33FCEE9DECA5
:10032500984005FCEE9DFE0FD5F0E9E4CEFD22EDEB
:10033500F8F5F0EE8420D21CFEADF075F008EF2F35
:10034500FFED33FD4007985006D5F0F222C398FD26
:050355000FD5F0EA22C3
:0E035A00C3E49FFFE49EFEE49DFDE49CFC22B4
:00000001FF
