:020000040800F2
:10000000C006002005010008D72E00089D26000824
:10001000D52E0008A30A0008CD3400080000000017
:10002000000000000000000000000000012F000898
:10003000E50A000800000000D92E0008A12F0008E2
:100040001F0100081F0100081F0100081F01000810
:100050001F0100081F0100081F0100081F01000800
:100060001F0100081F0100081F0100081F010008F0
:100070001F0100081F0100081F0100081F010008E0
:100080001F0100081F0100081F0100081F010008D0
:100090001F0100081F0100081F0100081F010008C0
:1000A0001F0100081F0100081F0100081F010008B0
:1000B000053000081F0100081F0100081F0100088B
:1000C0001F0100081F0100081F0100081F01000890
:1000D0001F010008C13400081F0100081F010008AB
:1000E0001F0100081F0100081F010008DFF810D0E1
:1000F00000F074FC00480047F14F0008AFF30080A7
:10010000C00600200648804706480047FEE7FEE795
:10011000FEE7FEE7FEE7FEE7FEE7FEE7FEE7FEE7B7
:1001200003300008ED0000082DE9F0410024061B13
:10013000254671F1000605DA01240027D0EB0700FF
:1001400067EB0101161E73F1000605DA0027D2EBFA
:100150000702012567EB030300F02BFB86460E46E2
:1001600017469C46AC4204D00025D0EB050E65EB4B
:10017000010624B10020D2EB000760EB030C7046AF
:1001800031463A466346BDE8F081202A04DB203A36
:1001900021FA02F00021704721FA02F3D040C2F1A7
:1001A00020029140084319467047D2B201E000F89E
:1001B000012B491EFBD270470022F6E710B513460B
:1001C0000A4604461946FFF7F0FF204610BD30B539
:1001D00004460020034600E05B1C934203D2E05C2F
:1001E000CD5C401BF8D030BDF0B480EA0102D40FE2
:1001F0004200B2EB410F02D20246084611464A00C5
:1002000042D0C30DDDB2C1F3C752AD1A202D35DA8D
:10021000C1F3160141F4000204B15242C5F12006B7
:1002200002FA06F12A411044B3EBD05F23D0C4B1E7
:10023000012DA0EBC35009DCF0BC4FF0004202EAF4
:10024000C352DBB200F5000000F00EBB400000F12D
:10025000807000EBC350A0F1807040EAD17049007B
:1002600009E0490841EAC071A0EBC35000F5000065
:10027000400800EBC350F0BC00F0EDBA614201222F
:1002800002EB4101001BF6E7F0BC704781F0004132
:10029000AAE780F00040A7E780EA010210B502F06B
:1002A0000043400022D04A001FD0010E01EB126132
:1002B000C0F35600C2F3560240F4000042F40002BC
:1002C000A0FB022000047F39140400D0401C50EA37
:1002D000124001D44000491EC2B20C0604EBD010FB
:1002E000401C4008802A02D003E0002010BD20F00E
:1002F0000100002900DA0020184310BD30B480EA64
:10030000010202F0004530F0004221F0004013D01D
:1003100090B1C30DD40DC2F31601C0F31600E41A58
:1003200041F4000140F400027D34914201D3641C89
:1003300000E04900002C02DA30BC002070474FF486
:1003400000000023914201D3891A034340084FEA79
:100350004101F7D151B1914202D14FF0004105E086
:1003600002D24FF0010101E06FF0010103EBC45034
:10037000284430BC00F06FBA420005D0C0F3C75229
:100380005242914201DC0020704700EBC15070479F
:100390002DE9FE4F804681EA0300C00F0C46009015
:1003A00021F0004123F00045B8EB0200A94105D23D
:1003B0004046214690461C460B46024623F000402C
:1003C000104347D0270DC7F30A00C3F30A51029028
:1003D000401A019040286BDAC3F3130040F4801BED
:1003E0000098924620B10023D2EB030A63EB0B0B7B
:1003F00001985946C0F14002504600F00BFA0646FB
:100400000D4650465946019A00F013FA10EB0800C9
:100410006141002487EA115284EAE7731A4340D00D
:10042000009A62B3019A012A4FEA075215DC001BB9
:1004300061EB02014FF0004202EA0752CDE90042AF
:10044000001C41F5801132462B4600F04AFA03B0F9
:10045000BDE8F08F40462146F9E7001B61EB020141
:10046000001C41F5801300185B412018A2F500170D
:1004700047EB030140EAD570B6196D4111E06D08F4
:100480004FEA360645EAC0754FEA0752001B61EB9A
:100490000201001C41F5801149084FEA30000019A3
:1004A000514132462B4603B0BDE8F04F00F00ABA86
:1004B0000098012240000023D0EB020263EBE073BE
:1004C000009821464FEAE074B8EB000061EB0401AC
:1004D000E9E783F000435BE781F0004158E72DE94D
:1004E000FE4F81EA030404F0004421F0004100942F
:1004F0004FF0000B23F0004350EA01045ED052EAB3
:1005000003045BD0C3F30A54C1F30A552C44A4F28C
:10051000F3340194A0FB0254C1F3130141F48011A0
:10052000C3F3130343F4801301FB024400FB034EA7
:10053000840A970A44EA815447EA8357A4FB076870
:1005400002958D0A05FB07854FEA932C04FB0C549A
:100550002705029D4FEA065847EA1637B5EB08050E
:100560006EEB070C870E920E47EA811742EA831260
:10057000A7FB0201B6EB0B0164EB00042B0D43EA71
:100580000C335E1844EB1C50DA465146E7FB02017F
:10059000C5F313044FEA0B3343EA14534FEA043212
:1005A000019C43EA0603A4F10C040294009CCDE9EB
:1005B00000B400F096F903B0BDE8F08F00200146CA
:1005C000F9E72DE9F04D81EA030404F0004B21F036
:1005D000004514464FF0000A23F0004150EA05029E
:1005E00020D054EA01021DD0C5F30A570246C5F3D4
:1005F0001303C1F31300C1F30A5640F4801543F40A
:100600008013A7EB0608101BD64608F2FD3873EBE3
:10061000050002D308F1010801E092185B41B8F12E
:10062000000F03DA00200146BDE8F08D00204FF4F2
:100630008011064684460EE0171B73EB050705D3B1
:10064000121B63EB050306434CEA010C49084FEA11
:10065000300092185B4150EA0107EDD152EA0300E5
:1006600012D082EA040083EA0501084305D0101B7A
:10067000AB4106D20122002306E000224FF00043E6
:1006800002E06FF0010253101AEB06004CEB085128
:1006900010EB0A0041EB0B01BDE8F04D00F012B980
:1006A000C10F80EAE0700844CA079623002100F0D9
:1006B000DBB896230022114600F0D6B800F00042C5
:1006C00020F00040C10DC0F3160040F400007F2967
:1006D00001DA00207047962903DCC1F19601C84079
:1006E00001E096398840002AF4D04042704720F05B
:1006F0000040C10DC0F3160040F400007F2901DA6C
:1007000000207047962903DCC1F19601C84070476C
:1007100096398840704770B5C1F30A5201F0004520
:100720000024C1F3130140F2FF3341F480119A42D7
:1007300001DA002070BD40F233439A42A2F2334204
:1007400003DC5242FFF721FD00E090402C43F1D042
:10075000404270BD00F0004230F000400AD0C10DB0
:1007600001F56071C0F3160042EA0151C20840076A
:100770001143704700200146704701F0004330B438
:1007800021F0004150EA010206D00A0DA2F5607284
:10079000C1F31301002A02DC30BC00207047440F73
:1007A00044EAC104C100E01830BC00EBC25000F0C4
:1007B00052B82DE9F05F0546002092469B468846D8
:1007C0000646814640241BE02846414647462246CD
:1007D000FFF7DBFC53465A46C01A914110D311462D
:1007E0001846224600F016F82D1A67EB01084F460E
:1007F00022460120002100F00DF817EB00094E41C0
:10080000201EA4F10104DFDC484631462A46434657
:10081000BDE8F09F202A04DB203A00FA02F1002014
:1008200070479140C2F1200320FA03F3194390402E
:100830007047202A06DBCB17203A41FA02F043EA40
:10084000E07306E041FA02F3D040C2F12002914089
:100850000843194670470029A8BF7047401C49004B
:1008600008BF20F00100704710B4B0FA80FC00FA15
:100870000CF050EA010404BF10BC704749B1CCF140
:10088000200421FA04F411FA0CF118BF01212143CC
:100890000843A3EB0C01CB1D4FEA00614FEA102087
:1008A00042BF002010BC704700EBC3501044002929
:1008B000A4BF10BC7047401C490008BF20F00100D5
:1008C00010BC704710B5141E73F1000408DA401C08
:1008D00041F1000192185B411A4301D120F001005F
:1008E00010BD2DE9F04D92469B4611B1B1FA81F24F
:1008F00002E0B0FA80F220329046FFF78BFF044608
:100900000F4640EA0A0041EA0B0153465A460843A3
:1009100013D0114653EA010019D0C8F140025046E5
:10092000FFF733FC05460E46504659464246FFF750
:1009300071FF084305D0012004E020463946BDE898
:10094000F08D0020054346EAE0762C4337430A98B1
:100950006305E40AA0EB08000022FD0A44EA4754BC
:100960000A3002D500200146E9E701051019694166
:10097000DDE9084500196941BDE8F04DA2E770B511
:1009800021F0004303430CD0C1F30A550024D5EBFA
:10099000040564EB0403D617AD1AB34102DB002053
:1009A000014670BD201841EB025170BD30B5041EE8
:1009B00071F1000404DB4FF00044404264EB01019C
:1009C000141E73F1000405DB1C464FF00043524235
:1009D00063EB04038B4208BF824230BD064C074DD7
:1009E00006E0E06840F0010394E8070098471034FF
:1009F000AC42F6D3FFF77EFB486D0008686D000837
:100A00002DE9F04D00231A461B1A8A4103DB002012
:100A10000146BDE8F08DC1F30A52C1F3130141F460
:100A200080154FF0000BD10702D100186D41521E06
:100A30000027044640F2FF11384601EB620A3E46A9
:100A40008046024600204FF48011FFF79EFBC2193A
:100A50007141BB1846EB0100B4EB030C75EB000CC5
:100A600004D3E41A65EB000517460E46241908F175
:100A700001006D4180463428E3DDF91946EB06009C
:100A8000091BA84103D24FF0FF32134601E00022B8
:100A900013461BEB070046EB0A51BDE8F04DFFF78C
:100AA00011BFFEE770B50C4C0C4D1021A279284601
:100AB00000F094F9E2792021284600F08FF9A9147A
:100AC000074D227A284600F089F9627A691428468F
:100AD000BDE8704000F082B93800002000080140F5
:100AE000000C0140704772B6FEE710B590F8211077
:100AF0000022022905D00421816380F820200120F2
:100B000010BD01680B6823F00E030B6001680B68D1
:100B100023F001030B6090F84030C46B012101FA0F
:100B200003F3636080F8211080F82020104610BD88
:100B300010B590F821100024022903D0042181630C
:100B400001243DE001680A6822F00E020A60016893
:100B50000A6822F001020A601A4A0168914201D132
:100B6000012121E0174A1432914201D110211BE0EA
:100B7000144A2832914201D1891515E0114A3C32BC
:100B8000914201D189140FE00E4A5032914202D1B4
:100B90004FF4803108E00B4A6432914202D14FF4A5
:100BA000801101E04FF08071064A083A516001213E
:100BB00080F82110002180F82010416B01B1884796
:100BC000204610BD0800024070B5044600F00CF944
:100BD0000546601C02D004480078044400F004F983
:100BE000401BA042FAD370BD980000202DE9F84FB9
:100BF000DFF8B891002409F1040A0AF1040B234636
:100C00000F270BF1040EC9E00125A5402A40AA4296
:100C10007DD1674ED1F804C0ACEB0608B44532D0A4
:100C200014DCBCF1030F3AD009DCBCF1000F2AD070
:100C3000BCF1010F1CD0BCF1020F31D11DE0BCF1A1
:100C4000110F17D0BCF1120F2AD119E0B8F5881F87
:100C500019D006DCB8F5803F15D0B8F5801F1FD13C
:100C600011E0B8F5001F0ED0B8F5041F18D10AE046
:100C7000CB6815E0CB681B1D12E0CB6808330FE092
:100C8000CB680C330CE08B682BB1012B4FF00803C1
:100C900003D0456104E0042302E0056100E0002385
:100CA000FF2A01D8064601E000F104064FEA840558
:100CB00001D9A5F12005D6F8008007FA05FC28EA3D
:100CC0000C0803FA05F548EA0508C6F800804D68E7
:100CD000ED0062D5374DAE6946F00106AE61AD69F3
:100CE00024F0030605F001050095334D06EB050CD5
:100CF000DCF80850A607360F07FA06F825EA0805BB
:100D0000DFF8B880404503D14FF0000817E044E019
:100D1000DFF8AC80404502D14FF001080FE0DFF86A
:100D2000A480404502D14FF0020808E0DFF8988027
:100D3000404502D14FF0030801E04FF0040808FAE3
:100D400006F848EA0508CCF808804D68D9F8006034
:100D5000ED034D4601D5164300E096432E604D68E5
:100D6000DAF80060AD03554601D5164300E096431E
:100D70002E604D68DBF80060ED025D4601D516433C
:100D800000E096432E604D68DEF80060AD027546C7
:100D900001D5164300E096432E60641C0D682A4678
:100DA000E5407FF431AFBDE8F88F0000000401405A
:100DB0000000111000100240000001400008014036
:100DC000000C01400010014000140140C26821EAFB
:100DD00002030A4043EA0241016170470AB101611E
:100DE00070470904FBE70000014880687047000075
:100DF0009800002070B5040025D094F83D0000252F
:100E000020B984F83C50204600F078FA242084F879
:100E10003D002068016821F001010160206801683F
:100E200041F4004101602068016821F40041016043
:100E300000F0C2FB4D4A6168914201D84C4900E084
:100E40004C49884201D2012070BD4B492368B0FB58
:100E5000F1F15E6826F03F060E435E6063689342E0
:100E600006D94FF4967359434FF47A73B1FBF3F1FB
:100E70002368491C1E6A26F03F06314319626168E7
:100E8000914210D84900401EB0FBF1F2521CC2F34F
:100E90000B02042A01D2042022E0B0FBF1F0401C36
:100EA000C0F30B001CE0A268F2B301EBC10303EB3B
:100EB0000116431EB3FBF6F35B1C43F480431B0592
:100EC00049D092B301EBC10202EB0111401EB0FB0D
:100ED000F1F0401CC0F30B0040F4804040F40040AF
:100EE0002168CA694CF6FF739A431043C861D4E97C
:100EF000071001432068026822F0C002114301601C
:100F0000D4E9030101432068826848F2FF339A4321
:100F100011438160D4E9050108432168CA6822F0C1
:100F2000FF021043C86001E00EE016E0206801688F
:100F300041F0010101602564202084F83D00256313
:100F400084F83E50002070BD01EB4106431EB3FB08
:100F5000F6F35B1CB3E70120C2E701EB4101401E41
:100F6000B0FBF1F0401CC0F30B00B7E7A086010016
:100F700080841E0000093D0040420F002DE9FF4F14
:100F800083B00025DDE910799A4693460446DDF8E2
:100F900048800095FFF728FF064694F83D0020287A
:100FA0007CD11923012285492046009601F086FC58
:100FB0000028F5D194F83C0001286FD0012084F876
:100FC0003C0020680168C90703D1016841F00101B4
:100FD00001602068016821F400610160222084F82A
:100FE0003D00402084F83E0025646762A4F82A9002
:100FF000608D20857248E062CDE9008653465A46EE
:101000002046049901F062FB00287DD1208DDFF895
:10101000B491202768B1012814D002282068016803
:101020001ED041F4806101602068416980690090B0
:10103000B6E02068416981690091016841F400715E
:101040000160ADE02068016821F48061016072B642
:101050002068416981690091016841F400710AE0EA
:1010600041F40061016072B62068416981690091B4
:10107000016821F48061016062B691E0032868D8BC
:1010800001280CD0022843464FF000024946204672
:1010900000960FD001F012FCB0BB10E08BE032469E
:1010A0004146204601F089FC70BB20680069616AF6
:1010B00008706CE001F002FC30BB72B634E02068CE
:1010C000016821F48061016072B620680069616A7C
:1010D0000870606A401C6062208D401E2085608D13
:1010E000401E6085384846F2A8110068B0FBF1F058
:1010F000C0EBC00000EB80000090401E009008D0C4
:1011000020684069C04300E029E040070CD5009802
:10111000F3E744F8305F6773A573206940F020005F
:10112000206162B625731AE02068016841F40071FD
:10113000016020680069616A0870606A401C606232
:10114000218D491E2185618D491E618562B6216808
:101150001BE032464146204601F02FFC18B1012029
:1011600007B0BDE8F08F20680069616A0870606AA6
:10117000401C6062218D491E2185618D491E61855B
:1011800021684A69D24352070AD409690170606A2A
:10119000401C6062208D401E2085608D401E608551
:1011A000208D00287FF46AAF84F83D7084F83E50AB
:1011B00084F83C50D4E70220D2E70000020010007F
:1011C0000000FFFF04000100A40000202DE9FF4FF4
:1011D00083B09A46DDE9119793460446DDF84080D6
:1011E000FFF702FE054694F83D0020287FD1192321
:1011F000012240492046009501F060FB002876D18D
:1012000094F83C00012872D0012084F83C0020684A
:101210000168C90703D1016841F00101016020683C
:10122000016821F400610160212084F83D00402024
:1012300084F83E0000262664C4F82480A4F82A908E
:10124000608D20852C48E062CDE9007553465A46F2
:101250002046049901F0B8FA70B930E02A463946C0
:10126000204601F0DDFB58B1206C042804D1206831
:10127000016841F400710160012007B0BDE8F08F02
:10128000606A216800780861606A401C6062218D94
:10129000491E89B22185628D521E6285226853697A
:1012A000DB435B070BD469B100781061606A401CB6
:1012B0006062208D401E2085608D401E6085208DDF
:1012C0000028CBD12A463946204601F0D1FA002821
:1012D000CAD154F83D0B016841F40071016020202F
:1012E00004F81E09E67766770020C6E7FFE70220CC
:1012F000C3E70000020010000000FFFF10B586B039
:1013000000210091019102910391006810498842E7
:101310001BD1104CA06940F00800A061A06969468B
:1013200000F0080004904FF44060009012200190FB
:10133000032003900848FFF759FCE06940F480005F
:10134000E061E06900F48000049006B010BD000088
:101350000058004000100240000C01400248816823
:10136000027811448160704798000020074810B54A
:10137000016841F010010160032000F075F80F20B2
:1013800000F006F800F024F8002010BD0020024014
:1013900070B50D4D04464FF47A712878B1FBF0F02A
:1013A0000A490968B1FBF0F000F0ECFA48B9102CDA
:1013B00007D200222146501E00F036F800206C6053
:1013C00070BD012070BD000098000020A400002026
:1013D0000C4808B5816941F001018161816901F022
:1013E00001010091C16941F08051C161C06900F003
:1013F000805000900448416821F0E06141F00071A4
:10140000416008BD0010024000000140002809DBD7
:1014100000F01F02012191404009800000F1E0200E
:10142000C0F8001170470000F0B40E4B1B680C466A
:10143000C3F30223C3F10705042D00D90425191DA8
:10144000072901D2002300E0DB1E012606FA05F180
:10145000491E214099409E40761E16403143F0BC03
:1014600002F080B80CED00E0064900F007020868C1
:101470004FF6FF03184040EA0220034A1043086079
:10148000704700000CED00E00000FA052DE9F04780
:101490000F46050061D0434E306800F00700B842A7
:1014A00009D2306820F0070038433060306800F01F
:1014B0000700B84251D128683B4C810712D540073C
:1014C00003D5606840F4E06060602878000703D5C9
:1014D000606840F4605060606068A96820F0F000C7
:1014E000084360602878C00728D06868012810D0B9
:1014F0002168022810D0890700292EDA616821F0BE
:10150000030101436160FFF76FFC804641F28839B7
:101510000DE021688903EFE78901EDE7FFF764FC3F
:10152000A0EB0801494502D90320BDE8F0876068B7
:10153000696800F00C00B0EB810FEFD1306800F06B
:101540000700B8420BD9306820F0070038433060FC
:10155000306800F00700B84201D00120E5E72878A4
:10156000400705D56068E96820F4E06008436060E2
:101570002878000706D56068296920F4605040EAA1
:10158000C100606000F038F86168084AC1F30311D7
:10159000515CC8400649086006480068FFF7F8FE3D
:1015A0000020C2E700200240001002403A6C000810
:1015B000A40000209C0000200448054900684968F8
:1015C000044AC1F30221515CC8407047A4000020C6
:1015D000001002404A6C0008044805490068496848
:1015E000044AC1F3C221515CC8407047A4000020E6
:1015F000001002404A6C000812A185B00FC98DE8A6
:101600000F0014A0144A006804905168134801F0B8
:101610000C03042B10D0082B0ED1C1F38343C90354
:101620001DF803000AD5516804AAC1F34041515C7A
:101630000A4A5043B0FBF1F005B0704708494843EF
:10164000FAE7000002030405060708090A0B0C0D5F
:101650000E0F1010010200000010024000127A006C
:1016600000093D002DE9F84F040070D02078C04DEE
:10167000C00749D06868C0F38100012807D06868B6
:10168000C0F38100022809D16868C00306D5286824
:10169000800339D560680028E7D035E06068B0F590
:1016A000803F0BD010B1B0F5A02F11D0286820F4E6
:1016B00080302860286820F4802002E0286840F408
:1016C00080302860606890B1FFF78EFB06460AE024
:1016D000286840F480202860F0E700BFFFF784FB13
:1016E000801B642873D828688003F7D50CE0FFF7C7
:1016F0007BFB064605E000BFFFF776FB801B6428F6
:10170000F0D828688003F7D420789A4E80074FF0ED
:1017100001094FF0000839D5686810F00C0F07D0A8
:101720006868C0F38100022809D16868C00306D444
:101730002868800714D52069012808D110E02069A5
:10174000B0B1C6F80090FFF74FFB074605E00AE18D
:10175000FFF74AFBC01B0228C4D828688007F7D5CA
:101760002868616920F0F80040EAC10028600DE0B7
:10177000C6F80080FFF738FB074604E0FFF734FBAC
:10178000C01B022823D828688007F7D420780007D8
:101790002CD57948A169D9B1C0F80090FFF724FB96
:1017A000074604E0FFF720FBC01B02280FD8686A39
:1017B0008007F7D571484FF4FA510068B0FBF1F09B
:1017C000009000BF0098411E0091FAD20EE080E028
:1017D000C0F80080FFF708FB074604E0FFF704FBB2
:1017E000C01B022875D8686A8007F7D420784007A4
:1017F00060D5E8690027C00008D4E86940F080504F
:10180000E861E869012700F0805000905C480168B9
:10181000C90513D40168834641F480710160FFF764
:10182000E3FA824606E000BFFFF7DEFAA0EB0A000B
:1018300064284ED8DBF80000C005F5D5E068012823
:101840000AD008B1052813D0286A20F001002862C8
:10185000286A20F0040002E0286A40F001002862B3
:10186000E06841F2883B98B1FFF7BEFA82460BE090
:10187000286A40F004002862EEE700BFFFF7B4FAE0
:10188000A0EB0A0159455AD8286A8007F6D50CE022
:10189000FFF7AAFA824605E0FFF7A6FAA0EB0A01D5
:1018A00059454CD8286A8007F6D41FB1E86920F062
:1018B0008050E861E06988B36968C1F38101022959
:1018C00044D00228C6F8608004D0FFF78DFA0446A1
:1018D00038E034E0FFF788FA074604E0FFF784FABF
:1018E000C01B02282BD828688001F7D4206AB0F5E5
:1018F000803F05D16868A16820F400300843686023
:10190000D4E908010843696821F474110843686048
:10191000C6F86090FFF768FA044606E025E000BFCD
:10192000FFF762FA001B022809D828688001F7D562
:101930001BE000BFFFF758FA001B022802D9032062
:10194000BDE8F88F28688001F4D40EE00128F7D0B4
:101950006868226A00F48031914204D1616A00F41F
:101960007010884201D00120EAE70020E8E700007B
:10197000001002400000424280044242A4000020C5
:101980000070004010B5401EB0F1807F01D30120EF
:1019900010BD4FF0E02460610F21601701F0E2FDFF
:1019A0000020A06107202061002010BD7047704713
:1019B00010B590F83C20012A22D0012280F83C206A
:1019C000CA688C6822F4407222434C6822F4806218
:1019D00022430C6822F4006222430C6922F48052F4
:1019E00022434C6922F400522243C969002322F4A5
:1019F00080420A4301684A6480F83C30002010BDF0
:101A0000022010BD70B590F83C20012A26D0012498
:101A100080F83C40022280F83D2003685A689D68A7
:101A200022F070060A6832435A600D4B02689A42EF
:101A300008D0B2F1804F05D00A4B9A4202D00A4B2F
:101A40009A4204D1496825F080031943916080F8D7
:101A50003D40002180F83C10084670BD022070BD5A
:101A6000002C0140000400400008004010B50400B4
:101A700003D094F83D0010B107E0012010BD002014
:101A800084F83C00204600F01FF8022084F83D0056
:101A9000211D206801F0BCFA012084F8460084F87A
:101AA0003E0084F83F0084F8400084F8410084F848
:101AB000420084F8430084F8440084F8450084F828
:101AC0003D00002010BD000008B5114A0168114812
:101AD000914208D1816941F400618161806900F41B
:101AE0000060009008BDB1F1804FFBD1C16941F0A9
:101AF0000101C161C069002200F00100009011469F
:101B00001C20FFF791FCBDE808401C20FFF77EBCBD
:101B1000002C01400010024090F83D10012901D036
:101B200001207047022180F83D100168CA6842F028
:101B30000102CA6000680B49884208D0B0F1804FAA
:101B400005D00949884202D00849884204D18168F9
:101B500001F00701062903D0016841F0010101608D
:101B600000207047002C01400004004000080040A5
:101B700070B5044690F83C00012817D0012584F880
:101B80003C50022084F83D002068826822F07702F1
:101B900022F47F4282600868502830D00DDC202873
:101BA0004DD005DC98B310283BD148E0022070BD31
:101BB000302844D0402834D139E0602828D070281B
:101BC00006D0B0F5805F2CD0B0F5005F29D10AE0D7
:101BD000CB68D1E90121206801F05DFA20688168B5
:101BE00041F0770109E0CB68D1E90121206801F0DB
:101BF00052FA2068816841F48041816011E0CA682E
:101C00004968206801F0FCFA5021206807E016E0DE
:101C1000CA684968206801F004FB6021206801F06F
:101C200044FA84F83D50002084F83C0070BDCA6836
:101C30004968206801F0E4FA40212068EFE7226853
:101C400001461046EBE72DE9F0410D46040003D0B4
:101C500094F83D0018B108E00120BDE8F0810020B3
:101C600084F83C00204600F041F8022084F83D0052
:101C70002068816844F2070291438160211D206839
:101C800001F0C6F9226890689169166A2B68AF69FD
:101C9000034340F20330814341EA0721A868EF691A
:101CA00008434FF6FC418843E96840EA07200143B6
:101CB00028692F6A000140EA0730084369686D69A6
:101CC00026F0220646EA05152943936022689061B2
:101CD00054F8460B0162012004F81F09E0752076D4
:101CE000E0762077A0750020B7E7000000B585B04A
:101CF000002100910191029103911A4B02681A4848
:101D0000C0219A4213D1C26942F00202C261C26983
:101D100002F002020492826942F004028261806948
:101D2000009100F0040004906946104815E0104B43
:101D30009A4214D1C26942F00402C261C26902F03F
:101D400004020492826942F0080282618069009173
:101D500000F00800049069460648FEF747FF05B00A
:101D600000BD0000000400400010024000080140D7
:101D700000080040000C014070B590F83E60044639
:101D800090F83F5090F8423090F84320022021B163
:101D900004290ED0012E1BD114E0012E18D1012BE5
:101DA00016D184F83E0084F8420001220021206808
:101DB00020E0012D0CD1012A0AD184F83F0084F8DB
:101DC000430014E0012D03D1012B01D1012A01D0E0
:101DD000012070BD84F83E0084F83F0084F8420082
:101DE00084F8430001220021206801F047F9012214
:101DF0000421206801F042F92068016841F00101E6
:101E00000160002070BD704770B50446006801692C
:101E10004FF00005C943890715D4C168C943890734
:101E200011D4E91E016101202077206880698007B4
:101E3000204602D0FFF7E7FF04E000F0BFF820469D
:101E400000F04EF9257720680169C943490717D486
:101E5000C168C943490713D46FF00401016102202E
:101E600020772068806910F4407F204602D0FFF779
:101E7000CAFF04E000F0A2F8204600F031F925770F
:101E800020680169C943090716D4C168C943090715
:101E900012D46FF008010161042020772068C06926
:101EA0008007204602D0FFF7AEFF04E000F086F87E
:101EB000204600F015F9257720680169C943C90655
:101EC00017D4C168C943C90613D46FF0100101616A
:101ED000082020772068C06910F4407F204602D097
:101EE000FFF791FF04E000F069F8204600F0F8F8F1
:101EF000257720680169C943C90708D1C168C9436A
:101F0000C90704D1891E0161204600F039F9206813
:101F10000169C943090609D4C168C943090605D442
:101F20006FF0800101612046FFF740FD20680169E4
:101F3000C943490609D4C168C943490605D46FF0AD
:101F400040010161204600F05BF920680169C94346
:101F500089060BD4C168C943890607D46FF02001F4
:101F600001612046BDE87040FFF721BD70BD000053
:101F700000B585B0002100910191029103910068A4
:101F80000B49884212D10B48816941F004018161FB
:101F90008069694600F0040004904FF410600090DE
:101FA0000220019003900448FEF720FE05B000BD1A
:101FB000002C01400010024000080140704770B53D
:101FC000044690F83C000D4601280AD0012084F810
:101FD0003C0042B1042A18D0082A2AD00C2A4DD13C
:101FE00039E0022070BD206801F068F8206881693E
:101FF00041F0080181612068816921F0040181615B
:10200000206881692A69114311E0206801F07EF897
:102010002068816941F4006181612068816921F44F
:1020200080618161206881692A6941EA02218161B8
:1020300024E0206801F096F82068C16941F00801A9
:10204000C1612068C16921F00401C1612068C169D2
:102050002A69114311E0206801F0B0F82068C169D5
:1020600041F40061C1612068C16921F48061C161EE
:102070002068C1692A6941EA0221C161002084F80F
:102080003C0070BD10B5040003D094F83D0010B1C1
:1020900007E0012010BD002084F83C00204600F03D
:1020A0001EF8022084F83D00211D206800F0B0FFDA
:1020B000012084F8460084F83E0084F83F0084F84C
:1020C000400084F8410084F8420084F8430084F81A
:1020D000440084F8450084F83D00002010BD70479E
:1020E0007047000010B50446022249B104290ED001
:1020F000082913D094F84100012816D0012010BD02
:1021000094F83E000128F9D184F83E200FE094F8BD
:102110003F000128F2D184F83F2008E094F8400005
:102120000128EBD184F8402001E084F8412001220D
:10213000206800F0A3FF0F492068884203D1426C59
:1021400042F4004242642068884208D0B0F1804FD7
:1021500005D00949884202D00849884204D18168E3
:1021600001F00701062903D0016841F00101016077
:10217000002010BD002C0140000400400008004079
:1021800010B50068B0F1804F37D11C4A111F081FED
:1021900002F0C2FF194A4C3A911E881E00F094FCCE
:1021A000164A463A911E881E00F075FC032000F086
:1021B00095FE124C5C3CE063042000F08FFE20642E
:1021C000B4F90C003E30FEF76BFA0146A06D01F049
:1021D0007FF96063A16B0844E064216D4218401AE6
:1021E000C4E9112004F14401084600F03FFCD4E9A1
:1021F0001101BDE8104000F085BE10BD9400002024
:102200007047704770470000F8B5026804461068D0
:10221000D168536910F00F0F4FF0000553D003F051
:10222000010601F4907737435FD0C20705D0CA0595
:1022300003D5226C42F001022264420705D5DA0779
:1022400003D0226C42F002022264820705D5DA072D
:1022500003D0226C42F004022264020707D501F089
:102260002002324303D0226C42F008022264226C26
:10227000002A34D0800604D5880602D5204601F015
:1022800019F820684069216CC0F38010090700D458
:1022900030B3204600F0DFFF2068416949061BD5B6
:1022A000416921F040014161A06BA8B158494163E7
:1022B000A06BFEF73DFC002811D0A06B416B01B074
:1022C000BDE8F040084783060FD58B060DD52046A4
:1022D000BDE8F84000F0EEBF2046FFF793FFF8BDE1
:1022E0002046FFF78FFF2564F8BD266B2023012EC3
:1022F00052D1C60650D5CE064ED510685068009013
:10230000506940062AD5A16B086840680004000C9B
:10231000EAD0A68D8642E7D9E0858869202818D0C2
:10232000D06820F48070D0602068416921F00101FC
:1023300041612068416921F04001416184F83E30EB
:1023400025632068C16821F01001C160A06BFEF711
:10235000CCFBA08DE18D401A81B219E0A08DE18DFA
:10236000401A81B2E08D0028BED00029BCD0D068D0
:1023700020F49070D0602068426922F0010242612E
:1023800084F83E3025632068C26822F01002C260E3
:102390002046FFF736FFF8BD05062BD50D0629D5DB
:1023A00094F83D002128F6D1A068B0F5805F01D1F6
:1023B0002069B0B1206A411C216221680078486020
:1023C000E08C401E0004000CE084E4D12068C16869
:1023D00021F08001C1602068C16841F04001C16006
:1023E000F8BD206A0088C0F308005060206A801C95
:1023F0002062E5E74006F3D54806F1D5D1682046CE
:1024000021F04001D16084F83D3000F046F9F8BD7C
:102410004732000870B5040004D094F83D00002550
:1024200010B106E0012070BD84F83C50204600F059
:1024300023F8242084F83D002068C16821F400516D
:10244000C160204600F092FF2068016921F49041AC
:1024500001612068416921F02A0141612068C16859
:1024600041F40051C1602564202084F83D0084F8C7
:102470003E00002070BD000070B586B000240094BE
:102480000194029403942B4E03682B4902200322EB
:102490002A4DB34229D18B6943F480438B618B6908
:1024A00003F4804304938B6943F004038B618969CF
:1024B000039201F0040104910102CDE90010694684
:1024C0002846FEF793FB2815CDE900046946284607
:1024D0000294FEF78BFB002201212520FEF7A4FFCA
:1024E0002520FEF793FF06B070BD154EB342FAD11A
:1024F000CB6943F40033CB61CB6903F4003304931D
:102500008B6943F004038B618969039201F0040134
:1025100004910421CDE9001069462846FEF766FBC8
:102520000820CDE90004694628460294FEF75EFBC8
:10253000D9E70000003801400010024000080140C7
:102540000044004090F83E30202B0ED159B152B1DA
:1025500090F83C30012B08D0012380F83C30002358
:10256000036300F05FBF0120704702207047000046
:1025700070B51A4A01246103957A19480023052D84
:102580001CD2DFE805F003080B1216009370D3701D
:102590001371537119E09470D37001E09370D4708B
:1025A00013715371FEF712FC0FE09370D370147126
:1025B000F7E79370D37013715471F3E79370D3708E
:1025C000137153710122FEF709FCBDE87040034905
:1025D00001220A310348FFF7B5BF00003800002090
:1025E00000100140340200202DE9F843044690F821
:1025F0003D001F4616460D4620284CD1C5B1BEB140
:1026000094F83C00012846D0012084F83C004FF0AB
:102610000008C4F84080212084F83D00FEF7E4FB68
:10262000A6848146E684A068B0F5805F03D004E00C
:102630000120BDE8F883206928B12E465FF000052F
:1026400084F83C800EE00026FAE78021204600F066
:1026500004FFA0B9AEB116F8010B21684860E08C08
:10266000401EE084E08C4B464FF0000200970028AB
:10267000EBD14FF04001204600F0EFFE30B10320D7
:10268000D7E735F8020BC0F30800E6E7202084F80E
:102690003D000020CDE70220CBE77047FEE7016850
:1026A0004A69D24352050FD46FF480624A61002117
:1026B00040F8301F202242738173026942F0040205
:1026C0000261017301207047002070472DE9F84F27
:1026D0000446006889460B9D01689846174641F4F8
:1026E000806101602068016841F48071016000959B
:1026F0004FF0011B0022594620460A9B00F0DEF8ED
:102700004FF4007A40B120680068C00501D5C4F8D4
:1027100040A00320BDE8F88F216809F0FE000861A1
:102720002B46284920460A9A00F0FCF8F0BB2068A6
:102730004169806900902A4620460A9900F070F9A4
:1027400040B1206C04283AD12068016841F400713E
:10275000016034E0FEB2B8F1010F09D02168380AF7
:1027600008612A4620460A9900F05AF90028E8D163
:10277000206806612A4620460A9900F051F900288F
:10278000DFD12068016841F480710160009500226A
:10279000594620460A9B00F091F80028B3D12168E1
:1027A00009F0FF0040F00100086100E007E02B465F
:1027B000044920460A9A00F0B5F80028AAD0012062
:1027C000A8E70000020001002DE9F8430446006874
:1027D0000D46DDE9089701689846164641F4807178
:1027E00001604B4600224FF001112046009700F097
:1027F00065F848B120680068C00502D54FF4007044
:1028000020640320BDE8F883216805F0FE0008611C
:102810003B464A461549204600F084F888B92068AE
:102820004169806900903A464946204600F0F8F830
:1028300048B1206C042804D12068016841F400717B
:1028400001600120DEE7F5B2B8F1010F09D021687F
:10285000300A08613A464946204600F0E1F800286F
:10286000E7D1206805610020CCE7000002000100EC
:1028700070B516460D4604460DE02046FFF70FFFE3
:1028800008B1012070BD681C05D0FEF7ADFA801BB1
:10289000A84207D835B120684069C0434007ECD44E
:1028A000002070BD002044F8300F20216173A07318
:1028B000216941F0200121612073E2E72DE9F04711
:1028C0001E4690460D460446C1F30747DDF82090AA
:1028D00008E0701C06D0FEF787FAA0EB0900B042B2
:1028E0000FD876B12068012F18D0806925EA000042
:1028F0000004000C14D000214145EAD00020BDE8BE
:10290000F087002044F8300F20216173A073216903
:1029100041F02001216120730120F0E74069E5E7E3
:102920000121E9E72DE9F0479A4691460E46044613
:1029300000254FF02008C1F3074725E020684069D3
:10294000C043400514D42068016841F4007101605F
:1029500021686FF480604861256384F83D8084F8C5
:102960003E50206C40F00400206484F83C501FE08E
:10297000B9F1FF3F08D0FEF737FAA0EB0A0149454D
:102980000CD8B9F1000F09D02068012F13D080694D
:1029900026EA00000004000C0BD0CFE744F8305FBB
:1029A00084F80D80A573206940F020002061257314
:1029B0000120BDE8F0874069EAE72DE9F0410025F4
:1029C00090460E460446202717E04069C043C006E3
:1029D0000CD454F8301B6FF01000486144F81059C3
:1029E0006777A577206A2062257717E0FEF7FCF964
:1029F000A0EB0800B04208D83EB120684169C94345
:102A00004906E2D40020BDE8F08144F8305F6773E6
:102A1000A573206940F02000206125730120F2E7B2
:102A200070B516460D4604460DE02046FFF737FE0A
:102A300008B1012070BD681C05D0FEF7D5F9801BD8
:102A4000A84207D835B120684069C0430006ECD4DD
:102A5000002070BD002044F8300F20216173A07366
:102A6000216941F0200121612073E2E710B541F6B0
:102A7000583304685A429C4201DD036002E09442EC
:102A800000DA02600868984201DD0B6010BD9042D8
:102A9000FCDA0A6010BD7CB514460D4606466B464E
:102AA00006223B21682000F029F800280BD1BDF850
:102AB000001049BA3180BDF8021049BA2980BDF82A
:102AC000041049BA21807CBD7CB514460D460646EB
:102AD0006B4606224321682000F010F800280BD135
:102AE000BDF8001049BA3180BDF8021049BA2980FA
:102AF000BDF8041049BA21807CBD00003EB54000FD
:102B0000CDE900320A4640F6FF74014602940123E3
:102B10000148FEF733FA3EBDC00000203EB540003C
:102B2000CDE900320A4640F6FF74014602940123C3
:102B30000148FEF74BFB3EBDC00000202DE9F043ED
:102B400085B000242D480094019402940394816977
:102B500041F010018161816901F0100104918169E6
:102B600041F020018161816901F0200104918169B6
:102B700041F004018161816901F0040104918169DE
:102B800041F0080181618069012200F008001C4EBB
:102B90005503049029463046FEF720F9DFF864809B
:102BA000002230214046FEF719F9DFF85C904FF41F
:102BB0004057002239464846FEF710F90220CDE979
:102BC000024000950125694601953046FEF70EF852
:102BD00030200326CDE90005CDE90246694640468E
:102BE000FEF704F800970396CDE90154694648467C
:102BF000FDF7FCFF05B0BDE8F083000000100240C7
:102C00000010014000080140000C01400D4810B5C3
:102C10000B4901600C49416000214FF48042816002
:102C2000C0E9031241618161C1610162FEF7E2F80E
:102C3000002803D0BDE81040FDF755BF10BD0000CF
:102C400000580040C0000020801A060010B596B061
:102C500000240F9410941194129413941C2168462C
:102C60001494FDF7A9FA202107A8FDF7A5FA2C482E
:102C70002A49C0E9001441F61F41C0E9024104613C
:102C800044618461FEF7F2FE08B1FDF72CFF4FF4BA
:102C900080500F900FA92248FEF76AFF08B1FDF798
:102CA00022FF1F48FFF7EEF908B1FDF71CFF139450
:102CB00013A91B481494FEF7A5FE08B1FDF713FFF6
:102CC0006020CDE90004029403940494059400224A
:102CD000694613480694FFF772F908B1FDF703FF40
:102CE0000C2269460E48FFF76AF908B1FDF7FBFEB2
:102CF0000794089409944FF400500A94CDE90B40CE
:102D000007A907480E94FEF753FE08B1FDF7EBFE46
:102D10000348FFF72DF916B010BD0000002C01404C
:102D20001401002010B586B00024174800940194C7
:102D30000294039404944FF080410594016041F69D
:102D40001F41C0E901146321C0E90314802181619E
:102D5000FEF78CFE08B1FDF7C6FE4FF480500090E0
:102D600069460948FEF704FF08B1FDF7BCFE04946C
:102D700004A905480594FEF745FE002801D0FDF79B
:102D8000B2FE06B010BD00005C01002010B58CB092
:102D900024216846FDF710FA0024164809941449C6
:102DA0000A94C0E900144FF6FF71C0E90241802186
:102DB000046181610320CDE900040120CDE9020412
:102DC0000494CDE90540079469460A480894FEF743
:102DD0003AFF08B1FDF787FE099409A905480A944E
:102DE000FEF710FE002801D0FDF77DFE0CB010BDEF
:102DF00000040040A401002010B58CB024216846D6
:102E0000FDF7DAF900241648099414490A94C0E938
:102E100000144FF6FF71C0E9024180210461816115
:102E20000320CDE900040120CDE902040494CDE99A
:102E30000540079469460A480894FEF704FF08B164
:102E4000FDF751FE099409A905480A94FEF7DAFD39
:102E5000002801D0FDF747FE0CB010BD000800406F
:102E6000EC0100200C4810B50A4901604FF41651DE
:102E70004160002181600C22C160C0E904128161BF
:102E8000C161FFF7C7FA002803D0BDE81040FDF785
:102E90002ABE10BD00380140340200200C4810B595
:102EA0000A4901604FF416514160002181600C22F3
:102EB000C160C0E904128161C161FFF7ABFA00286B
:102EC00003D0BDE81040FDF70EBE10BD0044004029
:102ED00078020020FEE7FEE770470000002103288B
:102EE00005D0042801D000207047044801E00348C1
:102EF00048380268506A516200B27047EC01002005
:102F0000704700002DE9F0411C4C05460E46A06DAF
:102F1000FDF7D4FB00F036F82070617801292BD141
:102F2000174A002138B11068416310680164BDE898
:102F3000F041FDF7B7BD01276842002D02DDA77102
:102F4000E17101E0A171E7712B4600DA0346D2F886
:102F500000C003F6B833CCF83430002E02DD2772FF
:102F6000617201E021726772002D00DA0546106877
:102F700005F6B8350564DAE7BDE8F08138000020D1
:102F800014010020014600203231652904D3034A90
:102F90000120002151649164704700003800002036
:102FA000FEF7DCB930B58FB028216846FDF704F98B
:102FB00014210AA8FDF700F901210804CDE9001049
:102FC0000024029402250491CDE907504FF4E0104B
:102FD00009906846FEF746FB08B172B6FEE70F207F
:102FE000CDE90A054FF48060CDE90C4002210AA822
:102FF0000E94FEF74BFA002801D072B6FEE70FB030
:1030000030BD70470148FEF7FFBE00005C010020A4
:10301000F0B50268164B174C174D4FF08047984299
:1030200005D0B84203D0A04201D0A84203D122F07B
:1030300070064A683243984205D0B84203D0A04295
:1030400001D0A84203D122F44074CA6822434C69DB
:1030500022F08002224302608A68C2620A688262A9
:10306000984201D10969016301214161F0BD00006D
:10307000002C0140000400400008004010B501F0A1
:103080001F030121046A99408C430462016A9A403B
:103090001143016210BD10B5846842EA032224F492
:1030A0007F440A432243826010BD826822F070028E
:1030B0000A4342F0070181607047000030B5026AA0
:1030C00022F001020262026A4368846924F07305F7
:1030D0000C682C4322F002058A682A430A4DA84254
:1030E0000BD122F00805CA6823F440732A434D69C6
:1030F00022F004021D438B692B43436084614968BD
:103100004163026230BD0000002C014030B5026A0C
:1031100022F010020262026A436884690D6824F496
:10312000E64444EA05248D6822F0200242EA0512B2
:103130000B4DA8420ED1CD6822F0800242EA051262
:103140004D6923F4406343EA85038D6922F0400210
:1031500043EA85034360846149688163026230BD4C
:10316000002C014030B5026A22F480720262036AC8
:103170004268C46923F4007324F073050C682C437F
:103180008D6843EA05230C4DA8420ED1CD6823F487
:10319000006343EA05234D6922F4405242EA0512D6
:1031A0008D6923F4806342EA05124260C461496874
:1031B000C163036230BD0000002C014030B5026ADB
:1031C00022F480520262046A4268C3690D6823F4E3
:1031D000E64343EA05238D6824F4005444EA0534A9
:1031E000064DA84204D14D6922F4804242EA85127C
:1031F0004260C36149680164046230BD002C014033
:1032000010B5036A046A24F001040462846924F09E
:10321000F00444EA021423F00A020A4384610262C1
:1032200010BD10B5036A23F0100303628369046ABA
:1032300023F4704343EA023224F0A00343EA01116D
:103240008261016210BD10B5406A0021C185C18450
:10325000FEF7D8FF10BD0168CA6822F49072CA60F8
:1032600001684A6922F001024A61016B012904D117
:103270000168CA6822F01002CA60202180F83E105E
:10328000002101637047000006490A680648836907
:10329000D21A0F2A05D309688161C16C03A000F01E
:1032A0003DB97047A00000203800002025640D0AB9
:1032B0000000000008B590F83E10222901D002203D
:1032C00008BD82684FF480539A4201D1016921B14F
:1032D000816A9A421BD04AB10AE00268816A526848
:1032E000C2F308020A80816A891C08E0026972B18F
:1032F0000268526802F07F020A70816A491C81628A
:10330000C18D491E0904090CC18503D019E002686A
:103310005268F1E70168CA6822F02002CA600168B9
:10332000CA6822F48072CA6001684A6922F0010208
:103330004A61202180F83E10016B012903D0FFF77C
:1033400017F9002008BD002101630168CA6822F056
:103350001002CA6001680A68D20602D50A68496884
:103360000091818DFEF74DFFEBE7000070B504463C
:1033700000680169E26821F440511143016121694B
:10338000A0680843616908432168CA6841F20C6378
:103390009A430243CA6020684169A26921F44071DE
:1033A000114341611E492068884202D1FEF714F999
:1033B00001E0FEF701F900EBC00101EB00126068CB
:1033C00064218000B2FBF0F3B3FBF1F36FF0180659
:1033D0007343B2FBF0F5B2FBF0F605EB8305322345
:1033E00003EB0515B5FBF1F5B6FBF1F605F0F005BD
:1033F00005EB0615B2FBF0F6B2FBF0F0B0FBF1F016
:103400006FF01802504306EB800003EB0010B0FB96
:10341000F1F0216800F00F002844886070BD0000C2
:103420000038014081628285C28500210164222228
:1034300080F83E2080F83C100168CA6842F480722F
:10344000CA6001684A6942F001024A610068C168C5
:1034500041F02001C160002070472DE9F0419846FD
:1034600017460E460446069D1DE0681C1BD02DB174
:10347000FDF7BAFCA0EB0800A84214D92068C16887
:1034800021F4D071C1602068416921F001014161DE
:10349000202084F83D0084F83E00002084F83C00A1
:1034A0000320BDE8F0812068006836EA000004D0FF
:1034B0000020B842D9D00020F3E70120F9E700004E
:1034C0000148FEF7A1BE000034020020FEE7000024
:1034D00070B505464FF04040FCF7DEFEFDF73AF9C7
:1034E00006460C462846FDF735F90022084BFCF746
:1034F000F0FF02460B4600200649FCF7F0FF32467B
:103500002346FCF745FFFDF706F90349C86470BD83
:103510000000D03F003081C0380000200FB4054BC0
:1035200010B503A9044A029800F0AAF810BC5DF88F
:1035300014FB0000D94A0008A8000020490050EA06
:10354000C12018BF04204A0D18BF40F0010040F20E
:10355000FF72B2EB515F08BF40F00200012808BFC4
:10356000052070470907090E002804DB00F1E02060
:1035700080F80014704700F00F0000F1E02080F8A0
:10358000141D70472DE9F0414F1E00EBC7010446A2
:10359000D1E9000115461E4637F006020DD02A4635
:1035A0003346FCF79CFF7F1E04EBC703D3E90023DF
:1035B000FCF7EEFE37F00602F1D1022F25D0042FE2
:1035C00013D0062F18BFBDE8F0812A463346FCF71A
:1035D00086FFD4E90A23FCF7DBFE2A463346FCF7D4
:1035E0007EFFD4E90823FCF7D3FE2A463346FCF7D6
:1035F00076FFD4E90623FCF7CBFE2A463346FCF7D8
:103600006EFFD4E90423FCF7C3FE2A463346FCF7D9
:1036100066FFD4E90223FCF7BBFE2A463346FCF7DB
:103620005EFFD4E90023BDE8F041FCF7B1BE012202
:10363000FDF7A5B9FCF7ACBE0022134610461146B3
:10364000FCF7BFBF024A00201107FDF798B9000040
:1036500001FDFFFF02E008C8121F08C1002AFAD1CD
:1036600070477047002001E001C1121F002AFBD102
:10367000704700000149086070470000AC0000205E
:103680002DE9FF4F8DB00F460546002606E02528A0
:103690000BD0DDE90F1290476D1C761C28780028AE
:1036A000F5D111B03046BDE8F08F0024A246A14606
:1036B0000122E94900E0044315F8013F203B02FAEA
:1036C00003F00842F7D128782A2810D06FF02F0293
:1036D0002878A0F13001092914D80AEB8A0102EBFD
:1036E000410144F0020400EB010A6D1CF0E701CF38
:1036F0005FEA000A03D544F40054CAF1000A44F01A
:1037000002046D1C28782E2817D115F8010F44F0FB
:1037100004042A280ED06FF02F022878A0F130017F
:1037200009290AD809EB890102EB410100EB0109E3
:103730006D1CF2E757F8049B6D1C28786C280FD09D
:1037400006DC4C2817D068280DD06A2814D104E074
:10375000742810D07A280FD10DE044F400140AE048
:1037600044F4801401E044F440146978814202D1A9
:1037700004F580146D1C6D1C28786E281ED00CDC9E
:10378000632830D004DC00288BD0582811D19FE06A
:10379000642867D069280CD164E073282DD004DC3C
:1037A0006F2872D0702804D194E075286ED07828E4
:1037B0006DD0DDE90F129047761C4BE1C4F3025047
:1037C000022806D0032809D0042801CF09D00660BA
:1037D00040E101CFF117C0E900613BE101CF068074
:1037E00038E1067036E117F8040B8DF80000002070
:1037F0008DF80100EB46012003E057F804BB4FF0C1
:10380000FF3061074FF0000102D40DE008F1010123
:10381000884649450FDA8045F8DB1BF80810002977
:10382000F4D108E008F1010188468142FADB1BF877
:1038300008100029F6D1DDE90F23AAEB0800814624
:10384000214600F031F9304400EB080604E0DDE9E0
:103850000F121BF8010B9047B8F10108F7D221466F
:103860004846F2E00A21C4F302524FF0000B0891DF
:10387000022A04D001CFC117032A09D00AE0FF1D94
:1038800027F00707F7E8020108E02CE01EE01FE040
:1038900000B2C117042A01D140B2C117021E71F152
:1038A000000206DA0023D0EB030063EB01012D22B6
:1038B00002E0220504D52B228DF82420012203E00A
:1038C000E20701D02022F7E7904653E00A210BE0FF
:1038D000102109E010214FF0000B44F004044FF0D8
:1038E0000809089103E008214FF0000B0891C4F388
:1038F0000252022A04D001CF0021032A06D006E09A
:10390000FF1D27F00707F7E8020103E080B2042A51
:1039100000D1C0B24FF0000822072BD52A78702AB8
:1039200007D0DDF820C08CF0100C5CEA0B0C05D041
:103930000EE040228DF82420012208E050EA010325
:1039400006D030238DF824308DF8252002229046B1
:10395000089B83F0080353EA0B030BD150EA0102E2
:1039600001D1620706D530228DF824204FF00108DE
:10397000A9F101092A78582A04D038A20B9208AA82
:103980000A920BE03AA2F9E75B46089AFCF711FFAE
:103990000B9B9B5C0A9A521E0A92137050EA01021A
:1039A000F2D10A98ADEB000000F1200B600702D5C0
:1039B00024F4803401E04FF00109D94502DDA9EB80
:1039C0000B0000E0002000EB0B0141440890AAEB43
:1039D000010AE00306D4DDE90F232146504600F03A
:1039E00063F806444FF0000908E009A911F809003E
:1039F000DDE90F12904709F10109761CC145F4DB9E
:103A0000E0030CD5DDE90F232146504600F04CF8C9
:103A1000064404E0DDE90F1230209047761C089937
:103A2000481E08900029F5DC08E00A980A990078F9
:103A3000491C0A91DDE90F129047761CBBF1000189
:103A4000ABF1010BF1DC21465046DDE90F2300F01C
:103A500019F806446D1C21E6092801003031323383
:103A600034353637383961626364656600000000BA
:103A700030313233343536373839414243444546A4
:103A8000000000002DE9F041044600251E461746BF
:103A9000880404D405E039462020B0476D1C641E1C
:103AA000F9D52846BDE8F0812DE9F041044600250E
:103AB0001E469046C80301D5302700E02027880421
:103AC00004D505E041463846B0476D1C641EF9D563
:103AD0002846BDE8F08100002DE9FE4F07460E465E
:103AE0000025684601F004F800246FF00F0AE8464C
:103AF0004FF0010957F8240056F82410401A00D559
:103B00004042FCF7CDFD5146FCF736FC58F8241036
:103B100011F0FF4F0BD0FCF7F1FB4FF07E51FCF79B
:103B2000B5FB0A4920F00040884205DC07E008495F
:103B300008440849884202D309FA04F00543641C8A
:103B4000032CD7DB2846BDE8FE8F0000295C0F3E22
:103B5000666666C19A99D9002DE9F04D8D4F21F026
:103B6000004A86B005460C46BA452ADBAAEB070098
:103B700028430AD08848824501DC1AD1CDB106B06D
:103B80002846BDE8F04DFFF752BD844A844B2846D5
:103B9000FCF7A5FC07460E46824A834B2846214681
:103BA000FCF79DFC06B03A463346BDE8F04DFCF705
:103BB000EFBB0120FFF75EFD06B0BDE8F04DFFF75B
:103BC0003BBD7A48824542DABAF1795F0BDA284682
:103BD000FFF7B4FC042808BFFFF734FD284606B001
:103BE0002146BDE8F08D2A460B461046FCF777FCCF
:103BF000834602466E480E460B4606217844FFF780
:103C0000C1FC5A463346FCF76AFC804669488A463E
:103C10005A46334604217844FFF7B4FC5A463346EB
:103C2000FCF75DFC00223B46FCF7B2FB02460B466C
:103C300040465146FCF7C5FC2A462346FCF74FFC9C
:103C400006B02A462346BDE8F04DFCF7A1BB284646
:103C500024F0004100223D463B46FCF73DFC4FF07E
:103C6000FF32FCF78CFE0646024653480F460B46D1
:103C700006217844FFF786FC32463B46FCF72FFCD2
:103C8000CDE900014D4832463B4604217844FFF718
:103C900079FC32463B46FCF722FC00222B46FCF71F
:103CA00077FB834602913046394602F07DF9804623
:103CB00043480D46504517DCDDE900015A46029B9A
:103CC000FCF77FFC42462B46FCF709FC42462B469C
:103CD000FCF75EFB0122FCF752FE304A304BFCF74A
:103CE000F8FB304A304B4CE04FF0000A52460B468E
:103CF0004046FCF74DFBCDE9031052462B461046DB
:103D00001946FCF7ECFB32463B46FCF7E5FBDDE9E8
:103D10000332FCF756FC06460F46DDE900015A4621
:103D2000029BFCF74EFC8346009101223046394647
:103D3000FCF725FE194A1A4BFCF7CEFB06460F4648
:103D4000012240462946FCF71AFE5A46009BFCF722
:103D5000C6FB32463B46FCF7BCFB06460F4601223B
:103D600050462946FCF70BFE0E4DDFF858802A46D8
:103D70004346FCF7B1FB32463B46FCF7ADFB2A4617
:103D80004346FCF7A9FB002CD8BF81F0004106B0E8
:103D9000BDE8F08D0000F03F0000F07F075C1433B9
:103DA00026A6913C182D4454FB21F93F0000E03F2A
:103DB000583000006E300000E22F0000F82F0000A5
:103DC0003333EF3FFB21E93F2DE9F84F04460D4621
:103DD00021F0004000917349814211DC7249884210
:103DE00001DC06D12CB120462946BDE8F84FFFF78B
:103DF0001EBC6E48002DCCBF6D496E49BDE8F88FE2
:103E00006D49814211DD6D498142D8BF4FF0FF36C7
:103E10006DDD20462946FFF791FB042808BFFFF718
:103E200011FC20462946BDE8F88F6549654F25F00D
:103E30000045814233DD6449814219DD0026324666
:103E40004FF0804320462946FCF7A2FA80468A4676
:103E5000012220462946FCF792FD00223B46FCF752
:103E600038FB42465346FCF7ACFB04460D463EE0A9
:103E700001260022BA463B4620462946FCF788FA2E
:103E800080460F460022534620462946FCF721FB78
:103E900042463B46FCF795FB04460D4627E04B495E
:103EA00081421BDDDFF828A102260022534620466E
:103EB0002946FCF714FB00223B46FCF769FA8046D2
:103EC0000F460022534620462946FCF702FB424695
:103ED0003B46FCF776FB04460D4608E003262246E7
:103EE0002B4600203B49FCF76CFB04460D4622465E
:103EF0002B4610461946FCF7F2FA8B4682460246DC
:103F00000B46FCF7ECFA07460246334888460B4658
:103F100006217844FFF736FB52465B46FCF7DFFA92
:103F200082462E488B463A46434605217844FFF7A1
:103F300029FB3A464346FCF7D2FA02460B46002ECE
:103F4000504659460CDAFCF723FA22462B46FCF77A
:103F5000C6FA01B022462B46BDE8F04FFCF7BCBACA
:103F6000FCF716FA22462B46FCF7B9FA1C4A7A44AB
:103F700002EBC603D3E90023FCF7ABFA22462B463B
:103F8000FCF7A7FA174A7A4402EBC603D3E90023E9
:103F9000FCF7A2FA009A002AB8BF81F00041BDE800
:103FA000F88F0000000010440000F07F182D4454EA
:103FB000FB21F93FFB21F9BF0000DC3F0000203E60
:103FC0000000F33F0000F03F0000E63F00800340A8
:103FD0000000F83F0000F0BFFA2D0000B82D0000EF
:103FE000562D00001E2D00002DE9F04D9446CCF119
:103FF000000423F000464CEA0404594F46EAD47406
:104000009A46884621F00042BC4206D8454240EA22
:10401000050442EAD474BC4204D9BDE8F04D6246BE
:10402000FFF708BBAAF14055A5F17F6555EA0C04DE
:104030000BD0022404EAAA744A4DDFF82CE144EACA
:10404000D87452EA000B04D00CE0BDE8F04DFFF745
:10405000BBBE002C14BF012CBDE8F08D022C30D06B
:10406000032C32D056EA0C0B0AD0BE4220D1BA4201
:1040700009D126F0804622F080423346114617E0EF
:1040800000291ADB25E0DFF8E4B0FB44002C04BF74
:10409000DBE90001BDE8F08D012C02BFDBE9000186
:1040A00081F00041BDE8F08D022C0AD0032C0CD029
:1040B000BA4212D1B8F1000F0BDA2A482C49BDE8F8
:1040C000F08D28462B49BDE8F08D28467146BDE8A5
:1040D000F08D24482849BDE8F08D921B12153C2A2A
:1040E000C4BF204F244E10DCBAF1000FBEBF12F146
:1040F0003C0F00273E4608DB6246FCF762FA21F0DF
:104100000041FFF761FE07460E4694B1012C08BF3F
:1041100086F000460DD0194A194B022C384631461C
:1041200015D0FCF7D6F92A46BDE8F04D114BFCF747
:10413000D0B90022134638463146FCF737FC04BF9D
:104140000220FFF797FA38463146BDE8F08DFCF7BC
:10415000C0F92A46BDE8F04D064BFCF7BDB900009A
:104160000000F07F182D4454FB2109C0B22C000040
:10417000FB21F9BFFB210940FB21F93F075C143308
:1041800026A6A13C08B560B120208DF800002820AB
:104190008DF8010030208DF8020038208DF80300E2
:1041A00004E0A32204216846FBF7FFFF6A460421CE
:1041B00040F69E2001F062FE01F020FB08BD0000E9
:1041C0003EB5044602208DF80000CA208DF801009B
:1041D000E3208DF8020009208DF803006A460421CF
:1041E000682001F04BFEA3208DF80000610609D580
:1041F000C0218DF80110C8218DF80210C2218DF860
:10420000031005E08DF801008DF802008DF8030021
:1042100014F4C07F09D0C4218DF80410CC218DF88E
:104220000510C6218DF8061005E08DF804008DF804
:1042300005008DF806008DF808008DF807008DF850
:1042400009006A460A2140F6A72001F017FEA007E0
:104250004FF0D80503D020208DF8000001E08DF844
:1042600000506A46012140F6B62001F007FEA00684
:1042700001D5012000E0002000F08EF814F4C07F8A
:104280001ED0E0050AD5B2208DF800008B208DF8F5
:104290000100B6208DF802009B2009E0B0208DF8C7
:1042A000000080208DF80100B4208DF802009020DD
:1042B0008DF803006A46042140F6A22001F0DEFDDD
:1042C000E1074FF40B6022D0F8218DF800106A4608
:1042D000012101F0D3FDFA21072000F049FB07205E
:1042E00000F014FB012000F031FB642000F0D4FB4F
:1042F0004FF4FA7000F0E0FBC821254800F0CEFA38
:10430000282000F0E3FA0A2000F0F0FA05E08DF82A
:1043100000506A46012101F0B1FDA00703D5D92064
:104320008DF8000001E08DF800506A46012140F24E
:104330003D7001F0A3FD600701D5012000E00020E1
:1043400000F048F8E00601D5012000E00020FFF76A
:1043500019FF104D44F00800688101F04FFA002069
:10436000A873600601D50620A87314F4C07F02D09C
:10437000A87B801DA87314F0140F02D0A87B103006
:10438000A873A00702D0A87B001DA87300203EBD23
:1043900009E3CA02B00000200EB54FF4976310B1D4
:1043A00006A107C901E008A207CA8DE807006A460E
:1043B0000921184601F062FD0EBD0000B8AAB38DB8
:1043C000B4980D355D000000B8AAAAAAB088C3C58C
:1043D000C700000008B560B1C0208DF80000C22001
:1043E0008DF80100C4208DF80200C6208DF803006E
:1043F00004E08B2204216846FBF7D7FE6A460421BD
:1044000040F6982001F03AFD01F0F8F908BD0000EF
:10441000C8234FF48062024940F6F63001F0D0B86C
:10442000446000082DE9FF4F89B01746DDE91652B8
:104430000024544E884681462C80A246B07B6946B3
:1044400001F06AF94FF0FF3B18B158460DB0BDE8D6
:10445000F08F708910F0140F4CD0BDF800109DF84B
:10446000022049BA090441EA02239DF803100B43D4
:104470003B60BDF804109DF8062049BA090441EAE2
:1044800002229DF807101B140A437A60BDF8081039
:104490009DF80A4049BA090441EA04219DF80B40FD
:1044A00012142143B960BDF80C409DF80EC064BAE7
:1044B000240444EA0C2C9DF80F4009144CEA040C27
:1044C000C7F80CC04FEA2C475B43494302FB02325A
:1044D00007FB071111441024A1F17061B1F1007FB5
:1044E00004D901F08BF9A5F800A0AEE7298841F4C2
:1044F000807129804206694611D50A19A41D1388C6
:104500005BBAA8F8003053885BBAA8F802309288EA
:1045100052BAA8F804202A8842F008022A8010F42F
:10452000C07F11D00A19A41D13885BBAA9F8003006
:1045300053885BBAA9F80230928852BAA9F80420CD
:104540002A8842F070022A80800716D00C44E07856
:1045500000F0C00500F03F016078C00706D0C80831
:1045600001F007013268491C02B1904760780007EA
:1045700003D5716809B1A80988470C9800F0A0FD1F
:10458000002063E7B00000202DE9FF41044603A8A6
:1045900000F0FEFEBDF80C00410CC3032F4800895B
:1045A00000F0030254F82250420700D56D42C0F3D8
:1045B000C102860654F8222000D55242C0F381166B
:1045C000C00554F8264000D56442A5FB0367E817F0
:1045D00000FB037005FB0100850045EA9670A2FB15
:1045E0000367D51705FB037502FB0152950045EAE9
:1045F0009672A4FB0367E51705FB037304FB013107
:104600008B0043EA9671030E8DF80030030C8DF891
:104610000130030A8DF802308DF80300100E8DF87A
:104620000400100C8DF80500100A8DF80600080E25
:104630008DF80800080C8DF80900080A8DF80A00AA
:104640008DF807208DF80B106A460C214FF4257069
:1046500001F014FC04B0BDE8F0810000B0000020BF
:1046600030B5044613A285B007CA8DE807004FF0A5
:10467000FF35C82C16D8C820B0FBF4F1491E080A33
:104680008DF80C008DF80D1003AA022140F21620BF
:1046900001F0F4FB30B96A460C2140F6C12001F06C
:1046A000EDFB10B1284605B030BD054884810020DF
:1046B000F9E70000FEF2ABC4AAF1DFDFBBAFDFDF3A
:1046C000B0000020F8B53049098901F0030250F824
:1046D00022404A0700D56442C1F3C1028B0650F85C
:1046E000222000D55242C1F3811350F82330C8056F
:1046F00000D55B42254984FB0140850045EA947062
:1047000082FB0142A40F44EA820483FB0121950F3E
:1047100045EA8105010E8DF80010010C8DF801109D
:10472000010A8DF802108DF803006A4604214FF447
:10473000747001F0A3FB4FF0FF3688B9200E8DF89E
:104740000000200C8DF80100200A8DF802008DF881
:1047500003406A4604214FF4757001F08FFB08B1E5
:104760003046F8BD280E8DF80000280C8DF80100A9
:10477000280A8DF802008DF803506A4604214FF490
:10478000767001F07BFBF8BDB000002009E3CA029F
:104790002DE9FF4104463CA004F0030300680290A9
:1047A0003AA0006803903AA006683AA0056802A8FB
:1047B000C15C8DF80010C4F3C101425C8DF801208A
:1047C000C4F38112805C8DF8020003A8C35C8DF8ED
:1047D0000430415C8DF80510805C8DF806006A4657
:1047E000032140F2264001F049FB4FF0FF37E0BBC8
:1047F00001AA032140F22A4001F040FBA8BBCDE909
:10480000006560070BD59DF8000040F001008DF8B1
:1048100000009DF8040040F001008DF80400A0069F
:104820000BD59DF8010040F001008DF801009DF8C6
:10483000050040F001008DF80500E0050BD59DF85E
:10484000020040F001008DF802009DF8060040F0E3
:1048500001008DF806006A4603214FF4886001F0DC
:104860000DFB10B901AA032100E004E040F2314041
:1048700001F004FB18B1384604B0BDE8F0810648E9
:1048800004810020F8E700004CCD6C000CC92C001E
:104890003656760026466600B00000204FF47A7245
:1048A00090FBF2F008B54843010E8DF80010010CA2
:1048B0008DF80110010A8DF802108DF803006A4688
:1048C00004214FF4AE7001F0D9FA08BD0521B0FB08
:1048D000F1F008B5010A8DF800108DF801006A4664
:1048E00002214FF4AD7001F0C9FA08BD0521B0FBFB
:1048F000F1F008B5010A8DF800108DF801006A4644
:1049000002214FF4AC7001F0B9FA08BD08B50021DE
:104910008DF80010C10702D030218DF800108107FA
:1049200005D59DF8001041F00C018DF800104007EE
:1049300005D59DF8000040F003008DF800006A46A0
:1049400001214FF4A47001F099FA08BD08B560B1D7
:10495000042800D90420401E8DF800006A46012179
:1049600040F24F1001F08AFA08BD0120F3E7000081
:104970002DE9FC41054640074FF0FF367CD0B1F5EC
:10498000C86F79D80846FBF794FE3E49FBF7B6FCA2
:10499000074601A800F0DEFC9DF80400022806D0BE
:1049A00004280DD008282ED0102865D134E00E211F
:1049B0003846FBF7E1FCFBF79AFE84B2324907E088
:1049C0000D213846FBF7D8FCFBF791FE2F4984B246
:1049D0003846FBF761FCFBF78AFE210A8DF80010D0
:1049E00080B28DF80140010A8DF802108DF80300A5
:1049F000E8076C4620D0224602214FF4EA7001F00D
:104A00003DFAC8BB11E00C213846FBF7B5FCFBF7BB
:104A10006EFE84B21E49DBE70B213846FBF7ACFC87
:104A2000FBF765FE84B21B49D2E7A21C02214FF4BA
:104A3000927001F023FAF8B9A8070DD56A46022151
:104A40004FF4EC7001F01AFAB0B9A21C02214FF435
:104A5000947001F013FA78B9680710D56A460221FC
:104A60004FF4EE7001F00AFA30B9A21C02214FF4A3
:104A7000967001F003FA10B13046BDE8FC810020C9
:104A8000FBE7000000004843000040460000C0452E
:104A9000000040450000C0440521B0FBF1F008B51E
:104AA000010A8DF800108DF801006A4602214FF4CA
:104AB000EF7001F0E3F908BD0521B0FBF1F008B596
:104AC000010A8DF800108DF801006A4602214FF4AA
:104AD000ED7001F0D3F908BD13B54FF6FF73012255
:104AE00069460248FDF780FD00981CBD7802002051
:104AF0002DE9FE430646264801AB042240680D21FD
:104B00000078FDF7FBFF10B10720BDE8FE839DF89C
:104B100004101C2000EAD1029DF80710DFF8749001
:104B2000C1F301131A438DF800209DF80520C1F34D
:104B3000810300EAD2021A438DF801209DF8062075
:104B400001F0030100EAD20008430024124F8DF85F
:104B50000200A0466D46285D10B146F824900AE098
:104B600046F824800DE000BF56F824003946FBF7D4
:104B700093FB46F82400285D401E10F0FF002855E6
:104B8000F2D1641CE4B2032CE5D30020BDE70000A1
:104B9000000000207B14AE3E1D5A843F2DE9FE4FDD
:104BA00005460120C14E8DF800004FF000088DF839
:104BB000018030680C461746817C70686B46022283
:104BC0000078FDF7ABFF4FF0FF3A00287AD1C820FC
:104BD000FBF7FAFF8DF8008030686B460122C17B3D
:104BE00070680078FDF79AFF0028EFD130686B46B7
:104BF0000122417970680078FDF790FF0028E5D127
:104C000030686B460122817C70680078FDF786FF72
:104C10000028DBD130686B460122C17D70680078C6
:104C2000FDF77CFF0028D1D130686B460122017965
:104C300070680078FDF772FF0028C7D14FF00C09AB
:104C40008DF8009030686B46012201797068007819
:104C5000FDF764FF002835D10F20FBF7B5FFB06AE0
:104C60006B460122407A8DF80000306881787068C8
:104C70000078FDF753FF002824D1B06A6B4601226B
:104C8000007A8DF800003068417870680078FDF790
:104C900045FF002873D1B06A807A0FB140F0E00080
:104CA0008DF8000030686B460122817970680078C9
:104CB000FDF734FF002862D12FB1B06AC07A40F00E
:104CC000E00001E04AE018208DF8000030686B46F3
:104CD0000122C17970680078FDF720FFF0BB17B1A1
:104CE000C820FBF771FF40208DF8000030686B464C
:104CF0000122017970680078FDF710FF70BB782001
:104D00008DF8000030686B460122417970680078A8
:104D1000FDF704FF10BB3220FBF756FF8DF8008033
:104D2000306847466B464179706801220078FDF78C
:104D3000F5FE98B931687068B046897A00786B469C
:104D40000222FDF7DBFE48B9BDF80000AF6040BAB3
:104D5000B0FBF9F06F60C6B22F6000E00FE0A76013
:104D600067602760002739E0D8F80010D8F8040001
:104D70006B46C97A00780C22FDF7C0FE10B1504690
:104D8000BDE8FE8FBDF80000236840BA00B2BDF850
:104D90000210BDF804201844206049BA606809B2C6
:104DA0000844606052BAA06812B21044A060BDF816
:104DB00006002B6840BA01B2BDF80800BDF80A2011
:104DC0001944296040BA696800B20844686052BA60
:104DD000A86812B210447F1CFFB2A860B742C3D3C8
:104DE00028688322C117090441EA10410004002306
:104DF000FBF79AF932460023FBF796F928606868BA
:104E00008322C117090441EA104100040023FBF783
:104E10008BF932460023FBF787F96860A868832284
:104E2000C117090441EA104100040023FBF77CF993
:104E300032460023FBF778F9A86020684FF400653C
:104E4000C117090441EA104100042A460023FBF778
:104E50006BF932460023FBF767F9206060682A4649
:104E6000C117090441EA104100040023FBF75CF973
:104E700032460023FBF758F96060A0682A46C11744
:104E8000090441EA104100040023FBF74DF93246C2
:104E90000023FBF749F9A060002802DDA0F580306F
:104EA00001E000F58030A060002069E700000020EC
:104EB0002DE9F84F81462E488846002540686B460C
:104EC000032200780D21FDF719FE10B10720BDE87F
:104ED000F88F9DF80000002400F01F008DF80000FE
:104EE0009DF801006FF00F0B00F01F008DF801001E
:104EF0009DF802006E4600F01F008DF802004FF092
:104F0000010A00BF59F8241058F82400081A00D5E7
:104F10004042FBF7C5FB5946FBF72EFA0746305DCA
:104F2000C0B1144802E01449FBF7B6F9315D491EDF
:104F300011F0FF013155F6D101463846FBF7DEF995
:104F40004FF07E51FBF7A2F90C4920F00040884257
:104F500005DC07E00A483844B0F1D97F02D90AFAE3
:104F600004F00543641C032CCCDB2846AFE70000AB
:104F7000000000200000C84154E3853F295C0F3E3B
:104F80000000E0BE00B5024600F00DF80346D01C5C
:104F900000F009F843EAC003901D00F004F843EA6A
:104FA000801080B200BD90F90010002902DD4FF0A2
:104FB0000000704702DA4FF00400704790F90110CA
:104FC000002902DD4FF00100704702DA4FF00500C2
:104FD000704790F90200002802DD4FF00200704790
:104FE00002DA4FF0060070474FF0070070470000EC
:104FF0001FB5FCF7BBF9FDF7D5FFFDF79FFDFDF7EA
:1050000005FEFDF74BFFFDF721FEFDF7BFFEFDF7A7
:10501000F3FEFDF787FEFDF725FF2248FCF77CFD38
:1050200000212148FDF75EF80C211F48FDF75AF8D2
:1050300000211E48FCF7A0FE04211C48FCF79CFE42
:1050400000211B48FCF798FE04211948FCF794FE48
:105050000124002003A98DF80C00CDE9001440F6CE
:10506000FF70029023467522D0211248FBF786FF7D
:105070004FF4967505E000BF00F01CF92846FBF7D9
:10508000A3FD00F017F90028F6D100224FF40051DB
:105090000948FBF7A3FE094880F80140FEF7F4F841
:1050A000FCE700005C01002014010020A4010020A6
:1050B000EC010020C000002000100140380000205A
:1050C000704700002DE9F041124C20F0010100254D
:1050D00094F8240010B10020BDE8F081A07A4FF0D0
:1050E000FF3668B10840277C2074884200D03546DE
:1050F00041B1012000F02CFF00F080FB38B1277493
:105100003046E9E7207D00B1012000F021FF28466C
:10511000E2E70000000000202DE9F74F8EB00CA957
:1051200002A8CDE900010BAB03AA09A907A8FFF764
:1051300079F918B1012011B0BDE8F08FBDF8080071
:10514000C0057DD50398FBF7ABFA6FF01D0421462F
:10515000FBF712F982460498FBF7A2FA2146FBF707
:105160000BF981460598FBF79BFA2146FBF704F9FA
:1051700080460698FBF794FA2146FBF7FDF80546B2
:1051800001215046FBF7F8F806464146FBF784F844
:1051900004464FF040414846FBF77EF80746294653
:1051A000FBF77AF82146FBF71FF8FBF7D3FAFEF777
:1051B000D3FC4FF0663B5A463D4BFBF790F9FBF7AB
:1051C000DCFA0E99086001214046FBF7D5F841460C
:1051D0000090FBF761F8044638464946FBF75CF857
:1051E0002146FBF753F84FF07E51FAF7FDFFFBF72E
:1051F000B1FA07460C4630464946FBF74DF80646DD
:1052000029460098FBF748F83146FAF7EDFFFBF71F
:10521000A1FA3A462346FEF7E7FE5A46244BFBF72F
:105220005EF9FBF7AAFA0F99086029460846FBF7D2
:1052300033F8074641460846FBF72EF8064600E0DD
:1052400034E049460846FBF727F80446514608462D
:10525000FBF722F82146FAF7C7FF3146FBF716F8AD
:105260003946FBF713F8FBF775FA06460C46294654
:105270005046FBF711F8054641464846FBF70CF847
:105280002946FAF7B1FF0121FBF776F8FBF762FA3E
:1052900032462346FEF7A8FE5A46054BFBF71FF998
:1052A000FBF76BFA10990860002044E7022042E700
:1052B00066A64C4010B500F0F1F808B10A2010BD08
:1052C000782000F07FFD10F0FF0F01D0012010BD0D
:1052D0007820FFF7F7FE10F0FF0F01D0022010BD7D
:1052E000642000F02FFD10F0FF0F01D0032010BD4F
:1052F000FFF78EF810F0FF0F01D0042010BD144806
:10530000FFF740FEFFF744FA10F0FF0F01D0052031
:1053100010BD40F27310FEF753FF10F0FF0F01D0E5
:10532000062010BD6420FFF79BF910F0FF0F01D09D
:10533000072010BD00F0CCFD08B1082010BD0120F1
:1053400000F026FC10F0FF00F8D0092010BD00008E
:105350002C0000200D494A7A42B1012A08D0022AC5
:105360000FD0032A0FD04FF0FF307047022200E029
:1053700004220270C97C11B11106C90D0170002010
:1053800070470822F5E71022F3E700000000002034
:105390000F494A7A42B1012A09D0022A11D0032AC0
:1053A00012D04FF0FF3070474FF4804201E041F6D9
:1053B0009C720280C97C11B1C2F34E0101800020B1
:1053C00070474FF48052F4E74FF40062F1E70000B9
:1053D000000000200B49097A39B1012907D00229C0
:1053E0000AD003290BD0002103E0FA2101E04FF499
:1053F000FA710180002070474FF47A71F9E74FF499
:10540000FA61F6E7000000200A49097A41B1012952
:1054100008D002290AD003290AD04FF0FF30704784
:10542000054900E005490160002070470449FAE79A
:105430000449F8E700000020000003430000834215
:1054400033330342333383410C49C97A072913D2DA
:10545000DFE801F01204060A0C0E1000BC2100E087
:1054600062210180002070472A21FAE71421F8E721
:105470000A21F6E70521F4E70021F2E70000002009
:10548000054991F8242012B14FF0FF307047C989C7
:105490000180002070470000000000202DE9FC4141
:1054A000464C80208DF8000020686B460122817CEC
:1054B00060680078FDF732FB4FF0FF37002875D1A8
:1054C0006420FBF781FB00258DF8005020686B46B7
:1054D0000122817C60680078FDF720FB002865D1FF
:1054E00020686B460622817D60680078FDF706FB28
:1054F00000285BD19DF805009DF80310C007400F00
:1055000001F0010140EA41009DF801104FF0010651
:1055100001F00101084304D0012831D0022810D045
:1055200044E020686B460122C17860680078FDF78E
:10553000E5FAD8BB9DF8000010F00F0036D0042823
:105540001ED0E574FF2004F80A0F4FF6FF7104F82F
:10555000020C04F8010C6070A180A0712072A6708A
:1055600026766576E572A572E56025616561A576AA
:10557000E576A5834FF4FA6000F046FBB0B901E090
:10558000E674DFE7022000F061FA78B92A2000F023
:10559000A3FB58B9322000F0D5FB38B90020FFF743
:1055A00091FD18B9002000F085FA10B13846BDE829
:1055B000FC81002000F006FC0020F8E7000000203D
:1055C0002DE9FF4FDFF89480064685B098F8250056
:1055D00015460F464FF0FF39B0BBAFB3002420E0B3
:1055E000301B102800DD102080B283463A19014696
:1055F0009246204600F042FC30BB6A46594620469F
:1056000000F0D2F800BB50465A466946FAF7DFFD73
:1056100020B16FF0010009B0BDE8F08F04EB0B0082
:1056200084B2B442DCD3280A8DF810008DF81150F2
:10563000D8F80000444604AB817ED8F8040002226A
:105640000078FDF76BFA08B14846E4E7012084F8DA
:1056500025000898E0840020DDE70000000000201D
:105660002DE9F84305464FF0FF39282844D807278D
:10567000284C00267DB1012000F0FCFA20208DF896
:1056800000004FF00108012D17D0052D18D88DF816
:10569000018005201FE0002000F0ECFA8DF800608A
:1056A0008DF8017020686B460222817C606800786A
:1056B000FDF734FA00BB267529E08DF80160E8E7B4
:1056C000142D04D802208DF801000A2003E00320E5
:1056D0008DF80100142000F0FFFA9DF801006B46E0
:1056E00007EB80108DF8010020680222817C606841
:1056F0000078FDF713FA10B14846BDE8F88308209A
:10570000A072267384F814800020FFF7DBFC0020D1
:10571000F3E70000000000202DE9F843214C064685
:10572000174694F8240089464FF0FF3890B3A07ACA
:1057300080B320686B460222817A60680078FDF7AA
:10574000DDF938BBBDF8000045BAB54202D20020F1
:1057500038701FE060684188B5EB510F11D921689E
:1057600000786B46497C0122FDF7C8F990B99DF895
:105770000000C00605D500F041F86FF00100BDE85B
:10578000F8832068F2B24B46C17A60680078FDF772
:10579000B5F908B14046F2E7B5FBF6F0401E3870A7
:1057A0000020ECE700000020F8B516000D464FF091
:1057B000FF371FD0104CA17AE1B1010A8DF800101B
:1057C000C0B28DF80100411960684289914211D838
:1057D000216800786B46097E0222FDF79FF948B9DF
:1057E0002068EAB23346417D60680078FDF786F9AB
:1057F000002800D03846F8BD00000020F8B5564C0F
:105800004FF0FF36A07A00287DD000258DF800509B
:1058100020686B460122C17B60680078FDF77EF945
:10582000002870D120686B460122417960680078B9
:10583000FDF774F9002866D120686B4601220179D2
:1058400060680078FDF76AF900285CD194F82400BC
:10585000E0B30C208DF8000020686B46012201792E
:1058600060680078FDF75AF9002872D13220FBF702
:10587000ABF9C0208DF80000A07AC00702D0E0206C
:105880008DF8000020686B4601220179606800787D
:10589000FDF744F900285CD1607C18B102208DF836
:1058A000000001E08DF8005020686B460122C17BAA
:1058B00060680078FDF732F928BB8DF80050206849
:1058C0006B4601224179606800783EE0FFE70420E2
:1058D0008DF8000020686B4601220179606800782D
:1058E000FDF71CF978B9A07C90B9A07AC0070FD059
:1058F0005FF060008DF8000020686B46012201799E
:105900006068007800E024E0FDF708F908BB01E0DA
:105910004020EFE73220FBF757F9607C18B10120F7
:105920008DF8000001E08DF8005020686B460122E0
:10593000C17B60680078FDF7F1F850B92068064B2C
:1059400001224179606810330078FDF7E7F80028FC
:1059500000D03046F8BD0000000000202DE9F047DF
:10596000394C82468AB094F824000F4620B10020BA
:1059700000F00EF9012600E0002607A8FFF72AFD37
:1059800006A8FFF7E7FC09A8FFF75EFD08A8FFF7E8
:1059900077FD94F80A9094F810800025002239468B
:1059A0005046FFF7FBF810B16D1C022DF6DB022DFF
:1059B0001AD00025012203A96846FFF7EFF810B1BD
:1059C0006D1C022DF6DB022D0ED003A93846FEF722
:1059D00083F8C7B269465046FFF76AFA10F0FF0F26
:1059E0004FF0000502D002E0002503E001250FB9C9
:1059F00045F00205FF2020726072E0724FF6FF71E1
:105A0000E181A072207401202073BDF81C0000F019
:105A1000FBF89DF8180000F019F8BDF8240000F01C
:105A20005BF9BDF8200000F08DF9484600F0CAF996
:105A30004046FFF747FB16B1012000F0A9F80AB075
:105A40002846BDE8F08700000000002038B5184C5B
:105A50004FF0FF35A17A19B3022806D0042806D0EA
:105A600008280ED010281BD10DE0002000E00820EF
:105A70008DF80000607A9DF80010B0EBD10F04D0D3
:105A800005E01020F4E71820F2E7002038BD206878
:105A90006B460122C17960680078FDF73FF808B1D4
:105AA000284638BD9DF80000C0086072EDE7000090
:105AB00000000020F8B5354C0546A07CA84201D175
:105AC0000020F8BD31484FF0FF366B46D0E900109A
:105AD0004FF001020979007835B3FDF70FF870BB7C
