:020000040800F2
:10000000F0330020610200084B2A0008D7200008C6
:10001000492A0008CD050008852F000800000000CF
:10002000000000000000000000000000C9010008FE
:10003000CF050008000000000D020008712A00082A
:100040007B0200087B0200087B0200087B0200089C
:100050007B0200087B0200087B0200087B0200088C
:100060007B0200087B0200087B0200087B0200087C
:100070007B0200087B0200087B0200087B0200086C
:100080007B0200087B0200087B0200087B0200085C
:100090007B0200087B0200087B0200087B0200084C
:1000A0007B0200087B0200087B0200087B0200083C
:1000B000FD2A00087B0200087B0200087B02000882
:1000C0007B0200087B0200087B0200087B0200081C
:1000D0007B020008792F00087B0200087B020008E1
:1000E0007B0200087B0200087B02000800F002F897
:1000F00000F05AF80AA090E8000C82448344AAF168
:100100000107DA4501D100F04FF8AFF2090EBAE865
:100110000F0013F0010F18BFFB1A43F0010318473B
:100120001C7F00003C7F00000A444FF0000C10F8D8
:10013000013B13F0070408BF10F8014B1D1108BF65
:1001400010F8015B641E05D010F8016B641E01F805
:10015000016BF9D113F0080F1EBF10F8014BAD1C55
:100160000C1B09D16D1E58BF01F801CBFAD505E073
:1001700014F8016B01F8016B6D1EF9D59142D6D3CD
:10018000704700000023002400250026103A28BFF5
:1001900078C1FBD8520728BF30C148BF0B607047F9
:1001A0001FB51FBD10B510BD00F0DAF91146FFF7FD
:1001B000F7FF04F074FA00F0F8F903B4FFF7F2FF68
:1001C00003BC00F0FDF90000224B19680868B0E894
:1001D000F00F80F30988BFF36F8F4FF0000080F3BA
:1001E00011884EF00D0E70470000000006480068B0
:1001F000006880F3088862B661B6BFF34F8FBFF323
:100200006F8F00DF00BF00BF08ED00E0EFF3098053
:10021000BFF36F8F0F4B1A6820E9F00F106008B51D
:100220004FF0500080F31188BFF34F8FBFF36F8FF3
:1002300005F068FD4FF0000080F31188BDE808402C
:1002400019680868B0E8F00F80F30988BFF36F8F72
:10025000704700BFD0000020EFF30580704700001A
:100260000948804709480047FEE7FEE7FEE7FEE74A
:10027000FEE7FEE7FEE7FEE7FEE7FEE70448054986
:10028000054A064B70470000FB2A0008ED000008F5
:10029000F02D0020F0330020F02F0020F02F002060
:1002A00010B54C1084EA530404D54042C1F100015A
:1002B00038BF491E1B4204D55242C3F1000338BF68
:1002C0005B1E00F0A1F814F0804F04D04042C1F151
:1002D000000138BF491E14F0004F04D05242C3F150
:1002E000000338BF5B1E10BD40EA010310B59B0739
:1002F0000FD1042A0DD310C808C9121F9C42F8D090
:1003000020BA19BA884201D9012010BD4FF0FF3040
:1003100010BD1AB1D30703D0521C07E0002010BD56
:1003200010F8013B11F8014B1B1B07D110F8013BE2
:1003300011F8014B1B1B01D1921EF1D1184610BDC3
:1003400010B5203AC0F00B80B1E81850203AA0E870
:100350001850B1E81850A0E81850BFF4F5AF5FEAA4
:10036000027C24BFB1E81850A0E8185044BF18C957
:1003700018C0BDE810405FEA827C24BF51F8043BFE
:1003800040F8043B08BF7047D20728BF31F8023B52
:1003900048BF11F8012B28BF20F8023B48BF00F8E6
:1003A000012B704702F0FF0343EA032242EA0242B4
:1003B00000F0AEB84FF0000200B5134694469646E2
:1003C000203922BFA0E80C50A0E80C50B1F1200168
:1003D000BFF4F7AF090728BFA0E80C5048BF0CC016
:1003E0005DF804EB890028BF40F8042B08BF704774
:1003F00048BF20F8022B11F0804F18BF00F8012BE6
:10040000704770477047704753EA020C00F06980EC
:100410002DE9F04B4FF00006002B1FBFB3FA83F518
:1004200003FA05F424FA05F65E4012BF1643B2FA49
:1004300082F502FA05F4C5F120051EBF22FA05FC7B
:1004400044EA0C04203556EA044C4FEA144418BF21
:10045000641C4FF000084FF00009904271EB030C50
:1004600039D3002919BFB1FA81F701FA07F6B0FABA
:1004700080F700FA07F6C7F120071EBF20FA07FC35
:1004800046EA0C062037B6FBF4FCA7EB0507103F45
:1004900007F01F0BCBF120060CFA0BFB2CFA06F62B
:1004A00044BFB3460026202FA4BF5E464FF0000B8A
:1004B0005BEA060C08BF4FF0010B19EB0B09ABFB15
:1004C000027C48EB0608C01B06FB02CC0BFB03CCEE
:1004D00071EB0C01C1E70B46024641464846BDE8B8
:1004E000F08B13B54FF000004FF00001AFF3008028
:1004F000BDE81C40704710B500F02AF8006810BD38
:1005000010B5044600F024F8046010BD4FF000025E
:100510000429C0F0128010F0030C3FF44DAFCCF171
:10052000040CBCF1020F18BF00F8012BA8BF20F883
:10053000022BA1EB0C01FFF73FBF5FEAC17C24BF98
:1005400000F8012B00F8012B48BF00F8012B704781
:1005500000487047902D002000487047902D0020E3
:100560007546FFF7F9FFAE4605006946534620F091
:100570000700854618B020B5FFF780FEBDE8204093
:100580004FF000064FF000074FF000084FF0000B4F
:1005900021F00701AC46ACE8C009ACE8C009ACE802
:1005A000C009ACE8C0098D46704710B50446AFF3EA
:1005B00000802046BDE81040FFF7FFBD70470000F7
:1005C00001491820ABBEFEE726000200FEE7704797
:1005D000064C032002F03AFAE065042002F036FAF5
:1005E0002066052004F080FFF3E7000038000020BB
:1005F00072B6FEE710B590F821100022022905D04E
:100600000421816380F82020012010BD01680B685F
:1006100023F00E030B6001680B6823F001030B60ED
:1006200090F84030C46B012101FA03F3636080F855
:10063000211080F82020104610BD000010B590F861
:1006400021100024022903D00421816301243DE00C
:1006500001680A6822F00E020A6001680A6822F046
:1006600001020A601A4A0168914201D1012121E088
:10067000174A1432914201D110211BE0144A28324A
:10068000914201D1891515E0114A3C32914201D1C4
:1006900089140FE00E4A5032914202D14FF480315A
:1006A00008E00B4A6432914202D14FF4801101E01C
:1006B0004FF08071064A083A5160012180F82110FC
:1006C000002180F82010416B01B18847204610BD01
:1006D0000800024070B5044600F004F90546601CAD
:1006E00002D004480078044400F0FCF8401BA0420B
:1006F000FAD370BDC00000202DE9F84FDFF8B891A3
:10070000002409F1040A0AF1040B23460F270BF118
:10071000040EC9E00125A5402A40AA427DD1674EBA
:10072000D1F804C0ACEB0608B44532D014DCBCF1FF
:10073000030F3AD009DCBCF1000F2AD0BCF1010F45
:100740001CD0BCF1020F31D11DE0BCF1110F17D04C
:10075000BCF1120F2AD119E0B8F5881F19D006DCB8
:10076000B8F5803F15D0B8F5801F1FD111E0B8F55E
:10077000001F0ED0B8F5041F18D10AE0CB6815E0B1
:10078000CB681B1D12E0CB6808330FE0CB680C333D
:100790000CE08B682BB1012B4FF0080303D04561AF
:1007A00004E0042302E0056100E00023FF2A01D8F1
:1007B000064601E000F104064FEA840501D9A5F1DF
:1007C0002005D6F8008007FA05FC28EA0C0803FA91
:1007D00005F548EA0508C6F800804D68ED0062D5C9
:1007E000374DAE6946F00106AE61AD6924F00306EF
:1007F00005F001050095334D06EB050CDCF80850BB
:10080000A607360F07FA06F825EA0805DFF8B880CC
:10081000404503D14FF0000817E044E0DFF8AC801A
:10082000404502D14FF001080FE0DFF8A4804045B9
:1008300002D14FF0020808E0DFF89880404502D16D
:100840004FF0030801E04FF0040808FA06F848EA00
:100850000508CCF808804D68D9F80060ED034D46D6
:1008600001D5164300E096432E604D68DAF800602B
:10087000AD03554601D5164300E096432E604D6802
:10088000DBF80060ED025D4601D5164300E09643BB
:100890002E604D68DEF80060AD02754601D5164346
:1008A00000E096432E60641C0D682A46E5407FF404
:1008B00031AFBDE8F88F00000004014000001110C6
:1008C000001002400000014000080140000C0140FF
:1008D00000100140001401400AB101617047090491
:1008E000FBE700000148806870470000C00000205E
:1008F00070B5040025D094F83D00002520B984F897
:100900003C50204600F078FA242084F83D0020680E
:10091000016821F0010101602068016841F4004193
:1009200001602068016821F40041016000F002FCD0
:100930004D4A6168914201D84C4900E04C498842D7
:1009400001D2012070BD4B492368B0FBF1F15E6814
:1009500026F03F060E435E606368934206D94FF46B
:10096000967359434FF47A73B1FBF3F12368491C32
:100970001E6A26F03F06314319626168914210D821
:100980004900401EB0FBF1F2521CC2F30B02042AD4
:1009900001D2042022E0B0FBF1F0401CC0F30B00B8
:1009A0001CE0A268F2B301EBC10303EB0116431E86
:1009B000B3FBF6F35B1C43F480431B0549D092B3B1
:1009C00001EBC10202EB0111401EB0FBF1F0401C33
:1009D000C0F30B0040F4804040F400402168CA6935
:1009E0004CF6FF739A431043C861D4E907100143E2
:1009F0002068026822F0C00211430160D4E90301BB
:100A000001432068826848F2FF339A4311438160B2
:100A1000D4E9050108432168CA6822F0FF021043A7
:100A2000C86001E00EE016E02068016841F00101B5
:100A300001602564202084F83D00256384F83E5041
:100A4000002070BD01EB4106431EB3FBF6F35B1CB7
:100A5000B3E70120C2E701EB4101401EB0FBF1F01A
:100A6000401CC0F30B00B7E7A086010080841E0085
:100A700000093D0040420F002DE9FF4F83B00025E3
:100A8000DDE910799A4693460446DDF848800095E2
:100A9000FFF728FF064694F83D0020287CD1192353
:100AA000012285492046009601F026FC0028F5D158
:100AB00094F83C0001286FD0012084F83C002068A5
:100AC0000168C90703D1016841F001010160206894
:100AD000016821F400610160222084F83D0040207B
:100AE00084F83E0025646762A4F82A90608D208512
:100AF0007248E062CDE9008653465A462046049982
:100B000001F002FB00287DD1208DDFF8B491202771
:100B100068B1012814D00228206801681ED041F471
:100B2000806101602068416980690090B6E02068BA
:100B3000416981690091016841F400710160ADE093
:100B40002068016821F48061016072B62068416903
:100B500081690091016841F400710AE041F400618B
:100B6000016072B62068416981690091016821F4D1
:100B70008061016062B691E0032868D801280CD03A
:100B8000022843464FF000024946204600960FD007
:100B900001F0B2FBB0BB10E08BE03246414620468C
:100BA00001F029FC70BB20680069616A08706CE084
:100BB00001F0A2FB30BB72B634E02068016821F47A
:100BC0008061016072B620680069616A0870606ABD
:100BD000401C6062208D401E2085608D401E608517
:100BE000384846F2A8110068B0FBF1F0C0EBC00035
:100BF00000EB80000090401E009008D02068406903
:100C0000C04300E029E040070CD50098F3E744F822
:100C1000305F6773A573206940F02000206162B6E1
:100C200025731AE02068016841F4007101602068B2
:100C30000069616A0870606A401C6062218D491E0B
:100C40002185618D491E618562B621681BE03246AF
:100C50004146204601F0CFFB18B1012007B0BDE8A6
:100C6000F08F20680069616A0870606A401C6062E9
:100C7000218D491E2185618D491E618521684A6942
:100C8000D24352070AD409690170606A401C60624D
:100C9000208D401E2085608D401E6085208D00289F
:100CA0007FF46AAF84F83D7084F83E5084F83C507D
:100CB000D4E70220D2E70000020010000000FFFF8E
:100CC00004000100CC0000202DE9FF4F83B09A46BC
:100CD000DDE9119793460446DDF84080FFF702FEF8
:100CE000054694F83D0020287FD119230122404970
:100CF0002046009501F000FB002876D194F83C00D6
:100D0000012872D0012084F83C0020680168C907DE
:100D100003D1016841F0010101602068016821F4FC
:100D200000610160212084F83D00402084F83E00ED
:100D300000262664C4F82480A4F82A90608D2085BB
:100D40002C48E062CDE9007553465A462046049986
:100D500001F058FA70B930E02A463946204601F0D1
:100D60007DFB58B1206C042804D12068016841F44F
:100D700000710160012007B0BDE8F08F606A216852
:100D800000780861606A401C6062218D491E89B24A
:100D90002185628D521E628522685369DB435B07A1
:100DA0000BD469B100781061606A401C6062208DCC
:100DB000401E2085608D401E6085208D0028CBD18F
:100DC0002A463946204601F071FA0028CAD154F863
:100DD0003D0B016841F400710160202004F81E09F8
:100DE000E67766770020C6E7FFE70220C3E700004A
:100DF000020010000000FFFF10B586B00021009136
:100E00000191029103910068104988421BD1104C56
:100E1000A06940F00800A061A069694600F00800E0
:100E200004904FF440600090122001900320039042
:100E30000848FFF761FCE06940F48000E061E06988
:100E400000F48000049006B010BD0000005800407F
:100E500000100240000C01400248816802781144F1
:100E600081607047C0000020074810B5016841F05C
:100E700010010160032000F095F80F2000F006F843
:100E800000F03EF8002010BD0020024000B50146F1
:100E900087B000221C2000F065F81C2000F054F8F8
:100EA0001448C16941F00101C161C06905A900F0A0
:100EB00001000690684600F01DF900F03BF90E496C
:100EC0004000B0FBF1F10D484FF08042491E026036
:100ED000416040F2E7320021C0E90321816000F067
:100EE0006FFB10B1012007B000BD044800F0AAFB61
:100EF000F9E700000010024040420F0048050020C2
:100F00000F4808B5816941F001018161816901F0F3
:100F100001010091C16941F08051C161C0690022A5
:100F200000F0805000900F21901E00F01BF8054843
:100F3000416821F0E06141F00071416008BD0000AE
:100F40000010024000000140002809DB00F01F02F1
:100F5000012191404009800000F1E020C0F800111B
:100F600070470000F0B40E4B1B680C46C3F302231D
:100F7000C3F10705042D00D90425191D072901D245
:100F8000002300E0DB1E012606FA05F1491E214080
:100F900099409E40761E16403143F0BC02F088B85E
:100FA0000CED00E0064900F0070208684FF6FF0369
:100FB000184040EA0220034A1043086070470000CE
:100FC0000CED00E00000FA052DE9F0470F460500A2
:100FD00061D0434E306800F00700B84209D2306853
:100FE00020F0070038433060306800F00700B84256
:100FF00051D128683B4C810712D5400703D5606862
:1010000040F4E06060602878000703D5606840F431
:10101000605060606068A96820F0F000084360607C
:101020002878C00728D06868012810D021680228D5
:1010300010D0890700292EDA616821F003010143ED
:101040006160FFF74FFC804641F288390DE021686E
:101050008903EFE78901EDE7FFF744FCA0EB080106
:10106000494502D90320BDE8F0876068696800F04F
:101070000C00B0EB810FEFD1306800F00700B842F0
:101080000BD9306820F0070038433060306800F03A
:101090000700B84201D00120E5E72878400705D5D0
:1010A0006068E96820F4E060084360602878000721
:1010B00006D56068296920F4605040EAC10060608C
:1010C00000F058F86168084AC1F30311515CC84048
:1010D0000649086006480068FFF7D8FE0020C2E70E
:1010E0000020024000100240047F0008CC000020D5
:1010F000C40000200F2202600C4A536803F003036F
:101100004360536803F0F0038360536803F4E063C3
:10111000C36052684FF4E06303EAD20202610448FC
:10112000006800F0070008607047000000100240EF
:10113000002002400448054900684968044AC1F398
:101140000221515CC8407047CC00002000100240D2
:10115000147F00080448054900684968044AC1F33F
:10116000C221515CC8407047CC00002000100240F2
:10117000147F000812A185B00FC98DE80F0014A0DC
:10118000144A006804905168134801F00C03042BC2
:1011900010D0082B0ED1C1F38343C9031DF80300FF
:1011A0000AD5516804AAC1F34041515C0A4A504330
:1011B000B0FBF1F005B0704708494843FAE700007A
:1011C00002030405060708090A0B0C0D0E0F101088
:1011D000010200000010024000127A0000093D00E8
:1011E0002DE9F84F040070D02078C04DC00749D0D9
:1011F0006868C0F38100012807D06868C0F38100E7
:10120000022809D16868C00306D52868800339D54B
:1012100060680028E7D035E06068B0F5803F0BD00B
:1012200010B1B0F5A02F11D0286820F480302860CC
:10123000286820F4802002E0286840F4803028608C
:10124000606890B1FFF74EFB06460AE0286840F45C
:1012500080202860F0E700BFFFF744FB801B642874
:1012600073D828688003F7D50CE0FFF73BFB0646F0
:1012700005E000BFFFF736FB801B6428F0D8286824
:101280008003F7D420789A4E80074FF001094FF081
:10129000000839D5686810F00C0F07D06868C0F3F3
:1012A0008100022809D16868C00306D42868800735
:1012B00014D52069012808D110E02069B0B1C6F822
:1012C0000090FFF70FFB074605E00AE1FFF70AFB76
:1012D000C01B0228C4D828688007F7D52868616930
:1012E00020F0F80040EAC10028600DE0C6F8008058
:1012F000FFF7F8FA074604E0FFF7F4FAC01B0228EC
:1013000023D828688007F7D4207800072CD579489F
:10131000A169D9B1C0F80090FFF7E4FA074604E0EC
:10132000FFF7E0FAC01B02280FD8686A8007F7D5DC
:1013300071484FF4FA510068B0FBF1F0009000BF23
:101340000098411E0091FAD20EE080E0C0F80080C3
:10135000FFF7C8FA074604E0FFF7C4FAC01B0228EB
:1013600075D8686A8007F7D42078400760D5E869A7
:101370000027C00008D4E86940F08050E861E869BF
:10138000012700F0805000905C480168C90513D423
:101390000168834641F480710160FFF7A3FA824639
:1013A00006E000BFFFF79EFAA0EB0A0064284ED8C3
:1013B000DBF80000C005F5D5E06801280AD008B1C7
:1013C000052813D0286A20F001002862286A20F03E
:1013D000040002E0286A40F001002862E06841F25F
:1013E000883B98B1FFF77EFA82460BE0286A40F00E
:1013F00004002862EEE700BFFFF774FAA0EB0A01D1
:1014000059455AD8286A8007F6D50CE0FFF76AFAE2
:10141000824605E0FFF766FAA0EB0A0159454CD871
:10142000286A8007F6D41FB1E86920F08050E8618F
:10143000E06988B36968C1F38101022944D00228B8
:10144000C6F8608004D0FFF74DFA044638E034E077
:10145000FFF748FA074604E0FFF744FAC01B0228EA
:101460002BD828688001F7D4206AB0F5803F05D1D9
:101470006868A16820F4003008436860D4E9080176
:101480000843696821F4741108436860C6F86090E5
:10149000FFF728FA044606E025E000BFFFF722FA2E
:1014A000001B022809D828688001F7D51BE000BF7F
:1014B000FFF718FA001B022802D90320BDE8F88FB5
:1014C00028688001F4D40EE00128F7D06868226A09
:1014D00000F48031914204D1616A00F470108842B6
:1014E00001D00120EAE70020E8E7000000100240F8
:1014F0000000424280044242CC00002000700040C4
:101500007047704710B590F83C20012A22D0012284
:1015100080F83C20CA688C6822F4407222434C68F0
:1015200022F4806222430C6822F4006222430C6998
:1015300022F4805222434C6922F400522243C969AA
:10154000002322F480420A4301684A6480F83C3058
:10155000002010BD022010BD70B590F83C20012A7B
:1015600026D0012480F83C40022280F83D20036808
:101570005A689D6822F070060A6832435A600D4B23
:1015800002689A4208D0B2F1804F05D00A4B9A42C5
:1015900002D00A4B9A4204D1496825F080031943CE
:1015A000916080F83D40002180F83C10084670BDF5
:1015B000022070BD002C01400004004000080040E3
:1015C00010B5040003D094F83D0010B107E00120ED
:1015D00010BD002084F83C00204600F01FF80220D7
:1015E00084F83D00211D206801F08EFA012084F866
:1015F000460084F83E0084F83F0084F8400084F8F8
:10160000410084F8420084F8430084F8440084F8E0
:10161000450084F83D00002010BD000008B50068BA
:101620000649884208D10648816941F40061816118
:10163000806900F40060009008BD0000002C0140AB
:101640000010024090F83D10012901D001207047A0
:10165000022180F83D100168CA6842F00102CA60A8
:1016600000680B49884208D0B0F1804F05D0094985
:10167000884202D00849884204D1816801F00701FC
:10168000062903D0016841F0010101600020704784
:10169000002C0140000400400008004070B50446E2
:1016A00090F83C00012817D0012584F83C50022016
:1016B00084F83D002068826822F0770222F47F429D
:1016C00082600868502830D00DDC20284DD005DC21
:1016D00098B310283BD148E0022070BD302844D098
:1016E000402834D139E0602828D0702806D0B0F5E1
:1016F000805F2CD0B0F5005F29D10AE0CB68D1E93A
:101700000121206801F043FA2068816841F07701E7
:1017100009E0CB68D1E90121206801F038FA20689E
:10172000816841F48041816011E0CA68496820689D
:1017300001F0E2FA5021206807E016E0CA68496823
:10174000206801F0EAFA6021206801F02AFA84F8A2
:101750003D50002084F83C0070BDCA68496820688C
:1017600001F0CAFA40212068EFE7226801461046DE
:10177000EBE72DE9F0410D46040003D094F83D005D
:1017800018B108E00120BDE8F081002084F83C0099
:10179000204600F041F8022084F83D00206881686E
:1017A00044F2070291438160211D206801F0ACF9E9
:1017B000226890689169166A2B68AF69034340F20A
:1017C0000330814341EA0721A868EF6908434FF6D7
:1017D000FC418843E96840EA0720014328692F6AF1
:1017E000000140EA0730084369686D6926F0220667
:1017F00046EA0515294393602268906154F8460B28
:101800000162012004F81F09E0752076E076207758
:10181000A0750020B7E7000000B585B00021009159
:101820000191029103911A4B02681A48C0219A4211
:1018300013D1C26942F00202C261C26902F002021F
:101840000492826942F0040282618069009100F092
:10185000040004906946104815E0104B9A4214D1D8
:10186000C26942F00402C261C26902F00402049239
:10187000826942F0080282618069009100F00800EC
:10188000049069460648FEF737FF05B000BD00002A
:101890000004004000100240000801400008004021
:1018A000000C014070B590F83E60044690F83F503F
:1018B00090F8423090F84320022021B104290ED044
:1018C000012E1BD114E0012E18D1012B16D184F862
:1018D0003E0084F8420001220021206820E0012D12
:1018E0000CD1012A0AD184F83F0084F8430014E0A7
:1018F000012D03D1012B01D1012A01D0012070BD9E
:1019000084F83E0084F83F0084F8420084F84300E5
:1019100001220021206801F02DF901220421206814
:1019200001F028F92068016841F001010160002000
:1019300070BD704770B50446006801694FF000053E
:10194000C943890715D4C168C943890711D4E91E61
:10195000016101202077206880698007204602D03D
:10196000FFF7E7FF04E000F0BFF8204600F04EF973
:10197000257720680169C943490717D4C168C9435D
:10198000490713D46FF00401016102202077206819
:10199000806910F4407F204602D0FFF7CAFF04E0C0
:1019A00000F0A2F8204600F031F92577206801699F
:1019B000C943090716D4C168C943090712D46FF097
:1019C00008010161042020772068C0698007204653
:1019D00002D0FFF7AEFF04E000F086F8204600F0EA
:1019E00015F9257720680169C943C90617D4C1686C
:1019F000C943C90613D46FF0100101610820207794
:101A00002068C06910F4407F204602D0FFF791FFA4
:101A100004E000F069F8204600F0F8F82577206827
:101A20000169C943C90708D1C168C943C90704D1BD
:101A3000891E0161204600F039F920680169C94317
:101A4000090609D4C168C943090605D46FF08001AD
:101A500001612046FFF754FD20680169C94349062A
:101A600009D4C168C943490605D46FF0400101613A
:101A7000204600F022F920680169C94389060BD489
:101A8000C168C943890607D46FF02001016120466F
:101A9000BDE87040FFF735BD70BD000000B585B0F2
:101AA0000021009101910291039100680B49884245
:101AB00012D10B48816941F0040181618069694656
:101AC00000F0040004904FF4106000900220019098
:101AD00003900448FEF710FE05B000BD002C014045
:101AE0000010024000080140704770B5044690F8AD
:101AF0003C000D4601280AD0012084F83C0042B188
:101B0000042A18D0082A2AD00C2A4DD139E0022004
:101B100070BD206801F04EF82068816941F008012D
:101B200081612068816921F00401816120688169F7
:101B30002A69114311E0206801F064F82068816986
:101B400041F4006181612068816921F480618161D3
:101B5000206881692A6941EA0221816124E02068C4
:101B600001F07CF82068C16941F00801C16120687A
:101B7000C16921F00401C1612068C1692A6911436A
:101B800011E0206801F096F82068C16941F4006115
:101B9000C1612068C16921F48061C1612068C169A7
:101BA0002A6941EA0221C161002084F83C0070BD2D
:101BB00010B5040003D094F83D0010B107E00120F7
:101BC00010BD002084F83C00204600F01EF80220E2
:101BD00084F83D00211D206800F096FF012084F864
:101BE000460084F83E0084F83F0084F8400084F802
:101BF000410084F8420084F8430084F8440084F8EB
:101C0000450084F83D00002010BD7047704700007B
:101C100010B50446022249B104290ED0082913D078
:101C200094F84100012816D0012010BD94F83E0020
:101C30000128F9D184F83E200FE094F83F000128F4
:101C4000F2D184F83F2008E094F840000128EBD15D
:101C500084F8402001E084F841200122206800F04F
:101C600089FF0F492068884203D1426C42F4004248
:101C700042642068884208D0B0F1804F05D00949FD
:101C8000884202D00849884204D1816801F00701E6
:101C9000062903D0016841F001010160002010BD58
:101CA000002C014000040040000800400068B0F132
:101CB000804F01D1FFF7D0B8704770477047704729
:101CC000F8B5026804461068D168536910F00F0F28
:101CD0004FF0000553D003F0010601F4907737432D
:101CE0005FD0C20705D0CA0503D5226C42F00102BD
:101CF0002264420705D5DA0703D0226C42F00202C3
:101D00002264820705D5DA0703D0226C42F0040270
:101D10002264020707D501F02002324303D0226C6F
:101D200042F008022264226C002A34D0800604D5D6
:101D3000880602D5204601F04BF820684069216CE6
:101D4000C0F38010090700D430B3204601F028F812
:101D50002068416949061BD5416921F04001416174
:101D6000A06BA8B158494163A06BFEF767FC00283F
:101D700011D0A06B416B01B0BDE8F040084783066D
:101D80000FD58B060DD52046BDE8F84001F020B8F0
:101D90002046FFF794FFF8BD2046FFF790FF25642B
:101DA000F8BD266B2023012E52D1C60650D5CE0693
:101DB0004ED5106850680090506940062AD5A16B36
:101DC000086840680004000CEAD0A68D8642E7D976
:101DD000E0858869202818D0D06820F48070D06011
:101DE0002068416921F0010141612068416921F0C9
:101DF0004001416184F83E3025632068C16821F0CC
:101E00001001C160A06BFEF7F5FBA08DE18D401ABB
:101E100081B219E0A08DE18D401A81B2E08D0028D9
:101E2000BED00029BCD0D06820F49070D06020686B
:101E3000426922F00102426184F83E302563206845
:101E4000C26822F01002C2602046FFF737FFF8BDDB
:101E500005062BD50D0629D594F83D002128F6D18D
:101E6000A068B0F5805F01D12069B0B1206A411C43
:101E70002162216800784860E08C401E0004000C5C
:101E8000E084E4D12068C16821F08001C16020684D
:101E9000C16841F04001C160F8BD206A0088C0F30C
:101EA00008005060206A801C2062E5E74006F3D5F8
:101EB0004806F1D5D168204621F04001D16084F870
:101EC0003D3000F007F9F8BD912D000870B5040011
:101ED00004D094F83D00002510B106E0012070BD4B
:101EE00084F83C50204600F023F8242084F83D007C
:101EF0002068C16821F40051C160204600F0C4FF91
:101F00002068016921F4904101612068416921F054
:101F10002A0141612068C16841F40051C160256413
:101F2000202084F83D0084F83E00002070BD0000B1
:101F300070B586B0002400940194029403942B4E53
:101F400003682B49022003222A4DB34229D18B6911
:101F500043F480438B618B6903F4804304938B6962
:101F600043F004038B618969039201F00401049139
:101F70000102CDE9001069462846FEF7BDFB281591
:101F8000CDE90004694628460294FEF7B5FB00221D
:101F900005212520FEF7E6FF2520FEF7D5FF06B038
:101FA00070BD154EB342FAD1CB6943F40033CB6117
:101FB000CB6903F4003304938B6943F004038B6112
:101FC0008969039201F0040104910421CDE9001014
:101FD00069462846FEF790FB0820CDE900046946D3
:101FE00028460294FEF788FBD9E70000003801403C
:101FF00000100240000801400044004090F83E30CC
:10200000202B0ED159B152B190F83C30012B08D0A1
:10201000012380F83C300023036300F091BF0120CE
:102020007047022070470000F0B428480246067945
:10203000D178557A0B46491CCCB20021803236B19A
:10204000012E08D0022E1ED0032E2CD005E02C2D00
:1020500003D1012113E0122D10D00171C1700023B2
:102060000024D1545B1CDBB2052BF9D38470F0BC87
:102070001649012209311648FFF7C0BF022101713C
:10208000D554C470F3E7D554C470052C01D25B2D30
:10209000EDD103210171111911F8032D497802EBDB
:1020A0000121C182E3E7134413F8013C5B2B09D003
:1020B0000171C17000230024D1545B1CDBB2052BDD
:1020C000F9D3D3E7C1700171D1E7000038000020D7
:1020D000C00400207047FEE701684A69D2435205F8
:1020E0000FD46FF480624A61002140F8301F202233
:1020F00042738173026942F004020261017301209C
:1021000070470020704700002DE9F84F0446006832
:1021100089460B9D01689846174641F4806101602D
:102120002068016841F48071016000954FF0011B47
:102130000022594620460A9B00F0DEF84FF4007A50
:1021400040B120680068C00501D5C4F840A0032054
:10215000BDE8F88F216809F0FE0008612B46284988
:1021600020460A9A00F0FCF8F0BB206841698069BB
:1021700000902A4620460A9900F070F940B1206C80
:1021800004283AD12068016841F40071016034E00C
:10219000FEB2B8F1010F09D02168380A08612A4659
:1021A00020460A9900F05AF90028E8D12068066113
:1021B0002A4620460A9900F051F90028DFD120680C
:1021C000016841F480710160009500225946204663
:1021D0000A9B00F091F80028B3D1216809F0FF00B4
:1021E00040F00100086100E007E02B46044920466A
:1021F0000A9A00F0B5F80028AAD00120A8E700004C
:10220000020001002DE9F843044600680D46DDE9AF
:10221000089701689846164641F4807101604B4664
:1022200000224FF001112046009700F065F848B1F8
:1022300020680068C00502D54FF4007020640320B8
:10224000BDE8F883216805F0FE0008613B464A4678
:102250001549204600F084F888B9206841698069F2
:1022600000903A464946204600F0F8F848B1206C04
:10227000042804D12068016841F400710160012044
:10228000DEE7F5B2B8F1010F09D02168300A086124
:102290003A464946204600F0E1F80028E7D1206898
:1022A00005610020CCE700000200010070B5164671
:1022B0000D4604460DE02046FFF70EFF08B1012051
:1022C00070BD681C05D0FEF70DFB801BA84207D827
:1022D00035B120684069C0434007ECD4002070BD90
:1022E000002044F8300F20216173A073216941F070
:1022F000200121612073E2E72DE9F0471E46904658
:102300000D460446C1F30747DDF8209008E0701C35
:1023100006D0FEF7E7FAA0EB0900B0420FD876B17D
:102320002068012F18D0806925EA00000004000C05
:1023300014D000214145EAD00020BDE8F0870020FC
:1023400044F8300F20216173A073216941F020010E
:10235000216120730120F0E74069E5E70121E9E709
:102360002DE9F0479A4691460E46044600254FF067
:102370002008C1F3074725E020684069C0434005B5
:1023800014D42068016841F40071016021686FF481
:1023900080604861256384F83D8084F83E50206C5D
:1023A00040F00400206484F83C501FE0B9F1FF3F86
:1023B00008D0FEF797FAA0EB0A0149450CD8B9F10D
:1023C000000F09D02068012F13D0806926EA000091
:1023D0000004000C0BD0CFE744F8305F84F80D8088
:1023E000A573206940F02000206125730120BDE81D
:1023F000F0874069EAE72DE9F041002590460E4656
:102400000446202717E04069C043C0060CD454F8A6
:10241000301B6FF01000486144F810596777A577BA
:10242000206A2062257717E0FEF75CFAA0EB08002F
:10243000B04208D83EB120684169C9434906E2D498
:102440000020BDE8F08144F8305F6773A573206910
:1024500040F02000206125730120F2E770B5164698
:102460000D4604460DE02046FFF736FE08B1012078
:1024700070BD681C05D0FEF735FA801BA84207D84E
:1024800035B120684069C0430006ECD4002070BD1F
:10249000002044F8300F20216173A073216941F0BE
:1024A000200121612073E2E710B541F6583304683A
:1024B0005A429C4201DD036002E0944200DA02606D
:1024C0000868984201DD0B6010BD9042FCDA0A609A
:1024D00010BD00000A4A111F081F02F029F9084A1E
:1024E0006E3A911E881E00F026F8054A683A911E41
:1024F000881E00F007F8052002F0F6FFEAE700006A
:10250000B40000207CB514460D4606466B460622F4
:102510003B21682000F028F800280BD1BDF80010FE
:1025200049BA3180BDF8021049BA2980BDF80410BB
:1025300049BA21807CBD7CB514460D4606466B46E3
:1025400006224321682000F00FF800280BD1BDF8C7
:10255000001049BA3180BDF8021049BA2980BDF88F
:10256000041049BA21807CBD3EB54000CDE900325F
:102570000A4640F6FF740146029401230148FEF723
:102580007BFA3EBD940300203EB54000CDE9003209
:102590000A4640F6FF740146029401230148FEF703
:1025A00093FB3EBD9403002010B596B01C22114948
:1025B0006846FDF7C5FE0021684602F0A1FF0E4CFB
:1025C0000C491C22A0641C3107A8FDF7B9FE0021AC
:1025D00007A802F095FF0749E0641C2238310EA8D5
:1025E000FDF7AEFE00210EA802F08AFF206516B0AE
:1025F00010BD0000B07E0008380000202DE9F04337
:1026000085B000242D4800940194029403948169BC
:1026100041F010018161816901F01001049181692B
:1026200041F020018161816901F0200104918169FB
:1026300041F004018161816901F004010491816923
:1026400041F00801816180691D4E00F008004FF4DF
:1026500000550490002229463046FEF73DF9DFF888
:102660006480002230214046FEF736F9DFF85890AA
:102670004FF44057002239464846FEF72DF9022014
:10268000CDE9024000950125694601953046FEF7E7
:1026900033F830200326CDE90005CDE9024669462E
:1026A0004046FEF729F800970396CDE901546946A4
:1026B0004846FEF721F805B0BDE8F083001002405F
:1026C0000010014000080140000C01400D4810B509
:1026D0000B4901600C49416000214FF48042816048
:1026E000C0E9031241618161C1610162FEF700F935
:1026F000002803D0BDE81040FDF77ABF10BD0000F0
:102700000058004094030020801A060010B596B0CF
:1027100000240F9410941194129413941C21684671
:102720001494FDF747FE202107A8FDF743FE2C482F
:102730002A49C0E9001441F61F41C0E90241046181
:1027400044618461FEF73CFF08B1FDF751FF4FF48F
:1027500080500F900FA92248FEF7A0FF08B1FDF7A7
:1027600047FF1F48FFF724FA08B1FDF741FF139414
:1027700013A91B481494FEF7EFFE08B1FDF738FFCC
:102780006020CDE90004029403940494059400228F
:10279000694613480694FFF7A8F908B1FDF728FF2A
:1027A0000C2269460E48FFF7A0F908B1FDF720FF9B
:1027B0000794089409944FF400500A94CDE90B4013
:1027C00007A907480E94FEF79DFE08B1FDF710FF1C
:1027D0000348FFF763F916B010BD0000002C01405C
:1027E000E803002010B58CB024216846FDF7E2FD17
:1027F00000241648099414490A94C0E900144FF6BD
:10280000FF71C0E90241046184610320CDE9000445
:102810000120CDE902040494CDE9054007946946FE
:102820000A480894FEF7A5FF08B1FDF7E1FE0994F8
:1028300009A906480A94FEF78FFE002801D0FDF78B
:10284000D7FE0CB010BD0000000400403004002092
:1028500010B58CB024216846FDF7ACFD0024164865
:10286000099414490A94C0E900144FF6FF71C0E9B5
:102870000241046184610320CDE900040120CDE917
:1028800002040494CDE90540079469460A48089477
:10289000FEF76FFF08B1FDF7ABFE099409A90648E2
:1028A0000A94FEF759FE002801D0FDF7A1FE0CB0F6
:1028B00010BD000000080040780400200C4810B54E
:1028C0000A4901604FF4E1314160002181600C222E
:1028D000C160C0E904128161C161FFF7F7FA002805
:1028E00003D0BDE81040FDF783BE10BD00380140A5
:1028F000C00400200C4810B50A4901604FF4E131D2
:102900004160002181600C22C160C0E90412816134
:10291000C161FFF7DBFA002803D0BDE81040FDF7E6
:1029200067BE10BD00440040040500201FB5002113
:102930003C48FFF76DF90C213A48FFF769F900218F
:102940003948FEF7AFFF04213748FEF7ABFF0021FF
:102950003648FEF7A7FF04213448FEF7A3FF012203
:1029600033493448FFF74AFB0125002003A98DF8BD
:102970000C00CDE9001540F6FF7002902B46752241
:10298000D0212D48FEF778F84FF4967405E000BF8B
:1029900001F09CFF2046FDF79DFE01F097FF002807
:1029A000F6D100224FF400512448FDF795FF204C4A
:1029B000234E093C234F65704FF07E58B4F90C004C
:1029C000163004F045FA0546606F04F0AFF8324661
:1029D0003B4603F069FB03F035FB294600F036FB6C
:1029E0006065D4E9170100F0CFFAA0654146E06FB9
:1029F00004F0C8F804F0F0F901B2E08A00F0A0F9A0
:102A00002067D4E91512891A0A18081A0849C4E976
:102A100019205F31081FFFF747FD0A2002F064FD0F
:102A2000CCE70000E80300203004002078040020F8
:102A300041000020C0040020940300200010014049
:102A40009A9999999999B93FFEE7FEE700210328E1
:102A500005D0042801D000207047044801E0034855
:102A600048380268506A516200B27047780400200A
:102A700010B5502080F31188BFF34F8FBFF36F8FD5
:102A800003F01AFA18B104494FF080500860002092
:102A900080F3118810BD000004ED00E030B58FB068
:102AA00028216846FDF786FC14210AA8FDF782FC60
:102AB00001210804CDE900100024029402250491AC
:102AC000CDE907504FF4E01009906846FEF788FB07
:102AD00008B172B6FEE70F20CDE90A054FF4806019
:102AE000CDE90C4002210AA80E94FEF76DFA0028E9
:102AF00001D072B6FEE70FB030BD70470148FEF757
:102B000019BF000048050020F0B50268164B174CAD
:102B1000174D4FF08047984205D0B84203D0A042ED
:102B200001D0A84203D122F070064A68324398428D
:102B300005D0B84203D0A04201D0A84203D122F46C
:102B40004074CA6822434C6922F08002224302602A
:102B50008A68C2620A688262984201D10969016387
:102B600001214161F0BD0000002C01400004004043
:102B70000008004010B501F01F030121046A9940CC
:102B80008C430462016A9A401143016210BD10B582
:102B9000846842EA032224F47F440A432243826089
:102BA00010BD826822F070020A4342F00701816082
:102BB0007047000030B5026A22F001020262026A28
:102BC0004368846924F073050C682C4322F00205E5
:102BD0008A682A430A4DA8420BD122F00805CA6828
:102BE00023F440732A434D6922F004021D438B698C
:102BF0002B434360846149684163026230BD000039
:102C0000002C014030B5026A22F010020262026A12
:102C1000436884690D6824F4E64444EA05248D6819
:102C200022F0200242EA05120B4DA8420ED1CD68D7
:102C300022F0800242EA05124D6923F4406343EA20
:102C400085038D6922F0400243EA85034360846175
:102C500049688163026230BD002C014030B5026AD0
:102C600022F480720262036A4268C46923F400732A
:102C700024F073050C682C438D6843EA05230C4D42
:102C8000A8420ED1CD6823F4006343EA05234D69C1
:102C900022F4405242EA05128D6923F4806342EA2D
:102CA00005124260C4614968C163036230BD00001F
:102CB000002C014030B5026A22F480520262046A9C
:102CC0004268C3690D6823F4E64343EA05238D682F
:102CD00024F4005444EA0534064DA84204D14D6959
:102CE00022F4804242EA85124260C361496801646D
:102CF000046230BD002C014010B5036A046A24F060
:102D000001040462846924F0F00444EA021423F00C
:102D10000A020A438461026210BD10B5036A23F0FF
:102D2000100303628369046A23F4704343EA0232A6
:102D300024F0A00343EA01118261016210BD00008A
:102D400070B50E46044604F083F80F49884203DB51
:102D5000A4F1C80004F07CF80C4C054660633046D2
:102D600004F076F8616C04F09FF8064685F00040A8
:102D7000216C04F099F8314604F062F9A563BDE8CE
:102D8000704004F029B800000000C842380000205C
:102D900010B5406A0021C185C184FEF790FF10BDC7
:102DA0000168CA6822F49072CA6001684A6922F018
:102DB00001024A61016B012904D10168CA6822F04D
:102DC0001002CA60202180F83E1000210163704784
:102DD00008B590F83E10222901D0022008BD826873
:102DE0004FF480539A4201D1016921B1816A9A421C
:102DF0001BD04AB10AE00268816A5268C2F3080235
:102E00000A80816A891C08E0026972B1026852680E
:102E100002F07F020A70816A491C8162C18D491EDD
:102E20000904090CC18503D019E002685268F1E772
:102E30000168CA6822F02002CA600168CA6822F4E8
:102E40008072CA6001684A6922F001024A61202149
:102E500080F83E10016B012903D0FFF7E5F8002050
:102E600008BD002101630168CA6822F01002CA602F
:102E700001680A68D20602D50A6849680091818D06
:102E8000FEF71CFFEBE7000070B50446006801691F
:102E9000E26821F44051114301612169A0680843AF
:102EA000616908432168CA6841F20C639A4302438E
:102EB000CA6020684169A26921F4407111434161EF
:102EC0001E492068884202D1FEF744F901E0FEF76E
:102ED00031F900EBC00101EB001260686421800051
:102EE000B2FBF0F3B3FBF1F36FF018067343B2FBE0
:102EF000F0F5B2FBF0F605EB8305322303EB051585
:102F0000B5FBF1F5B6FBF1F605F0F00505EB06159E
:102F1000B2FBF0F6B2FBF0F0B0FBF1F06FF018028C
:102F2000504306EB800003EB0010B0FBF1F021688A
:102F300000F00F002844886070BD00000038014098
:102F400081628285C28500210164222280F83E20B0
:102F500080F83C100168CA6842F48072CA60016857
:102F60004A6942F001024A610068C16841F02001EB
:102F7000C1600020704700000148FEF7A1BE0000BC
:102F8000C0040020FEE700002DE9F0472A4CDFF8DE
:102F9000A090DFF8A080D4E91701084403F0D4FA28
:102FA0004FF0FF3204F0F3F803F04CF80746A06A44
:102FB00003F0BCFD4FF06632204B03F0DDFA05460E
:102FC0000E46384603F0B2FD4FF033321C4B03F08F
:102FD000D3FA2A46334603F067F803F033F8A062C9
:102FE0000546216B04F02CF8E16A03F0CBFD15498E
:102FF000E062884202DC1449884200D9E16220780C
:10300000012801D0607808B90020E0624146E06AFA
:1030100003F04AFF06464946284603F045FF31467D
:1030200003F0B0FDE061BDE8F04703F0D5BE00005D
:1030300000001442A4703D3E380000206666E63F62
:103040003333D33F00009643000048C32DE9F041DD
:1030500007460A4D0A4803F027FF0A4E0446384641
:10306000B16903F0EDFF294603F01EFF214603F08E
:1030700089FD03F0B1FEF066BDE8F0810000B4C345
:103080009A9999BF38000020490050EAC12018BF22
:1030900004204A0D18BF40F0010040F2FF72B2EB6D
:1030A000515F08BF40F00200012808BF05207047AB
:1030B0000907090E002804DB00F1E02080F8001465
:1030C000704700F00F0000F1E02080F8141D7047F9
:1030D0002DE9F0414F1E00EBC7010446D1E9000184
:1030E00015461E4637F006020DD02A46334603F039
:1030F00043FA7F1E04EBC703D3E9002302F0D4FF99
:1031000037F00602F1D1022F25D0042F13D0062F5D
:1031100018BFBDE8F0812A46334603F02DFAD4E902
:103120000A2302F0C1FF2A46334603F025FAD4E908
:10313000082302F0B9FF2A46334603F01DFAD4E90A
:10314000062302F0B1FF2A46334603F015FAD4E90C
:10315000042302F0A9FF2A46334603F00DFAD4E90E
:10316000022302F0A1FF2A46334603F005FAD4E910
:103170000023BDE8F04102F097BF012204F007B838
:1031800002F092BF002213461046114603F048B8E1
:10319000024A0020110703F0FABF000001FDFFFF03
:1031A0002DE9FE4F07460E460025684600F0F8FF61
:1031B00000246FF00F0AE8464FF0010957F8240089
:1031C00056F82410401A00D5404203F041FE514603
:1031D00004F00BF858F8241011F0FF4F0BD003F057
:1031E00039FD4FF07E5103F02BFF0A4920F00040DB
:1031F000884205DC07E0084908440849884202D3B0
:1032000009FA04F00543641C032CD7DB2846BDE80B
:10321000FE8F0000295C0F3E666666C19A99D90050
:103220002DE9F04D8D4F21F0004A86B005460C4641
:10323000BA452ADBAAEB070028430AD08848824512
:1032400001DC1AD1CDB106B02846BDE8F04DFFF73C
:1032500094BF844A844B284603F08EF907460E46F5
:10326000824A834B2846214603F086F906B03A4647
:103270003346BDE8F04D02F017BF0120FDF740F9DD
:1032800006B0BDE8F04DFFF77DBF7A48824542DACF
:10329000BAF1795F0BDA2846FFF7F6FE042808BF7B
:1032A000FFF776FF284606B02146BDE8F08D2A4696
:1032B0000B46104603F060F9834602466E480E4600
:1032C0000B4606217844FFF703FF5A46334603F0C6
:1032D00053F9804669488A465A4633460421784461
:1032E000FFF7F6FE5A46334603F046F900223B4606
:1032F00002F0DAFE02460B464046514602F090FFCD
:103300002A46234603F038F906B02A462346BDE88C
:10331000F04D02F0C9BE284624F0004100223D468F
:103320003B4603F027FA4FF0FF3203F030FF06462A
:10333000024653480F460B4606217844FFF7C8FE65
:1033400032463B4603F018F9CDE900014D483246BC
:103350003B4604217844FFF7BBFE32463B4603F070
:103360000BF900222B4602F09FFE83460291304665
:10337000394602F079FB804643480D46504517DC3C
:10338000DDE900015A46029B02F04AFF42462B4605
:1033900003F0F2F842462B4602F086FE012203F0CB
:1033A000F6FE304A304B03F0D7FA304A304B4CE04F
:1033B0004FF0000A52460B46404602F075FECDE93A
:1033C000031052462B461046194603F0D5F83246F4
:1033D0003B4603F0CFF9DDE9033202F021FF064658
:1033E0000F46DDE900015A46029B02F019FF8346B1
:1033F000009101223046394603F0C9FE194A1A4BA2
:1034000003F0B8F906460F4601224046294603F06C
:10341000BEFE5A46009B03F0AFF832463B4603F02F
:103420009BFA06460F4601225046294603F0AFFE9E
:103430000E4DDFF858802A46434603F09BF932468A
:103440003B4603F097F92A46434603F093F9002CD4
:10345000D8BF81F0004106B0BDE8F08D0000F03F1C
:103460000000F07F075C143326A6913C182D4454CD
:10347000FB21F93F0000E03F584C00006E4C00007B
:10348000E24B0000F84B00003333EF3FFB21E93FF4
:103490002DE9F84F04460D4621F000400091734994
:1034A000814211DC7249884201DC06D12CB12046F0
:1034B0002946BDE8F84FFFF760BE6E48002DCCBF2F
:1034C0006D496E49BDE8F88F6D49814211DD6D4946
:1034D0008142D8BF4FF0FF366DDD20462946FFF709
:1034E000D3FD042808BFFFF753FE20462946BDE858
:1034F000F88F6549654F25F00045814233DD644909
:10350000814219DD002632464FF08043204629468D
:1035100002F0CAFD80468A4601222046294603F071
:1035200036FE00223B4603F017FA4246534602F0AD
:1035300077FE04460D463EE001260022BA463B4691
:103540002046294602F0B0FD80460F460022534631
:103550002046294603F000FA42463B4602F060FE50
:1035600004460D4627E04B4981421BDDDFF828A1C8
:103570000226002253462046294602F0FDFF002283
:103580003B4602F091FD80460F46002253462046FE
:10359000294603F0E1F942463B4602F041FE04466B
:1035A0000D4608E0032622462B4600203B4902F048
:1035B00037FE04460D4622462B461046194602F0B9
:1035C000DBFF8B46824602460B4602F0D5FF0746DC
:1035D0000246334888460B4606217844FFF778FDBB
:1035E00052465B4602F0C8FF82462E488B463A465A
:1035F000434605217844FFF76BFD3A46434602F007
:10360000BBFF02460B46002E504659460CDA02F02C
:103610004BFD22462B4602F0AFFF01B022462B465F
:10362000BDE8F04F03F0A6B802F03EFD22462B465F
:1036300002F0A2FF1C4A7A4402EBC603D3E900233E
:1036400003F08AF922462B4603F086F9174A7A449A
:1036500002EBC603D3E9002303F08CF8009A002A9A
:10366000B8BF81F00041BDE8F88F000000001044B1
:103670000000F07F182D4454FB21F93FFB21F9BFD6
:103680000000DC3F0000203E0000F33F0000F03F60
:103690000000E63F008003400000F83F0000F0BF5C
:1036A000FA490000B8490000564900001E490000D0
:1036B0002DE9F04D9446CCF1000423F000464CEA8D
:1036C0000404594F46EAD4749A46884621F00042D1
:1036D000BC4206D8454240EA050442EAD474BC42E2
:1036E00004D9BDE8F04D6246FFF74ABDAAF1405546
:1036F000A5F17F6555EA0C040BD0022404EAAA74F4
:103700004A4DDFF82CE144EAD87452EA000B04D0A9
:103710000CE0BDE8F04DFFF7BBBE002C14BF012C40
:10372000BDE8F08D022C30D0032C32D056EA0C0BC1
:103730000AD0BE4220D1BA4209D126F0804622F0FA
:1037400080423346114617E000291ADB25E0DFF8F6
:10375000E4B0FB44002C04BFDBE90001BDE8F08DC0
:10376000012C02BFDBE9000181F00041BDE8F08DD2
:10377000022C0AD0032C0CD0BA4212D1B8F1000F9F
:103780000BDA2A482C49BDE8F08D28462B49BDE8C4
:10379000F08D28467146BDE8F08D24482849BDE8E3
:1037A000F08D921B12153C2AC4BF204F244E10DC12
:1037B000BAF1000FBEBF12F13C0F00273E4608DBF6
:1037C000624602F02DFD21F00041FFF761FE074641
:1037D0000E4694B1012C08BF86F000460DD0194A60
:1037E000194B022C3846314615D003F0B5F82A465D
:1037F000BDE8F04D114B03F0AFB800221346384638
:10380000314602F065FE04BF0220FCF779FE38461F
:103810003146BDE8F08D03F09FF82A46BDE8F04D33
:10382000064B02F0A7BF00000000F07F182D4454A3
:10383000FB2109C0B2480000FB21F9BFFB21094070
:10384000FB21F93F075C143326A6A13C08B560B103
:1038500020208DF8000028208DF8010030208DF800
:10386000020038208DF8030004E0A32204216846FA
:10387000FCF798FD6A46042140F69E2001F00AFEFE
:1038800001F0C8FA08BD00003EB5044602208DF8DC
:103890000000CA208DF80100E3208DF80200092005
:1038A0008DF803006A460421682001F0F3FDA3208F
:1038B0008DF80000610609D5C0218DF80110C821DE
:1038C0008DF80210C2218DF8031005E08DF801007B
:1038D0008DF802008DF8030014F4C07F09D0C421D4
:1038E0008DF80410CC218DF80510C6218DF8061036
:1038F00005E08DF804008DF805008DF806008DF8C0
:1039000008008DF807008DF809006A460A2140F684
:10391000A72001F0BFFDA0074FF0D80503D020205D
:103920008DF8000001E08DF800506A46012140F654
:10393000B62001F0AFFDA00601D5012000E0002077
:1039400000F08EF814F4C07F1ED0E0050AD5B22036
:103950008DF800008B208DF80100B6208DF8020054
:103960009B2009E0B0208DF8000080208DF8010038
:10397000B4208DF8020090208DF803006A460421DF
:1039800040F6A22001F086FDE1074FF40B6022D043
:10399000F8218DF800106A46012101F07BFDFA2123
:1039A000072000F049FB072000F014FB012000F085
:1039B00031FB642000F0D4FB4FF4FA7000F0E0FB20
:1039C000C821254800F0CEFA282000F0E3FA0A20AA
:1039D00000F0F0FA05E08DF800506A46012101F090
:1039E00059FDA00703D5D9208DF8000001E08DF81E
:1039F00000506A46012140F23D7001F04BFD600726
:103A000001D5012000E0002000F048F8E00601D5D3
:103A1000012000E00020FFF719FF104D44F00800DE
:103A2000688101F0F7F90020A873600601D506202F
:103A3000A87314F4C07F02D0A87B801DA87314F073
:103A4000140F02D0A87B1030A873A00702D0A87B67
:103A5000001DA87300203EBD09E3CA02300100200A
:103A60000EB54FF4976310B106A107C901E008A293
:103A700007CA8DE807006A460921184601F00AFDC9
:103A80000EBD0000B8AAB38DB4980D355D000000DE
:103A9000B8AAAAAAB088C3C5C700000008B560B11B
:103AA000C0208DF80000C2208DF80100C4208DF8E0
:103AB0000200C6208DF8030004E08B220421684632
:103AC000FCF770FC6A46042140F6982001F0E2FC05
:103AD00001F0A0F908BD0000C8234FF4806202493C
:103AE00040F6F63001F078B8B87200082DE9FF4FC3
:103AF00089B01746DDE916520024544E88468146A7
:103B00002C80A246B07B694601F012F94FF0FF3BD2
:103B100018B158460DB0BDE8F08F708910F0140F41
:103B20004CD0BDF800109DF8022049BA090441EAC2
:103B300002239DF803100B433B60BDF804109DF871
:103B4000062049BA090441EA02229DF807101B1415
:103B50000A437A60BDF808109DF80A4049BA090482
:103B600041EA04219DF80B4012142143B960BDF8CD
:103B70000C409DF80EC064BA240444EA0C2C9DF855
:103B80000F4009144CEA040CC7F80CC04FEA2C474C
:103B90005B43494302FB023207FB07111144102427
:103BA000A1F17061B1F1007F04D901F033F9A5F8FA
:103BB00000A0AEE7298841F4807129804206694659
:103BC00011D50A19A41D13885BBAA8F800305388D0
:103BD0005BBAA8F80230928852BAA8F804202A8862
:103BE00042F008022A8010F4C07F11D00A19A41DE7
:103BF00013885BBAA9F8003053885BBAA9F8023081
:103C0000928852BAA9F804202A8842F070022A80C9
:103C1000800716D00C44E07800F0C00500F03F01AA
:103C20006078C00706D0C80801F007013268491C57
:103C300002B190476078000703D5716809B1A809FF
:103C400088470C9800F048FD002063E73001002011
:103C50002DE9FF41044603A800F0A6FEBDF80C00C4
:103C6000410CC3032F48008900F0030254F822508E
:103C7000420700D56D42C0F3C102860654F82220E7
:103C800000D55242C0F38116C00554F8264000D535
:103C90006442A5FB0367E81700FB037005FB010006
:103CA000850045EA9670A2FB0367D51705FB0375EF
:103CB00002FB0152950045EA9672A4FB0367E517E3
:103CC00005FB037304FB01318B0043EA9671030E7D
:103CD0008DF80030030C8DF80130030A8DF80230A6
:103CE0008DF80300100E8DF80400100C8DF80500FF
:103CF000100A8DF80600080E8DF80800080C8DF8E3
:103D00000900080A8DF80A008DF807208DF80B10BD
:103D10006A460C214FF4257001F0BCFB04B0BDE8ED
:103D2000F08100003001002030B5044613A285B0B8
:103D300007CA8DE807004FF0FF35C82C16D8C820F9
:103D4000B0FBF4F1491E080A8DF80C008DF80D1037
:103D500003AA022140F2162001F09CFB30B96A460A
:103D60000C2140F6C12001F095FB10B1284605B0AA
:103D700030BD054884810020F9E70000FEF2ABC4A5
:103D8000AAF1DFDFBBAFDFDF30010020F8B530493B
:103D9000098901F0030250F822404A0700D5644225
:103DA000C1F3C1028B0650F8222000D55242C1F364
:103DB000811350F82330C80500D55B42254984FBA8
:103DC0000140850045EA947082FB0142A40F44EA59
:103DD000820483FB0121950F45EA8105010E8DF8D0
:103DE0000010010C8DF80110010A8DF802108DF8F9
:103DF00003006A4604214FF4747001F04BFB4FF04E
:103E0000FF3688B9200E8DF80000200C8DF80100D7
:103E1000200A8DF802008DF803406A4604214FF411
:103E2000757001F037FB08B13046F8BD280E8DF8EB
:103E30000000280C8DF80100280A8DF802008DF88A
:103E400003506A4604214FF4767001F023FBF8BD5D
:103E50003001002009E3CA022DE9FF4104463CA0DD
:103E600004F00303006802903AA0006803903AA0AF
:103E700006683AA0056802A8C15C8DF80010C4F37A
:103E8000C101425C8DF80120C4F38112805C8DF881
:103E9000020003A8C35C8DF80430415C8DF8051066
:103EA000805C8DF806006A46032140F2264001F04E
:103EB000F1FA4FF0FF37E0BB01AA032140F22A409C
:103EC00001F0E8FAA8BBCDE9006560070BD59DF8C5
:103ED000000040F001008DF800009DF8040040F063
:103EE00001008DF80400A0060BD59DF8010040F0FC
:103EF00001008DF801009DF8050040F001008DF8EB
:103F00000500E0050BD59DF8020040F001008DF89A
:103F100002009DF8060040F001008DF806006A4698
:103F200003214FF4886001F0B5FA10B901AA03210A
:103F300000E004E040F2314001F0ACFA18B138463C
:103F400004B0BDE8F081064804810020F8E70000D5
:103F50004CCD6C000CC92C00365676002646660007
:103F6000300100204FF47A7290FBF2F008B548431C
:103F7000010E8DF80010010C8DF80110010A8DF86A
:103F800002108DF803006A4604214FF4AE7001F070
:103F900081FA08BD0521B0FBF1F008B5010A8DF8E2
:103FA00000108DF801006A4602214FF4AD7001F057
:103FB00071FA08BD0521B0FBF1F008B5010A8DF8D2
:103FC00000108DF801006A4602214FF4AC7001F038
:103FD00061FA08BD08B500218DF80010C10702D0B4
:103FE00030218DF80010810705D59DF8001041F0B3
:103FF0000C018DF80010400705D59DF8000040F039
:1040000003008DF800006A4601214FF4A47001F00E
:1040100041FA08BD08B560B1042800D90420401E4B
:104020008DF800006A46012140F24F1001F032FA8B
:1040300008BD0120F3E700002DE9FC4105464007DB
:104040004FF0FF367CD0B1F5C86F79D8084602F042
:1040500017FF3E4902F0FEFD074601A800F086FC6E
:104060009DF80400022806D004280DD008282ED080
:10407000102865D134E00E21384603F0B6F802F07E
:10408000C7FE84B2324907E00D21384603F0ADF88F
:1040900002F0BEFE2F4984B2384602F005FF02F05E
:1040A000B7FE210A8DF8001080B28DF80140010A98
:1040B0008DF802108DF80300E8076C4620D02246E8
:1040C00002214FF4EA7001F0E5F9C8BB11E00C21C0
:1040D000384603F08AF802F09BFE84B21E49DBE703
:1040E0000B21384603F081F802F092FE84B21B499E
:1040F000D2E7A21C02214FF4927001F0CBF9F8B97B
:10410000A8070DD56A4602214FF4EC7001F0C2F900
:10411000B0B9A21C02214FF4947001F0BBF978B938
:10412000680710D56A4602214FF4EE7001F0B2F92B
:1041300030B9A21C02214FF4967001F0ABF910B116
:104140003046BDE8FC810020FBE70000000048434A
:10415000000040460000C045000040450000C0444B
:104160000521B0FBF1F008B5010A8DF800108DF8BB
:1041700001006A4602214FF4EF7001F08BF908BD8F
:104180000521B0FBF1F008B5010A8DF800108DF89B
:1041900001006A4602214FF4ED7001F07BF908BD81
:1041A0002DE9FE430646264801AB042240680D2156
:1041B0000078FEF7D9F910B10720BDE8FE839DF81D
:1041C00004101C2000EAD1029DF80710DFF874905B
:1041D000C1F301131A438DF800209DF80520C1F3A7
:1041E000810300EAD2021A438DF801209DF80620CF
:1041F00001F0030100EAD20008430024124F8DF8B9
:104200000200A0466D46285D10B146F824900AE0F1
:1042100046F824800DE000BF56F82400394602F02D
:1042200043FE46F82400285D401E10F0FF0028558C
:10423000F2D1641CE4B2032CE5D30020BDE70000FA
:10424000000000207B14AE3E1D5A843F2DE9FE4F36
:1042500005460120C14E8DF800004FF000088DF892
:10426000018030680C461746817C70686B460222DC
:104270000078FEF789F94FF0FF3A00287AD1C8207C
:10428000FCF728FA8DF8008030686B460122C17B6C
:1042900070680078FEF778F90028EFD130686B4637
:1042A0000122417970680078FEF76EF90028E5D1A7
:1042B00030686B460122817C70680078FEF764F9F3
:1042C0000028DBD130686B460122C17D7068007820
:1042D000FEF75AF90028D1D130686B4601220179E6
:1042E00070680078FEF750F90028C7D14FF00C092C
:1042F0008DF8009030686B46012201797068007873
:10430000FEF742F9002835D10F20FCF7E3F9B06A37
:104310006B460122407A8DF8000030688178706821
:104320000078FEF731F9002824D1B06A6B460122EB
:10433000007A8DF800003068417870680078FEF7E8
:1043400023F9002873D1B06A807A0FB140F0E00001
:104350008DF8000030686B46012281797068007822
:10436000FEF712F9002862D12FB1B06AC07A40F08E
:10437000E00001E04AE018208DF8000030686B464C
:104380000122C17970680078FEF7FEF8F0BB17B122
:10439000C820FCF79FF940208DF8000030686B467C
:1043A0000122017970680078FEF7EEF870BB782082
:1043B0008DF8000030686B46012241797068007802
:1043C000FEF7E2F810BB3220FCF784F98DF800808C
:1043D000306847466B464179706801220078FEF7E5
:1043E000D3F898B931687068B046897A00786B461E
:1043F0000222FEF7B9F848B9BDF80000AF6040BA34
:10440000B0FBF9F06F60C6B22F6000E00FE0A7606C
:1044100067602760002739E0D8F80010D8F804005A
:104420006B46C97A00780C22FEF79EF810B1504610
:10443000BDE8FE8FBDF80000236840BA00B2BDF8A9
:104440000210BDF804201844206049BA606809B21F
:104450000844606052BAA06812B21044A060BDF86F
:1044600006002B6840BA01B2BDF80800BDF80A206A
:104470001944296040BA696800B20844686052BAB9
:10448000A86812B210447F1CFFB2A860B742C3D321
:1044900028688322C117090441EA1041000400235F
:1044A000FBF7FEFE32460023FBF7FAFE2860686841
:1044B0008322C117090441EA104100040023FBF7DD
:1044C000EFFE32460023FBF7EBFE6860A86883220C
:1044D000C117090441EA104100040023FBF7E0FE84
:1044E00032460023FBF7DCFEA86020684FF400652D
:1044F000C117090441EA104100042A460023FBF7D2
:10450000CFFE32460023FBF7CBFE206060682A46D0
:10451000C117090441EA104100040023FBF7C0FE63
:1045200032460023FBF7BCFE6060A0682A46C11734
:10453000090441EA104100040023FBF7B1FE3246B2
:104540000023FBF7ADFEA060002802DDA0F580305F
:1045500001E000F58030A060002069E70000002045
:104560002DE9F84F81462E488846002540686B4665
:10457000032200780D21FDF7F7FF10B10720BDE8F9
:10458000F88F9DF80000002400F01F008DF8000057
:104590009DF801006FF00F0B00F01F008DF8010077
:1045A0009DF802006E4600F01F008DF802004FF0EB
:1045B000010A00BF59F8241058F82400081A00D541
:1045C000404202F045FC594602F00FFE0746305DBE
:1045D000C0B1144802E0144902F066FC315D491E86
:1045E00011F0FF013155F6D10146384602F032FB99
:1045F0004FF07E5102F024FD0C4920F0004088422B
:1046000005DC07E00A483844B0F1D97F02D90AFA3C
:1046100004F00543641C032CCCDB2846AFE7000004
:10462000000000200000C84154E3853F295C0F3E94
:104630000000E0BE00B5024600F00DF80346D01CB5
:1046400000F009F843EAC003901D00F004F843EAC3
:10465000801080B200BD90F90010002902DD4FF0FB
:104660000000704702DA4FF00400704790F9011023
:10467000002902DD4FF00100704702DA4FF005001B
:10468000704790F90200002802DD4FF002007047E9
:1046900002DA4FF0060070474FF007007047FCF752
:1046A000E3FBFEF7FBF9FDF7A9FFFEF70FF8FEF7B6
:1046B00021F9FEF72BF8FEF795F8FEF7C9F8FEF79B
:1046C000FDF8FDF771FF00F016FFFEE70146002040
:1046D000842900D0C81C7047704700002DE9F041C4
:1046E000124C20F00101002594F8240010B10020A4
:1046F000BDE8F081A07A4FF0FF3668B10840277C12
:104700002074884200D0354641B1012001F080F983
:1047100000F080FB38B127743046E9E7207D00B116
:10472000012001F075F92846E2E7000000000020B2
:104730002DE9F74F8EB00CA902A8CDE900010BAB13
:1047400003AA09A907A8FFF7D1F918B1012011B0F0
:10475000BDE8F08FBDF80800C0057DD5039802F0D4
:1047600077FB6FF01D04214602F03FFD824604985E
:1047700002F06EFB214602F038FD8146059802F0FA
:1047800067FB214602F031FD8046069802F060FB8F
:10479000214602F02AFD05460121504602F025FD82
:1047A0000646414602F080FB04464FF04041484631
:1047B00002F07AFB0746294602F076FB214602F01A
:1047C000E1F902F0B3F9FEF72BFD4FF0663B5A46D4
:1047D0003D4B01F0D1FE01F035FC0E99086001213E
:1047E000404602F002FD4146009002F05DFB0446A7
:1047F0003846494602F058FB214602F021FC4FF0B2
:104800007E5102F0BFF902F091F907460C4630469E
:10481000494602F049FB06462946009802F044FB4F
:10482000314602F0AFF902F081F93A462346FEF72D
:104830003FFF5A46244B01F09FFE01F003FC0F9905
:1048400008602946084602F02FFB07464146084605
:1048500002F02AFB064600E034E04946084602F032
:1048600023FB04465146084602F01EFB214602F097
:1048700089F9314602F0E4FB394602F0E1FB02F02F
:1048800055F906460C462946504602F00DFB0546F2
:104890004146484602F008FB294602F073F901211F
:1048A00002F0A3FC02F042F932462346FEF700FF75
:1048B0005A46054B01F060FE01F0C4FB10990860F8
:1048C000002044E7022042E766A64C4010B500F005
:1048D000F1F808B10A2010BD782000F07FFD10F03B
:1048E000FF0F01D0012010BD7820FFF7F7FE10F078
:1048F000FF0F01D0022010BD642000F02FFD10F04A
:10490000FF0F01D0032010BDFFF7E6F810F0FF0FF6
:1049100001D0042010BD1448FFF78CFEFFF79CFA6D
:1049200010F0FF0F01D0052010BD40F27310FEF70C
:10493000ABFF10F0FF0F01D0062010BD6420FFF781
:10494000F3F910F0FF0F01D0072010BD01F020F89F
:1049500008B1082010BD012000F026FC10F0FF0077
:10496000F8D0092010BD00002C0000200D494A7A23
:1049700042B1012A08D0022A0FD0032A0FD04FF0EB
:10498000FF307047022200E004220270C97C11B19E
:104990001106C90D0170002070470822F5E71022AA
:1049A000F3E70000000000200F494A7A42B1012AD3
:1049B00009D0022A11D0032A12D04FF0FF307047DD
:1049C0004FF4804201E041F69C720280C97C11B133
:1049D000C2F34E010180002070474FF48052F4E78B
:1049E0004FF40062F1E70000000000200B49097A53
:1049F00039B1012907D002290AD003290BD000219F
:104A000003E0FA2101E04FF4FA71018000207047C1
:104A10004FF47A71F9E74FF4FA61F6E700000020ED
:104A20000A49097A41B1012908D002290AD003298B
:104A30000AD04FF0FF307047054900E0054901609A
:104A4000002070470449FAE70449F8E70000002015
:104A50000000034300008342333303423333834176
:104A60000C49C97A072913D2DFE801F01204060ABB
:104A70000C0E1000BC2100E0622101800020704774
:104A80002A21FAE71421F8E70A21F6E70521F4E7DD
:104A90000021F2E700000020054991F8242012B11E
:104AA0004FF0FF307047C989018000207047000037
:104AB000000000202DE9FC41464C80208DF80000CC
:104AC00020686B460122817C60680078FDF75CFD00
:104AD0004FF0FF37002875D16420FBF7FBFD002560
:104AE0008DF8005020686B460122817C6068007858
:104AF000FDF74AFD002865D120686B460622817DBE
:104B000060680078FDF730FD00285BD19DF8050056
:104B10009DF80310C007400F01F0010140EA410079
:104B20009DF801104FF0010601F00101084304D087
:104B3000012831D0022810D044E020686B460122C1
:104B4000C17860680078FDF70FFDD8BB9DF80000C4
:104B500010F00F0036D004281ED0E574FF2004F8B2
:104B60000A0F4FF6FF7104F8020C04F8010C607094
:104B7000A180A0712072A67026766576E572A57276
:104B8000E56025616561A576E576A5834FF4FA6059
:104B900000F046FBB0B901E0E674DFE7022000F068
:104BA00061FA78B92A2000F0A3FB58B9322000F04E
:104BB000D5FB38B90020FFF791FD18B9002000F0AF
:104BC00085FA10B13846BDE8FC81002000F006FCF3
:104BD0000020F8E7000000202DE9FF4FDFF8948067
:104BE000064685B098F8250015460F464FF0FF3968
:104BF000B0BBAFB3002420E0301B102800DD102034
:104C000080B283463A1901469246204600F042FCA3
:104C100030BB6A465946204600F0D2F800BB5046E9
:104C20005A466946FBF760FB20B16FF0010009B0FE
:104C3000BDE8F08F04EB0B0084B2B442DCD3280A49
:104C40008DF810008DF81150D8F80000444604ABE0
:104C5000817ED8F8040002220078FDF795FC08B1A7
:104C60004846E4E7012084F825000898E084002005
:104C7000DDE70000000000202DE9F84305464FF075
:104C8000FF39282844D80727284C00267DB1012069
:104C900000F0FCFA20208DF800004FF00108012DF3
:104CA00017D0052D18D88DF8018005201FE00020B1
:104CB00000F0ECFA8DF800608DF8017020686B460A
:104CC0000222817C60680078FDF75EFC00BB2675DF
:104CD00029E08DF80160E8E7142D04D802208DF852
:104CE00001000A2003E003208DF80100142000F0E9
:104CF000FFFA9DF801006B4607EB80108DF801006C
:104D000020680222817C60680078FDF73DFC10B1CC
:104D10004846BDE8F8830820A072267384F8148002
:104D20000020FFF7DBFC0020F3E70000000000207C
:104D30002DE9F843214C0646174694F8240089468D
:104D40004FF0FF3890B3A07A80B320686B46022200
:104D5000817A60680078FDF707FC38BBBDF8000079
:104D600045BAB54202D2002038701FE06068418821
:104D7000B5EB510F11D9216800786B46497C0122AF
:104D8000FDF7F2FB90B99DF80000C00605D500F0D4
:104D900041F86FF00100BDE8F8832068F2B24B469D
:104DA000C17A60680078FDF7DFFB08B14046F2E7A2
:104DB000B5FBF6F0401E38700020ECE70000002044
:104DC000F8B516000D464FF0FF371FD0104CA17AF2
:104DD000E1B1010A8DF80010C0B28DF8010041194F
:104DE00060684289914211D8216800786B46097E3B
:104DF0000222FDF7C9FB48B92068EAB23346417D7B
:104E000060680078FDF7B0FB002800D03846F8BD98
:104E100000000020F8B5564C4FF0FF36A07A00286D
:104E20007DD000258DF8005020686B460122C17BA3
:104E300060680078FDF7A8FB002870D120686B46F9
:104E40000122417960680078FDF79EFB002866D159
:104E500020686B460122017960680078FDF794FBB9
:104E600000285CD194F82400E0B30C208DF80000F9
:104E700020686B460122017960680078FDF784FBA9
:104E8000002872D13220FBF725FCC0208DF80000ED
:104E9000A07AC00702D0E0208DF8000020686B46A1
:104EA0000122017960680078FDF76EFB00285CD173
:104EB000607C18B102208DF8000001E08DF80050F0
:104EC00020686B460122C17B60680078FDF75CFBBF
:104ED00028BB8DF8005020686B460122417960683C
:104EE00000783EE0FFE704208DF8000020686B4664
:104EF0000122017960680078FDF746FB78B9A07C53
:104F000090B9A07AC0070FD05FF060008DF8000064
:104F100020686B46012201796068007800E024E097
:104F2000FDF732FB08BB01E04020EFE73220FBF742
:104F3000D1FB607C18B101208DF8000001E08DF8F4
:104F4000005020686B460122C17B60680078FDF745
:104F50001BFB50B92068064B012241796068103371
:104F60000078FDF711FB002800D03046F8BD0000A6
:104F7000000000202DE9F047394C82468AB094F8B1
:104F800024000F4620B1002000F00EF9012600E0B9
:104F9000002607A8FFF72AFD06A8FFF7E7FC09A8E7
:104FA000FFF75EFD08A8FFF777FD94F80A9094F8E4
:104FB00010800025002239465046FFF747F910B10E
:104FC0006D1C022DF6DB022D1AD00025012203A94B
:104FD0006846FFF73BF910B16D1C022DF6DB022D80
:104FE0000ED003A93846FEF7DBF8C7B26946504633
:104FF000FFF7B6FA10F0FF0F4FF0000502D002E005
:10500000002503E001250FB945F00205FF202072BD
:105010006072E0724FF6FF71E181A072207401208E
:105020002073BDF81C0000F0FBF89DF8180000F09C
:1050300019F8BDF8240000F05BF9BDF8200000F07D
:105040008DF9484600F0CAF94046FFF747FB16B114
:10505000012000F0A9F80AB02846BDE8F08700005A
:105060000000002038B5184C4FF0FF35A17A19B375
:10507000022806D0042806D008280ED010281BD1FC
:105080000DE0002000E008208DF80000607A9DF817
:105090000010B0EBD10F04D005E01020F4E7182089
:1050A000F2E7002038BD20686B460122C1796068B4
:1050B0000078FDF769FA08B1284638BD9DF8000070
:1050C000C0086072EDE7000000000020F8B5354C24
:1050D0000546A07CA84201D10020F8BD31484FF020
:1050E000FF366B46D0E900104FF0010209790078D5
:1050F00035B3FDF739FA70BB9DF800006B4620F020
:1051000020008DF800002068012201796068007895
:10511000FDF73AFAF8B90320FBF7DCFA02208DF824
:10512000000094F8220078B382202BE020686B46C0
:105130000122017D60680078FDF726FA58B92EE05B
:10514000FDF712FA38B9A07AC0079DF8000003D025
:1051500040F0200002E00CE020F020008DF800007C
:1051600020686B460122017960680078FDF70CFA2F
:1051700008B13046F8BD0320FBF7ACFA94F82200E2
:1051800000B180208DF8000094F823000028CDD0D5
:105190009DF8000040F030008DF80000C6E7A574CF
:1051A0009AE700000000002038B51C4C94F8241049
:1051B00081421DD0002500B394F82500D0B1002015
:1051C00000F026FC0020FFF781FFE08C00F0C6F81D
:1051D0008DF8005060686B46012200782321FDF7AE
:1051E000D3F9012084F8240000F012FCFFF712FE2E
:1051F000002038BD4FF0FF3038BD002000F008FC23
:10520000207C8DF8000060686B4601220078232125
:10521000FDF7BAF984F82450E8E700000000002008
:1052200038B5194C4FF0FF35A17A31B3FA2809D0BF
:10523000B0F5FA7F08D0B0F57A7F0FD0B0F5FA6FED
:105240001BD10DE0002000E008208DF80000207A3E
:105250009DF80010B0EBD10F04D005E01020F4E76A
:105260001820F2E7002038BD20686B4601228179C2
:1052700060680078FDF788F908B1284638BD9DF8C8
:105280000000C0082072EDE70000002038B5174C80
:10529000054694F82300A84201D1002038BD0DB185
:1052A000302000E000208DF80000A07C28B19DF89F
:1052B000000040F002008DF8000094F8220028B1B0
:1052C0009DF8000040F080008DF8000020686B46DB
:1052D0000122017D60680078FDF756F910B14FF0AA
:1052E000FF3038BD84F82350D7E7000000000020CD
:1052F00038B5194C4FF0FF35A17A31B3BC2801D332
:10530000012010E0622801D302200CE02A2801D3FA
:10531000032008E0142801D3042004E00A2801D364
:10532000052000E006208DF80000E07A9DF80010CE
:10533000884201D1002038BD20686B460122817867
:1053400060680078FDF720F908B1284638BD9DF85F
:105350000000E072EEE7000000000020F8B51E4DEE
:1053600004464FF0FF37A87A48B395F8240030BBC5
:10537000287D4FF47A7648B164B1282C03D8E0B286
:10538000FFF77AFC26E00020FFF776FC042C05D21C
:10539000042406E00020FFF76FFCF9E7B44200D9CF
:1053A0003446B6FBF4F0401E8DF8000028686B46CA
:1053B0000122417868680078FDF7E6F808B13846C0
:1053C000F8BD9DF80000401CB6FBF0F0E8814008F5
:1053D000FFF78EFF0020F8BD00000020F8B505465D
:1053E00010F0700F4FF0000601D0012004E015B15D
:1053F0008DF8006002E040208DF80000244C6B46E0
:1054000001222068817C60680078FDF7BDF84FF0CC
:10541000FF3760BB9DF8000020F0400020738DF83E
:105420000060680602D404208DF80000A80605D4A8
:105430009DF8000040F002008DF80000E80605D459
:105440009DF8000040F001008DF80000280705D409
:105450009DF8000040F038008DF8000020686B4691
:105460000122C17C60680078FDF78EF810B1A67249
:105470003846F8BD25B1082D02D00020FFF706FF01
:10548000A57226753220FBF725F90020F8BD000033
:1054900000000020F8B516000D464FF0FF371FD072
:1054A000104CA17AE1B1010A8DF80010C0B28DF85C
:1054B0000100411960684289914211D82168007841
:1054C0006B46097E0222FDF75FF848B92068EAB210
:1054D0003346417D60680078FDF756F8002800D01B
:1054E0003846F8BD0000002010B500B9012000F0DA
:1054F000A5FB002010BD10B500F0C6FB002010BDBC
:105500007FB50D4604464169B0F9080081B1A16933
:1055100071B1FFF7DBF8D4E905128DE80700D4E993
:1055200000102B46226900F09CFC039004B070BD73
:10553000FFF7CCF803A9CDE90001208A2B4682B2FF
:10554000D4E9001000F060FC012801D00020EDE754
:105550000398EBE72DE9F041184C0F4605466669C4
:105560002068001D00F0A6FA38B9206890F82C10C9
:1055700001208840A1698143A161681C07D137B12E
:105580002168BDE8F0410E48091D00F0D7BA206837
:105590003544B5424560216805D2A068BDE8F041B8
:1055A000091D00F0B3BA6068091D00F0AFFA206B66
:1055B000854200D22563BDE8F0810000D0000020C4
:1055C0006C0600202DE9F041054600F0C3FA2E4C90
:1055D0002069401C206120682C4F10B1E06940B365
:1055E0002DE025602069012829D1002606EB8600E0
:1055F00007EB800000F07CFA761C072EF6D32348D8
:105600008C3000F075FA2148A03000F071FA1F4884
:10561000B43000F06DFA1D48C83000F069FA1B483C
:10562000DC3000F065FA19488C3060601430A060FE
:1056300005E02068E96AC06A884200D82560E06A0F
:10564000401CE062E96A0120A26988401043A06121
:1056500001EB810007EB8000291D00F06FFA00F0DC
:1056600099FAE06900280CD02068E96AC06A88428B
:1056700007D207494FF080500860BFF34F8FBFF348
:105680006F8FBDE8F0810000D00000209005002061
:1056900004ED00E010B5044690F8510058B101281F
:1056A0000CD002280FD0502080F31188BFF34F8F09
:1056B000BFF36F8FFEE7206B00F080FA2046BDE855
:1056C000104000F07BBA10BD0F4842F21071420743
:1056D00005D0C01D0C4A20F00700821A891A0B4A17
:1056E00000230144C2E900030839103A21F0070100
:1056F00011604B600B600B1AC0E9001393604FF010
:1057000000405360D0607047800600201C010020DC
:10571000144E154CA6F1C8074FF08058DFF84C9096
:1057200012E000BF00F016FAF068C568281D00F00E
:10573000C1F92069401E2061E068401EE06000F071
:1057400029FA2846FFF7A6FFE0680028EAD1386862
:105750000128F9D9C9F80080BFF34F8FBFF36F8FCD
:10576000F2E7000058060020D000002004ED00E021
:105770002DE9F0479A46DDE9098481466FF003037D
:10578000206B03EB82021044089D20F0070670078F
:1057900007D0502080F31188BFF34F8FBFF36F8F76
:1057A000FEE723180A5C83F834200A5C12B1401C1F
:1057B0001028F6D3002784F84370072D00D3062560
:1057C000E562C4E91157201D00F09DF904F11800AD
:1057D00000F099F92461C5F107006462A061E764F3
:1057E00084F8507052464946304600F0BFF82060B9
:1057F000B8F1000F01D0C8F80040BDE8F087000004
:1058000030B5114900E011460A688242FBD34B686B
:105810005C18844203D140681844486008464368D5
:105820001C18944209D1084C103C2468A24209D0AB
:1058300052681A4442600A6812680260814200D0CD
:10584000086030BD0460F9E71C010020064841688B
:10585000096829B14168C968C96849680163704726
:105860004FF0FF31FAE70000D00000200848406800
:10587000401C4FF0500080F3118804D0BFF34F8FCD
:10588000BFF36F8FFEE7BFF34F8FBFF36F8FFEE75E
:10589000240100202DE9F0410546002700F02AFAF6
:1058A000314E306808B9FFF70FFFF06805424BD161
:1058B000C5B3083568070ED005F00700C0F1080031
:1058C0000544680707D0502080F31188BFF34F8F3D
:1058D000BFF36F8FFEE72DB37068854234D822483E
:1058E000103001460C6801E020460C466168A94270
:1058F00002D221680029F7D131688C4224D0076890
:105900002168016060680837411B10290FD96019B0
:10591000420708D0502080F31188BFF34F8FBFF3A8
:105920006F8FFEE710E041606560FFF769FF616817
:105930007068401A7060B268904200D2B060F0683F
:1059400001430020C4E9000100F01AFB780707D0EA
:10595000502080F31188BFF34F8FBFF36F8FFEE7A6
:105960003846BDE8F08100000C01002010B5031F8F
:105970004FF080741C601B1F21F001011960191F7A
:10598000024B0B60143940380A6010BD6D58000896
:1059900010B588B0694604A8FFF7ECFA032802D0D6
:1059A000012008B010BD07A8FFF73AF8049801F0ED
:1059B0004FFA07990C4601F077FA01F00DFA0490BE
:1059C000059801F045FA214601F06EFA01F004FA5B
:1059D0000590069801F03CFA214601F065FA01F0C5
:1059E000FBF9069004A8FEF7D1F903A8FEF7DCFF47
:1059F000BDF80C0000994143009101994143019188
:105A00000299414368460291FEF722F90020C8E757
:105A1000F8B5144C0146224694F82460D2E90002FD
:105A200000235D1E56B179B1022111E0C17B1078CF
:105A30006B460122FCF7A8FD68B90EE0A67A56B1C4
:105A400011B1617C61B902E08DF80030EEE701210F
:105A50008DF80010EAE72846F8BD9DF80000607454
:105A60000020F8BD000000202DE9F04106460F4659
:105A700000F08CFE041E0D4618BF0120284320F0C4
:105A80000040C0F17F6000F1E040C00F0ED0301C3C
:105A900018BF0120384320F00040C0F17F6000F1C2
:105AA000E040C00F04BF0120FAF72AFD2046294636
:105AB000BDE8F081D0E9013201699A60D0E90123A3
:105AC0005A604A68824201D182684A6000220261BB
:105AD0000868401E0860086870470000034B0360B8
