:030000000204AB4C
:0C04AB00787FE4F6D8FD75813D0204F274
:100A8100323020202D20202D20200020203A20202F
:0D0A91003A202020202D2D6043002D2D0047
:10081500C101C18001350001330001340001300000
:04082500023100009C
:10070D007521AAD2AF7F017E001205B9120AD2124D
:10071D000A63120B107BFF7A0A7981E4FD7F0312C5
:10072D0009AC7BFF7A0A798C7D017F011209AC122D
:10073D00063230001AE5357016C200FB7A007936A4
:10074D0012076AE521653C60061208EF853C2130F1
:0D075D0001DDE53570D9C2011207C180D25F
:100A9E00EBC4540F2430F525EB540F2430F526E427
:0A0AAE00F527FB7A0079250209AC58
:1007C1007B007A0079221209555039E523AE22784F
:1007D10004CEA2E713CE13D8F8F5238E22FF7C00B6
:1007E1007D0A120076EF2430F524AE22AF237C007F
:1007F1007D0A120076ED2430F525E4F526FB7A001A
:10080100792480067BFF7A0A799B7D017F0B12098F
:04081100AC020AD259
:1008EF00AB37E4FD7F05120A9EAB38E4FD7F08129B
:1008FF000A9EAB39E4FD7F0B120A9EAB3A7D017F56
:10090F0001120A9EAB3B7D017F04120A9EAB3C7D18
:06091F00017F07020A9EA1
:10053700E53514B40C00507990054D75F003A4C54A
:100547008325F0C5837302057102057502057B02D9
:10055700058102058702058D0205930205990205AB
:100567009F0205A50205AB0205B1E4FD8032E4FD5B
:100577007F06803AE4FD7F088034E4FD7F09802E02
:10058700E4FD7F0B8028E4FD7F0C80227D017F0145
:10059700801C7D017F0280167D017F0480107D0114
:1005A7007F05800A7D017F0780047D017F08120B8C
:0205B7006D22B3
:100B3700EF54F0C39490500674102FFF80035307AF
:020B47000F227B
:0F0BD100EF540FC3940950030F80035307F02212
:100B4900EF54F0D39400400674F02FFF800343075D
:020B59009022E8
:0F0BE000EF540FD3940040031F800343070922F3
:10034F00E53514B40C0040030203F790036875F011
:10035F0003A4C58325F0C5837302038C02039302A4
:10036F00039F0203A80203B10203BA0203C30203ED
:10037F00CC0203D50203DE0203E70203F0AF37120C
:10038F000B378005AF37120BD17536008F3780587A
:10039F00AF38120B378F38804FAF38120BD18F38E1
:1003AF008046AF39120B378F39803DAF39120BD1E1
:1003BF008F398034AF3A120B378F3A802BAF3A1206
:1003CF000BD18F3A8022AF3B120B378F3B8019AF87
:1003DF003B120BD18F3B8010AF3C120B378F3C8001
:0E03EF0007AF3C120BD18F3C1208EF0205370E
:1003FD00E53514B40C0040030204A590041675F005
:10040D0003A4C58325F0C5837302043A0204410297
:10041D00044D02045602045F0204680204710204D2
:10042D007A02048302048C02049502049EAF3712F3
:10043D000B498005AF37120BE07536008F378058AA
:10044D00AF38120B498F38804FAF38120BE08F3811
:10045D008046AF39120B498F39803DAF39120BE011
:10046D008F398034AF3A120B498F3A802BAF3A1245
:10047D000BE08F3A8022AF3B120B498F3B8019AFB7
:10048D003B120BE08F3B8010AF3C120B498F3C8031
:0E049D0007AF3C120BE08F3C1208EF02053750
:100AE800E535600FC3940C50040535800375350156
:040AF800120537228A
:100AFC00E535600FD3940140041535800375350C32
:040B0C001205372275
:090BFA00753502120AFC020C031D
:100B7F00E4F535300208FB7A0079361208AE020C24
:010B8F00085D
:100863008F24E524C394304007E524D39439403AD8
:10087300E524B4260302034FE524B428030203FD51
:10088300E524B42503020AFCE524B42703020AE89D
:10089300E524B40D0BE5357003020BFAD202800791
:0B08A300E524B41B05C202120B7F22EB
:1005B90075250075241075230E752200E4FCFDAB2A
:1005C90025AA24A923A8221200F6E47BE87A03F9D4
:1005D900F81201818F258E248D238C22C3E4952561
:1005E900F525E49524F52474019523F523E4952252
:1005F900F522E5252405F525E43524F524E43523FC
:10060900F523E43522F522AF25AE24AD23FC780885
:100619001202138F338525345389F04389018533B9
:080629008C85348AD2A9D28C21
:0106310022A6
:03000B000206A545
:1006A500C0E0C0F0C083C082C0D075D000C000C01B
:0D06B50001C002C003C004C005C006C0079C
:1006C20085338C85348A12027B0530E530C394C8A9
:1006D2004005753000D2000532E53270020531C3A3
:1006E20094E8E53194034008753100753200D20177
:1006F200D007D006D005D004D003D002D001D0005C
:0B070200D0D0D082D083D0F0D0E03205
:100B5B007580FFC290D291D295AF80C295EF20E7FE
:010B6B00F693
:010B6C002266
:100BA100AE07120B5BC290C2918E80D295C2952284
:100BB100AE07120B5BD290C2918E80D295C2952264
:100B6D00ED7004AC078004EF2440FCEC4480FF02E0
:020B7D000BA1CA
:1009AC008B298A2A892B120B6DAB29AA2AA92B1207
:1009BC00000E6013052BE52B7002052A14F91200AA
:0809CC000EFF120BB180E222C4
:050C03007F0F020BA1B0
:050C08007F0C020BA1AE
:100B10007F38120BA17F0C120BA17F06120BA17F55
:040B200001020BA122
:08000300201310081230000266
:030C0D00000022C2
:100A45007E01EE60165F6004D2B48002C2B4D2B5F6
:0D0A5500120C0DC2B5EE25E0FE80E7D2B414
:010A62002271
:100AB800E4FF7E01EE601230B4024207D2B5120C98
:090AC8000DC2B5EE25E0FE80EB45
:010AD1002202
:100B2400D297EF25E04480FF120A45AF05120A452B
:030B3400C2972243
:100B9000D297EF25E04481FF120A45120AB8C297A6
:010BA0002232
:0609D4008B2D8A2E892FF5
:1009DA00D2977FBE120A45E4FDAB2DAA2EA92F8D10
:1009EA0082758300120027FF120A450DBD08EAC26C
:0109FA009765
:0109FB0022D9
:0609FC008B2D8A2E892FCD
:100A0200D2977FBF120A45E4FD120AB8AB2DAA2E77
:100A1200A92F8D82758300EF1200540DBD08EAC222
:010A2200973C
:010A230022B0
:06076A008B228A23892482
:100770007B007A0079251209FCE4252BFFE4342064
:10078000AB22AA23A9248FF01200D7AB22AA23A957
:1007900024900002E529120054900003E52812007D
:1007A00054900004E527120054900005E52612003D
:1007B00054900006E525120054900007E52A020037
:0107C00054E4
:1008AE00E4F52C1200ACF52B900007120027F52A68
:1008BE00900002120027F529900003120027F52858
:1008CE00900004120027F527900005120027F52648
:1008DE00900006120027F5257B007A007925020983
:0108EE00D435
:100A6300C297C2B5E4FF120B90EF30E710E4FD7FAD
:0D0A730007120B247BFF7A0079031208AEF6
:010A80002253
:100BC100313233263435362537383928301B0D2755
:100829009010010101010101010101010101010111
:100839000101900001010101010101010101010111
:10084900010101010108001009FFFFFFFFFFFFFF80
:09085900FFFFFFFFFFFFFFFFFF9F
:10063200E4F522E4F523E52225E025E02410252334
:10064200F8E2FFE52225E025E024002523F8E2FE7A
:100652006F603DEE6020E52225E025E024C1F582B1
:10066200E4340BF583E5822523F582E43583F583B3
:10067200E493FF120863E52225E025E024102523F8
:10068200F8E2FFE52225E025E024002523F8EFF239
:100692000523E523C39404409D0522E522C3940467
:0206A200409185
:0106A4002233
:10027B00E50825E025E02409F8E625E0FFA2A4E443
:10028B00334FFFE50825E025E02409F8A607E5082C
:10029B0025E025E0240AF8E625E0FFA2A5E4334F8C
:1002AB00FFE50825E025E0240AF8A607E50825E088
:1002BB0025E0240BF8E625E0FFA2A6E4334FFFE58B
:1002CB000825E025E0240BF8A607E50825E025E046
:1002DB00240CF8E625E0FFA2A7E4334FFFE5082541
:1002EB00E025E0240CF8A607E4FFE50825E025E06F
:1002FB0024092FF8E6540FFE700EE50825E025E0E3
:10030B0024102FF8E4F28010BE0F0DE50825E02530
:10031B00E024102FF87401F20FBF04CE0508530828
:10032B0003E50814600F1460111460132403701399
:10033B00D2A0C2A322D2A3C2A222D2A2C2A122D2F3
:03034B00A1C2A0AC
:01034E00228C
:0B0BEF000000000000000000DFF62204
:100A2400C2AFC2B27FFA120BEF7FFA120BEFD2B24F
:100A34007F3C120BEFA2B2920330B2FDD2AFA203FD
:010A4400228F
:02098300AE07BD
:10098500C2AF7D01ED601DC2B27F02120BEF5E703A
:1009950004C2B28002D2B27F3C120BEFD2B2ED2577
:0609A500E0FD80E0D2AF8E
:0109AB002229
:10092500C2AF7D01ED6024C2B27F02120BEFD2B2DD
:100935007F02120BEF20B205F452068003ED42064A
:0F0945007F3C120BEFED25E0FD80D9D2AFAF065E
:010954002280
:100AD200120A24920220020A7FCC1209837F441256
:050AE2000983A202B32C
:010AE70022EC
:10095500120A2492022002227FCC1209837FBE1242
:100965000983120925AC07120925EFFEAD047C00A9
:0D097500E42DFFEC3E8FF01200D7A202B37C
:010982002252
:1004B70002070DE493A3F8E493A34003F68001F247
:1004C70008DFF48029E493A3F85407240CC8C33346
:1004D700C4540F4420C8834004F456800146F6DF15
:1004E700E4800B0102040810204080900815E47E88
:1004F700019360BCA3FF543F30E509541FFEE4930A
:10050700A360010ECF54C025E060A840B8E493A3D0
:10051700FAE493A3F8E493A3C8C582C8CAC583CAFB
:10052700F0A3C8C582C8CAC583CADFE9DEE780BEB3
:010862000095
:10000E00BB010689828A83E0225002E722BBFE02F0
:09001E00E32289828A83E4932223
:10002700BB010CE58229F582E5833AF583E022508E
:1000370006E92582F8E622BBFE06E92582F8E222D8
:0D004700E58229F582E5833AF583E49322F2
:10005400F8BB010DE58229F582E5833AF583E8F0E2
:10006400225006E92582C8F622BBFE05E92582C88E
:02007400F22276
:10007600C2D5EC30E709B2D5E4C39DFDE49CFCEEA5
:1000860030E715B2D5E4C39FFFE49EFE120226C3F5
:10009600E49DFDE49CFC800312022630D507C3E4F0
:0600A6009FFFE49EFE2214
:1000AC00BB010A89828A83E0F5F0A3E0225006871F
:1000BC00F009E71922BBFE07E3F5F009E3192289E1
:0B00CC00828A83E493F5F07401932214
:1000D700BB010A89828A83F0E5F0A3F0225006F774
:0F00E70009A7F01922BBFE06F3E5F009F3192271
:1000F600E88FF0A4CC8BF0A42CFCE98EF0A42CFCA9
:100106008AF0EDA42CFCEA8EF0A4CDA8F08BF0A426
:100116002DCC3825F0FDE98FF0A42CCD35F0FCEB85
:100126008EF0A4FEA9F0EB8FF0A4CFC5F02ECD394A
:0F013600FEE43CFCEAA42DCE35F0FDE43CFC22B7
:1001450075F008758200EF2FFFEE33FECD33CDCC71
:1001550033CCC58233C5829BED9AEC99E5829840F4
:100165000CF582EE9BFEED9AFDEC99FC0FD5F0D6D1
:10017500E4CEFBE4CDFAE4CCF9A88222B800C1B9FB
:100185000059BA002DEC8BF084CFCECDFCE5F0CB39
:10019500F97818EF2FFFEE33FEED33FDEC33FCEB72
:1001A50033FB10D703994004EB99FB0FD8E5E4F92D
:1001B500FA227818EF2FFFEE33FEED33FDEC33FC1A
:1001C500C933C910D7059BE99A4007EC9BFCE99A0E
:1001D500F90FD8E0E4C9FAE4CCFB2275F010EF2F53
:1001E500FFEE33FEED33FDCC33CCC833C810D70753
:1001F5009BEC9AE899400AED9BFDEC9AFCE899F88E
:0E0205000FD5F0DAE4CDFBE4CCFAE4C8F92220
:10021300E8600FECC313FCED13FDEE13FEEF13FFC9
:03022300D8F122ED
:10022600BC000BBE0029EF8DF084FFADF022E4CCBC
:10023600F875F008EF2FFFEE33FEEC33FCEE9DEC85
:10024600984005FCEE9DFE0FD5F0E9E4CEFD22EDCB
:10025600F8F5F0EE8420D21CFEADF075F008EF2F15
:10026600FFED33FD4007985006D5F0F222C398FD06
:050276000FD5F0EA22A3
:00000001FF
