:0300000002014EAC
:0C014E00787FE4F6D8FD75811102009B5B
:10001E00F2F3F5F5F6F7F8F9F9FAFAFBFBFCFCFC4E
:10002E00FDFDFDFDFEFEFEFEFEFEFEFF42C117B60D
:10003E00D0D1B621E18CD868E95B8FEE446BB4F475
:10004E002D4777A2B6DAFA1606010206010103025F
:10005E00010202020102020701020701010701016A
:10006E00020202010201070101060102060101015D
:10007E00030107020101030106010206010101034A
:0D008E000107020101030107020101030146
:0200EC008F097A
:1000EE00E4F50AE50AC395095039E4F50EF50DF568
:1000FE000CF50BE47FA07E0FFDFCAB0EAA0DA90C38
:10010E00A80BC31200035017E50E2401F50EE435BB
:10011E000DF50DE4350CF50CE4350BF50B80D4051F
:05012E000A80C0C28E32
:0101330022A9
:0D013400850F8D85108BD28EAF110200EC6F
:10009B00758901D2ABD2AFE4F508751101E511609A
:1000AB00F6E5089000579375F007A4FFE50890005C
:1000BB0056932F14FF90001E93F50FEF90003A9379
:1000CB00F510E50890005893F51174032508F50811
:1000DB00D39445748094804003E4F5081201348076
:0100EB00BC58
:03001B000201419E
:0D014100C28EB295850F8D85108BD28E3247
:10000300EB9FF5F0EA9E42F0E99D42F0E89C45F053
:0100130022CA
:00000001FF
