:020000040800F2
:1000000018040020450100084D04000845040008BC
:10001000490400088D01000847090008000000009D
:10002000000000000000000000000000CD050008F6
:100030009101000800000000D5040008E106000856
:100040005F0100085F0100085F0100085F01000810
:100050005F0100085F010008BD010008F901000808
:100060005F0100085F0100085F0100085F010008F0
:100070005F0100085F0100085F0100085F010008E0
:100080005F0100085F0100085F0100085F010008D0
:100090005F0100085F0100085F0100085F010008C0
:1000A0005F0100085F0100085F0100085F010008B0
:1000B0005F0100085F0100085F0100085F010008A0
:1000C0005F0100085F0100085F0100085F01000890
:1000D0005F0100084507000875070008770700085A
:1000E0005F0100085F0100085F0100085F01000870
:1000F0005F0100085F0100085F0100085F01000860
:100100005F0100085F0100085F0100085F0100084F
:100110005F0100085F0100085F0100085F0100083F
:100120005F0100085F0100085F0100085F0100082F
:10013000DFF80CD000F018F800480047E50B000885
:10014000180400200648804706480047FEE7FEE7FF
:10015000FEE7FEE7FEE7FEE7FEE7FEE7FEE7FEE777
:10016000E506000831010008064C074D06E0E0688E
:1001700040F0010394E8070098471034AC42F6D3EE
:10018000FFF7DAFFF00C0008100D000800BFFEE7D3
:10019000704742F228314FF0E02251610021916115
:1001A00007E000BF4FF0E021096901F48031002928
:1001B000F8D0011EA0F10100F3D1704710B5012065
:1001C00000F0DAFB0446012C02D0022C08D103E037
:1001D00001200849487007E002200649487003E002
:1001E00000200449487000BF00BF012000F022F841
:1001F00010BD00000000002010B5012000F0BCFB85
:100200000446012C02D0022C08D103E00120084949
:10021000487007E002200649487003E000200449C6
:10022000487000BF00BF022000F004F810BD0000BD
:1002300000000020014908607047000014040140DC
:10024000002123498279002A3AD00A4612680368BD
:100250009A430B461A600A1D126803689A430B1DE5
:100260001A60027911440A6803681A430A60184A3E
:100270000832126803689A43154B08331A601A1D36
:10028000126803689A43124B0C331A604279102AA1
:100290000ED11A1F126803681A430D4B08331A60F7
:1002A0001A1D126803681A43094B0C331A600DE0DB
:1002B0000749427911440A6803681A430A6005E055
:1002C000027911440A6803689A430A607047000083
:1002D0000004014030B500228B071C0F0F2303FAE6
:1002E00004F20B4B8C1053F824309343084C8D10C0
:1002F00044F8253023468C1053F824308C07240F03
:1003000000FA04F42343024C8D1044F8253030BD2C
:10031000080001402DE9F04102460025002600209A
:1003200000230024002791F803C00CF00F0591F87A
:1003300003C00CF0100CBCF1000F03D091F802C008
:100340004CEA050591F800C0BCF1000F31D01468EB
:1003500000202BE04FF0010C0CFA00F3B1F800C0C4
:100360000CEA03069E4220D183004FF00F0C0CFADA
:1003700003F7BC4305FA03FC4CEA040491F803C0FC
:10038000BCF1280F06D14FF0010C0CFA00FCC2F8AA
:1003900014C00AE091F803C0BCF1480F05D14FF03A
:1003A000010C0CFA00FCC2F810C0401C0828D1D384
:1003B0001460B1F800C0BCF1FF0F34DD54680020B8
:1003C0002EE000F1080C4FF0010808FA0CF3B1F828
:1003D00000C00CEA03069E4221D183004FF00F0CAF
:1003E0000CFA03F7BC4305FA03FC4CEA040491F849
:1003F00003C0BCF1280F05D100F1080C08FA0CF875
:10040000C2F8148091F803C0BCF1480F07D100F185
:10041000080C4FF0010808FA0CF8C2F81080401CD4
:100420000828CED35460BDE8F081024600209368CE
:100430000B400BB1012000E0002070474161704784
:100440000161704700BFFEE700BFFEE77047000094
:1004500070B5002100230F22C47804B3154C246822
:1004600004F4E064C4F5E064210AC1F10403CA4065
:10047000447804FA03F184781440214309010E4CB6
:100480000678A155047804F01F050124AC400578D6
:100490006D11AD0005F1E025C5F8004109E00478D3
:1004A00004F01F050124AC40044D0678761145F890
:1004B000264070BD0CED00E000E400E080E100E0CB
:1004C00002490143024A1160704700000000FA052A
:1004D0000CED00E07047000029B1064A9269024322
:1004E000044B9A6104E0034A92698243014B9A618A
:1004F000704700000010024030B5002100220024A7
:1005000000232D4D6D6805F00C0121B1042905D0A3
:10051000082923D105E0294D056022E0274D05601B
:100520001FE0254D6D6805F47012234D6D6805F4CC
:100530008034022505EB92421CB9214D55430560DC
:100540000BE01D4D6D6805F400351DB11C4D554384
:10055000056002E0194D5543056002E0174D056046
:1005600000BF00BF144D6D6805F0F0010909154D7D
:100570006B5C0568DD4045600F4D6D6805F4E0611A
:10058000090A104D6B5C4568DD4085600A4D6D6859
:1005900005F46051C90A0B4D6B5C4568DD40C560D0
:1005A000054D6D6805F44041890B074D6B5CC568CE
:1005B000B5FBF3F5056130BD0010024000127A0072
:1005C00000093D000200002012000020704710B515
:1005D00000F002F810BD00000CB500200190009062
:1005E0003348006840F480303149086000BF30482B
:1005F000006800F4003000900198401C01900098C1
:1006000018B90198B0F5A06FF1D12948006800F43D
:10061000003010B10120009001E00020009000980F
:10062000012843D12348006840F0100021490860A8
:100630000846006820F0030008600846006840F0A3
:10064000020008601A484068194948600846406836
:1006500048600846406840F480604860084640684A
:1006600020F47C1048600846406840F4E810486078
:100670000846006840F08070086000BF0C480068C1
:1006800000F000700028F9D00948406820F003000D
:10069000074948600846406840F00200486000BFD3
:1006A0000348406800F00C000828F9D10CBD000098
:1006B0000010024000200240042808D14FF0E02141
:1006C000096941F004014FF0E022116107E04FF0A9
:1006D000E021096921F004014FF0E0221161704727
:1006E0007047000010B51348006840F00100114940
:1006F000086008464068104908400E4948600846AE
:1007000000680E4908400B4908600846006820F45C
:10071000802008600846406820F4FE0048604FF4DE
:100720001F008860FFF753FF4FF000600449086026
:1007300010BD0000001002400000FFF8FFFFF6FEB1
:1007400008ED00E010B540F22551084800F036F8F9
:1007500058B1064800F0EEF804461CB900200449E0
:10076000087002E001200249087010BD0038014005
:10077000000000207047704701F40072B2F5007F5E
:1007800000D100BFCA430280704721B1828942F480
:100790000052828104E082894DF6FF731A40828103
:1007A000704702460020B1F5007F00D100BF1388DA
:1007B0000B400BB1012000E00020704770B50246ED
:1007C000002400230025002040F66A16B14200D123
:1007D00000BFC1F3421501F01F03012606FA03F31F
:1007E000012D02D19689334006E0022D02D1168AEE
:1007F000334001E0968A33400C12012606FA04F4D5
:100800001688344013B10CB1012000E0002070BD07
:10081000F0B50346002400260025002040F66A17A4
:10082000B94200D100BF1846C1F3421401F01F06BF
:10083000012707FA06F5012C01D10C3004E0022C47
:1008400001D1103000E014301AB107682F4307605F
:1008500002E00768AF430760F0BD00002DE9F047F4
:1008600086B005460E460024A24600BFA1460027DA
:10087000B08900B100BF2F462C8A4CF6FF700440AF
:10088000F08804432C82AC894EF6F3100440B08803
:1008900031890843718908430443AC81AC8A4FF61F
:1008A000FF400440B0890443AC8201A8FFF724FE56
:1008B0001F48874202D1DDF810A001E0DDF80CA04E
:1008C000A88900F4004040B10AEBCA0000EB0A100E
:1008D00031684900B0FBF1F807E00AEBCA0000EB11
:1008E0000A1031688900B0FBF1F86420B8FBF0F021
:1008F00004012009642101FB1089A88900F400404B
:1009000040B1322000EBC900B0FBF1F000F007006D
:10091000044308E0322000EB09106421B0FBF1F041
:1009200000F00F0004432C8106B0BDE8F087000002
:100930000038014001468888C0F308007047C1F3C1
:1009400008028280704700BFFEE702E008C8121F5D
:1009500008C1002AFAD170477047002001E001C1A8
:10096000121F002AFBD1704710B520210148FFF764
:1009700065FD10BD000C014070B505460024012D39
:100980002AD101213248FFF750FD68B90A20FFF74C
:1009900000FC01212E48FFF748FD10B944F0010486
:1009A00004E024F0010401E024F0010402212848BD
:1009B000FFF73BFD68B90A20FFF7EBFB0221244853
:1009C000FFF733FD10B944F002043EE024F00204C6
:1009D0003BE024F0020438E0022D36D101211C480E
:1009E000FFF723FD68B90A20FFF7D3FB0121184860
:1009F000FFF71BFD10B944F0010404E024F00104EA
:100A000001E024F0010402211148FFF70EFD68B94E
:100A10000A20FFF7BEFB02210D48FFF706FD10B9C3
:100A200044F0020404E024F0020401E024F0020493
:100A300000BF01210648FFF7F8FC0028F9D0022189
:100A40000348FFF7F2FC0028F3D0204670BD0000F9
:100A5000000801401CB501210846FFF73DFD0021BB
:100A60000846FFF737FC0120009000208DF80400B5
:100A70000C208DF8050001208DF806006846FFF770
:100A8000DFFB01210020FFF725FC02200090002061
:100A90008DF804000C208DF8050001208DF806006B
:100AA0006846FFF7CDFB1CBD08B501210420FFF708
:100AB00013FD0320ADF8000048208DF803006946BF
:100AC0000148FFF727FC08BD0008014008B50121D7
:100AD0000820FFF701FD2020ADF8000010208DF860
:100AE000030003208DF8020069460448FFF712FC5A
:100AF00020210248FFF7A2FC08BD0000000C0140C5
:100B000010B504462046FFF7DBFC01231A460021FE
:100B1000252000F0DBF801231A461946062000F0D4
:100B2000D5F8012302221946072000F0CFF810BDA6
:100B300010B56FF00400FFF7BFFD4FF0E020006933
:100B400040F002004FF0E02108610846006940F0E3
:100B5000010008610920486110BD000000B585B0A2
:100B6000012144F20400FFF7B7FC4FF40070ADF828
:100B7000100018208DF8130003208DF8120004A92E
:100B80001648FFF7C7FB4FF48060ADF81000042053
:100B90008DF8130004A91148FFF7BCFB4FF4165061
:100BA00000900020ADF80400ADF80600ADF8080094
:100BB000ADF80C000C20ADF80A0069460848FFF7B4
:100BC0004DFE01210648FFF7E0FD012240F22551CC
:100BD0000348FFF71DFE05B000BD000000080140FE
:100BE00000380140FFF772FF4FF4A060FFF788FF65
:100BF000FFF730FFFFF758FFFFF7B0FFFFF798FF51
:100C000023E01248007810B100F038F801E0FFF757
:100C1000ABFE0E484078012802D0022810D107E030
:100C20000BA1104800F045F80020084948700BE07F
:100C30000DA10C4800F03DF800200449487003E085
:100C400000200249487000BF00BFDAE70000002022
:100C50004B45592055502070726573736564210AA5
:100C600000000000003801404B455920444F574ECA
:100C70002070726573736564210A000010B520212D
:100C80000148FFF7DDFB10BD000C014070B50446C4
:100C90000D4629462046FFF752FE00BF4021204660
:100CA000FFF77FFD0028F9D040212046FFF764FDC3
:100CB00070BD70B505460C4604E014F8011B2846CB
:100CC000FFF7E4FF20780028F7D170BDF8B504469F
:100CD0000D4616461F468DF800408DF801508DF8E0
:100CE00002608DF803706846FFF7B2FBF8BD0000A4
:100CF000100D000800000020180000004A0900083C
:100D0000280D000818000020000400005A090008FF
:100D100000000000000001020304010203040607B2
:080D20000809020406080000A6
:0400000508000131BD
:00000001FF
