:0300000002019367
:0C019300787FE4F6D8FD7581200201DAC7
:10048D00C0F9A4B0999282F880908883C6A1868E17
:10045000C180011000011100060AFFFFFFFFFFFF2E
:0604600001080001090083
:10031A00D2AFC294D2937F027E001202A13000FDB6
:10032A00C200E4FF120420EF75F019A4FFAEF07CBE
:10033A00007DFF12000EEF75F00A8490048D93542D
:10034A007FF50FEF75F00A84E5F093F50E7F011241
:10035A000420EF75F019A4FFAEF07C007DFF1200B7
:10036A000EEF75F00A8490048D93547FF50BEF75A8
:0A037A00F00A84E5F093F50A80A371
:020420008F1239
:1004220012047C7F9012038440061204677F00222C
:10043200E5124440FF12038412047C7F911203846C
:0D0442001203ED1203BA8F13120467AF13FB
:01044F00228A
:1002A10075150075141075130E751200E4FCFDAB85
:1002B10015AA14A913A812120063E47BE87A03F9C2
:1002C100F81200EE8F158E148D138C12C3E4951560
:1002D100F515E49514F51474019513F513E49512CD
:1002E100F512E515240CF515E43514F514E4351370
:1002F100F513E43512F512AF15AE14AD13FC780801
:100301001201808F108515115389F04389018510E1
:080311008C85118AD2A9D28C5F
:0103190022C1
:03000B0002021FCF
:04021F00C0E0C0D0AB
:1002230085108C85118A0509E509C39496400575E7
:100233000900D2007580FFE50814601D14602714BF
:10024300603114603B1460452405704DC292C29125
:10025300C2900508850A808040C292C291D290055F
:1002630008850B808033C292D291C2900508850C19
:10027300808026C292D291D2900508850D80801984
:10028300D292C291C2900508850E80800CD292C290
:0902930091D290750800850F80DE
:05029C00D0D0D0E032DB
:10047C00D2B6D2B700000000C2B600000000C2B76E
:01048C00224D
:10046700C2B7C2B600000000D2B700000000D2B683
:0504770000000000225E
:100384007E80EE601B5F7004C2B68002D2B60000AD
:100394000000D2B700000000C2B7EEC313FE80E233
:1003A400D2B600000000D2B7A2B69201000000004D
:0503B400C2B7A201B375
:0103B9002221
:1003BA00D2B67E80EE601D00000000D2B720B605DE
:1003CA00F452078003EE420700000000C2B7EEC3F2
:1003DA0013FE80E0D2B600000000D2B70000000091
:0203EA00C2B798
:0103EC0022EE
:1003ED00D2B67E80EE601D00000000D2B720B605AB
:1003FD00F452078003EE420700000000C2B7EEC3BF
:10040D0013FE80E0C2B600000000D2B7000000006D
:02041D00C2B764
:01041F0022BA
:10019F0002031AE493A3F8E493A34003F68001F259
:1001AF0008DFF48029E493A3F85407240CC8C33361
:1001BF00C4540F4420C8834004F456800146F6DF30
:1001CF00E4800B0102040810204080900450E47E6C
:1001DF00019360BCA3FF543F30E509541FFEE49325
:1001EF00A360010ECF54C025E060A840B8E493A3EC
:1001FF00FAE493A3F8E493A3C8C582C8CAC583CA17
:10020F00F0A3C8C582C8CAC583CADFE9DEE780BECE
:010466000095
:10000E00BC000BBE0029EF8DF084FFADF022E4CCD6
:10001E00F875F008EF2FFFEE33FEEC33FCEE9DEC9F
:10002E00984005FCEE9DFE0FD5F0E9E4CEFD22EDE5
:10003E00F8F5F0EE8420D21CFEADF075F008EF2F2F
:10004E00FFED33FD4007985006D5F0F222C398FD20
:05005E000FD5F0EA22BD
:10006300E88FF0A4CC8BF0A42CFCE98EF0A42CFC3C
:100073008AF0EDA42CFCEA8EF0A4CDA8F08BF0A4BA
:100083002DCC3825F0FDE98FF0A42CCD35F0FCEB19
:100093008EF0A4FEA9F0EB8FF0A4CFC5F02ECD39DE
:0F00A300FEE43CFCEAA42DCE35F0FDE43CFC224B
:1000B20075F008758200EF2FFFEE33FECD33CDCC05
:1000C20033CCC58233C5829BED9AEC99E582984088
:1000D2000CF582EE9BFEED9AFDEC99FC0FD5F0D665
:1000E200E4CEFBE4CDFAE4CCF9A88222B800C1B98F
:1000F2000059BA002DEC8BF084CFCECDFCE5F0CBCD
:10010200F97818EF2FFFEE33FEED33FDEC33FCEB05
:1001120033FB10D703994004EB99FB0FD8E5E4F9C0
:10012200FA227818EF2FFFEE33FEED33FDEC33FCAD
:10013200C933C910D7059BE99A4007EC9BFCE99AA1
:10014200F90FD8E0E4C9FAE4CCFB2275F010EF2FE6
:10015200FFEE33FEED33FDCC33CCC833C810D707E6
:100162009BEC9AE899400AED9BFDEC9AFCE899F821
:0E0172000FD5F0DAE4CDFBE4CCFAE4C8F922B4
:10018000E8600FECC313FCED13FDEE13FEEF13FF5D
:03019000D8F12281
:00000001FF
