:0300000002020EEB
:0C020E00787FE4F6D8FD758120020255CF
:1003F000C0F9A4B0999282F880908883C6A1868EB5
:1003CB000609FFFFFFFFFFFF010F000110000108EF
:0103DB000021
:10031300D2AFC294D2931203DF7F017E0012029AFE
:10032300D2B93000FDC200E511C4540F9003F0931D
:10033300F50EE511540F93F50DE513C4540F93F522
:0A0343000AE513540F93F50980D862
:10029A0075180075171075160E751500E4FCFDAB80
:1002AA0018AA17A916A815120016E47BE87A03F90A
:1002BA00F81200A18F188E178D168C15C3E49518A5
:1002CA00F518E49517F51774019516F516E49515C2
:1002DA00F515E5182402F518E43517F517E435166F
:1002EA00F516E43515F515AF18AE17AD16FC7808F6
:1002FA001201338F0F8518105389F0438901850F36
:08030A008C85108AD2A9D28C67
:0103120022C8
:100391007580FFE59054F84508F59074092508F833
:1003A100E6F580E508C394055003050822E4F50845
:0103B1002229
:03000B000203B23B
:1003B200C0E0C0D075D000C000850F8C85108A12B5
:0903C2000391D000D0D0D0E0324C
:0203DC00C1005E
:1003DF00D2B353890F438910C28EC2ABD28AD2AA2D
:0103EF0022EB
:10034D00E4F58DF58BD28E30B307E58DC394404027
:10035D00F6C28EAF8DEFFEAD8B7C00E42DFFEC3E33
:02036D00FE226E
:10036F00E4F58DF58BD28E20B307E58DC394404015
:10037F00F6C28EAF8DEFFEAD8B7C00E42DFFEC3E11
:02038F00FE224C
:03001300020146A1
:10014600C0E0C0D075D000C000C001C002C003C06E
:0701560004C005C006C0074C
:10015D0012036FC3EF9499EE941E4009D3EF9433BD
:10016D00EE94224005C28B0201F912034DC3EF94A8
:10017D0066EE940E4009D3EF9400EE94124004C243
:10018D008B8069E4FBE4FA12036FC3EF9439EE94AC
:10019D00014009D3EF94CEEE94024004C28B804C03
:1001AD0012034DD3EF9439EE9401400EEF94CEEE41
:1001BD0094025006E9C313F9801ED3EF9441EE94D7
:1001CD00054011EF94D7EE94065009E9C313F94396
:1001DD0001808004C28B80140ABA08AB74112BF80D
:0C01ED00A6010BEB6404709DD200C28BD5
:1001F900D007D006D005D004D003D002D001D0005A
:05020900D0D0D0E0326E
:10021A00020313E493A3F8E493A34003F68001F2E4
:10022A0008DFF48029E493A3F85407240CC8C333E5
:10023A00C4540F4420C8834004F456800146F6DFB4
:10024A00E4800B01020408102040809003CBE47E76
:10025A00019360BCA3FF543F30E509541FFEE493A9
:10026A00A360010ECF54C025E060A840B8E493A370
:10027A00FAE493A3F8E493A3C8C582C8CAC583CA9B
:10028A00F0A3C8C582C8CAC583CADFE9DEE780BE53
:0103DE00001E
:10001600E88FF0A4CC8BF0A42CFCE98EF0A42CFC89
:100026008AF0EDA42CFCEA8EF0A4CDA8F08BF0A407
:100036002DCC3825F0FDE98FF0A42CCD35F0FCEB66
:100046008EF0A4FEA9F0EB8FF0A4CFC5F02ECD392B
:0F005600FEE43CFCEAA42DCE35F0FDE43CFC2298
:1000650075F008758200EF2FFFEE33FECD33CDCC52
:1000750033CCC58233C5829BED9AEC99E5829840D5
:100085000CF582EE9BFEED9AFDEC99FC0FD5F0D6B2
:10009500E4CEFBE4CDFAE4CCF9A88222B800C1B9DC
:1000A5000059BA002DEC8BF084CFCECDFCE5F0CB1A
:1000B500F97818EF2FFFEE33FEED33FDEC33FCEB53
:1000C50033FB10D703994004EB99FB0FD8E5E4F90E
:1000D500FA227818EF2FFFEE33FEED33FDEC33FCFB
:1000E500C933C910D7059BE99A4007EC9BFCE99AEF
:1000F500F90FD8E0E4C9FAE4CCFB2275F010EF2F34
:10010500FFEE33FEED33FDCC33CCC833C810D70733
:100115009BEC9AE899400AED9BFDEC9AFCE899F86E
:0E0125000FD5F0DAE4CDFBE4CCFAE4C8F92201
:10013300E8600FECC313FCED13FDEE13FEEF13FFAA
:03014300D8F122CE
:00000001FF
