:030000000204EC0B
:0C04EC00787FE4F6D8FD7581200205330E
:10000300C0F9A4B0999282F880908883C6A1868EA5
:080013007F3F1F0F07030100EE
:1005F600021F00000718FFFFFFFFFFFFFF011500A6
:0406060002160000D8
:1005CC00D2AFC294D29353890F438910758DFC75A9
:1005DC008B67D2ABD28E12060BE5206401451F70DF
:0A05EC00F8F51FF52012043F80EF20
:10043F0012035FAB07AA067C007D0A1202FC8D082F
:10044F007C007D0AAF03AE021202FC7C007D0A1213
:10045F0002FC8D097C007D64AF03AE021202FC7CAE
:10046F00007D0A1202FC8D0A7C037DE8AF03AE0209
:10047F001202FC7C007D0A1202FC8D0B7C277D1082
:10048F00AF03AE021202FC7C007D0A1202FC8D0C3F
:10049F007F0474082FF8E6700874182FF876FFDFC2
:1004AF00F1C3EF64809480401374082FF8E6900036
:1004BF000393FE74182FF8A6061F80E553197FEBE0
:1004CF0024FFFFEA34FFFE7C017DF41202FC74135B
:0C04DF002FF58274003EF583E493F51EB7
:0104EB0022EE
:03001B0002057863
:09057800C0E0C0D075D000C00045
:10058100758DFC758B677580FFE59054F84515F501
:100591009074182515F8E6F580E515C39406500406
:1005A100051580037515000517E51770020516C3BB
:1005B10094C8E5169400400C751600751700751F58
:0405C10000752001A0
:0705C500D000D0D0D0E032DD
:0B061B000000000000000000DFF622DD
:10035F00E4F58CF58AD2A77F0212061BC2A730A63E
:10036F00FDD28C20A6FDC28C308D10C28D75100071
:10037F00750FFF750E7F750D47801AAF8CEFFEADB1
:10038F008A7C00E42DFDEC3EFCE41202428F108EBD
:10039F000F8D0E8C0D7F8E7EE37D8A7C3FAB10AA76
:1003AF000FA90EA80D12001EE4FBFAF978401201F6
:1003BF00278F108E0F8D0E8C0D7B007A2479747819
:1003CF0049120127E4FBFA79AA784312001E8F1411
:1003DF008E138D128C11E4FFFE7D807C40AB14AA2E
:1003EF0013A912A8111201C4600F400DE4F514F502
:1003FF001375128075114080217F0A7ED77DA37CF3
:10040F003CAB14AA13A912A8111201C4500C7514F5
:10041F000A7513D77512A375113CE4FFFE7D7A7C24
:0F042F0044AB14AA13A912A81112001E12027BCB
:01043E00229B
:10060B005389F0438901E4F58CF58AC2A9C2A7226C
:10001E00EC4D6011E8497017ED33EC3304600DE4DC
:10002E00FCFFFEFD22E933E8330470F80202E7120A
:10003E0002B258046009E4CC24815006285009020B
:10004E0002F12840030202EEC0E0EB4A7044B98090
:10005E0006D0E0FB0202DDEF4E701CBD8008EBFF08
:10006E00EAFEE9FD80EBE98DF0A4FEE5F002010762
:10007E00E9CDF9EAFEEBFFEF89F0A4FCE5F0CE89BD
:10008E00F0A42EFFE435F0CD89F0A42DFEE435F07A
:10009E008067EF4E7005BD80D780C3EF8BF0A4ACA8
:1000AE00F0EE8BF0A42CFCE435F0F8EF8AF0A42CE3
:1000BE00E5F038FCE433CB8DF0A42CFCE5F03BF8F6
:1000CE00EE8AF0A42CFCE5F038F8E433CF89F0A4E6
:1000DE002CFCE5F038CF3400CE89F0A42FFFE5F0EC
:1000EE003EFEE433C98DF0A42EFEE5F039CD8AF044
:1000FE00A42FFFE5F03EFEE43DFD33D0E0FB5007BC
:10010E000BBB000F0202F1EC2CFCEF33FFEE33FEC3
:06011E00ED33FD0202C9F1
:100124000202F1EC5D046005E8590470030202E781
:100134001202B2580460F6EC4860F2EC7004FDFE62
:10014400FF22C860DB2481C85009C39860025006AE
:100154000202EE9850CAF582E9294B4A7005AB8237
:100164000202DD75F0007C1A7880C3EF9BEE9AEDF5
:1001740099400DC3EF9BFFEE9AFEED99FDE842F026
:10018400DC23ACF0D0E0FFD0E0FED0E0FDAB822079
:10019400E7101BEB60BAEC2CFCEF33FFEE33FEED03
:1001A40033FD0202C9E803F830E705C0F075F0003A
:1001B400EF2FFFEE33FEED33FD40B830E7C280AAE7
:1001C40074F8CC6480CCC86480C8F58204604FC3E2
:1001D400EB9FF5F0EA9E42F0E99D42F0E89C45F081
:1001E400603C501DE5825FFFE582D313CB5BCBF40B
:1001F4002B5582FB50280ABA002409B90020088034
:100204001DE5825BFBE582D313CF5FCFF4C3132FCD
:100214005582FF50090EBE00050DBD00010CC3EB55
:100224009FF5F0EA9E42F0E99D42F0E89C45F060BB
:0902340007CC4820E701B3EC22DD
:10023D0075F020800E75F010800575F0087D007E3C
:10024D00007F003392D530D503120351EC334010AB
:10025D00EF33FFEE33FEED33FDEC33FCD5F0ED2245
:0E026D00E5F0247EA2D513CC92E7CDCEFF2281
:10027B00EDD2E7CD33EC3392D524814006E4FFFE7B
:10028B00FDFC22FCE4CFCECDCC24E0501174FF80DA
:10029B00EDC3CC13CCCD13CDCE13CECF13CF047077
:0702AB00F030D5DE02035123
:1002B200E9D2E7C933E833F892D5EDD2E7CD33EC92
:0702C20033FC5002B2D5220B
:1002C900EC30E7100FBF000C0EBE00080DBD000496
:1002D9000BEB6014A2D5EB13FCED92E7FD2274FF42
:1002E900FCFDFEFF22E480F8A2D574FF13FC7D809B
:0302F900E480EFAF
:1004F8000205CCE493A3F8E493A34003F68001F249
:1005080008DFF48029E493A3F85407240CC8C33304
:10051800C4540F4420C8834004F456800146F6DFD3
:10052800E4800B01020408102040809005F6E47E68
:10053800019360BCA3FF543F30E509541FFEE493C8
:10054800A360010ECF54C025E060A840B8E493A38F
:10055800FAE493A3F8E493A3C8C582C8CAC583CABA
:10056800F0A3C8C582C8CAC583CADFE9DEE780BE72
:01060A0000EF
:1002FC00BC000BBE0029EF8DF084FFADF022E4CCE6
:10030C00F875F008EF2FFFEE33FEEC33FCEE9DECAE
:10031C00984005FCEE9DFE0FD5F0E9E4CEFD22EDF4
:10032C00F8F5F0EE8420D21CFEADF075F008EF2F3E
:10033C00FFED33FD4007985006D5F0F222C398FD2F
:05034C000FD5F0EA22CC
:0E035100C3E49FFFE49EFEE49DFDE49CFC22BD
:00000001FF
