:1005A4005374617465203A004E756D6265723A0049
:0F05B4005761726E696E67005065726D697400F1
:1004550001220001240001230001250001200001E3
:02046500210074
:10055200D2AF7F017E001203691205C37BFF7A05C9
:1005620079A4E4FDFF12057C7BFF7A0579AC7D015D
:0A057200E4FF12057C1203E280FB97
:02023B008F1B17
:10023D00E51BC39431404CE51BD394395045E52162
:10024D0060030202DCE5207026851B1C7BFF7A050E
:10025D0079B4FD7F0812057C7B007A00791C7D0145
:10026D007F0812057C7521017FA07E0F0205268572
:10027D001B1C7B007A00791C7D017F0812057C75A3
:10028D00210122E51BB40D1DE52170437B08FD7F87
:10029D00081205FB7BFF7A0579BCE4FD7F0812058A
:1002AD007C75200122E51B641B702412063C7BFF2C
:1002BD007A0579A4E4FDFF12057C7BFF7A0579AC04
:0F02CD007D01E4FF12057CE4F520F5211200030A
:0102DC0022FF
:10036900751C00751B10751A0E751900E4FCFDABA0
:100379001CAA1BA91AA819120037E47BE87A03F909
:10038900F81200C28F1C8E1B8D1A8C19C3E4951CA0
:10039900F51CE4951BF51B7401951AF51AE49519DA
:1003A900F519E51C240DF51CE4351BF51BE4351A7C
:1003B900F51AE43519F519AF1CAE1BAD1AFC78080E
:1003C9001201548F22851C247589004389118522C5
:0803D9008C85248AD2A9D28C84
:0103E10022F9
:10052600EF25E0FFEE33AB07FAE4F9F8FF7E107D26
:100536000EFC1204A1C3E49FFFE49EAD07F5238DD4
:0B05460025758DFF758BFED2ABD28EA9
:010551002287
:05000300C2ABC28E2219
:03000B000204E507
:1004E500C0E0C0F0C083C082C0D075D000C000C0DD
:1004F50001C002C003C004C005C006C00785228C28
:1005050085248A120167D007D006D005D004D00310
:10051500D002D001D000D0D0D082D083D0F0D0E0AE
:0105250032A3
:03001B0002000ED2
:09000E0085238D85258BB2963205
:1005D7007580FFC290D291D295AF80C295EF20E788
:0105E700F61D
:0105E80022F0
:10060C00AE071205D7C290C2918E80D295C29522A8
:10061C00AE071205D7D290C2918E80D295C2952288
:1005E900ED7004AC078004EF2440FCEC4480FF026A
:0205F900060CEE
:10057C008B1D8A1E891F1205E9AB1DAA1EA91F120D
:10058C00001E6013051FE51F7002051E14F91200F2
:08059C001EFF12061C80E22282
:1005FB001205E9AF031BEF60077F2012061C80F387
:01060B0022CC
:05063C007F0102060C25
:1005C3007F3812060C7F0C12060C7F0612060C7F76
:0405D3000102060C0F
:10062C00313233263435362537383928301B0D27EF
:1004670090100101010101010101010101010101D7
:1004770001019000010101010101010101010101D7
:10048700010101010108001009FFFFFFFFFFFFFF46
:09049700FFFFFFFFFFFFFFFFFF65
:1003E200E4F519E4F51AE51925E025E02410251AAB
:1003F200F8E2FFE51925E025E02400251AF8E2FEDF
:100402006F603DEE6020E51925E025E0242CF582A1
:10041200E43406F583E582251AF582E43583F58313
:10042200E493FF12023BE51925E025E02410251A8A
:10043200F8E2FFE51925E025E02400251AF8EFF29D
:10044200051AE51AC39404409D0519E519C39404DD
:020452004091D7
:010454002285
:10016700E50825E025E02409F8E625E0FFA2A4E458
:10017700334FFFE50825E025E02409F8A607E50841
:1001870025E025E0240AF8E625E0FFA2A5E4334FA1
:10019700FFE50825E025E0240AF8A607E50825E09D
:1001A70025E0240BF8E625E0FFA2A6E4334FFFE5A0
:1001B7000825E025E0240BF8A607E50825E025E05B
:1001C700240CF8E625E0FFA2A7E4334FFFE5082556
:1001D700E025E0240CF8A607E4FFE50825E025E084
:1001E70024092FF8E6540FFE700EE50825E025E0F8
:1001F70024102FF8E4F28010BE0F0DE50825E02546
:10020700E024102FF87401F20FBF04CE050853083D
:1002170003E50814600F14601114601324037013AE
:10022700D2A0C2A322D2A3C2A222D2A2C2A122D208
:03023700A1C2A0C1
:01023A0022A1
:030000000202DD1C
:0C02DD00787FE4F6D8FD7581250203242B
:1002E900020552E493A3F8E493A34003F68001F2D4
:1002F90008DFF48029E493A3F85407240CC8C33316
:10030900C4540F4420C8834004F456800146F6DFE4
:10031900E4800B0102040810204080900455E47E1B
:10032900019360BCA3FF543F30E509541FFEE493D9
:10033900A360010ECF54C025E060A840B8E493A3A0
:10034900FAE493A3F8E493A3C8C582C8CAC583CACB
:10035900F0A3C8C582C8CAC583CADFE9DEE780BE83
:0104A000005B
:10001E00BB010689828A83E0225002E722BBFE02E0
:09002E00E32289828A83E4932213
:10003700E88FF0A4CC8BF0A42CFCE98EF0A42CFC68
:100047008AF0EDA42CFCEA8EF0A4CDA8F08BF0A4E6
:100057002DCC3825F0FDE98FF0A42CCD35F0FCEB45
:100067008EF0A4FEA9F0EB8FF0A4CFC5F02ECD390A
:0F007700FEE43CFCEAA42DCE35F0FDE43CFC2277
:1000860075F008758200EF2FFFEE33FECD33CDCC31
:1000960033CCC58233C5829BED9AEC99E5829840B4
:1000A6000CF582EE9BFEED9AFDEC99FC0FD5F0D691
:1000B600E4CEFBE4CDFAE4CCF9A88222B800C1B9BB
:1000C6000059BA002DEC8BF084CFCECDFCE5F0CBF9
:1000D600F97818EF2FFFEE33FEED33FDEC33FCEB32
:1000E60033FB10D703994004EB99FB0FD8E5E4F9ED
:1000F600FA227818EF2FFFEE33FEED33FDEC33FCDA
:10010600C933C910D7059BE99A4007EC9BFCE99ACD
:10011600F90FD8E0E4C9FAE4CCFB2275F010EF2F12
:10012600FFEE33FEED33FDCC33CCC833C810D70712
:100136009BEC9AE899400AED9BFDEC9AFCE899F84D
:0E0146000FD5F0DAE4CDFBE4CCFAE4C8F922E0
:1004A100C2D5E830E70FB2D5E4C39BFBE49AFAE486
:1004B10099F9E498F8EC30E717B2D51204D7120095
:1004C100C2E4C39BFBE49AFAE499F9E498F8800347
:1004D1001200C230D50DE4C39FFFE49EFEE49DFDF2
:0404E100E49CFC2279
:10015400E8600FECC313FCED13FDEE13FEEF13FF89
:03016400D8F122AD
:00000001FF
