:03000000020226D3
:0C022600787FE4F6D8FD75815602026D69
:10050D00313233263435362537383928301B0D270F
:08051D000E0C0D090B0307068B
:100451001047010101010101010101010101010136
:100461000101044300000000C1001021010101014C
:10047100010101010101010101010101013100102D
:1004810032FFFFFFFFFFFFFFFFFFFFFFFFFFFFFF48
:06049100FF014200C10161
:10052500D2AF758901758CFC758A67D2A9D28C12F8
:0405350002B280FB93
:1004DC008F0E8E0D8D0C8C0BC2AFE47FEC7E0FFD5E
:1004EC00FCAB0EAA0DA90CA80B120020E47B687AB9
:1004FC0001F9F81204988F468E458D448C43D2AF87
:01050C0022CC
:0E053900C2AFE4F546F545F544F543D2AF22D6
:020397008F0ACB
:10039900E50AC394304030E50AD394395029200046
:1003A9000EEF24D0FFE434FFFE7C017D68800DE56B
:1003B9000A24D0FFE434FFFE7CFE7D9812000EEE85
:1003C9003395E0FDFC802CE50AB42603C20022E542
:1003D9000AB42803D20022E50AB4250A7F5A7E000E
:1003E9007D007C00800DE50AB4270B7FA67EFF7D8A
:0E03F900FF7CFF0204DCE50AB41B0312053989
:0104070022D2
:1002B200E4F508E4F509E50825E025E024472509E9
:1002C200F8E6FFE50825E025E024212509F8E6FE09
:1002D2006F603DEE6020E50825E025E0240DF58203
:1002E200E43405F583E5822509F582E43583F58357
:1002F200E493FF120397E50825E025E0244725094A
:10030200F8E6FFE50825E025E024212509F8A607FF
:100312000509E509C39404409D0508E508C3940452
:02032200409108
:0103240022B6
:10015300E53125E025E02432F8E625E0FFA2A4E41A
:10016300334FFFE53125E025E02432F8A607E531DA
:1001730025E025E02433F8E625E0FFA2A5E4334F8C
:10018300FFE53125E025E02433F8A607E53125E036
:1001930025E02434F8E625E0FFA2A6E4334FFFE58B
:1001A3003125E025E02434F8A607E53125E025E0F4
:1001B3002435F8E625E0FFA2A7E4334FFFE5312518
:1001C300E025E02435F8A607E4FFE53125E025E046
:1001D30024322FF8E6540FFE700EE53125E025E0BA
:1001E30024472FF8E4F6800FBE0F0CE53125E025F8
:1001F300E024472FF876010FBF04CF0531533103B5
:10020300E53114600F14601114601324037013D2CA
:10021300A0C2A322D2A3C2A222D2A2C2A122D2A14D
:02022300C2A077
:0102250022B6
:10032500AF46AE45AD44AC43EC4D4E4F6060E4FF87
:10033500FEFDFCAB46AA45A944A843D312006F4075
:100345001F054253420774FF2546F546E54534FF30
:10035500F545E54434FFF544E54334FFF543801E98
:100365001542534207E4FAF9F8E5462401F546EA51
:100375003545F545E93544F544E83543F543AF9052
:100385005307F0E54290051D9342078F9022439055
:010395000F58
:010396002244
:03000B00020408E4
:10040800C0E0C0F0C083C082C0D075D000C000C0BA
:0D04180001C002C003C004C005C006C0073B
:10042500758CFC758A67120153B201300103120302
:0104350025A1
:10043600D007D006D005D004D003D002D001D0001A
:0B044600D0D0D082D083D0F0D0E032C4
:10023200020525E493A3F8E493A34003F68001F2B8
:1002420008DFF48029E493A3F85407240CC8C333CD
:10025200C4540F4420C8834004F456800146F6DF9C
:10026200E4800B0102040810204080900451E47ED7
:10027200019360BCA3FF543F30E509541FFEE49391
:10028200A360010ECF54C025E060A840B8E493A358
:10029200FAE493A3F8E493A3C8C582C8CAC583CA83
:1002A200F0A3C8C582C8CAC583CADFE9DEE780BE3B
:010497000064
:10000E00EF8DF0A4A8F0CF8CF0A428CE8DF0A42E06
:02001E00FE22C0
:10002000E88FF0A4CC8BF0A42CFCE98EF0A42CFC7F
:100030008AF0EDA42CFCEA8EF0A4CDA8F08BF0A4FD
:100040002DCC3825F0FDE98FF0A42CCD35F0FCEB5C
:100050008EF0A4FEA9F0EB8FF0A4CFC5F02ECD3921
:0F006000FEE43CFCEAA42DCE35F0FDE43CFC228E
:10049800C2D5E830E70FB2D5E4C39BFBE49AFAE48F
:1004A80099F9E498F8EC30E717B2D51204CE1200A7
:1004B800C1E4C39BFBE49AFAE499F9E498F8800351
:1004C8001200C130D50DE4C39FFFE49EFEE49DFDFC
:0404D800E49CFC2282
:10006F00EB9FF5F0EA9E42F0E99D42F0EC6480C808
:06007F0064809845F022A8
:1000850075F008758200EF2FFFEE33FECD33CDCC32
:1000950033CCC58233C5829BED9AEC99E5829840B5
:1000A5000CF582EE9BFEED9AFDEC99FC0FD5F0D692
:1000B500E4CEFBE4CDFAE4CCF9A88222B800C1B9BC
:1000C5000059BA002DEC8BF084CFCECDFCE5F0CBFA
:1000D500F97818EF2FFFEE33FEED33FDEC33FCEB33
:1000E50033FB10D703994004EB99FB0FD8E5E4F9EE
:1000F500FA227818EF2FFFEE33FEED33FDEC33FCDB
:10010500C933C910D7059BE99A4007EC9BFCE99ACE
:10011500F90FD8E0E4C9FAE4CCFB2275F010EF2F13
:10012500FFEE33FEED33FDCC33CCC833C810D70713
:100135009BEC9AE899400AED9BFDEC9AFCE899F84E
:0E0145000FD5F0DAE4CDFBE4CCFAE4C8F922E1
:00000001FF
