:020000040800F2
:1000000008040020490100080D0400080504000848
:1000100009040008FF030008610500080000000053
:1000200000000000000000000000000011040008B3
:1000300003040008000000000F040008FD0400088D
:100040006301000863010008630100086301000800
:1000500063010008630100086301000863010008F0
:1000600063010008630100086301000863010008E0
:1000700063010008630100086301000863010008D0
:1000800063010008630100086301000863010008C0
:1000900063010008630100086301000863010008B0
:1000A00063010008630100086301000863010008A0
:1000B0006301000863010008630100086301000890
:1000C0006301000863010008630100086301000880
:1000D0006301000863010008630100086301000870
:1000E0006301000863010008630100086301000860
:1000F0006301000863010008630100086301000850
:10010000630100086301000863010008630100083F
:10011000630100086301000863010008630100082F
:10012000630100086301000863010008630100081F
:10013000DFF810D000F032F9004800471907000836
:10014000AFF30080080400200648804706480047B7
:10015000FEE7FEE7FEE7FEE7FEE7FEE7FEE7FEE777
:10016000FEE7FEE7010500083101000840EA01034F
:100170009B0703D009E008C9121F08C0042AFAD25D
:1001800003E011F8013B00F8013B521EF9D2704721
:100190000EB5C10F80EAE0700844CA07002140F2A2
:1001A00033438DE80E000A460B4600F058F803B0C2
:1001B00000BD000030B5041E71F1000404DB4FF0F7
:1001C0000044404264EB0101141E73F1000405DB9E
:1001D0001C464FF00043524263EB04038B4208BFBE
:1001E000824230BD30B5041E71F1000404DB4FF0D3
:1001F0000044404264EB0101141E73F1000405DB6E
:100200001C464FF00043524263EB0403994208BF7F
:10021000904230BD30B50B4601460020202201241B
:1002200009E021FA02F59D4205D303FA02F5491BC4
:1002300004FA02F52844151EA2F10102F1DC30BDDA
:1002400010B5141E73F1000408DA401C41F10001DE
:1002500092185B411A4301D120F0010010BD2DE935
:10026000F04D92469B4611B1B1FA81F202E0B0FA2C
:1002700080F22032904600F0A3F804460F4640EA90
:100280000A0041EA0B0153465A46084313D011466F
:1002900053EA010019D0C8F14002504600F09FF81F
:1002A00005460E4650465946424600F089F8084336
:1002B00005D0012004E020463946BDE8F08D00203D
:1002C000054346EAE0762C4337430A986305E40A7F
:1002D000A0EB08000022FD0A44EA47540A3002D588
:1002E00000200146E9E7010510196941DDE90845EB
:1002F00000196941BDE8F04DA2E72DE9F04D00235A
:100300001A461B1A8A4103DB00200146BDE8F08D26
:10031000C1F30A52C1F3130141F480154FF0000BF1
:10032000D10702D100186D41521E0027044640F249
:10033000FF11384601EB620A3E4680460246002025
:100340004FF4801100F04BF8C2197141BB1846EB15
:100350000100B4EB030C75EB000C04D3E41A65EB5D
:10036000000517460E46241908F101006D4180462C
:100370003428E3DDF91946EB0600091BA84103D236
:100380004FF0FF32134601E0002213461BEB07003B
:1003900046EB0A51BDE8F04DFFF752BF064C074D42
:1003A00006E0E06840F0010394E807009847103445
:1003B000AC42F6D3FFF7C0FE240A0008440A000846
:1003C000202A04DB203A00FA02F100207047914015
:1003D000C2F1200320FA03F3194390407047202A0A
:1003E00004DB203A21FA02F00021704721FA02F3DF
:1003F000D040C2F12002914008431946704700BF27
:10040000FEE7704700BFFEE700BFFEE7704770479A
:10041000704710B500F002F810BD00000CB50020C8
:10042000019000903348006840F480303149086002
:1004300000BF3048006800F4003000900198401C74
:100440000190009818B90198B0F5A06FF1D1294832
:10045000006800F4003010B10120009001E000209D
:1004600000900098012843D12348006840F0100014
:10047000214908600846006820F00300086008462B
:10048000006840F0020008601A4840681949486056
:100490000846406848600846406840F4806048600C
:1004A0000846406820F47C1048600846406840F4E4
:1004B000E81048600846006840F08070086000BF9F
:1004C0000C48006800F000700028F9D00948406826
:1004D00020F00300074948600846406840F00200E9
:1004E000486000BF0348406800F00C000828F9D1BC
:1004F0000CBD0000001002400020024070470000C8
:1005000010B51348006840F0010011490860084622
:100510004068104908400E494860084600680E4986
:1005200008400B4908600846006820F480200860F5
:100530000846406820F4FE0048604FF41F008860C1
:10054000FFF767FF4FF000600449086010BD00002E
:10055000001002400000FFF8FFFFF6FE08ED00E08B
:1005600000BFFEE70FB4054B10B503A9044A02987B
:1005700000F01EF810BC5DF814FB00000507000831
:100580000000002002E008C8121F08C1002AFAD1AA
:1005900070477047002001E001C1121F002AFBD103
:1005A0007047000001490860704700000400002007
:1005B0002DE9FF4F89B09B460446002506E025281B
:1005C0000BD05A460B999047641C6D1C207800286C
:1005D000F5D10DB02846BDE8F08F0027B8460122BE
:1005E000474900E0074314F8013F203B02FA03F0BB
:1005F0000842F7D120782E2819D114F8010F47F0BE
:1006000004072A280ED06FF02F022078A0F13001C5
:1006100009290CD808EB880102EB410100EB010825
:10062000641CF2E70A98641C50F8048B0A90207846
:100630000028CED0642808D0692806D075281ED09E
:100640005A460B9990476D1C58E00A994FF00A09D9
:1006500001C90A91002802DA40422D2102E0390541
:1006600004D52B218DF82010012103E0F90704D0D7
:100670002021F7E78A4608AE0DE00021FAE70A9943
:100680004FF00A0901C90A91F7E74946FFF7C2FD91
:10069000303106F8011D0028F7D1ADEB060000F15E
:1006A0002009780701D44FF00108C84502DDA8EB06
:1006B000090000E000208046002706E008A85A460E
:1006C000C05D0B9990476D1C7F1C5745F6DB04E01D
:1006D00030205A460B9990476D1CB8F10001A8F1E3
:1006E0000108F5DC05E016F8010B5A460B99904716
:1006F0006D1CB9F10001A9F10109F4DC641C65E786
:100700000928010038B504468DF800006946032029
:10071000ABBE204638BD00002DE9F04794B0402222
:10072000974904A8FFF722FD4FF00009CA460024AC
:10073000CCE00025C6E0022610E004A800EB04107F
:1007400050F8250090FBF6F106FB110028B90020B7
:1007500004A901EB041141F82500761C04A901EB62
:10076000041151F82500FFF713FDCDE9000100F059
:1007700013F9074688463046FFF70AFD3A464346D6
:10078000CDE90201FFF716FDD7D902266FE004A8D4
:1007900000EB041050F8250090FBF6F106FB110069
:1007A00000284BD03CE002260BE004A800EB04102C
:1007B00050F8250090FBF6F106FB110000B117E0A0
:1007C000761C04A901EB041151F82500FFF7E0FCA9
:1007D000CDE9000100F0E0F8074688463046FFF713
:1007E000D7FC3A464346CDE90201FFF7E3FCDCD9EA
:1007F00000BF04A901EB041151F82500FFF7C8FC64
:10080000CDE9000100F0C8F8CDE902013046FFF75C
:10081000BFFC0746DDE90223FFF7E4FC00D20CE051
:1008200004A800EB041050F82500801C04A901EB7B
:10083000041141F825000028B5D100BF04A901EB3F
:10084000041151F82500FFF7A3FCCDE9000100F0E9
:10085000A3F8074688463046FFF79AFC3A464346D7
:10086000CDE90201FFF7BEFC00D217E0761C04A917
:1008700001EB041151F82500FFF78AFC074600F050
:100880008BF8CDE902013046FFF782FCCDE900018B
:10089000DDE90223FFF78EFC7FF679AF00BF04A8E5
:1008A00000EB041050F8250003280AD104A800EB3F
:1008B000041050F82500801C04A901EB041141F834
:1008C00025006D1CA5427FF736AF641C042CFFF693
:1008D00030AF00241AE0002515E004A800EB041056
:1008E00050F8251027A0FFF73DFE09F101094FEA56
:1008F000E97109EB91718910A9EB810111B922A06D
:10090000FFF730FE6D1C042DE7DB641C042CE2DBDA
:1009100000242AE0002525E002260CE004A800EBD4
:10092000041050F8250090FBF6F106FB110008B109
:100930000AF1010A761C04A901EB041151F8250003
:10094000FFF726FC074600F027F8CDE90201304604
:10095000FFF71EFCCDE90001DDE90223FFF72AFCC9
:10096000DCD96D1CA542D7DD641C042CD2DB5146BA
:1009700006A0FFF7F7FD002014B0BDE8F0870000E7
:10098000E4090008256420000A000000636F756E0A
:10099000743D2564000000002DE9F04106460F4635
:1009A000FFF7ABFC041E0D4618BF0120284320F0C2
:1009B0000040C0F17F6000F1E040C00F0ED0301C5D
:1009C00018BF0120384320F00040C0F17F6000F1E3
:1009D000E040C00F04BF0120FFF7E4FD2046294698
:1009E000BDE8F081030000000600000004000000E4
:1009F00011000000080000000500000009000000D0
:100A00000A000000090000001300000007000000B9
:100A100014000000040000000E000000150000009B
:100A200017000000440A0008000000200800000031
:100A3000840500084C0A000808000020000400009B
:0C0A400094050008000000000000000009
:0400000508000131BD
:00000001FF
