:020000040800F2
:10000000480A0020010100085B2F0008152600089F
:10001000592F00085F0A000835380008000000006A
:10002000000000000000000000000000893300080C
:10003000690C000800000000893100088B330008BB
:100040001B0100081B0100081B0100081B01000820
:100050001B0100081B0100081B0100081B01000810
:100060001B0100081B0100081B0100081B01000800
:100070001B0100081B0100081B0100081B010008F0
:100080001B0100081B0100081B0100081B010008E0
:100090001B0100081B0100081B0100081B010008D0
:1000A0001B0100081B0100081B0100081B010008C0
:1000B0001B0100081B010008F13300081B010008A8
:1000C0001B0100081B0100081B0100081B010008A0
:1000D0001B010008293800081B0100081B0100084B
:1000E0001B0100081B0100081B010008DFF80CD0F1
:1000F00000F052FC0048004745500008480A002024
:100100000648804706480047FEE7FEE7FEE7FEE7B1
:10011000FEE7FEE7FEE7FEE7FEE7FEE7ED33000859
:10012000ED0000082DE9F0410024061B254671F181
:10013000000605DA01240027D0EB070067EB010178
:10014000161E73F1000605DA0027D2EB070201251F
:1001500067EB030300F0B3FA86460E4617469C464B
:10016000AC4204D00025D0EB050E65EB010624B1AE
:100170000020D2EB000760EB030C704631463A4694
:100180006346BDE8F081202A04DB203A21FA02F020
:100190000021704721FA02F3D040C2F120029140C1
:1001A000084319467047D2B201E000F8012B491EFE
:1001B000FBD270470022F6E710B513460A46044604
:1001C0001946FFF7F0FF204610BD30B50446002069
:1001D000034600E05B1C934203D2E05CCD5C401B15
:1001E000F8D030BDF0B480EA0102D40F4200B2EB87
:1001F000410F02D20246084611464A0042D0C30DC2
:10020000DDB2C1F3C752AD1A202D35DAC1F31601A4
:1002100041F4000204B15242C5F1200602FA06F18F
:100220002A411044B3EBD05F23D0C4B1012DA0EB21
:10023000C35009DCF0BC4FF0004202EAC352DBB20B
:1002400000F5000000F096BA400000F1807000EB6D
:10025000C350A0F1807040EAD170490009E049081C
:1002600041EAC071A0EBC35000F50000400800EB6C
:10027000C350F0BC00F075BA6142012202EB4101AB
:10028000001BF6E7F0BC704781F00041AAE780F060
:100290000040A7E780EA010210B502F000434000E9
:1002A00022D04A001FD0010E01EB1261C0F35600AC
:1002B000C2F3560240F4000042F40002A0FB022008
:1002C00000047F39140400D0401C50EA124001D4CD
:1002D0004000491EC2B20C0604EBD010401C40087E
:1002E000802A02D003E0002010BD20F00100002988
:1002F00000DA0020184310BD30B480EA010202F099
:10030000004530F0004221F0004013D090B1C30D01
:10031000D40DC2F31601C0F31600E41A41F4000133
:1003200040F400027D34914201D3641C00E0490096
:10033000002C02DA30BC002070474FF4000000238C
:10034000914201D3891A034340084FEA4101F7D192
:1003500051B1914202D14FF0004105E002D24FF07D
:10036000010101E06FF0010103EBC450284430BCEF
:1003700000F0F7B9420005D0C0F3C7525242914293
:1003800001DC0020704700EBC15070472DE9FE4FA3
:10039000804681EA0300C00F0C46009021F0004126
:1003A00023F00045B8EB0200A94105D240462146A2
:1003B00090461C460B46024623F00040104347D0AF
:1003C000270DC7F30A00C3F30A510290401A0190A7
:1003D00040286BDAC3F3130040F4801B0098924668
:1003E00020B10023D2EB030A63EB0B0B01985946B3
:1003F000C0F14002504600F093F906460D465046C3
:100400005946019A00F09BF910EB08006141002465
:1004100087EA115284EAE7731A4340D0009A62B324
:10042000019A012A4FEA075215DC001B61EB020119
:100430004FF0004202EA0752CDE90042001C41F5AC
:10044000801132462B4600F0D2F903B0BDE8F08FA0
:1004500040462146F9E7001B61EB0201001C41F513
:10046000801300185B412018A2F5001747EB030129
:1004700040EAD570B6196D4111E06D084FEA3606B5
:1004800045EAC0754FEA0752001B61EB0201001CF0
:1004900041F5801149084FEA3000001951413246B8
:1004A0002B4603B0BDE8F04F00F092B9009801224E
:1004B00040000023D0EB020263EBE073009821467A
:1004C0004FEAE074B8EB000061EB0401E9E783F068
:1004D00000435BE781F0004158E72DE9FE4F81EAD8
:1004E000030404F0004421F0004100944FF0000B9D
:1004F00023F0004350EA01045ED052EA03045BD0CB
:10050000C3F30A54C1F30A552C44A4F2F334019402
:10051000A0FB0254C1F3130141F48011C3F3130390
:1005200043F4801301FB024400FB034E840A970A44
:1005300044EA815447EA8357A4FB076802958D0A71
:1005400005FB07854FEA932C04FB0C542705029DFD
:100550004FEA065847EA1637B5EB08056EEB070C6D
:10056000870E920E47EA811742EA8312A7FB020127
:10057000B6EB0B0164EB00042B0D43EA0C335E1861
:1005800044EB1C50DA465146E7FB0201C5F3130465
:100590004FEA0B3343EA14534FEA0432019C43EA17
:1005A0000603A4F10C040294009CCDE900B400F011
:1005B0001EF903B0BDE8F08F00200146F9E7C10F36
:1005C00080EAE0700844CA079623002100F0D2B800
:1005D00096230022114600F0CDB800F0004220F032
:1005E0000040C10DC0F3160040F400007F2901DA7D
:1005F00000207047962903DCC1F19601C84001E054
:1006000096398840002AF4D04042704720F00040DC
:10061000C10DC0F3160040F400007F2901DA00206C
:100620007047962903DCC1F19601C840704796399E
:100630008840704700F0004230F000400AD0C10D01
:1006400001F56071C0F3160042EA0151C20840078B
:100650001143704700200146704701F0004330B459
:1006600021F0004150EA010206D00A0DA2F56072A5
:10067000C1F31301002A02DC30BC00207047440F94
:1006800044EAC104C100E01830BC00EBC25000F0E5
:1006900068B830B50B46014600202022012409E04D
:1006A00021FA02F59D4205D303FA02F5491B04FA2B
:1006B00002F52844151EA2F10102F1DC30BD2DE93E
:1006C000F05F0546002092469B46884606468146D6
:1006D00040241BE02846414647462246FFF753FD8B
:1006E00053465A46C01A914110D311461846224625
:1006F00000F016F82D1A67EB01084F46224601203C
:10070000002100F00DF817EB00094E41201EA4F166
:100710000104DFDC484631462A464346BDE8F09FE7
:10072000202A04DB203A00FA02F1002070479140B1
:10073000C2F1200320FA03F3194390407047202AA6
:1007400006DBCB17203A41FA02F043EAE07306E0F9
:1007500041FA02F3D040C2F1200291400843194609
:1007600070470029A8BF7047401C490008BF20F00F
:100770000100704710B4B0FA80FC00FA0CF050EAA7
:10078000010404BF10BC704749B1CCF1200421FA28
:1007900004F411FA0CF118BF012121430843A3EB23
:1007A0000C01CB1D4FEA00614FEA102042BF002030
:1007B00010BC704700EBC35010440029A4BF10BC0C
:1007C0007047401C490008BF20F0010010BC704772
:1007D00010B5141E73F1000408DA401C41F1000149
:1007E00092185B411A4301D120F0010010BD2DE9A0
:1007F000F04D92469B4611B1B1FA81F202E0B0FA97
:1008000080F220329046FFF78BFF04460F4640EA05
:100810000A0041EA0B0153465A46084313D01146D9
:1008200053EA010019D0C8F140025046FFF7ABFC73
:1008300005460E46504659464246FFF771FF0843AB
:1008400005D0012004E020463946BDE8F08D0020A7
:10085000054346EAE0762C4337430A986305E40AE9
:10086000A0EB08000022FD0A44EA47540A3002D5F2
:1008700000200146E9E7010510196941DDE9084555
:1008800000196941BDE8F04DA2E72DE9F04D81EA7C
:10089000030404F0004B21F0004514464FF0000A19
:1008A00023F0004150EA050220D054EA01021DD095
:1008B000C5F30A570246C5F31303C1F31300C1F38E
:1008C0000A5640F4801543F48013A7EB0608101B6A
:1008D000D64608F2FD3873EB050002D308F1010893
:1008E00001E092185B41B8F1000F03DA00200146E5
:1008F000BDE8F08D00204FF48011064684460EE0DE
:10090000171B73EB050705D3121B63EB05030643A7
:100910004CEA010C49084FEA300092185B4150EA5A
:100920000107EDD152EA030012D082EA040083EA03
:100930000501084305D0101BAB4106D2012200235C
:1009400006E000224FF0004302E06FF00102531076
:100950001AEB06004CEB085110EB0A0041EB0B01BF
:10096000BDE8F04DFFF734BF70B521F000430343FD
:100970000CD0C1F30A550024D5EB040564EB040345
:10098000D617AD1AB34102DB0020014670BD201816
:1009900041EB025170BD0000064C074D06E0E068D7
:1009A00040F0010394E8070098471034AC42F6D3B6
:1009B000FFF7A0FB28750008487500082DE9F04DE9
:1009C00000231A461B1A8A4103DB00200146BDE8BA
:1009D000F08DC1F30A52C1F3130141F480154FF0B9
:1009E000000BD10702D100186D41521E00270446AA
:1009F00040F2FF11384601EB620A3E46804602464D
:100A000000204FF48011FFF7BEFBC2197141BB18E3
:100A100046EB0100B4EB030C75EB000C04D3E41AB5
:100A200065EB000517460E46241908F101006D41DB
:100A300080463428E3DDF91946EB0600091BA8417E
:100A400003D24FF0FF32134601E0002213461BEBA6
:100A5000070046EB0A51BDE8F04DFFF7B9BEFEE7CF
:100A6000F8B500266B4601227521D120009604F0CE
:100A7000A5FA334F0120387032A002F00BFF9DF829
:100A8000000068280CD0BFF34F8F37480168374A01
:100A900001F4E06111430160BFF34F8F00BFFDE738
:100AA00004F036FC002848D1782005F0EFF810B9A2
:100AB0002FA002F0EFFE782004F05CFB10B933A009
:100AC00002F0E8FEC82005F0A1F810B936A002F047
:100AD000E1FE03F0C9FC10B93BA002F0DBFE444884
:100AE000044604F08BFA0546E01C04F087FA45EA58
:100AF000C005A01D04F082FA45EA801080B203F020
:100B000063FE10B93BA002F0C5FE40F2731003F083
:100B100083FB10B93FA002F0BDFEC82003F0BCFD6E
:100B200010B942A002F0B6FE05F040F9012004F031
:100B300093FF10B945A002F0ADFE3E70F8BD000075
:100B4000610000206D70755F7365745F73656E730F
:100B50006F7220636F6D706C657465202E2E2E2E63
:100B60002E2E0D0A000000000CED00E00400FA0536
:100B70006D7075C9E8D6C3B4ABB8D0C6F7CDEAB3CB
:100B8000C9202E2E2E2E2E2E0D0A00006D7075C53A
:100B9000E4D6C34649464FCDEAB3C9202E2E2E2EA9
:100BA0002E2E0D0A000000006D7075C9E8B6A8B5BC
:100BB000C4B2C9D1F9C2CACDEAB3C9202E2E2E2E95
:100BC0002E2E0D0A000000002F2F444D50BCD3D410
:100BD000D8B6AFD7F7C7FDB6AFB3CCD0F2B9CCBC5F
:100BE000FECDEAB3C9202E2E2E2E2E2E0D0A000089
:100BF00058000020444D50C9E8D6C3CDD3C2DDD241
:100C0000C7B7BDCFF2CDEAB3C9202E2E2E2E2E2E81
:100C10000D0A0000444D50CAB9B9A6C4DCCDEAD5CE
:100C2000FB202E2E2E2E2E2E0D0A0000444D50C9D4
:100C3000E8B6A84649464FCBD9C2CACDEAB3C920C7
:100C40002E2E2E2E2E2E0D0A000000006D7075C95E
:100C5000E8D6C3444D50D7B4CCACCDEAB3C9202EAE
:100C60002E2E2E2E2E0D0A00704772B6FEE710B5FE
:100C700090F821100022022905D00421816380F818
:100C80002020012010BD01680B6823F00E030B60CB
:100C900001680B6823F001030B6090F84030C46BCF
:100CA000012101FA03F3636080F8211080F820200D
:100CB000104610BD10B590F821100024022903D071
:100CC0000421816301243DE001680A6822F00E02DC
:100CD0000A6001680A6822F001020A601A4A016883
:100CE000914201D1012121E0174A1432914201D1F0
:100CF00010211BE0144A2832914201D1891515E0D8
:100D0000114A3C32914201D189140FE00E4A50320F
:100D1000914202D14FF4803108E00B4A6432914293
:100D200002D14FF4801101E04FF08071064A083A79
:100D30005160012180F82110002180F82010416BC2
:100D400001B18847204610BD0800024070B5044636
:100D500000F028F90546601C02D0044800780444DD
:100D600000F020F9401BA042FAD370BD68000020BB
:100D700010B5044600F0FEFC0849B0FBF1F000F0AD
:100D8000E5FE601EFFF7E2FF00F0F4FC4FF47A711D
:100D9000B0FBF1F0BDE8104000F0D8BE40420F00BB
:100DA0002DE9F84FDFF8B891002409F1040A0AF19F
:100DB000040B23460F270BF1040EC9E00125A540C3
:100DC0002A40AA427DD1674ED1F804C0ACEB060898
:100DD000B44532D014DCBCF1030F3AD009DCBCF1CD
:100DE000000F2AD0BCF1010F1CD0BCF1020F31D191
:100DF0001DE0BCF1110F17D0BCF1120F2AD119E080
:100E0000B8F5881F19D006DCB8F5803F15D0B8F5C5
:100E1000801F1FD111E0B8F5001F0ED0B8F5041FD8
:100E200018D10AE0CB6815E0CB681B1D12E0CB6837
:100E300008330FE0CB680C330CE08B682BB1012B2F
:100E40004FF0080303D0456104E0042302E005618C
:100E500000E00023FF2A01D8064601E000F1040665
:100E60004FEA840501D9A5F12005D6F8008007FADC
:100E700005FC28EA0C0803FA05F548EA0508C6F857
:100E800000804D68ED0062D5374DAE6946F0010631
:100E9000AE61AD6924F0030605F001050095334D00
:100EA00006EB050CDCF80850A607360F07FA06F823
:100EB00025EA0805DFF8B880404503D14FF0000867
:100EC00017E044E0DFF8AC80404502D14FF0010864
:100ED0000FE0DFF8A480404502D14FF0020808E09F
:100EE000DFF89880404502D14FF0030801E04FF051
:100EF000040808FA06F848EA0508CCF808804D68A6
:100F0000D9F80060ED034D4601D5164300E0964345
:100F10002E604D68DAF80060AD03554601D51643E2
:100F200000E096432E604D68DBF80060ED025D4600
:100F300001D5164300E096432E604D68DEF8006050
:100F4000AD02754601D5164300E096432E60641C41
:100F50000D682A46E5407FF431AFBDE8F88F000008
:100F60000004014000001110001002400000014088
:100F700000080140000C0140001001400014014035
:100F80008068084000D001207047C26821EA02034F
:100F90000A4043EA0241016170470AB101617047AA
:100FA0000904FBE7014880687047000068000020E2
:100FB00070B5040025D094F83D00002520B984F8D0
:100FC0003C50204600F078FA242084F83D00206848
:100FD000016821F0010101602068016841F40041CD
:100FE00001602068016821F40041016000F0C8FB45
:100FF0004D4A6168914201D84C4900E04C49884211
:1010000001D2012070BD4B492368B0FBF1F15E684D
:1010100026F03F060E435E606368934206D94FF4A4
:10102000967359434FF47A73B1FBF3F12368491C6B
:101030001E6A26F03F06314319626168914210D85A
:101040004900401EB0FBF1F2521CC2F30B02042A0D
:1010500001D2042022E0B0FBF1F0401CC0F30B00F1
:101060001CE0A268F2B301EBC10303EB0116431EBF
:10107000B3FBF6F35B1C43F480431B0549D092B3EA
:1010800001EBC10202EB0111401EB0FBF1F0401C6C
:10109000C0F30B0040F4804040F400402168CA696E
:1010A0004CF6FF739A431043C861D4E9071001431B
:1010B0002068026822F0C00211430160D4E90301F4
:1010C00001432068826848F2FF339A4311438160EC
:1010D000D4E9050108432168CA6822F0FF021043E1
:1010E000C86001E00EE016E02068016841F00101EF
:1010F00001602564202084F83D00256384F83E507B
:10110000002070BD01EB4106431EB3FBF6F35B1CF0
:10111000B3E70120C2E701EB4101401EB0FBF1F053
:10112000401CC0F30B00B7E7A086010080841E00BE
:1011300000093D0040420F002DE9FF4F83B000251C
:10114000DDE910799A4693460446DDF8488000951B
:10115000FFF728FF064694F83D0020287CD119238C
:10116000012285492046009601F078FB0028F5D140
:1011700094F83C0001286FD0012084F83C002068DE
:101180000168C90703D1016841F0010101602068CD
:10119000016821F400610160222084F83D004020B4
:1011A00084F83E0025646762A4F82A90608D20854B
:1011B0007248E062CDE9008653465A4620460499BB
:1011C00001F054FA00287DD1208DDFF8B49120275A
:1011D00068B1012814D00228206801681ED041F4AB
:1011E000806101602068416980690090B6E02068F4
:1011F000416981690091016841F400710160ADE0CD
:101200002068016821F48061016072B6206841693C
:1012100081690091016841F400710AE041F40061C4
:10122000016072B62068416981690091016821F40A
:101230008061016062B691E0032868D801280CD073
:10124000022843464FF000024946204600960FD040
:1012500001F004FBB0BB10E08BE032464146204673
:1012600001F07BFB70BB20680069616A08706CE06C
:1012700001F0F4FA30BB72B634E02068016821F462
:101280008061016072B620680069616A0870606AF6
:10129000401C6062208D401E2085608D401E608550
:1012A000384846F2A8110068B0FBF1F0C0EBC0006E
:1012B00000EB80000090401E009008D0206840693C
:1012C000C04300E029E040070CD50098F3E744F85C
:1012D000305F6773A573206940F02000206162B61B
:1012E00025731AE02068016841F4007101602068EC
:1012F0000069616A0870606A401C6062218D491E45
:101300002185618D491E618562B621681BE03246E8
:101310004146204601F021FB18B1012007B0BDE88D
:10132000F08F20680069616A0870606A401C606222
:10133000218D491E2185618D491E618521684A697B
:10134000D24352070AD409690170606A401C606286
:10135000208D401E2085608D401E6085208D0028D8
:101360007FF46AAF84F83D7084F83E5084F83C50B6
:10137000D4E70220D2E70000020010000000FFFFC7
:1013800004000100740000202DE9FF4F83B09A464D
:10139000DDE9119793460446DDF84080FFF702FE31
:1013A000054694F83D0020287FD1192301224049A9
:1013B0002046009501F052FA002876D194F83C00BE
:1013C000012872D0012084F83C0020680168C90718
:1013D00003D1016841F0010101602068016821F436
:1013E00000610160212084F83D00402084F83E0027
:1013F00000262664C4F82480A4F82A90608D2085F5
:101400002C48E062CDE9007553465A4620460499BF
:1014100001F0AAF970B930E02A463946204601F0B9
:10142000CFFA58B1206C042804D12068016841F437
:1014300000710160012007B0BDE8F08F606A21688B
:1014400000780861606A401C6062218D491E89B283
:101450002185628D521E628522685369DB435B07DA
:101460000BD469B100781061606A401C6062208D05
:10147000401E2085608D401E6085208D0028CBD1C8
:101480002A463946204601F0C3F90028CAD154F84B
:101490003D0B016841F400710160202004F81E0931
:1014A000E67766770020C6E7FFE70220C3E7000083
:1014B000020010000000FFFF10B586B0002100916F
:1014C0000191029103910068104988421BD1104C90
:1014D000A06940F00800A061A069694600F008001A
:1014E00004904FF44060009012200190032003907C
:1014F0000848FFF755FCE06940F48000E061E069CE
:1015000000F48000049006B010BD000000580040B8
:1015100000100240000C014002488168027811442A
:101520008160704768000020074810B5016841F0ED
:1015300010010160032000F075F80F2000F006F89C
:1015400000F024F8002010BD0020024070B50D4DC1
:1015500004464FF47A712878B1FBF0F00A49096823
:10156000B1FBF0F000F0F2FA48B9102C07D20022DB
:101570002146501E00F036F800206C6070BD01203E
:1015800070BD000068000020740000200C4808B501
:10159000816941F001018161816901F001010091DE
:1015A000C16941F08051C161C06900F08050009074
:1015B0000448416821F0E06141F00071416008BDDC
:1015C0000010024000000140002809DB00F01F026B
:1015D000012191404009800000F1E020C0F8001195
:1015E00070470000F0B40E4B1B680C46C3F3022397
:1015F000C3F10705042D00D90425191D072901D2BF
:10160000002300E0DB1E012606FA05F1491E2140F9
:1016100099409E40761E16403143F0BC02F05EB900
:101620000CED00E0064900F0070208684FF6FF03E2
:10163000184040EA0220034A104308607047000047
:101640000CED00E00000FA052DE9F0470F4605001B
:1016500061D0434E306800F00700B84209D23068CC
:1016600020F0070038433060306800F00700B842CF
:1016700051D128683B4C810712D5400703D56068DB
:1016800040F4E06060602878000703D5606840F4AB
:10169000605060606068A96820F0F00008436060F6
:1016A0002878C00728D06868012810D0216802284F
:1016B00010D0890700292EDA616821F00301014367
:1016C0006160FFF76FFC804641F288390DE02168C8
:1016D0008903EFE78901EDE7FFF764FCA0EB080160
:1016E000494502D90320BDE8F0876068696800F0C9
:1016F0000C00B0EB810FEFD1306800F00700B8426A
:101700000BD9306820F0070038433060306800F0B3
:101710000700B84201D00120E5E72878400705D549
:101720006068E96820F4E06008436060287800079A
:1017300006D56068296920F4605040EAC100606005
:1017400000F03EF86168084AC1F30311515CC840DB
:101750000649086006480068FFF7F8FE0020C2E767
:101760000020024000100240CA73000874000020EC
:101770006C000020014800687047000074000020E1
:101780000448054900684968044AC1F30221515CD4
:10179000C84070477400002000100240DA7300084F
:1017A0000448054900684968044AC1F3C221515CF4
:1017B000C84070477400002000100240DA7300082F
:1017C00012A185B00FC98DE80F0014A0144A00685B
:1017D00004905168134801F00C03042B10D0082B1F
:1017E0000ED1C1F38343C9031DF803000AD5516824
:1017F00004AAC1F34041515C0A4A5043B0FBF1F0E6
:1018000005B0704708494843FAE7000002030405A1
:10181000060708090A0B0C0D0E0F1010010200003C
:101820000010024000127A0000093D002DE9F84F37
:10183000040070D02078C04DC00749D06868C0F35C
:101840008100012807D06868C0F38100022809D10F
:101850006868C00306D52868800339D56068002809
:10186000E7D035E06068B0F5803F0BD010B1B0F53F
:10187000A02F11D0286820F480302860286820F438
:10188000802002E0286840F480302860606890B1D1
:10189000FFF788FB06460AE0286840F480202860AD
:1018A000F0E700BFFFF77EFB801B642873D8286831
:1018B0008003F7D50CE0FFF775FB064605E000BF97
:1018C000FFF770FB801B6428F0D828688003F7D4EA
:1018D00020789A4E80074FF001094FF0000839D563
:1018E000686810F00C0F07D06868C0F38100022808
:1018F00009D16868C00306D42868800714D5206918
:10190000012808D110E02069B0B1C6F80090FFF7B7
:1019100049FB074605E00AE1FFF744FBC01B02282C
:10192000C4D828688007F7D52868616920F0F800D6
:1019300040EAC10028600DE0C6F80080FFF732FBE6
:10194000074604E0FFF72EFBC01B022823D82868B7
:101950008007F7D4207800072CD57948A169D9B140
:10196000C0F80090FFF71EFB074604E0FFF71AFBE4
:10197000C01B02280FD8686A8007F7D571484FF45A
:10198000FA510068B0FBF1F0009000BF0098411ED2
:101990000091FAD20EE080E0C0F80080FFF702FB71
:1019A000074604E0FFF7FEFAC01B022875D8686AF4
:1019B0008007F7D42078400760D5E8690027C00089
:1019C00008D4E86940F08050E861E869012700F038
:1019D000805000905C480168C90513D401688346B3
:1019E00041F480710160FFF7DDFA824606E000BF36
:1019F000FFF7D8FAA0EB0A0064284ED8DBF8000005
:101A0000C005F5D5E06801280AD008B1052813D033
:101A1000286A20F001002862286A20F0040002E011
:101A2000286A40F001002862E06841F2883B98B1E2
:101A3000FFF7B8FA82460BE0286A40F004002862FB
:101A4000EEE700BFFFF7AEFAA0EB0A0159455AD8FE
:101A5000286A8007F6D50CE0FFF7A4FA824605E075
:101A6000FFF7A0FAA0EB0A0159454CD8286A800775
:101A7000F6D41FB1E86920F08050E861E06988B3CE
:101A80006968C1F38101022944D00228C6F8608048
:101A900004D0FFF787FA044638E034E0FFF782FA13
:101AA000074604E0FFF77EFAC01B02282BD82868FF
:101AB0008001F7D4206AB0F5803F05D16868A1683D
:101AC00020F4003008436860D4E9080108436968DD
:101AD00021F4741108436860C6F86090FFF762FA59
:101AE000044606E025E000BFFFF75CFA001B022871
:101AF00009D828688001F7D51BE000BFFFF752FA2C
:101B0000001B022802D90320BDE8F88F2868800155
:101B1000F4D40EE00128F7D06868226A00F480311E
:101B2000914204D1616A00F47010884201D0012012
:101B3000EAE70020E8E7000000100240000042420F
:101B400080044242740000200070004010B5401E26
:101B5000B0F1807F01D3012010BD4FF0E02460611F
:101B60000F21601701F0BAFE0020A061072020615C
:101B7000002010BD7047704770B590F83C20012AD6
:101B800026D0012480F83C40022280F83D200368E2
:101B90005A689D6822F070060A6832435A600D4BFD
:101BA00002689A4208D0B2F1804F05D00A4B9A429F
:101BB00002D00A4B9A4204D1496825F080031943A8
:101BC000916080F83D40002180F83C10084670BDCF
:101BD000022070BD002C01400004004000080040BD
:101BE00010B5040003D094F83D0010B107E00120C7
:101BF00010BD002084F83C00204600F01FF80220B1
:101C000084F83D00211D206801F0F8FB012084F8D4
:101C1000460084F83E0084F83F0084F8400084F8D1
:101C2000410084F8420084F8430084F8440084F8BA
:101C3000450084F83D00002010BD000008B5006894
:101C40000B49884212D10B48C16941F00401C161BE
:101C5000C069002200F00400009003211E20FFF75D
:101C6000C1FCBDE808401E20FFF7AEBC08BD000067
:101C7000000800400010024090F83D10012901D0FA
:101C800001207047022180F83D100168CA6842F0C7
:101C90000102CA6000680B49884208D0B0F1804F49
:101CA00005D00949884202D00849884204D1816898
:101CB00001F00701062903D0016841F0010101602C
:101CC00000207047002C0140000400400008004044
:101CD00070B5044690F83C00012817D0012584F81F
:101CE0003C50022084F83D002068826822F0770290
:101CF00022F47F4282600868502830D00DDC202812
:101D00004DD005DC98B310283BD148E0022070BDCF
:101D1000302844D0402834D139E0602828D07028B9
:101D200006D0B0F5805F2CD0B0F5005F29D10AE075
:101D3000CB68D1E90121206801F096FB2068816819
:101D400041F0770109E0CB68D1E90121206801F079
:101D50008BFB2068816841F48041816011E0CA6892
:101D60004968206801F034FC5021206807E016E043
:101D7000CA684968206801F03CFC6021206801F0D5
:101D80007DFB84F83D50002084F83C0070BDCA689B
:101D90004968206801F01CFC40212068EFE72268B8
:101DA00001461046EBE72DE9F0410D46040003D053
:101DB00094F83D0018B108E00120BDE8F081002052
:101DC00084F83C00204600F041F8022084F83D00F1
:101DD0002068816844F2070291438160211D2068D8
:101DE00001F00CFB226890689169166A2B68AF6954
:101DF000034340F20330814341EA0721A868EF69B9
:101E000008434FF6FC418843E96840EA0720014354
:101E100028692F6A000140EA0730084369686D6944
:101E200026F0220646EA0515294393602268906150
:101E300054F8460B0162012004F81F09E075207672
:101E4000E0762077A0750020B7E7000000B585B0E8
:101E500000210091019102910391194B02681949E7
:101E600019489A4212D18A6942F400628A618A69E9
:101E700002F4006204928A6942F004028A6189696C
:101E800001F0040104914FF4407113E0B2F1804F6E
:101E900014D1CA6942F00102CA61CA6902F00102A2
:101EA00004928A6942F004028A61896901F004019E
:101EB0000491032100916946FEF772FF05B000BD51
:101EC000002C01400010024000080140704770B52E
:101ED0000446006801694FF00005C943890715D41D
:101EE000C168C943890711D4E91E01610120207727
:101EF000206880698007204602D0FFF7E7FF04E0F2
:101F000000F0BEF8204600F061F9257720680169ED
:101F1000C943490717D4C168C943490713D46FF0AF
:101F200004010161022020772068806910F4407F5D
:101F3000204602D0FFF7CAFF04E000F0A1F82046D7
:101F400000F044F9257720680169C943090716D4D0
:101F5000C168C943090712D46FF008010161042068
:101F600020772068C0698007204602D0FFF7AEFFC7
:101F700004E000F085F8204600F028F92577206875
:101F80000169C943C90617D4C168C943C90613D436
:101F90006FF010010161082020772068C06910F4FB
:101FA000407F204602D0FFF791FF04E000F068F880
:101FB000204600F00BF9257720680169C943C9075D
:101FC00008D1C168C943C90704D1891E01612046EF
:101FD00000F0FEF820680169C943090609D4C16808
:101FE000C943090605D46FF0800101612046FFF75F
:101FF000C1FD20680169C943490609D4C168C943C4
:10200000490605D46FF040010161204600F022F935
:1020100020680169C94389060BD4C168C943890690
:1020200007D46FF0200101612046BDE87040FFF742
:10203000A2BD70BD00B585B0002100910191029153
:10204000039100680B49884211D10B48816941F026
:10205000040181618069694600F004000490C02099
:1020600000900220019003900448FEF799FE05B00D
:1020700000BD0000000400400010024000080140C4
:10208000704770B5044690F83C000D4601280AD010
:10209000012084F83C0042B1042A18D0082A2AD032
:1020A0000C2A4DD139E0022070BD206801F0EEF914
:1020B0002068816941F0080181612068816921F00F
:1020C00004018161206881692A69114311E0206857
:1020D00001F004FA2068816941F40061816120689F
:1020E000816921F480618161206881692A6941EAFE
:1020F0000221816124E0206801F01CFA2068C16996
:1021000041F00801C1612068C16921F00401C16189
:102110002068C1692A69114311E0206801F036FA8C
:102120002068C16941F40061C1612068C16921F47E
:102130008061C1612068C1692A6941EA0221C161E7
:10214000002084F83C0070BD10B5040003D094F862
:102150003D0010B107E0012010BD002084F83C00D4
:10216000204600F01FF8022084F83D00211D206861
:1021700001F044F9012084F8460084F83E0084F818
:102180003F0084F8400084F8410084F8420084F85D
:10219000430084F8440084F8450084F83D000020A2
:1021A00010BD000008B500680649884208D10648FD
:1021B000C16941F00201C161C06900F002000090F4
:1021C00008BD0000000400400010024070470000FD
:1021D00070B5194988422ED100F0D8FF1848174E23
:1021E00031460068FEF756F8FEF7F7F905B21548D4
:1021F00031460068FEF74EF8FEF7EFF904B21248D8
:1022000031460068FEF746F8FEF7E7F900B22A46C5
:10221000214602F091FF0D4C012020706088401C87
:1022200080B26080C82806D14FF480410848FEF78C
:10223000ACFE0020608070BDBC0100200000C842E0
:1022400048000020400000204400002062000020E0
:10225000001001407047704770470000F8B50268F1
:1022600004461068D168536910F00F0F4FF0000555
:1022700053D003F0010601F4907737435FD0C207D3
:1022800005D0CA0503D5226C42F001022264420740
:1022900005D5DA0703D0226C42F0020222648207DD
:1022A00005D5DA0703D0226C42F00402226402074B
:1022B00007D501F02002324303D0226C42F008021D
:1022C0002264226C002A34D0800604D5880602D508
:1022D000204601F0C0F920684069216CC0F38010ED
:1022E000090700D430B3204601F09DF92068416908
:1022F00049061BD5416921F040014161A06BA8B19D
:1023000058494163A06BFEF7D5FC002811D0A06BA3
:10231000416B01B0BDE8F040084783060FD58B063E
:102320000DD52046BDE8F84001F095B92046FFF7ED
:1023300093FFF8BD2046FFF78FFF2564F8BD266B9D
:102340002023012E52D1C60650D5CE064ED5106898
:1023500050680090506940062AD5A16B0868406813
:102360000004000CEAD0A68D8642E7D9E085886992
:10237000202818D0D06820F48070D060206841698F
:1023800021F0010141612068416921F04001416172
:1023900084F83E3025632068C16821F01001C160D7
:1023A000A06BFEF764FCA08DE18D401A81B219E0AC
:1023B000A08DE18D401A81B2E08D0028BED00029A9
:1023C000BCD0D06820F49070D0602068426922F0C0
:1023D0000102426184F83E3025632068C26822F021
:1023E0001002C2602046FFF736FFF8BD05062BD568
:1023F0000D0629D594F83D002128F6D1A068B0F546
:10240000805F01D12069B0B1206A411C216221683E
:1024100000784860E08C401E0004000CE084E4D1A9
:102420002068C16821F08001C1602068C16841F066
:102430004001C160F8BD206A0088C0F30800506008
:10244000206A801C2062E5E74006F3D54806F1D5F6
:10245000D168204621F04001D16084F83D3000F081
:10246000D8F8F8BD1736000870B5040004D094F809
:102470003D00002510B106E0012070BD84F83C50FD
:10248000204600F023F8242084F83D002068C1682D
:1024900021F40051C160204601F038F9206801693B
:1024A00021F4904101612068416921F02A014161D4
:1024B0002068C16841F40051C1602564202084F87F
:1024C0003D0084F83E00002070BD000030B585B0AE
:1024D0000024009401940294039400681B498842EC
:1024E00032D11B48816941F480418161816901F4E5
:1024F00080410491816941F0080181618069154D35
:1025000000F0080004904020009002200190032079
:10251000039069462846FEF743FC8020CDE900047D
:10252000694628460294FEF73BFC0B48416841F09F
:10253000E06141F004014160002206212520FFF7FF
:1025400051F82520FFF740F805B030BD00380140B4
:1025500000100240000C01400000014070470000E4
:102560002DE9F843044690F83D001F4616460D46F7
:1025700020284CD1C5B1BEB194F83C00012846D00A
:10258000012084F83C004FF00008C4F8408021206E
:1025900084F83D00FEF706FDA6848146E684A06827
:1025A000B0F5805F03D004E00120BDE8F883206926
:1025B00028B12E465FF0000584F83C800EE000262E
:1025C000FAE78021204601F0FDF8A0B9AEB116F877
:1025D000010B21684860E08C401EE084E08C4B4693
:1025E0004FF0000200970028EBD14FF04001204649
:1025F00001F0E8F830B10320D7E735F8020BC0F35B
:102600000800E6E7202084F83D000020CDE7022006
:10261000CBE77047FEE701684A69D24352050FD401
:102620006FF480624A61002140F8301F202242731B
:102630008173026942F00402026101730120704754
:10264000002070471FB500228DF80C20FF240123C5
:1026500003AA8DE81C000A4601460348FEF76CFDFC
:102660009DF80C0004B010BD900000202DE9F84F3B
:102670000446006889460B9D01689846174641F458
:10268000806101602068016841F4807101600095FB
:102690004FF0011B0022594620460A9B00F0DEF84D
:1026A0004FF4007A40B120680068C00501D5C4F835
:1026B00040A00320BDE8F88F216809F0FE00086102
:1026C0002B46284920460A9A00F0FCF8F0BB206807
:1026D0004169806900902A4620460A9900F070F905
:1026E00040B1206C04283AD12068016841F400719F
:1026F000016034E0FEB2B8F1010F09D02168380A58
:1027000008612A4620460A9900F05AF90028E8D1C3
:10271000206806612A4620460A9900F051F90028EF
:10272000DFD12068016841F48071016000950022CA
:10273000594620460A9B00F091F80028B3D1216841
:1027400009F0FF0040F00100086100E007E02B46BF
:10275000044920460A9A00F0B5F80028AAD00120C2
:10276000A8E70000020001002DE9F84304460068D4
:102770000D46DDE9089701689846164641F48071D8
:1027800001604B4600224FF001112046009700F0F7
:1027900065F848B120680068C00502D54FF40070A4
:1027A00020640320BDE8F883216805F0FE0008617D
:1027B0003B464A461549204600F084F888B920680F
:1027C0004169806900903A464946204600F0F8F891
:1027D00048B1206C042804D12068016841F40071DC
:1027E00001600120DEE7F5B2B8F1010F09D02168E0
:1027F000300A08613A464946204600F0E1F80028D0
:10280000E7D1206805610020CCE70000020001004C
:1028100070B516460D4604460DE02046FFF7FBFE58
:1028200008B1012070BD681C05D0FEF7BBFB801B02
:10283000A84207D835B120684069C0434007ECD4AE
:10284000002070BD002044F8300F20216173A07378
:10285000216941F0200121612073E2E72DE9F04771
:102860001E4690460D460446C1F30747DDF820900A
:1028700008E0701C06D0FEF795FBA0EB0900B04203
:102880000FD876B12068012F18D0806925EA0000A2
:102890000004000C14D000214145EAD00020BDE81E
:1028A000F087002044F8300F20216173A073216964
:1028B00041F02001216120730120F0E74069E5E744
:1028C0000121E9E72DE9F0479A4691460E46044674
:1028D00000254FF02008C1F3074725E02068406934
:1028E000C043400514D42068016841F400710160C0
:1028F00021686FF480604861256384F83D8084F826
:102900003E50206C40F00400206484F83C501FE0EE
:10291000B9F1FF3F08D0FEF745FBA0EB0A0149459E
:102920000CD8B9F1000F09D02068012F13D08069AD
:1029300026EA00000004000C0BD0CFE744F8305F1B
:1029400084F80D80A573206940F020002061257374
:102950000120BDE8F0874069EAE72DE9F041002554
:1029600090460E460446202717E04069C043C00643
:102970000CD454F8301B6FF01000486144F8105923
:102980006777A577206A2062257717E0FEF70AFBB4
:10299000A0EB0800B04208D83EB120684169C943A5
:1029A0004906E2D40020BDE8F08144F8305F677347
:1029B000A573206940F02000206125730120F2E713
:1029C00070B516460D4604460DE02046FFF723FE7F
:1029D00008B1012070BD681C05D0FEF7E3FA801B2A
:1029E000A84207D835B120684069C0430006ECD43E
:1029F000002070BD002044F8300F20216173A073C7
:102A0000216941F0200121612073E2E74FF48051F8
:102A10000148FEF7B5BA0000000C014002464FF431
:102A200000510148FEF7B9BA000C014002464FF4CC
:102A300080510148FEF7B1BA000C014070B5044660
:102A400000F090FC0020FFF7E9FF0025200601D5EB
:102A5000012000E00020FFF7E9FF6006040E0220DD
:102A6000FEF786F90120FFF7D9FF0220FEF780F973
:102A70000020FFF7D3FF0220FEF77AF96D1CEDB2BC
:102A8000082DE3D370BD10B500F06CFC0120FFF7FA
:102A9000CDFF0120FFF7C2FF0420FEF769F90020F7
:102AA000FFF7C4FF0420FEF763F9BDE810400020E3
:102AB000FFF7B4BF10B500F055FC0020FFF7AEFFE4
:102AC0000020FFF7B3FF0420FEF752F90120FFF7C3
:102AD000A5FF0120FFF7AAFFBDE810400420FEF784
:102AE00047B910B5002400F02BFC0120FFF79EFF32
:102AF0000120FEF73DF90120FFF790FF0120FEF7CE
:102B000037F907E0641CE4B2FA2C03D9FFF7D2FFCF
:102B1000012010BDFFF77AFF0028F3D110BD10B5DA
:102B20001446FFF78FFD2070012010BDF8B5154643
:102B30001C460E4607466A46FFF7F1FF01209DF846
:102B40000010A8400CB1084301E021EA0000C2B225
:102B50008DF800203146384600F02BF8F8BD2DE9FD
:102B6000F84314461D460F4680466A46089EFFF706
:102B7000D6FF00281BD0611CFF20C4F1080200FA18
:102B800001F12A44521ED0400143C5F1080086409D
:102B9000F2B2C4F10700C2409DF8000008401043A3
:102BA0008DF80000C2B23946404600F002F8BDE898
:102BB000F88307B502AB012200F002F80EBD000059
:102BC0003EB5FF24CDE900320A46014602940123B6
:102BD0000348FEF7D9FB08B100203EBD01203EBDF1
:102BE0009000002010B5022000F011F8032000F042
:102BF00020F8002000F014F8002000F02FF800204A
:102C000000F026F8BDE81040002000F01BB808B521
:102C10000323009002226B21D020FFF7A0FF08BD04
:102C200008B50223009004221C21D020FFF797FF53
:102C300008BD08B50223009004221B21D020FFF715
:102C40008EFF08BD034601223721D020FFF76EBF5B
:102C5000034605226A21D020FFF768BF03460622FB
:102C60006B21D020FFF762BF2DE9F04186B0002430
:102C700029480094019402940394816941F0100161
:102C80008161816901F010010491816941F02001A5
:102C90008161816901F020010491816941F00401A1
:102CA0008161816901F004010491816941F00801A9
:102CB00081618069194F00F008004FF4604504906D
:102CC000012229463846FEF768F9DFF854804FF4B0
:102CD0004056002231464046FEF75FF90220CDE91A
:102CE000024000950125694601953846FEF758F8DF
:102CF0000320CDE90250CDE9006569464046FEF764
:102D00004FF83011CDE90004694640460294FEF7C1
:102D100047F806B0BDE8F081001002400010014005
:102D2000000C01400D4810B50B4901600C49416091
:102D300000214FF480428160C0E90312416181614A
:102D4000C1610162FEF734F9002803D0BDE81040EC
:102D5000FDF78BBF10BD0000005800409000002020
:102D6000801A060010B58CB024216846FDF722FABF
:102D700000241648099414490A94C0E900144FF637
:102D8000FF71C0E902410461446184610120CDE921
:102D90000004CDE902040494CDE905400794694696
:102DA0000A480894FEF7FFFF08B1FDF75EFF09949B
:102DB00009A906480A94FEF7DFFE002801D0FDF7B6
:102DC00054FF0CB010BD0000002C0140E4000020B6
:102DD00010B58CB024216846FDF7ECF900241548A5
:102DE00009944FF080410A94C0E900144FF6FF7136
:102DF000C0E90241046184610120CDE90004CDE90C
:102E000002040494CDE905400794694609480894F2
:102E1000FEF7C9FF08B1FDF728FF099409A9054885
:102E20000A94FEF7A9FE002801D0FDF71EFF0CB0A2
:102E300010BD00002C01002010B58AB000240794BA
:102E40001C2168460894FDF7B5F91A481849C0E9ED
:102E500000144FF6FF71C0E9024104618461FFF77D
:102E600073F908B1FDF701FF079407A91148089409
:102E7000FEF782FE08B1FDF7F8FE6020CDE9000400
:102E80000294002269460B480494FFF7FAF808B14F
:102E9000FDF7EBFE042269460648FFF7F2F808B199
:102EA000FDF7E3FE0348FFF7C5F80AB010BD0000C8
:102EB000000400407401002010B586B000241748BB
:102EC00000940194029403940494134905940160BE
:102ED0004FF43171C0E9011440F2F311C0E9031459
:102EE0008461FEF77DFE08B1FDF7BFFE4FF4805010
:102EF000009069460948FEF7EBFE08B1FDF7B5FE04
:102F0000049404A905480594FEF736FE002801D074
:102F1000FDF7ABFE06B010BD00080040BC0100206C
:102F20000C4810B50A4901604FF4E13141600021BD
:102F300081600C22C160C0E904128161C161FFF7A8
:102F400093FA002803D0BDE81040FDF78EBE10BDF7
:102F50000038014004020020FEE7FEE770B50024BF
:102F600004F1B000C0B200F066FC002000F063FC89
:102F7000102000F060FC0025002000F073FC6D1CA8
:102F8000EDB2802DF8D3641CE4B2082CE8D370BDF8
:102F900010B56420FDF7DAFEAE2000F04CFC0020F6
:102FA00000F049FC102000F046FC402000F043FCFB
:102FB000B02000F040FC812000F03DFCFF2000F03C
:102FC0003AFCA12000F037FCA62000F034FCA82039
:102FD00000F031FC3F2000F02EFCC82000F02BFC5C
:102FE000D32000F028FC002000F025FCD52000F0C4
:102FF00022FC802000F01FFCD82000F01CFC0520E3
:1030000000F019FCD92000F016FCF12000F013FCB0
:10301000DA2000F010FC122000F00DFCDB2000F0A4
:103020000AFC302000F007FC8D2000F004FC142086
:1030300000F001FCBDE81040AF2000F0FCBB10B573
:103040000446B031C8B200F0F6FB102040EA14107C
:1030500000F0F1FB04F00F00BDE8104000F0EBBB06
:103060002DE9F041203A00240D468046D6B27F2853
:1030700003D900208D1C8046EDB2102B29460FD0BD
:10308000FFF7DDFF164906EB460001EB4005285D22
:1030900000F0E8FB641CE4B2062CF8D3BDE8F08134
:1030A000FFF7CDFF0F4F00BF04EB0610385C00F0B8
:1030B000D9FB641CE4B2082CF6D36D1CE9B240467F
:1030C000FFF7BDFF5FF0000404EB06103844007A00
:1030D00000F0C8FB641CE4B2082CF5D3DEE7000066
:1030E0006C5F0008946100082DE9F05F0026DDF8B0
:1030F00028901D4692468B46804634464FEA590733
:1031000023E0281B401EC1B20A2002F046FEBAFB93
:10311000F0F00A21B0FBF1F201FB120026B9691EA2
:103120008C4201DA38B101263030C2B207FB04808C
:10313000C0B24B4604E007FB0480C0B24B462022DD
:103140005946FFF78DFF641CE4B2AC42D9D3BDE809
:10315000F09F2DE9F041984617460E46044600259B
:103160000DE0434631462046FFF77AFF0834E4B2CB
:10317000782C02D90024B61CF6B26D1CEDB27A5D33
:10318000002AEED1BDE8F081704700002DE9F04F34
:1031900089B0694C07A8CDE9004004F1260106ABCF
:1031A00002AA881F01F06AF92088C0057ED502981E
:1031B000FDF705FA6FF01D063146FDF7DBF8054611
:1031C00060600398FDF7FBF93146FDF7D3F88046C0
:1031D000A0600498FDF7F3F93146FDF7CBF80746F8
:1031E000E0600598FDF7EBF93146FDF7C3F80646B8
:1031F000206101212846FDF7BDF83946FDF74AF860
:1032000005464FF0404739464046FDF743F8314602
:10321000FDF740F82946FCF7E5FFFDF70BFA00F053
:10322000D5FCDFF818914FF0663842464B46FDF763
:1032300054F9FDF712FA6061E06801210546FDF7D7
:1032400099F882462946FDF725F80546A0683946D3
:103250000646FDF71FF83146FDF71CF82946FDF735
:1032600013F84FF07E51FCF7BDFFFDF7E3F9074679
:103270000D4601216068FDF77DF83146FDF70AF83B
:10328000064650462169FDF705F83146FCF7AAFFCE
:10329000FDF7D0F93A462B4600F0E0FE42464B4699
:1032A000FDF71BF9FDF7D9F9A06100E040E02169C5
:1032B00000910846FCF7EEFFE16807468B4658464A
:1032C000FCF7E8FFA16806468A465046FCF7E2FF95
:1032D0006168054688464046FCF7DCFF2946FCF756
:1032E00081FF3146FCF7D0FF3946FCF7CDFFFDF7F3
:1032F000A1F906460D4640460099FCF7CBFF07466C
:1033000059465046FCF7C6FF3946FCF76BFF0121D2
:10331000FDF730F8FDF78EF932462B4600F09EFEA1
:103320004FF0C0424B46FDF7D8F8FDF796F9E06143
:1033300009B0BDE8F08F00002C00002066A64C40CC
:103340001FB54FF4805000900020019001200290A2
:103350000320039069460248FDF722FD1FBD0000CF
:10336000000C01401FB54FF48050009001200190E7
:10337000002002900320039069460248FDF710FDEB
:103380001FBD0000000C01407047FEF7C5B830B506
:103390008FB028216846FCF70DFF14210AA8FCF71E
:1033A00009FF01210804CDE9001000240294022540
:1033B0000491CDE907504FF4E01009906846FEF7FC
:1033C00035FA08B172B6FEE70F20CDE90A054FF4D1
:1033D0008060CDE90C4002210AA80E94FEF734F972
:1033E000002801D072B6FEE70FB030BD7047000074
:1033F0000148FEF76CBD0000BC010020F0B502687A
:10340000164B174C174D4FF08047984205D0B842E5
:1034100003D0A04201D0A84203D122F070064A682E
:103420003243984205D0B84203D0A04201D0A8420E
:1034300003D122F44074CA6822434C6922F080020E
:10344000224302608A68C2620A688262984201D19D
:103450000969016301214161F0BD0000002C0140B8
:10346000000400400008004010B5846842EA0322CE
:1034700024F47F440A432243826010BD826822F014
:1034800070020A4342F007018160704730B5026A5A
:1034900022F001020262026A4368846924F0730523
:1034A0000C682C4322F002058A682A430A4DA84280
:1034B0000BD122F00805CA6823F440732A434D69F2
:1034C00022F004021D438B692B43436084614968E9
:1034D0004163026230BD0000002C014030B5026A39
:1034E00022F010020262026A436884690D6824F4C3
:1034F000E64444EA05248D6822F0200242EA0512DF
:103500000B4DA8420ED1CD6822F0800242EA05128E
:103510004D6923F4406343EA85038D6922F040023C
:1035200043EA85034360846149688163026230BD78
:10353000002C014030B5026A22F480720262036AF4
:103540004268C46923F4007324F073050C682C43AB
:103550008D6843EA05230C4DA8420ED1CD6823F4B3
:10356000006343EA05234D6922F4405242EA051202
:103570008D6923F4806342EA05124260C4614968A0
:10358000C163036230BD0000002C014030B5026A07
:1035900022F480520262046A4268C3690D6823F40F
:1035A000E64343EA05238D6824F4005444EA0534D5
:1035B000064DA84204D14D6922F4804242EA8512A8
:1035C0004260C36149680164046230BD002C01405F
:1035D00010B5036A046A24F001040462846924F0CB
:1035E000F00444EA021423F00A020A4384610262EE
:1035F00010BD10B5036A23F0100303628369046AE7
:1036000023F4704343EA023224F0A00343EA011199
:103610008261016210BD10B5406A0021C185C1847C
:10362000FEF71AFE10BD0168CA6822F49072CA60E3
:1036300001684A6922F001024A61016B012904D143
:103640000168CA6822F01002CA60202180F83E108A
:1036500000210163704708B590F83E10222901D07F
:10366000022008BD82684FF480539A4201D101695B
:1036700021B1816A9A421BD04AB10AE00268816A8C
:103680005268C2F308020A80816A891C08E0026954
:1036900072B10268526802F07F020A70816A491CA6
:1036A0008162C18D491E0904090CC18503D019E04E
:1036B00002685268F1E70168CA6822F02002CA6015
:1036C0000168CA6822F48072CA6001684A6922F0FF
:1036D00001024A61202180F83E10016B012903D0CC
:1036E000FEF73CFF002008BD002101630168CA68A5
:1036F00022F01002CA6001680A68D20602D50A6880
:1037000049680091818DFEF7A6FDEBE770B5044690
:1037100000680169E26821F44051114301612169A7
:10372000A0680843616908432168CA6841F20C63D4
:103730009A430243CA6020684169A26921F440713A
:10374000114341611E492068884202D1FEF728F8E2
:1037500001E0FEF715F800EBC00101EB0012606814
:1037600064218000B2FBF0F3B3FBF1F36FF01806B5
:103770007343B2FBF0F5B2FBF0F605EB83053223A1
:1037800003EB0515B5FBF1F5B6FBF1F605F0F00519
:1037900005EB0615B2FBF0F6B2FBF0F0B0FBF1F072
:1037A0006FF01802504306EB800003EB0010B0FBF3
:1037B000F1F0216800F00F002844886070BD00001F
:1037C000003801402DE9F041984617460E46044660
:1037D000069D1DE0681C1BD02DB1FDF7E3FBA0EB9F
:1037E0000800A84214D92068C16821F4D071C160D2
:1037F0002068416921F001014161202084F83D00E9
:1038000084F83E00002084F83C000320BDE8F081ED
:103810002068006836EA000004D00020B842D9D001
:103820000020F3E70120F9E70148FEF717BD00008B
:1038300004020020FEE710B50446FFF724F97820C3
:10384000FFF7FCF8FFF74DF90020FFF7F7F8FFF757
:1038500048F92046FFF7F2F8FFF743F9BDE81040BA
:10386000FFF728B910B50446FFF70DF97820FFF7E8
:10387000E5F8FFF736F94020FFF7E0F8FFF731F9F8
:103880002046FFF7DBF8FFF72CF9BDE81040FFF703
:1038900011B900000FB4054B10B503A9044A0298F2
:1038A00000F0AAF810BC5DF814FB0000114B0008F2
:1038B00078000020490050EAC12018BF04204A0DBA
:1038C00018BF40F0010040F2FF72B2EB515F08BF39
:1038D00040F00200012808BF052070470907090EC3
:1038E000002804DB00F1E02080F80014704700F0AD
:1038F0000F0000F1E02080F8141D70472DE9F04121
:103900004F1E00EBC7010446D1E9000115461E46D3
:1039100037F006020DD02A463346FCF7DEFD7F1E47
:1039200004EBC703D3E90023FCF730FD37F00602B0
:10393000F1D1022F25D0042F13D0062F18BFBDE8D8
:10394000F0812A463346FCF7C8FDD4E90A23FCF788
:103950001DFD2A463346FCF7C0FDD4E90823FCF7D9
:1039600015FD2A463346FCF7B8FDD4E90623FCF7DB
:103970000DFD2A463346FCF7B0FDD4E90423FCF7DD
:1039800005FD2A463346FCF7A8FDD4E90223FCF7DF
:10399000FDFC2A463346FCF7A0FDD4E90023BDE830
:1039A000F041FCF7F3BC0122FCF7DEBFFCF7EEBCF4
:1039B0000022134610461146FCF767BF024A00205A
:1039C0001107FCF7D1BF000001FDFFFF02E008C8AE
:1039D000121F08C1002AFAD170477047002001E089
:1039E00001C1121F002AFBD1704700000149086085
:1039F000704700007C0000202DE9FF4F89B09B46F6
:103A00000446002506E025280BD05A460B9990471E
:103A1000641C6D1C20780028F5D10DB02846BDE847
:103A2000F08F0027B8460122474900E0074314F809
:103A3000013F203B02FA03F00842F7D120782E28FC
:103A400019D114F8010F47F004072A280ED06FF09F
:103A50002F022078A0F1300109290CD808EB880149
:103A600002EB410100EB0108641CF2E70A98641CB8
:103A700050F8048B0A9020780028CED0642808D013
:103A8000692806D075281ED05A460B9990476D1CA0
:103A900058E00A994FF00A0901C90A91002802DA90
:103AA00040422D2102E0390504D52B218DF820104C
:103AB000012103E0F90704D02021F7E78A4608AE88
:103AC0000DE00021FAE70A994FF00A0901C90A91AD
:103AD000F7E74946FCF7DDFD303106F8011D002807
:103AE000F7D1ADEB060000F12009780701D44FF0C3
:103AF0000108C84502DDA8EB090000E0002080466F
:103B0000002706E008A85A46C05D0B9990476D1C37
:103B10007F1C5745F6DB04E030205A460B9990474E
:103B20006D1CB8F10001A8F10108F5DC05E016F8FC
:103B3000010B5A460B9990476D1CB9F10001A9F190
:103B40000109F4DC641C65E7092801002DE9FE4F3A
:103B500007460E460025684600F0E6FF00246FF099
:103B60000F0AE8464FF0010957F8240056F82410D0
:103B7000401A00D54042FCF722FD5146FCF7FAFB03
:103B800058F8241011F0FF4F0BD0FCF7B5FB4FF0A5
:103B90007E51FCF779FB0A4920F00040884205DCA1
:103BA00007E0084908440849884202D309FA04F0AA
:103BB0000543641C032CD7DB2846BDE8FE8F0000BC
:103BC000295C0F3E666666C19A99D9002DE9F04DD1
:103BD0008D4F21F0004A86B005460C46BA452ADBD7
:103BE000AAEB070028430AD08848824501DC1AD195
:103BF000CDB106B02846BDE8F04DFFF7D4BE844AEB
:103C0000844B2846FCF769FC07460E46824A834BE4
:103C100028462146FCF761FC06B03A463346BDE82B
:103C2000F04DFCF7B3BB0120FFF7E0FE06B0BDE8A6
:103C3000F04DFFF7BDBE7A48824542DABAF1795FAE
:103C40000BDA2846FFF736FE042808BFFFF7B6FE5A
:103C5000284606B02146BDE8F08D2A460B461046A0
:103C6000FCF73BFC834602466E480E460B46062197
:103C70007844FFF743FE5A463346FCF72EFC804655
:103C800069488A465A46334604217844FFF736FE8F
:103C90005A463346FCF721FC00223B46FCF776FBF4
:103CA00002460B4640465146FCF7EFFD2A462346A6
:103CB000FCF713FC06B02A462346BDE8F04DFCF79E
:103CC00065BB284624F0004100223D463B46FCF7F8
:103CD00001FC4FF0FF32FCF747FE06460246534810
:103CE0000F460B4606217844FFF708FE32463B4656
:103CF000FCF7F3FBCDE900014D4832463B46042179
:103D00007844FFF7FBFD32463B46FCF7E6FB00221A
:103D10002B46FCF73BFB834602913046394602F0C6
:103D2000C3F8804643480D46504517DCDDE90001E5
:103D30005A46029BFCF7A9FD42462B46FCF7CDFBF9
:103D400042462B46FCF722FB0122FCF70DFE304ACF
:103D5000304BFCF7BCFB304A304B4CE04FF0000AD4
:103D600052460B464046FCF711FBCDE90310524684
:103D70002B4610461946FCF7B0FB32463B46FCF793
:103D8000A9FBDDE90332FCF780FD06460F46DDE9BD
:103D900000015A46029BFCF778FD83460091012200
:103DA00030463946FCF7E0FD194A1A4BFCF792FB06
:103DB00006460F46012240462946FCF7D5FD5A46E5
:103DC000009BFCF78AFB32463B46FCF780FB06462D
:103DD0000F46012250462946FCF7C6FD0E4DDFF87E
:103DE00058802A464346FCF775FB32463B46FCF7B3
:103DF00071FB2A464346FCF76DFB002CD8BF81F0CF
:103E0000004106B0BDE8F08D0000F03F0000F07FFB
:103E1000075C143326A6913C182D4454FB21F93F2E
:103E20000000E03F743700008A370000FE360000D3
:103E3000143700003333EF3FFB21E93F2DE9F84F02
:103E400004460D4621F0004000917349814211DC87
:103E50007249884201DC06D12CB120462946BDE8D2
:103E6000F84FFFF7A0BD6E48002DCCBF6D496E49DD
:103E7000BDE8F88F6D49814211DD6D498142D8BF9F
:103E80004FF0FF366DDD20462946FFF713FD04286D
:103E900008BFFFF793FD20462946BDE8F88F654926
:103EA000654F25F00045814233DD6449814219DDCB
:103EB000002632464FF0804320462946FCF766FA3A
:103EC00080468A46012220462946FCF74DFD002205
:103ED0003B46FCF7FCFA42465346FCF7D6FC044648
:103EE0000D463EE001260022BA463B4620462946C2
:103EF000FCF74CFA80460F460022534620462946DE
:103F0000FCF7E5FA42463B46FCF7BFFC04460D468B
:103F100027E04B4981421BDDDFF828A10226002261
:103F2000534620462946FCF7D8FA00223B46FCF7C8
:103F30002DFA80460F460022534620462946FCF7BC
:103F4000C6FA42463B46FCF7A0FC04460D4608E094
:103F5000032622462B4600203B49FCF796FC0446EC
:103F60000D4622462B4610461946FCF7B6FA8B46FC
:103F7000824602460B46FCF7B0FA07460246334833
:103F800088460B4606217844FFF7B8FC52465B464C
:103F9000FCF7A3FA82462E488B463A464346052153
:103FA0007844FFF7ABFC3A464346FCF796FA0246E4
:103FB0000B46002E504659460CDAFCF7E7F922462C
:103FC0002B46FCF78AFA01B022462B46BDE8F04F9B
:103FD000FCF780BAFCF7DAF922462B46FCF77DFAAB
:103FE0001C4A7A4402EBC603D3E90023FCF76FFABC
:103FF00022462B46FCF76BFA174A7A4402EBC603BB
:10400000D3E90023FCF766FA009A002AB8BF81F0D2
:104010000041BDE8F88F0000000010440000F07F70
:10402000182D4454FB21F93FFB21F9BF0000DC3F70
:104030000000203E0000F33F0000F03F0000E63F9C
:10404000008003400000F83F0000F0BF163500007C
:10405000D4340000723400003A3400002DE9F04DF1
:104060009446CCF1000423F000464CEA0404524F7D
:1040700046EAD4749A46884621F00042BC4206D8EB
:10408000454240EA050442EAD474BC4204D9BDE882
:10409000F04D6246FFF78ABCAAF14055A5F17F6555
:1040A00055EA0C040BD0022404EAAA74434DDFF84D
:1040B00010E144EAD87452EA000B04D00CE0BDE8E9
:1040C000F04DFFF7BBBE002C14BF012CBDE8F08DF6
:1040D000022C30D0032C32D056EA0C0B0AD0BE4250
:1040E00020D1BA4209D126F0804622F080423346E0
:1040F000114617E000291ADB25E0DFF8C8B0FB44C1
:10410000002C04BFDBE90001BDE8F08D012C02BFEB
:10411000DBE9000181F00041BDE8F08D022C0AD0FE
:10412000032C0CD0BA4212D1B8F1000F0BDA23489D
:104130002549BDE8F08D28462449BDE8F08D284684
:104140007146BDE8F08D1D482149BDE8F08D921BF8
:1041500012153C2AC4BF19481D490EDCBAF1000FE4
:10416000BEBF12F13C0F0020014606DB6246FCF7A1
:104170008CFB21F00041FFF761FE002C08BFBDE879
:10418000F08D012C04BF81F00041BDE8F08D114A93
:10419000114B022C07D0FCF79AF92A46BDE8F04DE6
:1041A0000A4BFCF794B9FCF792F92A46BDE8F04DAA
:1041B000064BFCF78FB900000000F07F182D445427
:1041C000FB2109C0CE330000FB21F9BFFB210940D0
:1041D000FB21F93F075C143326A6A13C08B560B16A
:1041E00020208DF8000028208DF8010030208DF867
:1041F000020038208DF8030004E0A3220421684661
:10420000FBF7D1FF6A46042140F69E2001F09AFD9B
:1042100001F060FA08BD00003EB5044602208DF8AA
:104220000000CA208DF80100E3208DF8020009206B
:104230008DF803006A460421682001F083FDA32065
:104240008DF80000610609D5C0218DF80110C82144
:104250008DF80210C2218DF8031005E08DF80100E1
:104260008DF802008DF8030014F4C07F09D0C4213A
:104270008DF80410CC218DF80510C6218DF806109C
:1042800005E08DF804008DF805008DF806008DF826
:1042900008008DF807008DF809006A460A2140F6EB
:1042A000A72001F04FFDA0074FF0D80503D0202034
:1042B0008DF8000001E08DF800506A46012140F6BB
:1042C000B62001F03FFDA00601D5012000E000204E
:1042D00000F08EF814F4C07F1ED0E0050AD5B2209D
:1042E0008DF800008B208DF80100B6208DF80200BB
:1042F0009B2009E0B0208DF8000080208DF801009F
:10430000B4208DF8020090208DF803006A46042145
:1043100040F6A22001F016FDE1074FF40B6022D019
:10432000F8218DF800106A46012101F00BFDFA21F9
:10433000072000F039FB072000F004FB012000F00B
:1043400021FB642000F0C4FB4FF4FA7000F0D0FBB6
:10435000C821254800F0BEFA282000F0D3FA0A2030
:1043600000F0E0FA05E08DF800506A46012101F006
:10437000E9FCA00703D5D9208DF8000001E08DF8F5
:1043800000506A46012140F23D7001F0DBFC6007FD
:1043900001D5012000E0002000F048F8E00601D53A
:1043A000012000E00020FFF719FF104D44F0080045
:1043B000688101F08FF90020A873600601D50620FE
:1043C000A87314F4C07F02D0A87B801DA87314F0DA
:1043D000140F02D0A87B1030A873A00702D0A87BCE
:1043E000001DA87300203EBD09E3CA028000002022
:1043F0000EB54FF4976310B106A107C901E008A2FA
:1044000007CA8DE807006A460921184601F09AFCA0
:104410000EBD0000B8AAB38DB4980D355D00000044
:10442000B8AAAAAAB088C3C5C700000008B560B181
:10443000C0208DF80000C2208DF80100C4208DF846
:104440000200C6208DF8030004E08B220421684698
:10445000FBF7A9FE6A46042140F6982001F072FCA1
:1044600001F038F908BD0000C8234FF4806202490A
:1044700040F6F63001F010B8D46700082DE9FF4F80
:1044800089B01746DDE9165200244C4E8846814615
:104490002C80A246B07B694601F0AAF84FF0FF3BA2
:1044A00018B158460DB0BDE8F08F708910F0140FA8
:1044B0003CD0009909BA21F0FF039DF803100B438B
:1044C0003B6001991B1409BA21F0FF029DF8071007
:1044D0005B430A437A6002999DF80B4009BA21F0C8
:1044E000FF012143B960039C091424BA24F0FF0C96
:1044F0009DF80F4012144CEA040CC7F80CC04FEAA8
:104500002C47494302FB023207FB071111441024D8
:10451000A1F17061B1F1007F04D901F0DBF8A5F8D9
:1045200000A0BEE7298841F48071298042066946CF
:1045300011D50A19A41D13885BBAA8F80030538856
:104540005BBAA8F80230928852BAA8F804202A88E8
:1045500042F008022A8010F4C07F11D00A19A41D6D
:1045600013885BBAA9F8003053885BBAA9F8023007
:10457000928852BAA9F804202A8842F070022A8050
:10458000800716D00C44E07800F0C00500F03F0131
:104590006078C00706D0C80801F007013268491CDE
:1045A00002B190476078000703D5716809B1A80986
:1045B00088470C9801F0F0FB002073E78000002092
:1045C0002DE9FF41044603A800F01CFEBDF80C00D5
:1045D000410CC3032F48028902F00300550754F829
:1045E000200000D54042C2F3C105960654F825507C
:1045F00000D56D42C2F38116D20554F8264000D58D
:104600006442A0FB0367C21702FB037200FB012098
:10461000820042EA9670A5FB0367EA1702FB037269
:1046200005FB0122950045EA9672A4FB0367E51796
:1046300005FB037304FB01318B0043EA9671030E03
:104640008DF80030030C8DF80130030A8DF802302C
:104650008DF80300100E8DF80400100C8DF8050085
:10466000100A8DF80600080E8DF80800080C8DF869
:104670000900080A8DF80A008DF807208DF80B1044
:104680006A460C214FF4257001F05CFB04B0BDE8D4
:10469000F08100008000002030B5044613A285B0F0
:1046A00007CA8DE807004FF0FF35C82C16D8C82080
:1046B000B0FBF4F1491E080A8DF80C008DF80D10BE
:1046C00003AA022140F2162001F03CFB30B96A46F1
:1046D0000C2140F6C12001F035FB10B1284605B091
:1046E00030BD054884810020F9E70000FEF2ABC42C
:1046F000AAF1DFDFBBAFDFDF80000020F8B5304973
:10470000098901F0030250F822404A0700D56442AB
:10471000C1F3C1028B0650F8222000D55242C1F3EA
:10472000811350F82330C80500D55B42254984FB2E
:104730000140850045EA947082FB0142A40F44EADF
:10474000820483FB0121950F45EA8105010E8DF856
:104750000010010C8DF80110010A8DF802108DF87F
:1047600003006A4604214FF4747001F0EBFA4FF035
:10477000FF3688B9200E8DF80000200C8DF801005E
:10478000200A8DF802008DF803406A4604214FF498
:10479000757001F0D7FA08B13046F8BD280E8DF8D3
:1047A0000000280C8DF80100280A8DF802008DF811
:1047B00003506A4604214FF4767001F0C3FAF8BD45
:1047C0008000002009E3CA022DE9FF4104463CA015
:1047D00004F00303006802903AA0006803903AA036
:1047E00006683AA0056802A8C15C8DF80010C4F301
:1047F000C101425C8DF80120C4F38112805C8DF808
:10480000020003A8C35C8DF80430415C8DF80510EC
:10481000805C8DF806006A46032140F2264001F0D4
:1048200091FA4FF0FF37E0BB01AA032140F22A4082
:1048300001F088FAA8BBCDE9006560070BD59DF8AB
:10484000000040F001008DF800009DF8040040F0E9
:1048500001008DF80400A0060BD59DF8010040F082
:1048600001008DF801009DF8050040F001008DF871
:104870000500E0050BD59DF8020040F001008DF821
:1048800002009DF8060040F001008DF806006A461F
:1048900003214FF4886001F055FA10B901AA0321F1
:1048A00000E004E040F2314001F04CFA18B1384623
:1048B00004B0BDE8F081064804810020F8E700005C
:1048C0004CCD6C000CC92C0036567600264666008E
:1048D000800000204FF47A7290FBF2F008B5484354
:1048E000010E8DF80010010C8DF80110010A8DF8F1
:1048F00002108DF803006A4604214FF4AE7001F0F7
:1049000021FA08BD0521B0FBF1F008B5010A8DF8C8
:1049100000108DF801006A4602214FF4AD7001F0DD
:1049200011FA08BD0521B0FBF1F008B5010A8DF8B8
:1049300000108DF801006A4602214FF4AC7001F0BE
:1049400001FA08BD08B500218DF80010C10702D09A
:1049500030218DF80010810705D59DF8001041F039
:104960000C018DF80010400705D59DF8000040F0BF
:1049700003008DF800006A4601214FF4A47001F095
:10498000E1F908BD08B560B1042800D90420401E33
:104990008DF800006A46012140F24F1001F0D2F973
:1049A00008BD0120F3E700002DE9FC410546400762
:1049B0004FF0FF367CD0B1F5C86F79D80846FBF7C9
:1049C00007FE3E49FBF798FC074601A800F0FCFBF8
:1049D0009DF80400022806D004280DD008282ED007
:1049E000102865D134E00E213846FBF7C3FCFBF7F5
:1049F0000DFE84B2324907E00D213846FBF7BAFCC0
:104A0000FBF704FE2F4984B23846FBF743FCFBF763
:104A1000FDFD210A8DF8001080B28DF80140010AD9
:104A20008DF802108DF80300E8076C4620D022466E
:104A300002214FF4EA7001F085F9C8BB11E00C21A6
:104A40003846FBF797FCFBF7E1FD84B21E49DBE734
:104A50000B213846FBF78EFCFBF7D8FD84B21B49CF
:104A6000D2E7A21C02214FF4927001F06BF9F8B961
:104A7000A8070DD56A4602214FF4EC7001F062F9E7
:104A8000B0B9A21C02214FF4947001F05BF978B91F
:104A9000680710D56A4602214FF4EE7001F052F912
:104AA00030B9A21C02214FF4967001F04BF910B1FD
:104AB0003046BDE8FC810020FBE7000000004843D1
:104AC000000040460000C045000040450000C044D2
:104AD0000521B0FBF1F008B5010A8DF800108DF842
:104AE00001006A4602214FF4EF7001F02BF908BD76
:104AF0000521B0FBF1F008B5010A8DF800108DF822
:104B000001006A4602214FF4ED7001F01BF908BD67
:104B100013B54FF6FF73012269460248FDF720FDE9
:104B200000981CBD040200202DE9FE4306462648DD
:104B300001AB042240680D21007800F03FFA10B16B
:104B40000720BDE8FE839DF804101C2000EAD10276
:104B50009DF80710DFF87490C1F301131A438DF824
:104B600000209DF80520C1F3810300EAD2021A4318
:104B70008DF801209DF8062001F0030100EAD20023
:104B800008430024124F8DF80200A0466D46285DB0
:104B900010B146F824900AE046F824800DE000BFEA
:104BA00056F824003946FBF775FB46F82400285DCB
:104BB000401E10F0FF002855F2D1641CE4B2032C13
:104BC000E5D30020BDE70000000000207B14AE3ECE
:104BD0001D5A843F2DE9FE4F05460120C14E8DF838
:104BE00000004FF000088DF8018030680C46174631
:104BF000817C70686B460222007800F0EFF94FF07C
:104C0000FF3A00287AD1C820FCF7A0F88DF8008080
:104C100030686B460122C17B7068007800F0DEF9D5
:104C20000028EFD130686B46012241797068007826
:104C300000F0D4F90028E5D130686B460122817C70
:104C40007068007800F0CAF90028DBD130686B4644
:104C50000122C17D7068007800F0C0F90028D1D130
:104C600030686B46012201797068007800F0B6F96F
:104C70000028C7D14FF00C098DF8009030686B46C2
:104C8000012201797068007800F0A8F9002835D178
:104C90000F20FCF75BF8B06A6B460122407A8DF872
:104CA0000000306881787068007800F097F900287B
:104CB00024D1B06A6B460122007A8DF8000030687A
:104CC00041787068007800F089F9002873D1B06AE3
:104CD000807A0FB140F0E0008DF8000030686B463C
:104CE000012281797068007800F078F9002862D19B
:104CF0002FB1B06AC07A40F0E00001E04AE018202D
:104D00008DF8000030686B460122C1797068007828
:104D100000F064F9F0BB17B1C820FCF717F8402089
:104D20008DF8000030686B460122017970680078C8
:104D300000F054F970BB78208DF8000030686B46A5
:104D4000012241797068007800F048F910BB3220E8
:104D5000FBF7FCFF8DF80080306847466B464179D1
:104D600070680122007800F039F998B931687068EC
:104D7000B046897A00786B46022200F01FF948B9E4
:104D8000BDF80000AF6040BAB0FBF9F06F60C6B28A
:104D90002F6000E00FE0A76067602760002739E020
:104DA000D8F80010D8F804006B46C97A00780C22B5
:104DB00000F004F910B15046BDE8FE8FBDF80000C8
:104DC000236840BA02B2BDF80200BDF804101A44CC
:104DD000226040BA626800B21044606049BAA068BC
:104DE00009B20844A060BDF806002B6840BA02B2C0
:104DF000BDF808001A4440BA01B2BDF80A002A60A2
:104E00006A6840BA11446960A96800B208447F1C0E
:104E1000FFB2A860B742C3D328688322C117090430
:104E200041EA104100040023FBF77CF932460023DD
:104E3000FBF778F9286068688322C117090441EA02
:104E4000104100040023FBF76DF932460023FBF705
:104E500069F96860A8688322C117090441EA104112
:104E600000040023FBF75EF932460023FBF75AF9F2
:104E7000A86020684FF40065C117090441EA104199
:104E800000042A460023FBF74DF932460023FBF7C6
:104E900049F9206060682A46C117090441EA1041B7
:104EA00000040023FBF73EF932460023FBF73AF9F2
:104EB0006060A0682A46C117090441EA1041000455
:104EC0000023FBF72FF932460023FBF72BF9A060F4
:104ED000002802DDA0F5803001E000F58030A06000
:104EE000002069E7000000202DE9F84F81462E4898
:104EF0008846002540686B46032200780D2100F0AB
:104F00005DF810B10720BDE8F88F9DF8000000247F
:104F100000F01F008DF800009DF801006FF00F0BEE
:104F200000F01F008DF801009DF802006E4600F0B1
:104F30001F008DF802004FF0010A00BF59F824103D
:104F400058F82400081A00D54042FBF738FB5946B0
:104F5000FBF710FA0746305DC0B1144802E014496F
:104F6000FBF798F9315D491E11F0FF013155F6D17B
:104F700001463846FBF7C0F94FF07E51FBF784F944
:104F80000C4920F00040884205DC07E00A4838441C
:104F9000B0F1D97F02D90AFA04F00543641C032C4E
:104FA000CCDB2846AFE70000000000200000C8412D
:104FB00054E3853F295C0F3E0000E0BE3EB540F65D
:104FC000FF74CDE900320A460146029401230248EB
:104FD000FCF7B2F800203EBD900000203EB540F640
:104FE000FF74CDE900320A460146029401230248CB
:104FF000FCF7CAF900203EBD9000002090F9001097
:10500000002902DD4FF00000704702DA4FF0040083
:10501000704790F90110002902DD4FF00100704740
:1050200002DA4FF00500704790F90200002802DD17
:105030004FF00200704702DA4FF0060070474FF061
:105040000700704708B5FCF76FFAFEF7A0F9FDF707
:105050000BFEFDF787FEFDF7BBFEFDF7EDFEFDF74E
:105060005FFFFDF75FFEFDF727FFFDF791FFC8200B
:10507000FBF76CFEFDF7B6FDFBF7F2FC2248FCF7F0
:10508000FBFDFDF76BFF0021102320A20846FEF771
:1050900060F810231FA202210020FEF75AF8102307
:1050A0001EA204210020FEF754F800224FF4804194
:1050B0001C48FBF772FF1C4D28780028FCD01B48C9
:1050C0000068FBF7A3FA02461024042300212820DD
:1050D0000094FEF709F816480068FBF797FA0246B5
:1050E0000423022128200094FDF7FEFF11480068E8
:1050F000FBF78CFA02460423194628200094FDF79A
:10510000F3FF00202870D7E7BC010020526F6C6CC1
:105110003A00000050697463683A00005961773AB8
:105120000000000000100140620000204400002048
:1051300040000020480000203EB500231C466D467C
:10514000EC545B1CDBB20C2BFAD3030A8DF8003055
:105150008DF80100080A8DF80200100A8DF804008D
:105160008DF803108DF805200C222946012000F04F
:10517000C1FE3EBD2DE9F041124C20F00101002599
:1051800094F8240010B10020BDE8F081A07A4FF01F
:10519000FF3668B10840277C2074884200D035462D
:1051A00041B1012000F054FE00F094FA38B12774A8
:1051B0003046E9E7207D00B1012000F049FE284695
:1051C000E2E70000000000200D494A7A42B1012ABE
:1051D00008D0022A0FD0032A0FD04FF0FF307047BB
:1051E000022200E004220270C97C11B11106C90D2F
:1051F0000170002070470822F5E71022F3E7000055
:10520000000000200F494A7A42B1012A09D0022A3F
:1052100011D0032A12D04FF0FF3070474FF4804274
:1052200001E041F69C720280C97C11B1C2F34E01CB
:105230000180002070474FF48052F4E74FF4006281
:10524000F1E70000000000200B49097A39B101297B
:1052500007D002290AD003290BD0002103E0FA214C
:1052600001E04FF4FA710180002070474FF47A7129
:10527000F9E74FF4FA61F6E7000000200A49097ADD
:1052800041B1012908D002290AD003290AD04FF0E0
:10529000FF307047054900E0054901600020704774
:1052A0000449FAE70449F8E700000020000003433E
:1052B0000000834233330342333383410C49C97ABC
:1052C000072913D2DFE801F01204060A0C0E1000C1
:1052D000BC2100E062210180002070472A21FAE70A
:1052E0001421F8E70A21F6E70521F4E70021F2E7A7
:1052F00000000020054991F8242012B14FF0FF3042
:105300007047C9890180002070470000000000201C
:105310002DE9FC414C4C80208DF8000020686B4644
:105320000122817C60680078FFF758FE4FF0FF375C
:10533000002832D16420FBF709FD00258DF80050CC
:1053400020686B460122817C60680078FFF746FE8A
:10535000002870D120686B460622817D6068007845
:10536000FFF72CFE002866D19DF805009DF803107C
:10537000C007400F01F0010140EA41019DF8010022
:105380004FF0010600F00100014309D0012905D0CA
:10539000022915D02DA0FEF77DFA4CE0E67410E04E
:1053A00020686B460122C17860680078FFF706FE2E
:1053B00040BB9DF8000010F00F0020D0042822D040
:1053C000E574FF2004F80A0F4FF6FF7104F8020C91
:1053D00004F8010C6070A180A0712072A67026767E
:1053E0006576E572A572E56025616561A576E5766D
:1053F000A5834FF4FA6000F06BFB18B907E01D4875
:10540000FEF748FA17E01CA0FEF744FAC6E70220B0
:1054100000F080FA78B92A2000F0C2FB58B9322097
:1054200000F0F4FB38B90020FFF7A4FE18B9002003
:1054300000F0A4FA10B13846BDE8FC81002000F06D
:1054400025FC0020F8E7000000000020556E737571
:1054500070706F7274656420736F667477617265C3
:105460002070726F64756374207265762025642ED7
:105470000A000000D874000848616C662073656EED
:105480007369746976697479207061727420666FCB
:10549000756E642E0D0A00002DE9FF4FDFF8948031
:1054A000064685B098F8250015460F464FF0FF399F
:1054B000B0BBAFB3002420E0301B102800DD10206B
:1054C00080B283463A1901469246204600F03AFCE3
:1054D00030BB6A465946204600F0D2F800BB504621
:1054E0005A466946FAF771FE20B16FF0010009B023
:1054F000BDE8F08F04EB0B0084B2B442DCD3280A81
:105500008DF810008DF81150D8F80000444604AB17
:10551000817ED8F8040002220078FFF75FFD08B111
:105520004846E4E7012084F825000898E08400203C
:10553000DDE70000000000202DE9F84305464FF0AC
:10554000FF39282844D80727284C00267DB10120A0
:1055500000F0F4FA20208DF800004FF00108012D32
:1055600017D0052D18D88DF8018005201FE00020E8
:1055700000F0E4FA8DF800608DF8017020686B4649
:105580000222817C60680078FFF728FD00BB267549
:1055900029E08DF80160E8E7142D04D802208DF889
:1055A00001000A2003E003208DF80100142000F020
:1055B000F7FA9DF801006B4607EB80108DF80100AB
:1055C00020680222817C60680078FFF707FD10B137
:1055D0004846BDE8F8830820A072267384F814803A
:1055E0000020FFF7C7FD0020F3E7000000000020C7
:1055F0002DE9F843214C0646174694F824008946C5
:105600004FF0FF3890B3A07A80B320686B46022237
:10561000817A60680078FFF7D1FC38BBBDF80000E4
:1056200045BAB54202D2002038701FE06068418858
:10563000B5EB510F11D9216800786B46497C0122E6
:10564000FFF7BCFC90B99DF80000C00605D500F03E
:1056500041F86FF00100BDE8F8832068F2B24B46D4
:10566000C17A60680078FFF7A9FC08B14046F2E70C
:10567000B5FBF6F0401E38700020ECE7000000207B
:10568000F8B516000D464FF0FF371FD0104CA17A29
:10569000E1B1010A8DF80010C0B28DF80100411986
:1056A00060684289914211D8216800786B46097E72
:1056B0000222FFF793FC48B92068EAB23346417DE5
:1056C00060680078FFF77AFC002800D03846F8BD03
:1056D00000000020F8B5524C4FF0FF36A07A0028A9
:1056E0007CD000258DF8005020686B460122C17BDC
:1056F00060680078FFF772FC00286FD120686B4665
:105700000122417960680078FFF768FC002865D1C4
:1057100020686B460122017960680078FFF75EFC23
:1057200000287AD194F82400C8B30C208DF800002A
:1057300020686B460122017960680078FFF74EFC13
:1057400000286AD1C0208DF80000A07AC00702D0DE
:10575000E0208DF8000020686B4601220179606826
:105760000078FFF73BFC002857D1607C18B102207D
:105770008DF8000001E08DF8005020686B46012292
:10578000C17B60680078FFF729FC38BB8DF80050BA
:1057900020686B46012241796068007839E0FFE7B4
:1057A00004208DF8000020686B46012201796068B2
:1057B0000078FFF713FC88B9A07C80B9A07AC007F5
:1057C0000DD060208DF8000020686B460122017921
:1057D00060680078FFF702FC00B902E01DE040209D
:1057E000F0E7607C18B101208DF8000001E08DF831
:1057F000005020686B460122C17B60680078FFF78B
:10580000EDFB50B92068064B0122417960681033E6
:105810000078FFF7E3FB002800D03046F8BD000019
:10582000000000202DE9F047394C82468AB094F8F8
:1058300024000F4620B1002000F00EF9012600E000
:10584000002607A8FFF700FD06A8FFF7BDFC09A882
:10585000FFF734FD08A8FFF74DFD94F80A9094F87F
:1058600010800025002239465046FFF7B3F910B1E9
:105870006D1C022DF6DB022D1AD00025012203A992
:105880006846FFF7A7F910B16D1C022DF6DB022D5B
:105890000ED003A93846FEF759F9C7B269465046FB
:1058A000FFF722FB10F0FF0F4FF0000502D002E0DF
:1058B000002503E001250FB945F00205FF20207205
:1058C0006072E0724FF6FF71E181A07220740120D6
:1058D0002073BDF81C0000F0FBF89DF8180000F0E4
:1058E00019F8BDF8240000F05BF9BDF8200000F0C5
:1058F0008DF9484600F0CAF94046FFF73BFC16B167
:10590000012000F0A9F80AB02846BDE8F0870000A1
:105910000000002038B5184C4FF0FF35A17A19B3BC
:10592000022806D0042806D008280ED010281BD143
:105930000DE0002000E008208DF80000607A9DF85E
:105940000010B0EBD10F04D005E01020F4E71820D0
:10595000F2E7002038BD20686B460122C1796068FB
:105960000078FFF73BFB08B1284638BD9DF80000E2
:10597000C0086072EDE7000000000020F8B5354C6B
:105980000546A07CA84201D10020F8BD31484FF067
:10599000FF366B46D0E900104FF00102097900781C
:1059A00035B3FFF70BFB70BB9DF800006B4620F092
:1059B00020008DF8000020680122017960680078DD
:1059C000FFF70CFBF8B90320FBF7C0F902208DF8B4
:1059D000000094F8220078B382202BE020686B4608
:1059E0000122017D60680078FFF7F8FA58B92EE0CF
:1059F000FFF7E4FA38B9A07AC0079DF8000003D099
:105A000040F0200002E00CE020F020008DF80000C3
:105A100020686B460122017960680078FFF7DEFAA2
:105A200008B13046F8BD0320FBF790F994F8220046
:105A300000B180208DF8000094F823000028CDD01C
:105A40009DF8000040F030008DF80000C6E7A57416
:105A50009AE700000000002038B51C4C94F8241090
:105A600081421DD0002500B394F82500D0B100205C
:105A700000F0EEF90020FFF781FFE08C00F0C6F89F
:105A80008DF8005060686B46012200782321FFF7F3
:105A9000A5FA012084F8240000F0DAF9FFF71AFED5
:105AA000002038BD4FF0FF3038BD002000F0D0F9A5
:105AB000207C8DF8000060686B460122007823216D
:105AC000FFF78CFA84F82450E8E70000000000207B
:105AD00038B5194C4FF0FF35A17A31B3FA2809D007
